{
	"src/contract/karna.sol": {
		"Karna": {
			"abi": [
				{
					"inputs": [],
					"stateMutability": "nonpayable",
					"type": "constructor"
				},
				{
					"anonymous": false,
					"inputs": [
						{
							"indexed": false,
							"internalType": "uint256",
							"name": "id",
							"type": "uint256"
						},
						{
							"indexed": false,
							"internalType": "address",
							"name": "campaign",
							"type": "address"
						}
					],
					"name": "CampaignCreated",
					"type": "event"
				},
				{
					"anonymous": false,
					"inputs": [
						{
							"indexed": false,
							"internalType": "uint256",
							"name": "id",
							"type": "uint256"
						}
					],
					"name": "DirectRequestFullfilled",
					"type": "event"
				},
				{
					"anonymous": false,
					"inputs": [
						{
							"indexed": false,
							"internalType": "address",
							"name": "member",
							"type": "address"
						}
					],
					"name": "MemberAdded",
					"type": "event"
				},
				{
					"anonymous": false,
					"inputs": [
						{
							"indexed": false,
							"internalType": "address",
							"name": "member",
							"type": "address"
						}
					],
					"name": "MemberRemoved",
					"type": "event"
				},
				{
					"anonymous": false,
					"inputs": [
						{
							"indexed": false,
							"internalType": "uint256",
							"name": "id",
							"type": "uint256"
						}
					],
					"name": "ProposalCreated",
					"type": "event"
				},
				{
					"anonymous": false,
					"inputs": [
						{
							"indexed": false,
							"internalType": "address",
							"name": "member",
							"type": "address"
						}
					],
					"name": "ProposalVoted",
					"type": "event"
				},
				{
					"inputs": [
						{
							"internalType": "address",
							"name": "member",
							"type": "address"
						}
					],
					"name": "addMember",
					"outputs": [],
					"stateMutability": "nonpayable",
					"type": "function"
				},
				{
					"inputs": [
						{
							"internalType": "uint256",
							"name": "",
							"type": "uint256"
						}
					],
					"name": "campaigns",
					"outputs": [
						{
							"internalType": "contract Campaign",
							"name": "",
							"type": "address"
						}
					],
					"stateMutability": "view",
					"type": "function"
				},
				{
					"inputs": [
						{
							"internalType": "string",
							"name": "_name",
							"type": "string"
						},
						{
							"internalType": "uint256",
							"name": "_amount",
							"type": "uint256"
						}
					],
					"name": "createCampaignProposal",
					"outputs": [
						{
							"internalType": "uint256",
							"name": "",
							"type": "uint256"
						}
					],
					"stateMutability": "nonpayable",
					"type": "function"
				},
				{
					"inputs": [
						{
							"internalType": "string",
							"name": "_name",
							"type": "string"
						},
						{
							"internalType": "uint256",
							"name": "_amount",
							"type": "uint256"
						}
					],
					"name": "createRequestProposal",
					"outputs": [
						{
							"internalType": "uint256",
							"name": "",
							"type": "uint256"
						}
					],
					"stateMutability": "nonpayable",
					"type": "function"
				},
				{
					"inputs": [
						{
							"internalType": "address",
							"name": "member",
							"type": "address"
						}
					],
					"name": "isDaoMember",
					"outputs": [
						{
							"internalType": "bool",
							"name": "",
							"type": "bool"
						}
					],
					"stateMutability": "view",
					"type": "function"
				},
				{
					"inputs": [
						{
							"internalType": "uint256",
							"name": "",
							"type": "uint256"
						}
					],
					"name": "members",
					"outputs": [
						{
							"internalType": "address",
							"name": "",
							"type": "address"
						}
					],
					"stateMutability": "view",
					"type": "function"
				},
				{
					"inputs": [
						{
							"internalType": "uint256",
							"name": "",
							"type": "uint256"
						}
					],
					"name": "proposals",
					"outputs": [
						{
							"internalType": "string",
							"name": "name",
							"type": "string"
						},
						{
							"internalType": "address",
							"name": "proposer",
							"type": "address"
						},
						{
							"internalType": "uint256",
							"name": "amount",
							"type": "uint256"
						},
						{
							"internalType": "bool",
							"name": "executed",
							"type": "bool"
						},
						{
							"internalType": "enum Karna.ProposalType",
							"name": "proposalType",
							"type": "uint8"
						}
					],
					"stateMutability": "view",
					"type": "function"
				},
				{
					"inputs": [
						{
							"internalType": "address",
							"name": "member",
							"type": "address"
						}
					],
					"name": "removeMember",
					"outputs": [],
					"stateMutability": "nonpayable",
					"type": "function"
				},
				{
					"inputs": [],
					"name": "sendMoneyToContract",
					"outputs": [
						{
							"internalType": "uint256",
							"name": "",
							"type": "uint256"
						}
					],
					"stateMutability": "payable",
					"type": "function"
				},
				{
					"inputs": [],
					"name": "totalCampaigns",
					"outputs": [
						{
							"internalType": "uint256",
							"name": "",
							"type": "uint256"
						}
					],
					"stateMutability": "view",
					"type": "function"
				},
				{
					"inputs": [],
					"name": "totalProposals",
					"outputs": [
						{
							"internalType": "uint256",
							"name": "",
							"type": "uint256"
						}
					],
					"stateMutability": "view",
					"type": "function"
				},
				{
					"inputs": [
						{
							"internalType": "uint256",
							"name": "proposalId",
							"type": "uint256"
						}
					],
					"name": "vote",
					"outputs": [],
					"stateMutability": "nonpayable",
					"type": "function"
				}
			],
			"devdoc": {
				"kind": "dev",
				"methods": {},
				"version": 1
			},
			"evm": {
				"assembly": "    /* \"src/contract/karna.sol\":1497:7480  contract Karna {... */\n  mstore(0x40, 0x80)\n    /* \"src/contract/karna.sol\":1911:1912  0 */\n  0x00\n    /* \"src/contract/karna.sol\":1890:1912  uint proposalCount = 0 */\n  0x02\n  sstore\n    /* \"src/contract/karna.sol\":1989:1990  0 */\n  0x00\n    /* \"src/contract/karna.sol\":1968:1990  uint campaignCount = 0 */\n  0x04\n  sstore\n    /* \"src/contract/karna.sol\":2264:2321  constructor() {... */\n  callvalue\n  dup1\n  iszero\n  tag_1\n  jumpi\n  0x00\n  dup1\n  revert\ntag_1:\n  pop\n    /* \"src/contract/karna.sol\":2289:2296  members */\n  0x00\n    /* \"src/contract/karna.sol\":2302:2312  msg.sender */\n  caller\n    /* \"src/contract/karna.sol\":2289:2313  members.push(msg.sender) */\n  swap1\n  dup1\n  0x01\n  dup2\n  sload\n  add\n  dup1\n  dup3\n  sstore\n  dup1\n  swap2\n  pop\n  pop\n  0x01\n  swap1\n  sub\n  swap1\n  0x00\n  mstore\n  keccak256(0x00, 0x20)\n  add\n  0x00\n  swap1\n  swap2\n  swap1\n  swap2\n  swap1\n  swap2\n  0x0100\n  exp\n  dup2\n  sload\n  dup2\n  0xffffffffffffffffffffffffffffffffffffffff\n  mul\n  not\n  and\n  swap1\n  dup4\n  0xffffffffffffffffffffffffffffffffffffffff\n  and\n  mul\n  or\n  swap1\n  sstore\n  pop\n    /* \"src/contract/karna.sol\":1497:7480  contract Karna {... */\n  dataSize(sub_0)\n  dup1\n  dataOffset(sub_0)\n  0x00\n  codecopy\n  0x00\n  return\nstop\n\nsub_0: assembly {\n        /* \"src/contract/karna.sol\":1497:7480  contract Karna {... */\n      mstore(0x40, 0x80)\n      jumpi(tag_1, lt(calldatasize, 0x04))\n      shr(0xe0, calldataload(0x00))\n      dup1\n      0x5daf08ca\n      gt\n      tag_14\n      jumpi\n      dup1\n      0x5daf08ca\n      eq\n      tag_8\n      jumpi\n      dup1\n      0x774b1f54\n      eq\n      tag_9\n      jumpi\n      dup1\n      0x8aecbc51\n      eq\n      tag_10\n      jumpi\n      dup1\n      0xa78d80fc\n      eq\n      tag_11\n      jumpi\n      dup1\n      0xac5c706c\n      eq\n      tag_12\n      jumpi\n      dup1\n      0xca6d56dc\n      eq\n      tag_13\n      jumpi\n      jump(tag_1)\n    tag_14:\n      dup1\n      0x0121b93f\n      eq\n      tag_2\n      jumpi\n      dup1\n      0x013cf08b\n      eq\n      tag_3\n      jumpi\n      dup1\n      0x02932f56\n      eq\n      tag_4\n      jumpi\n      dup1\n      0x0b1ca49a\n      eq\n      tag_5\n      jumpi\n      dup1\n      0x141961bc\n      eq\n      tag_6\n      jumpi\n      dup1\n      0x1c67211d\n      eq\n      tag_7\n      jumpi\n    tag_1:\n      0x00\n      dup1\n      revert\n        /* \"src/contract/karna.sol\":4954:6890  function vote(uint proposalId) public onlyMember {... */\n    tag_2:\n      callvalue\n      dup1\n      iszero\n      tag_15\n      jumpi\n      0x00\n      dup1\n      revert\n    tag_15:\n      pop\n      tag_16\n      0x04\n      dup1\n      calldatasize\n      sub\n      dup2\n      add\n      swap1\n      tag_17\n      swap2\n      swap1\n      tag_18\n      jump\t// in\n    tag_17:\n      tag_19\n      jump\t// in\n    tag_16:\n      stop\n        /* \"src/contract/karna.sol\":1841:1883  mapping(uint => Proposal) public proposals */\n    tag_3:\n      callvalue\n      dup1\n      iszero\n      tag_20\n      jumpi\n      0x00\n      dup1\n      revert\n    tag_20:\n      pop\n      tag_21\n      0x04\n      dup1\n      calldatasize\n      sub\n      dup2\n      add\n      swap1\n      tag_22\n      swap2\n      swap1\n      tag_18\n      jump\t// in\n    tag_22:\n      tag_23\n      jump\t// in\n    tag_21:\n      mload(0x40)\n      tag_24\n      swap6\n      swap5\n      swap4\n      swap3\n      swap2\n      swap1\n      tag_25\n      jump\t// in\n    tag_24:\n      mload(0x40)\n      dup1\n      swap2\n      sub\n      swap1\n      return\n        /* \"src/contract/karna.sol\":7213:7307  function totalCampaigns() public view returns(uint256) {... */\n    tag_4:\n      callvalue\n      dup1\n      iszero\n      tag_26\n      jumpi\n      0x00\n      dup1\n      revert\n    tag_26:\n      pop\n      tag_27\n      tag_28\n      jump\t// in\n    tag_27:\n      mload(0x40)\n      tag_29\n      swap2\n      swap1\n      tag_30\n      jump\t// in\n    tag_29:\n      mload(0x40)\n      dup1\n      swap2\n      sub\n      swap1\n      return\n        /* \"src/contract/karna.sol\":3176:3595  function removeMember(address member) public onlyMember {... */\n    tag_5:\n      callvalue\n      dup1\n      iszero\n      tag_31\n      jumpi\n      0x00\n      dup1\n      revert\n    tag_31:\n      pop\n      tag_32\n      0x04\n      dup1\n      calldatasize\n      sub\n      dup2\n      add\n      swap1\n      tag_33\n      swap2\n      swap1\n      tag_34\n      jump\t// in\n    tag_33:\n      tag_35\n      jump\t// in\n    tag_32:\n      stop\n        /* \"src/contract/karna.sol\":1919:1961  mapping(uint => Campaign) public campaigns */\n    tag_6:\n      callvalue\n      dup1\n      iszero\n      tag_36\n      jumpi\n      0x00\n      dup1\n      revert\n    tag_36:\n      pop\n      tag_37\n      0x04\n      dup1\n      calldatasize\n      sub\n      dup2\n      add\n      swap1\n      tag_38\n      swap2\n      swap1\n      tag_18\n      jump\t// in\n    tag_38:\n      tag_39\n      jump\t// in\n    tag_37:\n      mload(0x40)\n      tag_40\n      swap2\n      swap1\n      tag_41\n      jump\t// in\n    tag_40:\n      mload(0x40)\n      dup1\n      swap2\n      sub\n      swap1\n      return\n        /* \"src/contract/karna.sol\":2593:2837  function isDaoMember(address member) public view returns(bool) {... */\n    tag_7:\n      callvalue\n      dup1\n      iszero\n      tag_42\n      jumpi\n      0x00\n      dup1\n      revert\n    tag_42:\n      pop\n      tag_43\n      0x04\n      dup1\n      calldatasize\n      sub\n      dup2\n      add\n      swap1\n      tag_44\n      swap2\n      swap1\n      tag_34\n      jump\t// in\n    tag_44:\n      tag_45\n      jump\t// in\n    tag_43:\n      mload(0x40)\n      tag_46\n      swap2\n      swap1\n      tag_47\n      jump\t// in\n    tag_46:\n      mload(0x40)\n      dup1\n      swap2\n      sub\n      swap1\n      return\n        /* \"src/contract/karna.sol\":1810:1834  address[] public members */\n    tag_8:\n      callvalue\n      dup1\n      iszero\n      tag_48\n      jumpi\n      0x00\n      dup1\n      revert\n    tag_48:\n      pop\n      tag_49\n      0x04\n      dup1\n      calldatasize\n      sub\n      dup2\n      add\n      swap1\n      tag_50\n      swap2\n      swap1\n      tag_18\n      jump\t// in\n    tag_50:\n      tag_51\n      jump\t// in\n    tag_49:\n      mload(0x40)\n      tag_52\n      swap2\n      swap1\n      tag_53\n      jump\t// in\n    tag_52:\n      mload(0x40)\n      dup1\n      swap2\n      sub\n      swap1\n      return\n        /* \"src/contract/karna.sol\":3654:4189  function createCampaignProposal(string memory _name, uint256 _amount) public returns(uint256) {... */\n    tag_9:\n      callvalue\n      dup1\n      iszero\n      tag_54\n      jumpi\n      0x00\n      dup1\n      revert\n    tag_54:\n      pop\n      tag_55\n      0x04\n      dup1\n      calldatasize\n      sub\n      dup2\n      add\n      swap1\n      tag_56\n      swap2\n      swap1\n      tag_57\n      jump\t// in\n    tag_56:\n      tag_58\n      jump\t// in\n    tag_55:\n      mload(0x40)\n      tag_59\n      swap2\n      swap1\n      tag_30\n      jump\t// in\n    tag_59:\n      mload(0x40)\n      dup1\n      swap2\n      sub\n      swap1\n      return\n        /* \"src/contract/karna.sol\":6956:7143  function sendMoneyToContract() public payable returns (uint256) ... */\n    tag_10:\n      tag_60\n      tag_61\n      jump\t// in\n    tag_60:\n      mload(0x40)\n      tag_62\n      swap2\n      swap1\n      tag_30\n      jump\t// in\n    tag_62:\n      mload(0x40)\n      dup1\n      swap2\n      sub\n      swap1\n      return\n        /* \"src/contract/karna.sol\":7377:7471  function totalProposals() public view returns(uint256) {... */\n    tag_11:\n      callvalue\n      dup1\n      iszero\n      tag_63\n      jumpi\n      0x00\n      dup1\n      revert\n    tag_63:\n      pop\n      tag_64\n      tag_65\n      jump\t// in\n    tag_64:\n      mload(0x40)\n      tag_66\n      swap2\n      swap1\n      tag_30\n      jump\t// in\n    tag_66:\n      mload(0x40)\n      dup1\n      swap2\n      sub\n      swap1\n      return\n        /* \"src/contract/karna.sol\":4247:4891  function createRequestProposal(string memory _name, uint256 _amount) public returns(uint256) {... */\n    tag_12:\n      callvalue\n      dup1\n      iszero\n      tag_67\n      jumpi\n      0x00\n      dup1\n      revert\n    tag_67:\n      pop\n      tag_68\n      0x04\n      dup1\n      calldatasize\n      sub\n      dup2\n      add\n      swap1\n      tag_69\n      swap2\n      swap1\n      tag_57\n      jump\t// in\n    tag_69:\n      tag_70\n      jump\t// in\n    tag_68:\n      mload(0x40)\n      tag_71\n      swap2\n      swap1\n      tag_30\n      jump\t// in\n    tag_71:\n      mload(0x40)\n      dup1\n      swap2\n      sub\n      swap1\n      return\n        /* \"src/contract/karna.sol\":2897:3111  function addMember(address member) public onlyMember {... */\n    tag_13:\n      callvalue\n      dup1\n      iszero\n      tag_72\n      jumpi\n      0x00\n      dup1\n      revert\n    tag_72:\n      pop\n      tag_73\n      0x04\n      dup1\n      calldatasize\n      sub\n      dup2\n      add\n      swap1\n      tag_74\n      swap2\n      swap1\n      tag_34\n      jump\t// in\n    tag_74:\n      tag_75\n      jump\t// in\n    tag_73:\n      stop\n        /* \"src/contract/karna.sol\":4954:6890  function vote(uint proposalId) public onlyMember {... */\n    tag_19:\n        /* \"src/contract/karna.sol\":2437:2460  isDaoMember(msg.sender) */\n      tag_77\n        /* \"src/contract/karna.sol\":2449:2459  msg.sender */\n      caller\n        /* \"src/contract/karna.sol\":2437:2448  isDaoMember */\n      tag_45\n        /* \"src/contract/karna.sol\":2437:2460  isDaoMember(msg.sender) */\n      jump\t// in\n    tag_77:\n        /* \"src/contract/karna.sol\":2429:2494  require(isDaoMember(msg.sender), \"Not a member of Karna project\") */\n      tag_78\n      jumpi\n      mload(0x40)\n      0x08c379a000000000000000000000000000000000000000000000000000000000\n      dup2\n      mstore\n      0x04\n      add\n      tag_79\n      swap1\n      tag_80\n      jump\t// in\n    tag_79:\n      mload(0x40)\n      dup1\n      swap2\n      sub\n      swap1\n      revert\n    tag_78:\n        /* \"src/contract/karna.sol\":5082:5095  proposalCount */\n      sload(0x02)\n        /* \"src/contract/karna.sol\":5069:5079  proposalId */\n      dup2\n        /* \"src/contract/karna.sol\":5069:5095  proposalId < proposalCount */\n      lt\n        /* \"src/contract/karna.sol\":5061:5122  require(proposalId < proposalCount, \"Invalid proposal index\") */\n      tag_82\n      jumpi\n      mload(0x40)\n      0x08c379a000000000000000000000000000000000000000000000000000000000\n      dup2\n      mstore\n      0x04\n      add\n      tag_83\n      swap1\n      tag_84\n      jump\t// in\n    tag_83:\n      mload(0x40)\n      dup1\n      swap2\n      sub\n      swap1\n      revert\n    tag_82:\n        /* \"src/contract/karna.sol\":5142:5151  proposals */\n      0x01\n        /* \"src/contract/karna.sol\":5142:5163  proposals[proposalId] */\n      0x00\n        /* \"src/contract/karna.sol\":5152:5162  proposalId */\n      dup3\n        /* \"src/contract/karna.sol\":5142:5163  proposals[proposalId] */\n      dup2\n      mstore\n      0x20\n      add\n      swap1\n      dup2\n      mstore\n      0x20\n      add\n      0x00\n      keccak256\n        /* \"src/contract/karna.sol\":5142:5172  proposals[proposalId].executed */\n      0x04\n      add\n      0x00\n      swap1\n      sload\n      swap1\n      0x0100\n      exp\n      swap1\n      div\n      0xff\n      and\n        /* \"src/contract/karna.sol\":5141:5172  !proposals[proposalId].executed */\n      iszero\n        /* \"src/contract/karna.sol\":5133:5202  require(!proposals[proposalId].executed, \"Proposal already executed\") */\n      tag_85\n      jumpi\n      mload(0x40)\n      0x08c379a000000000000000000000000000000000000000000000000000000000\n      dup2\n      mstore\n      0x04\n      add\n      tag_86\n      swap1\n      tag_87\n      jump\t// in\n    tag_86:\n      mload(0x40)\n      dup1\n      swap2\n      sub\n      swap1\n      revert\n    tag_85:\n        /* \"src/contract/karna.sol\":5288:5294  uint i */\n      0x00\n        /* \"src/contract/karna.sol\":5283:5444  for (uint i = 0; i < proposals[proposalId].voters.length; i++) {... */\n    tag_88:\n        /* \"src/contract/karna.sol\":5304:5313  proposals */\n      0x01\n        /* \"src/contract/karna.sol\":5304:5325  proposals[proposalId] */\n      0x00\n        /* \"src/contract/karna.sol\":5314:5324  proposalId */\n      dup4\n        /* \"src/contract/karna.sol\":5304:5325  proposals[proposalId] */\n      dup2\n      mstore\n      0x20\n      add\n      swap1\n      dup2\n      mstore\n      0x20\n      add\n      0x00\n      keccak256\n        /* \"src/contract/karna.sol\":5304:5332  proposals[proposalId].voters */\n      0x03\n      add\n        /* \"src/contract/karna.sol\":5304:5339  proposals[proposalId].voters.length */\n      dup1\n      sload\n      swap1\n      pop\n        /* \"src/contract/karna.sol\":5300:5301  i */\n      dup2\n        /* \"src/contract/karna.sol\":5300:5339  i < proposals[proposalId].voters.length */\n      lt\n        /* \"src/contract/karna.sol\":5283:5444  for (uint i = 0; i < proposals[proposalId].voters.length; i++) {... */\n      iszero\n      tag_89\n      jumpi\n        /* \"src/contract/karna.sol\":5404:5414  msg.sender */\n      caller\n        /* \"src/contract/karna.sol\":5369:5414  proposals[proposalId].voters[i] != msg.sender */\n      0xffffffffffffffffffffffffffffffffffffffff\n      and\n        /* \"src/contract/karna.sol\":5369:5378  proposals */\n      0x01\n        /* \"src/contract/karna.sol\":5369:5390  proposals[proposalId] */\n      0x00\n        /* \"src/contract/karna.sol\":5379:5389  proposalId */\n      dup5\n        /* \"src/contract/karna.sol\":5369:5390  proposals[proposalId] */\n      dup2\n      mstore\n      0x20\n      add\n      swap1\n      dup2\n      mstore\n      0x20\n      add\n      0x00\n      keccak256\n        /* \"src/contract/karna.sol\":5369:5397  proposals[proposalId].voters */\n      0x03\n      add\n        /* \"src/contract/karna.sol\":5398:5399  i */\n      dup3\n        /* \"src/contract/karna.sol\":5369:5400  proposals[proposalId].voters[i] */\n      dup2\n      sload\n      dup2\n      lt\n      tag_91\n      jumpi\n      tag_92\n      tag_93\n      jump\t// in\n    tag_92:\n    tag_91:\n      swap1\n      0x00\n      mstore\n      keccak256(0x00, 0x20)\n      add\n      0x00\n      swap1\n      sload\n      swap1\n      0x0100\n      exp\n      swap1\n      div\n      0xffffffffffffffffffffffffffffffffffffffff\n      and\n        /* \"src/contract/karna.sol\":5369:5414  proposals[proposalId].voters[i] != msg.sender */\n      0xffffffffffffffffffffffffffffffffffffffff\n      and\n      sub\n        /* \"src/contract/karna.sol\":5361:5432  require(proposals[proposalId].voters[i] != msg.sender, \"Already voted\") */\n      tag_95\n      jumpi\n      mload(0x40)\n      0x08c379a000000000000000000000000000000000000000000000000000000000\n      dup2\n      mstore\n      0x04\n      add\n      tag_96\n      swap1\n      tag_97\n      jump\t// in\n    tag_96:\n      mload(0x40)\n      dup1\n      swap2\n      sub\n      swap1\n      revert\n    tag_95:\n        /* \"src/contract/karna.sol\":5341:5344  i++ */\n      dup1\n      dup1\n      0x01\n      add\n      swap2\n      pop\n      pop\n        /* \"src/contract/karna.sol\":5283:5444  for (uint i = 0; i < proposals[proposalId].voters.length; i++) {... */\n      jump(tag_88)\n    tag_89:\n      pop\n        /* \"src/contract/karna.sol\":5506:5515  proposals */\n      0x01\n        /* \"src/contract/karna.sol\":5506:5527  proposals[proposalId] */\n      0x00\n        /* \"src/contract/karna.sol\":5516:5526  proposalId */\n      dup3\n        /* \"src/contract/karna.sol\":5506:5527  proposals[proposalId] */\n      dup2\n      mstore\n      0x20\n      add\n      swap1\n      dup2\n      mstore\n      0x20\n      add\n      0x00\n      keccak256\n        /* \"src/contract/karna.sol\":5506:5534  proposals[proposalId].voters */\n      0x03\n      add\n        /* \"src/contract/karna.sol\":5540:5550  msg.sender */\n      caller\n        /* \"src/contract/karna.sol\":5506:5551  proposals[proposalId].voters.push(msg.sender) */\n      swap1\n      dup1\n      0x01\n      dup2\n      sload\n      add\n      dup1\n      dup3\n      sstore\n      dup1\n      swap2\n      pop\n      pop\n      0x01\n      swap1\n      sub\n      swap1\n      0x00\n      mstore\n      keccak256(0x00, 0x20)\n      add\n      0x00\n      swap1\n      swap2\n      swap1\n      swap2\n      swap1\n      swap2\n      0x0100\n      exp\n      dup2\n      sload\n      dup2\n      0xffffffffffffffffffffffffffffffffffffffff\n      mul\n      not\n      and\n      swap1\n      dup4\n      0xffffffffffffffffffffffffffffffffffffffff\n      and\n      mul\n      or\n      swap1\n      sstore\n      pop\n        /* \"src/contract/karna.sol\":5567:5592  ProposalVoted(msg.sender) */\n      0xe94f6f9c0b790f983ef670881a31345b092a40705dcc7fca5b4a1198206c2146\n        /* \"src/contract/karna.sol\":5581:5591  msg.sender */\n      caller\n        /* \"src/contract/karna.sol\":5567:5592  ProposalVoted(msg.sender) */\n      mload(0x40)\n      tag_99\n      swap2\n      swap1\n      tag_53\n      jump\t// in\n    tag_99:\n      mload(0x40)\n      dup1\n      swap2\n      sub\n      swap1\n      log1\n        /* \"src/contract/karna.sol\":5605:5623  uint votesRequired */\n      0x00\n        /* \"src/contract/karna.sol\":5650:5653  100 */\n      0x64\n        /* \"src/contract/karna.sol\":5644:5646  51 */\n      0x33\n        /* \"src/contract/karna.sol\":5627:5634  members */\n      0x00\n        /* \"src/contract/karna.sol\":5627:5641  members.length */\n      dup1\n      sload\n      swap1\n      pop\n        /* \"src/contract/karna.sol\":5627:5646  members.length * 51 */\n      tag_100\n      swap2\n      swap1\n      tag_101\n      jump\t// in\n    tag_100:\n        /* \"src/contract/karna.sol\":5626:5653  (members.length * 51) / 100 */\n      tag_102\n      swap2\n      swap1\n      tag_103\n      jump\t// in\n    tag_102:\n        /* \"src/contract/karna.sol\":5605:5653  uint votesRequired = (members.length * 51) / 100 */\n      swap1\n      pop\n        /* \"src/contract/karna.sol\":5707:5720  votesRequired */\n      dup1\n        /* \"src/contract/karna.sol\":5668:5677  proposals */\n      0x01\n        /* \"src/contract/karna.sol\":5668:5689  proposals[proposalId] */\n      0x00\n        /* \"src/contract/karna.sol\":5678:5688  proposalId */\n      dup5\n        /* \"src/contract/karna.sol\":5668:5689  proposals[proposalId] */\n      dup2\n      mstore\n      0x20\n      add\n      swap1\n      dup2\n      mstore\n      0x20\n      add\n      0x00\n      keccak256\n        /* \"src/contract/karna.sol\":5668:5696  proposals[proposalId].voters */\n      0x03\n      add\n        /* \"src/contract/karna.sol\":5668:5703  proposals[proposalId].voters.length */\n      dup1\n      sload\n      swap1\n      pop\n        /* \"src/contract/karna.sol\":5668:5720  proposals[proposalId].voters.length >= votesRequired */\n      lt\n        /* \"src/contract/karna.sol\":5664:6883  if (proposals[proposalId].voters.length >= votesRequired) {... */\n      tag_104\n      jumpi\n        /* \"src/contract/karna.sol\":5776:5797  ProposalType.CAMPAIGN */\n      0x01\n        /* \"src/contract/karna.sol\":5740:5797  proposals[proposalId].proposalType==ProposalType.CAMPAIGN */\n      dup1\n      dup2\n      gt\n      iszero\n      tag_105\n      jumpi\n      tag_106\n      tag_107\n      jump\t// in\n    tag_106:\n    tag_105:\n        /* \"src/contract/karna.sol\":5740:5749  proposals */\n      0x01\n        /* \"src/contract/karna.sol\":5740:5761  proposals[proposalId] */\n      0x00\n        /* \"src/contract/karna.sol\":5750:5760  proposalId */\n      dup5\n        /* \"src/contract/karna.sol\":5740:5761  proposals[proposalId] */\n      dup2\n      mstore\n      0x20\n      add\n      swap1\n      dup2\n      mstore\n      0x20\n      add\n      0x00\n      keccak256\n        /* \"src/contract/karna.sol\":5740:5774  proposals[proposalId].proposalType */\n      0x04\n      add\n      0x01\n      swap1\n      sload\n      swap1\n      0x0100\n      exp\n      swap1\n      div\n      0xff\n      and\n        /* \"src/contract/karna.sol\":5740:5797  proposals[proposalId].proposalType==ProposalType.CAMPAIGN */\n      0x01\n      dup2\n      gt\n      iszero\n      tag_108\n      jumpi\n      tag_109\n      tag_107\n      jump\t// in\n    tag_109:\n    tag_108:\n      sub\n        /* \"src/contract/karna.sol\":5737:6818  if(proposals[proposalId].proposalType==ProposalType.CAMPAIGN)... */\n      tag_110\n      jumpi\n        /* \"src/contract/karna.sol\":5831:5846  uint campaignId */\n      0x00\n        /* \"src/contract/karna.sol\":5849:5862  campaignCount */\n      0x04\n      0x00\n        /* \"src/contract/karna.sol\":5849:5864  campaignCount++ */\n      dup2\n      sload\n      dup1\n      swap3\n      swap2\n      swap1\n      tag_111\n      swap1\n      tag_112\n      jump\t// in\n    tag_111:\n      swap2\n      swap1\n      pop\n      sstore\n        /* \"src/contract/karna.sol\":5831:5864  uint campaignId = campaignCount++ */\n      swap1\n      pop\n        /* \"src/contract/karna.sol\":5988:5997  proposals */\n      0x01\n        /* \"src/contract/karna.sol\":5988:6009  proposals[proposalId] */\n      0x00\n        /* \"src/contract/karna.sol\":5998:6008  proposalId */\n      dup5\n        /* \"src/contract/karna.sol\":5988:6009  proposals[proposalId] */\n      dup2\n      mstore\n      0x20\n      add\n      swap1\n      dup2\n      mstore\n      0x20\n      add\n      0x00\n      keccak256\n        /* \"src/contract/karna.sol\":5988:6014  proposals[proposalId].name */\n      0x00\n      add\n        /* \"src/contract/karna.sol\":6037:6046  proposals */\n      0x01\n        /* \"src/contract/karna.sol\":6037:6058  proposals[proposalId] */\n      0x00\n        /* \"src/contract/karna.sol\":6047:6057  proposalId */\n      dup6\n        /* \"src/contract/karna.sol\":6037:6058  proposals[proposalId] */\n      dup2\n      mstore\n      0x20\n      add\n      swap1\n      dup2\n      mstore\n      0x20\n      add\n      0x00\n      keccak256\n        /* \"src/contract/karna.sol\":6037:6067  proposals[proposalId].proposer */\n      0x01\n      add\n      0x00\n      swap1\n      sload\n      swap1\n      0x0100\n      exp\n      swap1\n      div\n      0xffffffffffffffffffffffffffffffffffffffff\n      and\n        /* \"src/contract/karna.sol\":6090:6099  proposals */\n      0x01\n        /* \"src/contract/karna.sol\":6090:6111  proposals[proposalId] */\n      0x00\n        /* \"src/contract/karna.sol\":6100:6110  proposalId */\n      dup7\n        /* \"src/contract/karna.sol\":6090:6111  proposals[proposalId] */\n      dup2\n      mstore\n      0x20\n      add\n      swap1\n      dup2\n      mstore\n      0x20\n      add\n      0x00\n      keccak256\n        /* \"src/contract/karna.sol\":6090:6118  proposals[proposalId].amount */\n      0x02\n      add\n      sload\n        /* \"src/contract/karna.sol\":5953:6119  new Campaign(... */\n      mload(0x40)\n      tag_113\n      swap1\n      tag_114\n      jump\t// in\n    tag_113:\n      tag_115\n      swap4\n      swap3\n      swap2\n      swap1\n      tag_116\n      jump\t// in\n    tag_115:\n      mload(0x40)\n      dup1\n      swap2\n      sub\n      swap1\n      0x00\n      create\n      dup1\n      iszero\n      dup1\n      iszero\n      tag_117\n      jumpi\n      returndatasize\n      0x00\n      dup1\n      returndatacopy\n      revert(0x00, returndatasize)\n    tag_117:\n      pop\n        /* \"src/contract/karna.sol\":5929:5938  campaigns */\n      0x03\n        /* \"src/contract/karna.sol\":5929:5950  campaigns[campaignId] */\n      0x00\n        /* \"src/contract/karna.sol\":5939:5949  campaignId */\n      dup4\n        /* \"src/contract/karna.sol\":5929:5950  campaigns[campaignId] */\n      dup2\n      mstore\n      0x20\n      add\n      swap1\n      dup2\n      mstore\n      0x20\n      add\n      0x00\n      keccak256\n      0x00\n        /* \"src/contract/karna.sol\":5929:6119  campaigns[campaignId] = new Campaign(... */\n      0x0100\n      exp\n      dup2\n      sload\n      dup2\n      0xffffffffffffffffffffffffffffffffffffffff\n      mul\n      not\n      and\n      swap1\n      dup4\n      0xffffffffffffffffffffffffffffffffffffffff\n      and\n      mul\n      or\n      swap1\n      sstore\n      pop\n        /* \"src/contract/karna.sol\":6143:6202  CampaignCreated(campaignId, address(campaigns[campaignId])) */\n      0x633109eec20320eded000fc1e2634211aa7e92ba3f5b15faf6dcdafca05094e4\n        /* \"src/contract/karna.sol\":6159:6169  campaignId */\n      dup2\n        /* \"src/contract/karna.sol\":6179:6188  campaigns */\n      0x03\n        /* \"src/contract/karna.sol\":6179:6200  campaigns[campaignId] */\n      0x00\n        /* \"src/contract/karna.sol\":6189:6199  campaignId */\n      dup5\n        /* \"src/contract/karna.sol\":6179:6200  campaigns[campaignId] */\n      dup2\n      mstore\n      0x20\n      add\n      swap1\n      dup2\n      mstore\n      0x20\n      add\n      0x00\n      keccak256\n      0x00\n      swap1\n      sload\n      swap1\n      0x0100\n      exp\n      swap1\n      div\n      0xffffffffffffffffffffffffffffffffffffffff\n      and\n        /* \"src/contract/karna.sol\":6143:6202  CampaignCreated(campaignId, address(campaigns[campaignId])) */\n      mload(0x40)\n      tag_118\n      swap3\n      swap2\n      swap1\n      tag_119\n      jump\t// in\n    tag_118:\n      mload(0x40)\n      dup1\n      swap2\n      sub\n      swap1\n      log1\n        /* \"src/contract/karna.sol\":5812:6218  {... */\n      pop\n        /* \"src/contract/karna.sol\":5737:6818  if(proposals[proposalId].proposalType==ProposalType.CAMPAIGN)... */\n      jump(tag_120)\n    tag_110:\n        /* \"src/contract/karna.sol\":6320:6341  address(this).balance */\n      selfbalance\n        /* \"src/contract/karna.sol\":6309:6316  1 ether */\n      0x0de0b6b3a7640000\n        /* \"src/contract/karna.sol\":6278:6287  proposals */\n      0x01\n        /* \"src/contract/karna.sol\":6278:6299  proposals[proposalId] */\n      0x00\n        /* \"src/contract/karna.sol\":6288:6298  proposalId */\n      dup6\n        /* \"src/contract/karna.sol\":6278:6299  proposals[proposalId] */\n      dup2\n      mstore\n      0x20\n      add\n      swap1\n      dup2\n      mstore\n      0x20\n      add\n      0x00\n      keccak256\n        /* \"src/contract/karna.sol\":6278:6306  proposals[proposalId].amount */\n      0x02\n      add\n      sload\n        /* \"src/contract/karna.sol\":6278:6316  proposals[proposalId].amount * 1 ether */\n      tag_121\n      swap2\n      swap1\n      tag_101\n      jump\t// in\n    tag_121:\n        /* \"src/contract/karna.sol\":6278:6341  proposals[proposalId].amount * 1 ether <= address(this).balance */\n      gt\n      iszero\n        /* \"src/contract/karna.sol\":6270:6406  require(proposals[proposalId].amount * 1 ether <= address(this).balance,... */\n      tag_122\n      jumpi\n      mload(0x40)\n      0x08c379a000000000000000000000000000000000000000000000000000000000\n      dup2\n      mstore\n      0x04\n      add\n      tag_123\n      swap1\n      tag_124\n      jump\t// in\n    tag_123:\n      mload(0x40)\n      dup1\n      swap2\n      sub\n      swap1\n      revert\n    tag_122:\n        /* \"src/contract/karna.sol\":6425:6441  address proposer */\n      0x00\n        /* \"src/contract/karna.sol\":6444:6453  proposals */\n      0x01\n        /* \"src/contract/karna.sol\":6444:6465  proposals[proposalId] */\n      0x00\n        /* \"src/contract/karna.sol\":6454:6464  proposalId */\n      dup5\n        /* \"src/contract/karna.sol\":6444:6465  proposals[proposalId] */\n      dup2\n      mstore\n      0x20\n      add\n      swap1\n      dup2\n      mstore\n      0x20\n      add\n      0x00\n      keccak256\n        /* \"src/contract/karna.sol\":6444:6474  proposals[proposalId].proposer */\n      0x01\n      add\n      0x00\n      swap1\n      sload\n      swap1\n      0x0100\n      exp\n      swap1\n      div\n      0xffffffffffffffffffffffffffffffffffffffff\n      and\n        /* \"src/contract/karna.sol\":6425:6474  address proposer = proposals[proposalId].proposer */\n      swap1\n      pop\n        /* \"src/contract/karna.sol\":6493:6507  uint256 amount */\n      0x00\n        /* \"src/contract/karna.sol\":6510:6519  proposals */\n      0x01\n        /* \"src/contract/karna.sol\":6510:6531  proposals[proposalId] */\n      0x00\n        /* \"src/contract/karna.sol\":6520:6530  proposalId */\n      dup6\n        /* \"src/contract/karna.sol\":6510:6531  proposals[proposalId] */\n      dup2\n      mstore\n      0x20\n      add\n      swap1\n      dup2\n      mstore\n      0x20\n      add\n      0x00\n      keccak256\n        /* \"src/contract/karna.sol\":6510:6538  proposals[proposalId].amount */\n      0x02\n      add\n      sload\n        /* \"src/contract/karna.sol\":6493:6538  uint256 amount = proposals[proposalId].amount */\n      swap1\n      pop\n        /* \"src/contract/karna.sol\":6557:6568  bool result */\n      0x00\n        /* \"src/contract/karna.sol\":6579:6587  proposer */\n      dup3\n        /* \"src/contract/karna.sol\":6571:6593  payable(proposer).send */\n      0xffffffffffffffffffffffffffffffffffffffff\n      and\n        /* \"src/contract/karna.sol\":6571:6601  payable(proposer).send(amount) */\n      0x08fc\n        /* \"src/contract/karna.sol\":6594:6600  amount */\n      dup4\n        /* \"src/contract/karna.sol\":6571:6601  payable(proposer).send(amount) */\n      swap1\n      dup2\n      iszero\n      mul\n      swap1\n      mload(0x40)\n      0x00\n      mload(0x40)\n      dup1\n      dup4\n      sub\n      dup2\n      dup6\n      dup9\n      dup9\n      call\n      swap4\n      pop\n      pop\n      pop\n      pop\n        /* \"src/contract/karna.sol\":6557:6601  bool result = payable(proposer).send(amount) */\n      swap1\n      pop\n        /* \"src/contract/karna.sol\":6630:6636  result */\n      dup1\n        /* \"src/contract/karna.sol\":6622:6687  require(result, \"Failed to transfer funds directly to proposer.\") */\n      tag_126\n      jumpi\n      mload(0x40)\n      0x08c379a000000000000000000000000000000000000000000000000000000000\n      dup2\n      mstore\n      0x04\n      add\n      tag_127\n      swap1\n      tag_128\n      jump\t// in\n    tag_127:\n      mload(0x40)\n      dup1\n      swap2\n      sub\n      swap1\n      revert\n    tag_126:\n        /* \"src/contract/karna.sol\":6713:6748  DirectRequestFullfilled(proposalId) */\n      0xcf61b5259b88541bdb5b4f258cad2b52a77b7909f948f1a397de7047496973d5\n        /* \"src/contract/karna.sol\":6737:6747  proposalId */\n      dup6\n        /* \"src/contract/karna.sol\":6713:6748  DirectRequestFullfilled(proposalId) */\n      mload(0x40)\n      tag_129\n      swap2\n      swap1\n      tag_30\n      jump\t// in\n    tag_129:\n      mload(0x40)\n      dup1\n      swap2\n      sub\n      swap1\n      log1\n        /* \"src/contract/karna.sol\":6798:6802  true */\n      0x01\n        /* \"src/contract/karna.sol\":6767:6776  proposals */\n      dup1\n        /* \"src/contract/karna.sol\":6767:6788  proposals[proposalId] */\n      0x00\n        /* \"src/contract/karna.sol\":6777:6787  proposalId */\n      dup8\n        /* \"src/contract/karna.sol\":6767:6788  proposals[proposalId] */\n      dup2\n      mstore\n      0x20\n      add\n      swap1\n      dup2\n      mstore\n      0x20\n      add\n      0x00\n      keccak256\n        /* \"src/contract/karna.sol\":6767:6797  proposals[proposalId].executed */\n      0x04\n      add\n      0x00\n        /* \"src/contract/karna.sol\":6767:6802  proposals[proposalId].executed=true */\n      0x0100\n      exp\n      dup2\n      sload\n      dup2\n      0xff\n      mul\n      not\n      and\n      swap1\n      dup4\n      iszero\n      iszero\n      mul\n      or\n      swap1\n      sstore\n      pop\n        /* \"src/contract/karna.sol\":6251:6818  {... */\n      pop\n      pop\n      pop\n        /* \"src/contract/karna.sol\":5737:6818  if(proposals[proposalId].proposalType==ProposalType.CAMPAIGN)... */\n    tag_120:\n        /* \"src/contract/karna.sol\":6865:6869  true */\n      0x01\n        /* \"src/contract/karna.sol\":6832:6841  proposals */\n      dup1\n        /* \"src/contract/karna.sol\":6832:6853  proposals[proposalId] */\n      0x00\n        /* \"src/contract/karna.sol\":6842:6852  proposalId */\n      dup5\n        /* \"src/contract/karna.sol\":6832:6853  proposals[proposalId] */\n      dup2\n      mstore\n      0x20\n      add\n      swap1\n      dup2\n      mstore\n      0x20\n      add\n      0x00\n      keccak256\n        /* \"src/contract/karna.sol\":6832:6862  proposals[proposalId].executed */\n      0x04\n      add\n      0x00\n        /* \"src/contract/karna.sol\":6832:6869  proposals[proposalId].executed = true */\n      0x0100\n      exp\n      dup2\n      sload\n      dup2\n      0xff\n      mul\n      not\n      and\n      swap1\n      dup4\n      iszero\n      iszero\n      mul\n      or\n      swap1\n      sstore\n      pop\n        /* \"src/contract/karna.sol\":5664:6883  if (proposals[proposalId].voters.length >= votesRequired) {... */\n    tag_104:\n        /* \"src/contract/karna.sol\":5003:6890  {... */\n      pop\n        /* \"src/contract/karna.sol\":4954:6890  function vote(uint proposalId) public onlyMember {... */\n      pop\n      jump\t// out\n        /* \"src/contract/karna.sol\":1841:1883  mapping(uint => Proposal) public proposals */\n    tag_23:\n      mstore(0x20, 0x01)\n      dup1\n      0x00\n      mstore\n      keccak256(0x00, 0x40)\n      0x00\n      swap2\n      pop\n      swap1\n      pop\n      dup1\n      0x00\n      add\n      dup1\n      sload\n      tag_130\n      swap1\n      tag_131\n      jump\t// in\n    tag_130:\n      dup1\n      0x1f\n      add\n      0x20\n      dup1\n      swap2\n      div\n      mul\n      0x20\n      add\n      mload(0x40)\n      swap1\n      dup2\n      add\n      0x40\n      mstore\n      dup1\n      swap3\n      swap2\n      swap1\n      dup2\n      dup2\n      mstore\n      0x20\n      add\n      dup3\n      dup1\n      sload\n      tag_132\n      swap1\n      tag_131\n      jump\t// in\n    tag_132:\n      dup1\n      iszero\n      tag_133\n      jumpi\n      dup1\n      0x1f\n      lt\n      tag_134\n      jumpi\n      0x0100\n      dup1\n      dup4\n      sload\n      div\n      mul\n      dup4\n      mstore\n      swap2\n      0x20\n      add\n      swap2\n      jump(tag_133)\n    tag_134:\n      dup3\n      add\n      swap2\n      swap1\n      0x00\n      mstore\n      keccak256(0x00, 0x20)\n      swap1\n    tag_135:\n      dup2\n      sload\n      dup2\n      mstore\n      swap1\n      0x01\n      add\n      swap1\n      0x20\n      add\n      dup1\n      dup4\n      gt\n      tag_135\n      jumpi\n      dup3\n      swap1\n      sub\n      0x1f\n      and\n      dup3\n      add\n      swap2\n    tag_133:\n      pop\n      pop\n      pop\n      pop\n      pop\n      swap1\n      dup1\n      0x01\n      add\n      0x00\n      swap1\n      sload\n      swap1\n      0x0100\n      exp\n      swap1\n      div\n      0xffffffffffffffffffffffffffffffffffffffff\n      and\n      swap1\n      dup1\n      0x02\n      add\n      sload\n      swap1\n      dup1\n      0x04\n      add\n      0x00\n      swap1\n      sload\n      swap1\n      0x0100\n      exp\n      swap1\n      div\n      0xff\n      and\n      swap1\n      dup1\n      0x04\n      add\n      0x01\n      swap1\n      sload\n      swap1\n      0x0100\n      exp\n      swap1\n      div\n      0xff\n      and\n      swap1\n      pop\n      dup6\n      jump\t// out\n        /* \"src/contract/karna.sol\":7213:7307  function totalCampaigns() public view returns(uint256) {... */\n    tag_28:\n        /* \"src/contract/karna.sol\":7259:7266  uint256 */\n      0x00\n        /* \"src/contract/karna.sol\":7286:7299  campaignCount */\n      sload(0x04)\n        /* \"src/contract/karna.sol\":7279:7299  return campaignCount */\n      swap1\n      pop\n        /* \"src/contract/karna.sol\":7213:7307  function totalCampaigns() public view returns(uint256) {... */\n      swap1\n      jump\t// out\n        /* \"src/contract/karna.sol\":3176:3595  function removeMember(address member) public onlyMember {... */\n    tag_35:\n        /* \"src/contract/karna.sol\":2437:2460  isDaoMember(msg.sender) */\n      tag_138\n        /* \"src/contract/karna.sol\":2449:2459  msg.sender */\n      caller\n        /* \"src/contract/karna.sol\":2437:2448  isDaoMember */\n      tag_45\n        /* \"src/contract/karna.sol\":2437:2460  isDaoMember(msg.sender) */\n      jump\t// in\n    tag_138:\n        /* \"src/contract/karna.sol\":2429:2494  require(isDaoMember(msg.sender), \"Not a member of Karna project\") */\n      tag_139\n      jumpi\n      mload(0x40)\n      0x08c379a000000000000000000000000000000000000000000000000000000000\n      dup2\n      mstore\n      0x04\n      add\n      tag_140\n      swap1\n      tag_80\n      jump\t// in\n    tag_140:\n      mload(0x40)\n      dup1\n      swap2\n      sub\n      swap1\n      revert\n    tag_139:\n        /* \"src/contract/karna.sol\":3252:3271  isDaoMember(member) */\n      tag_142\n        /* \"src/contract/karna.sol\":3264:3270  member */\n      dup2\n        /* \"src/contract/karna.sol\":3252:3263  isDaoMember */\n      tag_45\n        /* \"src/contract/karna.sol\":3252:3271  isDaoMember(member) */\n      jump\t// in\n    tag_142:\n        /* \"src/contract/karna.sol\":3251:3271  !isDaoMember(member) */\n      iszero\n        /* \"src/contract/karna.sol\":3243:3305  require(!isDaoMember(member), \"Not a member of Karna project\") */\n      tag_143\n      jumpi\n      mload(0x40)\n      0x08c379a000000000000000000000000000000000000000000000000000000000\n      dup2\n      mstore\n      0x04\n      add\n      tag_144\n      swap1\n      tag_80\n      jump\t// in\n    tag_144:\n      mload(0x40)\n      dup1\n      swap2\n      sub\n      swap1\n      revert\n    tag_143:\n        /* \"src/contract/karna.sol\":3323:3329  uint i */\n      0x00\n        /* \"src/contract/karna.sol\":3318:3588  for (uint i = 0; i < members.length; i++) {... */\n    tag_145:\n        /* \"src/contract/karna.sol\":3339:3346  members */\n      0x00\n        /* \"src/contract/karna.sol\":3339:3353  members.length */\n      dup1\n      sload\n      swap1\n      pop\n        /* \"src/contract/karna.sol\":3335:3336  i */\n      dup2\n        /* \"src/contract/karna.sol\":3335:3353  i < members.length */\n      lt\n        /* \"src/contract/karna.sol\":3318:3588  for (uint i = 0; i < members.length; i++) {... */\n      iszero\n      tag_146\n      jumpi\n        /* \"src/contract/karna.sol\":3393:3399  member */\n      dup2\n        /* \"src/contract/karna.sol\":3379:3399  members[i] == member */\n      0xffffffffffffffffffffffffffffffffffffffff\n      and\n        /* \"src/contract/karna.sol\":3379:3386  members */\n      0x00\n        /* \"src/contract/karna.sol\":3387:3388  i */\n      dup3\n        /* \"src/contract/karna.sol\":3379:3389  members[i] */\n      dup2\n      sload\n      dup2\n      lt\n      tag_148\n      jumpi\n      tag_149\n      tag_93\n      jump\t// in\n    tag_149:\n    tag_148:\n      swap1\n      0x00\n      mstore\n      keccak256(0x00, 0x20)\n      add\n      0x00\n      swap1\n      sload\n      swap1\n      0x0100\n      exp\n      swap1\n      div\n      0xffffffffffffffffffffffffffffffffffffffff\n      and\n        /* \"src/contract/karna.sol\":3379:3399  members[i] == member */\n      0xffffffffffffffffffffffffffffffffffffffff\n      and\n      sub\n        /* \"src/contract/karna.sol\":3375:3577  if (members[i] == member) {... */\n      tag_151\n      jumpi\n        /* \"src/contract/karna.sol\":3433:3440  members */\n      0x00\n        /* \"src/contract/karna.sol\":3458:3459  1 */\n      0x01\n        /* \"src/contract/karna.sol\":3441:3448  members */\n      0x00\n        /* \"src/contract/karna.sol\":3441:3455  members.length */\n      dup1\n      sload\n      swap1\n      pop\n        /* \"src/contract/karna.sol\":3441:3459  members.length - 1 */\n      tag_152\n      swap2\n      swap1\n      tag_153\n      jump\t// in\n    tag_152:\n        /* \"src/contract/karna.sol\":3433:3460  members[members.length - 1] */\n      dup2\n      sload\n      dup2\n      lt\n      tag_154\n      jumpi\n      tag_155\n      tag_93\n      jump\t// in\n    tag_155:\n    tag_154:\n      swap1\n      0x00\n      mstore\n      keccak256(0x00, 0x20)\n      add\n      0x00\n      swap1\n      sload\n      swap1\n      0x0100\n      exp\n      swap1\n      div\n      0xffffffffffffffffffffffffffffffffffffffff\n      and\n        /* \"src/contract/karna.sol\":3420:3427  members */\n      0x00\n        /* \"src/contract/karna.sol\":3428:3429  i */\n      dup3\n        /* \"src/contract/karna.sol\":3420:3430  members[i] */\n      dup2\n      sload\n      dup2\n      lt\n      tag_157\n      jumpi\n      tag_158\n      tag_93\n      jump\t// in\n    tag_158:\n    tag_157:\n      swap1\n      0x00\n      mstore\n      keccak256(0x00, 0x20)\n      add\n      0x00\n        /* \"src/contract/karna.sol\":3420:3460  members[i] = members[members.length - 1] */\n      0x0100\n      exp\n      dup2\n      sload\n      dup2\n      0xffffffffffffffffffffffffffffffffffffffff\n      mul\n      not\n      and\n      swap1\n      dup4\n      0xffffffffffffffffffffffffffffffffffffffff\n      and\n      mul\n      or\n      swap1\n      sstore\n      pop\n        /* \"src/contract/karna.sol\":3479:3486  members */\n      0x00\n        /* \"src/contract/karna.sol\":3479:3492  members.pop() */\n      dup1\n      sload\n      dup1\n      tag_160\n      jumpi\n      tag_161\n      tag_162\n      jump\t// in\n    tag_161:\n    tag_160:\n      0x01\n      swap1\n      sub\n      dup2\n      dup2\n      swap1\n      0x00\n      mstore\n      keccak256(0x00, 0x20)\n      add\n      exp(0x0100, 0x00)\n      dup2\n      sload\n      swap1\n      0xffffffffffffffffffffffffffffffffffffffff\n      mul\n      not\n      and\n      swap1\n      sstore\n      swap1\n      sstore\n        /* \"src/contract/karna.sol\":3516:3537  MemberRemoved(member) */\n      0x6e76fb4c77256006d9c38ec7d82b45a8c8f3c27b1d6766fffc42dfb8de684492\n        /* \"src/contract/karna.sol\":3530:3536  member */\n      dup3\n        /* \"src/contract/karna.sol\":3516:3537  MemberRemoved(member) */\n      mload(0x40)\n      tag_164\n      swap2\n      swap1\n      tag_53\n      jump\t// in\n    tag_164:\n      mload(0x40)\n      dup1\n      swap2\n      sub\n      swap1\n      log1\n        /* \"src/contract/karna.sol\":3556:3561  break */\n      jump(tag_146)\n        /* \"src/contract/karna.sol\":3375:3577  if (members[i] == member) {... */\n    tag_151:\n        /* \"src/contract/karna.sol\":3355:3358  i++ */\n      dup1\n      dup1\n      0x01\n      add\n      swap2\n      pop\n      pop\n        /* \"src/contract/karna.sol\":3318:3588  for (uint i = 0; i < members.length; i++) {... */\n      jump(tag_145)\n    tag_146:\n      pop\n        /* \"src/contract/karna.sol\":3176:3595  function removeMember(address member) public onlyMember {... */\n      pop\n      jump\t// out\n        /* \"src/contract/karna.sol\":1919:1961  mapping(uint => Campaign) public campaigns */\n    tag_39:\n      mstore(0x20, 0x03)\n      dup1\n      0x00\n      mstore\n      keccak256(0x00, 0x40)\n      0x00\n      swap2\n      pop\n      sload\n      swap1\n      0x0100\n      exp\n      swap1\n      div\n      0xffffffffffffffffffffffffffffffffffffffff\n      and\n      dup2\n      jump\t// out\n        /* \"src/contract/karna.sol\":2593:2837  function isDaoMember(address member) public view returns(bool) {... */\n    tag_45:\n        /* \"src/contract/karna.sol\":2650:2654  bool */\n      0x00\n        /* \"src/contract/karna.sol\":2672:2678  uint i */\n      dup1\n        /* \"src/contract/karna.sol\":2681:2682  0 */\n      0x00\n        /* \"src/contract/karna.sol\":2672:2682  uint i = 0 */\n      swap1\n      pop\n        /* \"src/contract/karna.sol\":2667:2807  for (uint i = 0; i < members.length; i++) {... */\n    tag_166:\n        /* \"src/contract/karna.sol\":2688:2695  members */\n      0x00\n        /* \"src/contract/karna.sol\":2688:2702  members.length */\n      dup1\n      sload\n      swap1\n      pop\n        /* \"src/contract/karna.sol\":2684:2685  i */\n      dup2\n        /* \"src/contract/karna.sol\":2684:2702  i < members.length */\n      lt\n        /* \"src/contract/karna.sol\":2667:2807  for (uint i = 0; i < members.length; i++) {... */\n      iszero\n      tag_167\n      jumpi\n        /* \"src/contract/karna.sol\":2742:2748  member */\n      dup3\n        /* \"src/contract/karna.sol\":2728:2748  members[i] == member */\n      0xffffffffffffffffffffffffffffffffffffffff\n      and\n        /* \"src/contract/karna.sol\":2728:2735  members */\n      0x00\n        /* \"src/contract/karna.sol\":2736:2737  i */\n      dup3\n        /* \"src/contract/karna.sol\":2728:2738  members[i] */\n      dup2\n      sload\n      dup2\n      lt\n      tag_169\n      jumpi\n      tag_170\n      tag_93\n      jump\t// in\n    tag_170:\n    tag_169:\n      swap1\n      0x00\n      mstore\n      keccak256(0x00, 0x20)\n      add\n      0x00\n      swap1\n      sload\n      swap1\n      0x0100\n      exp\n      swap1\n      div\n      0xffffffffffffffffffffffffffffffffffffffff\n      and\n        /* \"src/contract/karna.sol\":2728:2748  members[i] == member */\n      0xffffffffffffffffffffffffffffffffffffffff\n      and\n      sub\n        /* \"src/contract/karna.sol\":2724:2796  if (members[i] == member) {... */\n      tag_172\n      jumpi\n        /* \"src/contract/karna.sol\":2776:2780  true */\n      0x01\n        /* \"src/contract/karna.sol\":2769:2780  return true */\n      swap2\n      pop\n      pop\n      jump(tag_165)\n        /* \"src/contract/karna.sol\":2724:2796  if (members[i] == member) {... */\n    tag_172:\n        /* \"src/contract/karna.sol\":2704:2707  i++ */\n      dup1\n      dup1\n      0x01\n      add\n      swap2\n      pop\n      pop\n        /* \"src/contract/karna.sol\":2667:2807  for (uint i = 0; i < members.length; i++) {... */\n      jump(tag_166)\n    tag_167:\n      pop\n        /* \"src/contract/karna.sol\":2824:2829  false */\n      0x00\n        /* \"src/contract/karna.sol\":2817:2829  return false */\n      swap1\n      pop\n        /* \"src/contract/karna.sol\":2593:2837  function isDaoMember(address member) public view returns(bool) {... */\n    tag_165:\n      swap2\n      swap1\n      pop\n      jump\t// out\n        /* \"src/contract/karna.sol\":1810:1834  address[] public members */\n    tag_51:\n      0x00\n      dup2\n      dup2\n      sload\n      dup2\n      lt\n      tag_173\n      jumpi\n      0x00\n      dup1\n      revert\n    tag_173:\n      swap1\n      0x00\n      mstore\n      keccak256(0x00, 0x20)\n      add\n      0x00\n      swap2\n      pop\n      sload\n      swap1\n      0x0100\n      exp\n      swap1\n      div\n      0xffffffffffffffffffffffffffffffffffffffff\n      and\n      dup2\n      jump\t// out\n        /* \"src/contract/karna.sol\":3654:4189  function createCampaignProposal(string memory _name, uint256 _amount) public returns(uint256) {... */\n    tag_58:\n        /* \"src/contract/karna.sol\":3739:3746  uint256 */\n      0x00\n        /* \"src/contract/karna.sol\":3759:3774  uint proposalId */\n      dup1\n        /* \"src/contract/karna.sol\":3777:3790  proposalCount */\n      0x02\n      0x00\n        /* \"src/contract/karna.sol\":3777:3792  proposalCount++ */\n      dup2\n      sload\n      dup1\n      swap3\n      swap2\n      swap1\n      tag_176\n      swap1\n      tag_112\n      jump\t// in\n    tag_176:\n      swap2\n      swap1\n      pop\n      sstore\n        /* \"src/contract/karna.sol\":3759:3792  uint proposalId = proposalCount++ */\n      swap1\n      pop\n        /* \"src/contract/karna.sol\":3867:4106  Proposal({... */\n      mload(0x40)\n      dup1\n      0xc0\n      add\n      0x40\n      mstore\n      dup1\n        /* \"src/contract/karna.sol\":3897:3902  _name */\n      dup6\n        /* \"src/contract/karna.sol\":3867:4106  Proposal({... */\n      dup2\n      mstore\n      0x20\n      add\n        /* \"src/contract/karna.sol\":3965:3975  msg.sender */\n      caller\n        /* \"src/contract/karna.sol\":3867:4106  Proposal({... */\n      0xffffffffffffffffffffffffffffffffffffffff\n      and\n      dup2\n      mstore\n      0x20\n      add\n        /* \"src/contract/karna.sol\":3933:3940  1 ether */\n      0x0de0b6b3a7640000\n        /* \"src/contract/karna.sol\":3925:3932  _amount */\n      dup6\n        /* \"src/contract/karna.sol\":3925:3940  _amount/1 ether */\n      tag_177\n      swap2\n      swap1\n      tag_103\n      jump\t// in\n    tag_177:\n        /* \"src/contract/karna.sol\":3867:4106  Proposal({... */\n      dup2\n      mstore\n      0x20\n      add\n        /* \"src/contract/karna.sol\":4012:4013  0 */\n      0x00\n        /* \"src/contract/karna.sol\":3998:4014  new address[](0) */\n      0xffffffffffffffff\n      dup2\n      gt\n      iszero\n      tag_178\n      jumpi\n      tag_179\n      tag_180\n      jump\t// in\n    tag_179:\n    tag_178:\n      mload(0x40)\n      swap1\n      dup1\n      dup3\n      mstore\n      dup1\n      0x20\n      mul\n      0x20\n      add\n      dup3\n      add\n      0x40\n      mstore\n      dup1\n      iszero\n      tag_181\n      jumpi\n      dup2\n      0x20\n      add\n      0x20\n      dup3\n      mul\n      dup1\n      calldatasize\n      dup4\n      calldatacopy\n      dup1\n      dup3\n      add\n      swap2\n      pop\n      pop\n      swap1\n      pop\n    tag_181:\n      pop\n        /* \"src/contract/karna.sol\":3867:4106  Proposal({... */\n      dup2\n      mstore\n      0x20\n      add\n        /* \"src/contract/karna.sol\":4039:4044  false */\n      0x00\n        /* \"src/contract/karna.sol\":3867:4106  Proposal({... */\n      iszero\n      iszero\n      dup2\n      mstore\n      0x20\n      add\n        /* \"src/contract/karna.sol\":4073:4094  ProposalType.CAMPAIGN */\n      0x01\n        /* \"src/contract/karna.sol\":3867:4106  Proposal({... */\n      dup1\n      dup2\n      gt\n      iszero\n      tag_182\n      jumpi\n      tag_183\n      tag_107\n      jump\t// in\n    tag_183:\n    tag_182:\n      dup2\n      mstore\n      pop\n        /* \"src/contract/karna.sol\":3843:3852  proposals */\n      0x01\n        /* \"src/contract/karna.sol\":3843:3864  proposals[proposalId] */\n      0x00\n        /* \"src/contract/karna.sol\":3853:3863  proposalId */\n      dup4\n        /* \"src/contract/karna.sol\":3843:3864  proposals[proposalId] */\n      dup2\n      mstore\n      0x20\n      add\n      swap1\n      dup2\n      mstore\n      0x20\n      add\n      0x00\n      keccak256\n        /* \"src/contract/karna.sol\":3843:4106  proposals[proposalId] = Proposal({... */\n      0x00\n      dup3\n      add\n      mload\n      dup2\n      0x00\n      add\n      swap1\n      dup2\n      tag_184\n      swap2\n      swap1\n      tag_185\n      jump\t// in\n    tag_184:\n      pop\n      0x20\n      dup3\n      add\n      mload\n      dup2\n      0x01\n      add\n      exp(0x0100, 0x00)\n      dup2\n      sload\n      dup2\n      0xffffffffffffffffffffffffffffffffffffffff\n      mul\n      not\n      and\n      swap1\n      dup4\n      0xffffffffffffffffffffffffffffffffffffffff\n      and\n      mul\n      or\n      swap1\n      sstore\n      pop\n      0x40\n      dup3\n      add\n      mload\n      dup2\n      0x02\n      add\n      sstore\n      0x60\n      dup3\n      add\n      mload\n      dup2\n      0x03\n      add\n      swap1\n      dup1\n      mload\n      swap1\n      0x20\n      add\n      swap1\n      tag_186\n      swap3\n      swap2\n      swap1\n      tag_187\n      jump\t// in\n    tag_186:\n      pop\n      0x80\n      dup3\n      add\n      mload\n      dup2\n      0x04\n      add\n      exp(0x0100, 0x00)\n      dup2\n      sload\n      dup2\n      0xff\n      mul\n      not\n      and\n      swap1\n      dup4\n      iszero\n      iszero\n      mul\n      or\n      swap1\n      sstore\n      pop\n      0xa0\n      dup3\n      add\n      mload\n      dup2\n      0x04\n      add\n      exp(0x0100, 0x01)\n      dup2\n      sload\n      dup2\n      0xff\n      mul\n      not\n      and\n      swap1\n      dup4\n      0x01\n      dup2\n      gt\n      iszero\n      tag_188\n      jumpi\n      tag_189\n      tag_107\n      jump\t// in\n    tag_189:\n    tag_188:\n      mul\n      or\n      swap1\n      sstore\n      pop\n      swap1\n      pop\n      pop\n        /* \"src/contract/karna.sol\":4124:4151  ProposalCreated(proposalId) */\n      0xc2c021f5d73c63c481d336fbbafec58f694fc45095f00b02d2deb8cca59afe07\n        /* \"src/contract/karna.sol\":4140:4150  proposalId */\n      dup2\n        /* \"src/contract/karna.sol\":4124:4151  ProposalCreated(proposalId) */\n      mload(0x40)\n      tag_190\n      swap2\n      swap1\n      tag_30\n      jump\t// in\n    tag_190:\n      mload(0x40)\n      dup1\n      swap2\n      sub\n      swap1\n      log1\n        /* \"src/contract/karna.sol\":4171:4181  proposalId */\n      dup1\n        /* \"src/contract/karna.sol\":4164:4181  return proposalId */\n      swap2\n      pop\n      pop\n        /* \"src/contract/karna.sol\":3654:4189  function createCampaignProposal(string memory _name, uint256 _amount) public returns(uint256) {... */\n      swap3\n      swap2\n      pop\n      pop\n      jump\t// out\n        /* \"src/contract/karna.sol\":6956:7143  function sendMoneyToContract() public payable returns (uint256) ... */\n    tag_61:\n        /* \"src/contract/karna.sol\":7011:7018  uint256 */\n      0x00\n        /* \"src/contract/karna.sol\":7057:7058  0 */\n      dup1\n        /* \"src/contract/karna.sol\":7045:7054  msg.value */\n      callvalue\n        /* \"src/contract/karna.sol\":7045:7058  msg.value > 0 */\n      gt\n        /* \"src/contract/karna.sol\":7037:7096  require(msg.value > 0, \"Sent value must be greater than 0\") */\n      tag_192\n      jumpi\n      mload(0x40)\n      0x08c379a000000000000000000000000000000000000000000000000000000000\n      dup2\n      mstore\n      0x04\n      add\n      tag_193\n      swap1\n      tag_194\n      jump\t// in\n    tag_193:\n      mload(0x40)\n      dup1\n      swap2\n      sub\n      swap1\n      revert\n    tag_192:\n        /* \"src/contract/karna.sol\":7114:7135  address(this).balance */\n      selfbalance\n        /* \"src/contract/karna.sol\":7107:7135  return address(this).balance */\n      swap1\n      pop\n        /* \"src/contract/karna.sol\":6956:7143  function sendMoneyToContract() public payable returns (uint256) ... */\n      swap1\n      jump\t// out\n        /* \"src/contract/karna.sol\":7377:7471  function totalProposals() public view returns(uint256) {... */\n    tag_65:\n        /* \"src/contract/karna.sol\":7423:7430  uint256 */\n      0x00\n        /* \"src/contract/karna.sol\":7450:7463  proposalCount */\n      sload(0x02)\n        /* \"src/contract/karna.sol\":7443:7463  return proposalCount */\n      swap1\n      pop\n        /* \"src/contract/karna.sol\":7377:7471  function totalProposals() public view returns(uint256) {... */\n      swap1\n      jump\t// out\n        /* \"src/contract/karna.sol\":4247:4891  function createRequestProposal(string memory _name, uint256 _amount) public returns(uint256) {... */\n    tag_70:\n        /* \"src/contract/karna.sol\":4331:4338  uint256 */\n      0x00\n        /* \"src/contract/karna.sol\":4379:4400  address(this).balance */\n      selfbalance\n        /* \"src/contract/karna.sol\":4369:4376  1 ether */\n      0x0de0b6b3a7640000\n        /* \"src/contract/karna.sol\":4359:4366  _amount */\n      dup4\n        /* \"src/contract/karna.sol\":4359:4376  _amount * 1 ether */\n      tag_197\n      swap2\n      swap1\n      tag_101\n      jump\t// in\n    tag_197:\n        /* \"src/contract/karna.sol\":4359:4400  _amount * 1 ether > address(this).balance */\n      gt\n        /* \"src/contract/karna.sol\":4351:4442  require(_amount * 1 ether > address(this).balance, \"Karna project has insufficient funds.\") */\n      tag_198\n      jumpi\n      mload(0x40)\n      0x08c379a000000000000000000000000000000000000000000000000000000000\n      dup2\n      mstore\n      0x04\n      add\n      tag_199\n      swap1\n      tag_200\n      jump\t// in\n    tag_199:\n      mload(0x40)\n      dup1\n      swap2\n      sub\n      swap1\n      revert\n    tag_198:\n        /* \"src/contract/karna.sol\":4453:4468  uint proposalId */\n      0x00\n        /* \"src/contract/karna.sol\":4471:4484  proposalCount */\n      0x02\n      0x00\n        /* \"src/contract/karna.sol\":4471:4486  proposalCount++ */\n      dup2\n      sload\n      dup1\n      swap3\n      swap2\n      swap1\n      tag_201\n      swap1\n      tag_112\n      jump\t// in\n    tag_201:\n      swap2\n      swap1\n      pop\n      sstore\n        /* \"src/contract/karna.sol\":4453:4486  uint proposalId = proposalCount++ */\n      swap1\n      pop\n        /* \"src/contract/karna.sol\":4561:4808  Proposal({... */\n      mload(0x40)\n      dup1\n      0xc0\n      add\n      0x40\n      mstore\n      dup1\n        /* \"src/contract/karna.sol\":4591:4596  _name */\n      dup6\n        /* \"src/contract/karna.sol\":4561:4808  Proposal({... */\n      dup2\n      mstore\n      0x20\n      add\n        /* \"src/contract/karna.sol\":4661:4671  msg.sender */\n      caller\n        /* \"src/contract/karna.sol\":4561:4808  Proposal({... */\n      0xffffffffffffffffffffffffffffffffffffffff\n      and\n      dup2\n      mstore\n      0x20\n      add\n        /* \"src/contract/karna.sol\":4629:4636  1 ether */\n      0x0de0b6b3a7640000\n        /* \"src/contract/karna.sol\":4619:4626  _amount */\n      dup6\n        /* \"src/contract/karna.sol\":4619:4636  _amount / 1 ether */\n      tag_202\n      swap2\n      swap1\n      tag_103\n      jump\t// in\n    tag_202:\n        /* \"src/contract/karna.sol\":4561:4808  Proposal({... */\n      dup2\n      mstore\n      0x20\n      add\n        /* \"src/contract/karna.sol\":4708:4709  0 */\n      0x00\n        /* \"src/contract/karna.sol\":4694:4710  new address[](0) */\n      0xffffffffffffffff\n      dup2\n      gt\n      iszero\n      tag_203\n      jumpi\n      tag_204\n      tag_180\n      jump\t// in\n    tag_204:\n    tag_203:\n      mload(0x40)\n      swap1\n      dup1\n      dup3\n      mstore\n      dup1\n      0x20\n      mul\n      0x20\n      add\n      dup3\n      add\n      0x40\n      mstore\n      dup1\n      iszero\n      tag_205\n      jumpi\n      dup2\n      0x20\n      add\n      0x20\n      dup3\n      mul\n      dup1\n      calldatasize\n      dup4\n      calldatacopy\n      dup1\n      dup3\n      add\n      swap2\n      pop\n      pop\n      swap1\n      pop\n    tag_205:\n      pop\n        /* \"src/contract/karna.sol\":4561:4808  Proposal({... */\n      dup2\n      mstore\n      0x20\n      add\n        /* \"src/contract/karna.sol\":4735:4740  false */\n      0x00\n        /* \"src/contract/karna.sol\":4561:4808  Proposal({... */\n      iszero\n      iszero\n      dup2\n      mstore\n      0x20\n      add\n        /* \"src/contract/karna.sol\":4769:4796  ProposalType.DIRECT_REQUEST */\n      0x00\n        /* \"src/contract/karna.sol\":4561:4808  Proposal({... */\n      0x01\n      dup2\n      gt\n      iszero\n      tag_206\n      jumpi\n      tag_207\n      tag_107\n      jump\t// in\n    tag_207:\n    tag_206:\n      dup2\n      mstore\n      pop\n        /* \"src/contract/karna.sol\":4537:4546  proposals */\n      0x01\n        /* \"src/contract/karna.sol\":4537:4558  proposals[proposalId] */\n      0x00\n        /* \"src/contract/karna.sol\":4547:4557  proposalId */\n      dup4\n        /* \"src/contract/karna.sol\":4537:4558  proposals[proposalId] */\n      dup2\n      mstore\n      0x20\n      add\n      swap1\n      dup2\n      mstore\n      0x20\n      add\n      0x00\n      keccak256\n        /* \"src/contract/karna.sol\":4537:4808  proposals[proposalId] = Proposal({... */\n      0x00\n      dup3\n      add\n      mload\n      dup2\n      0x00\n      add\n      swap1\n      dup2\n      tag_208\n      swap2\n      swap1\n      tag_185\n      jump\t// in\n    tag_208:\n      pop\n      0x20\n      dup3\n      add\n      mload\n      dup2\n      0x01\n      add\n      exp(0x0100, 0x00)\n      dup2\n      sload\n      dup2\n      0xffffffffffffffffffffffffffffffffffffffff\n      mul\n      not\n      and\n      swap1\n      dup4\n      0xffffffffffffffffffffffffffffffffffffffff\n      and\n      mul\n      or\n      swap1\n      sstore\n      pop\n      0x40\n      dup3\n      add\n      mload\n      dup2\n      0x02\n      add\n      sstore\n      0x60\n      dup3\n      add\n      mload\n      dup2\n      0x03\n      add\n      swap1\n      dup1\n      mload\n      swap1\n      0x20\n      add\n      swap1\n      tag_209\n      swap3\n      swap2\n      swap1\n      tag_187\n      jump\t// in\n    tag_209:\n      pop\n      0x80\n      dup3\n      add\n      mload\n      dup2\n      0x04\n      add\n      exp(0x0100, 0x00)\n      dup2\n      sload\n      dup2\n      0xff\n      mul\n      not\n      and\n      swap1\n      dup4\n      iszero\n      iszero\n      mul\n      or\n      swap1\n      sstore\n      pop\n      0xa0\n      dup3\n      add\n      mload\n      dup2\n      0x04\n      add\n      exp(0x0100, 0x01)\n      dup2\n      sload\n      dup2\n      0xff\n      mul\n      not\n      and\n      swap1\n      dup4\n      0x01\n      dup2\n      gt\n      iszero\n      tag_210\n      jumpi\n      tag_211\n      tag_107\n      jump\t// in\n    tag_211:\n    tag_210:\n      mul\n      or\n      swap1\n      sstore\n      pop\n      swap1\n      pop\n      pop\n        /* \"src/contract/karna.sol\":4826:4853  ProposalCreated(proposalId) */\n      0xc2c021f5d73c63c481d336fbbafec58f694fc45095f00b02d2deb8cca59afe07\n        /* \"src/contract/karna.sol\":4842:4852  proposalId */\n      dup2\n        /* \"src/contract/karna.sol\":4826:4853  ProposalCreated(proposalId) */\n      mload(0x40)\n      tag_212\n      swap2\n      swap1\n      tag_30\n      jump\t// in\n    tag_212:\n      mload(0x40)\n      dup1\n      swap2\n      sub\n      swap1\n      log1\n        /* \"src/contract/karna.sol\":4873:4883  proposalId */\n      dup1\n        /* \"src/contract/karna.sol\":4866:4883  return proposalId */\n      swap2\n      pop\n      pop\n        /* \"src/contract/karna.sol\":4247:4891  function createRequestProposal(string memory _name, uint256 _amount) public returns(uint256) {... */\n      swap3\n      swap2\n      pop\n      pop\n      jump\t// out\n        /* \"src/contract/karna.sol\":2897:3111  function addMember(address member) public onlyMember {... */\n    tag_75:\n        /* \"src/contract/karna.sol\":2437:2460  isDaoMember(msg.sender) */\n      tag_214\n        /* \"src/contract/karna.sol\":2449:2459  msg.sender */\n      caller\n        /* \"src/contract/karna.sol\":2437:2448  isDaoMember */\n      tag_45\n        /* \"src/contract/karna.sol\":2437:2460  isDaoMember(msg.sender) */\n      jump\t// in\n    tag_214:\n        /* \"src/contract/karna.sol\":2429:2494  require(isDaoMember(msg.sender), \"Not a member of Karna project\") */\n      tag_215\n      jumpi\n      mload(0x40)\n      0x08c379a000000000000000000000000000000000000000000000000000000000\n      dup2\n      mstore\n      0x04\n      add\n      tag_216\n      swap1\n      tag_80\n      jump\t// in\n    tag_216:\n      mload(0x40)\n      dup1\n      swap2\n      sub\n      swap1\n      revert\n    tag_215:\n        /* \"src/contract/karna.sol\":2970:2989  isDaoMember(member) */\n      tag_218\n        /* \"src/contract/karna.sol\":2982:2988  member */\n      dup2\n        /* \"src/contract/karna.sol\":2970:2981  isDaoMember */\n      tag_45\n        /* \"src/contract/karna.sol\":2970:2989  isDaoMember(member) */\n      jump\t// in\n    tag_218:\n        /* \"src/contract/karna.sol\":2969:2989  !isDaoMember(member) */\n      iszero\n        /* \"src/contract/karna.sol\":2961:3037  require(!isDaoMember(member), \"The member is already part of Karna project\") */\n      tag_219\n      jumpi\n      mload(0x40)\n      0x08c379a000000000000000000000000000000000000000000000000000000000\n      dup2\n      mstore\n      0x04\n      add\n      tag_220\n      swap1\n      tag_221\n      jump\t// in\n    tag_220:\n      mload(0x40)\n      dup1\n      swap2\n      sub\n      swap1\n      revert\n    tag_219:\n        /* \"src/contract/karna.sol\":3048:3055  members */\n      0x00\n        /* \"src/contract/karna.sol\":3061:3067  member */\n      dup2\n        /* \"src/contract/karna.sol\":3048:3068  members.push(member) */\n      swap1\n      dup1\n      0x01\n      dup2\n      sload\n      add\n      dup1\n      dup3\n      sstore\n      dup1\n      swap2\n      pop\n      pop\n      0x01\n      swap1\n      sub\n      swap1\n      0x00\n      mstore\n      keccak256(0x00, 0x20)\n      add\n      0x00\n      swap1\n      swap2\n      swap1\n      swap2\n      swap1\n      swap2\n      0x0100\n      exp\n      dup2\n      sload\n      dup2\n      0xffffffffffffffffffffffffffffffffffffffff\n      mul\n      not\n      and\n      swap1\n      dup4\n      0xffffffffffffffffffffffffffffffffffffffff\n      and\n      mul\n      or\n      swap1\n      sstore\n      pop\n        /* \"src/contract/karna.sol\":3084:3103  MemberAdded(member) */\n      0xb251eb052afc73ffd02ffe85ad79990a8b3fed60d76dbc2fa2fdd7123dffd914\n        /* \"src/contract/karna.sol\":3096:3102  member */\n      dup2\n        /* \"src/contract/karna.sol\":3084:3103  MemberAdded(member) */\n      mload(0x40)\n      tag_223\n      swap2\n      swap1\n      tag_53\n      jump\t// in\n    tag_223:\n      mload(0x40)\n      dup1\n      swap2\n      sub\n      swap1\n      log1\n        /* \"src/contract/karna.sol\":2897:3111  function addMember(address member) public onlyMember {... */\n      pop\n      jump\t// out\n    tag_114:\n      dataSize(sub_0)\n      dup1\n      dataOffset(sub_0)\n      dup4\n      codecopy\n      add\n      swap1\n      jump\t// out\n    tag_187:\n      dup3\n      dup1\n      sload\n      dup3\n      dup3\n      sstore\n      swap1\n      0x00\n      mstore\n      keccak256(0x00, 0x20)\n      swap1\n      dup2\n      add\n      swap3\n      dup3\n      iszero\n      tag_224\n      jumpi\n      swap2\n      0x20\n      mul\n      dup3\n      add\n    tag_225:\n      dup3\n      dup2\n      gt\n      iszero\n      tag_226\n      jumpi\n      dup3\n      mload\n      dup3\n      exp(0x0100, 0x00)\n      dup2\n      sload\n      dup2\n      0xffffffffffffffffffffffffffffffffffffffff\n      mul\n      not\n      and\n      swap1\n      dup4\n      0xffffffffffffffffffffffffffffffffffffffff\n      and\n      mul\n      or\n      swap1\n      sstore\n      pop\n      swap2\n      0x20\n      add\n      swap2\n      swap1\n      0x01\n      add\n      swap1\n      jump(tag_225)\n    tag_226:\n    tag_224:\n      pop\n      swap1\n      pop\n      tag_227\n      swap2\n      swap1\n      tag_228\n      jump\t// in\n    tag_227:\n      pop\n      swap1\n      jump\t// out\n    tag_228:\n    tag_229:\n      dup1\n      dup3\n      gt\n      iszero\n      tag_230\n      jumpi\n      0x00\n      dup2\n      0x00\n      swap1\n      sstore\n      pop\n      0x01\n      add\n      jump(tag_229)\n    tag_230:\n      pop\n      swap1\n      jump\t// out\n        /* \"#utility.yul\":7:82   */\n    tag_231:\n        /* \"#utility.yul\":40:46   */\n      0x00\n        /* \"#utility.yul\":73:75   */\n      0x40\n        /* \"#utility.yul\":67:76   */\n      mload\n        /* \"#utility.yul\":57:76   */\n      swap1\n      pop\n        /* \"#utility.yul\":7:82   */\n      swap1\n      jump\t// out\n        /* \"#utility.yul\":88:205   */\n    tag_232:\n        /* \"#utility.yul\":197:198   */\n      0x00\n        /* \"#utility.yul\":194:195   */\n      dup1\n        /* \"#utility.yul\":187:199   */\n      revert\n        /* \"#utility.yul\":211:328   */\n    tag_233:\n        /* \"#utility.yul\":320:321   */\n      0x00\n        /* \"#utility.yul\":317:318   */\n      dup1\n        /* \"#utility.yul\":310:322   */\n      revert\n        /* \"#utility.yul\":334:411   */\n    tag_234:\n        /* \"#utility.yul\":371:378   */\n      0x00\n        /* \"#utility.yul\":400:405   */\n      dup2\n        /* \"#utility.yul\":389:405   */\n      swap1\n      pop\n        /* \"#utility.yul\":334:411   */\n      swap2\n      swap1\n      pop\n      jump\t// out\n        /* \"#utility.yul\":417:539   */\n    tag_235:\n        /* \"#utility.yul\":490:514   */\n      tag_309\n        /* \"#utility.yul\":508:513   */\n      dup2\n        /* \"#utility.yul\":490:514   */\n      tag_234\n      jump\t// in\n    tag_309:\n        /* \"#utility.yul\":483:488   */\n      dup2\n        /* \"#utility.yul\":480:515   */\n      eq\n        /* \"#utility.yul\":470:533   */\n      tag_310\n      jumpi\n        /* \"#utility.yul\":529:530   */\n      0x00\n        /* \"#utility.yul\":526:527   */\n      dup1\n        /* \"#utility.yul\":519:531   */\n      revert\n        /* \"#utility.yul\":470:533   */\n    tag_310:\n        /* \"#utility.yul\":417:539   */\n      pop\n      jump\t// out\n        /* \"#utility.yul\":545:684   */\n    tag_236:\n        /* \"#utility.yul\":591:596   */\n      0x00\n        /* \"#utility.yul\":629:635   */\n      dup2\n        /* \"#utility.yul\":616:636   */\n      calldataload\n        /* \"#utility.yul\":607:636   */\n      swap1\n      pop\n        /* \"#utility.yul\":645:678   */\n      tag_312\n        /* \"#utility.yul\":672:677   */\n      dup2\n        /* \"#utility.yul\":645:678   */\n      tag_235\n      jump\t// in\n    tag_312:\n        /* \"#utility.yul\":545:684   */\n      swap3\n      swap2\n      pop\n      pop\n      jump\t// out\n        /* \"#utility.yul\":690:1019   */\n    tag_18:\n        /* \"#utility.yul\":749:755   */\n      0x00\n        /* \"#utility.yul\":798:800   */\n      0x20\n        /* \"#utility.yul\":786:795   */\n      dup3\n        /* \"#utility.yul\":777:784   */\n      dup5\n        /* \"#utility.yul\":773:796   */\n      sub\n        /* \"#utility.yul\":769:801   */\n      slt\n        /* \"#utility.yul\":766:885   */\n      iszero\n      tag_314\n      jumpi\n        /* \"#utility.yul\":804:883   */\n      tag_315\n      tag_232\n      jump\t// in\n    tag_315:\n        /* \"#utility.yul\":766:885   */\n    tag_314:\n        /* \"#utility.yul\":924:925   */\n      0x00\n        /* \"#utility.yul\":949:1002   */\n      tag_316\n        /* \"#utility.yul\":994:1001   */\n      dup5\n        /* \"#utility.yul\":985:991   */\n      dup3\n        /* \"#utility.yul\":974:983   */\n      dup6\n        /* \"#utility.yul\":970:992   */\n      add\n        /* \"#utility.yul\":949:1002   */\n      tag_236\n      jump\t// in\n    tag_316:\n        /* \"#utility.yul\":939:1002   */\n      swap2\n      pop\n        /* \"#utility.yul\":895:1012   */\n      pop\n        /* \"#utility.yul\":690:1019   */\n      swap3\n      swap2\n      pop\n      pop\n      jump\t// out\n        /* \"#utility.yul\":1025:1124   */\n    tag_237:\n        /* \"#utility.yul\":1077:1083   */\n      0x00\n        /* \"#utility.yul\":1111:1116   */\n      dup2\n        /* \"#utility.yul\":1105:1117   */\n      mload\n        /* \"#utility.yul\":1095:1117   */\n      swap1\n      pop\n        /* \"#utility.yul\":1025:1124   */\n      swap2\n      swap1\n      pop\n      jump\t// out\n        /* \"#utility.yul\":1130:1299   */\n    tag_238:\n        /* \"#utility.yul\":1214:1225   */\n      0x00\n        /* \"#utility.yul\":1248:1254   */\n      dup3\n        /* \"#utility.yul\":1243:1246   */\n      dup3\n        /* \"#utility.yul\":1236:1255   */\n      mstore\n        /* \"#utility.yul\":1288:1292   */\n      0x20\n        /* \"#utility.yul\":1283:1286   */\n      dup3\n        /* \"#utility.yul\":1279:1293   */\n      add\n        /* \"#utility.yul\":1264:1293   */\n      swap1\n      pop\n        /* \"#utility.yul\":1130:1299   */\n      swap3\n      swap2\n      pop\n      pop\n      jump\t// out\n        /* \"#utility.yul\":1305:1551   */\n    tag_239:\n        /* \"#utility.yul\":1386:1387   */\n      0x00\n        /* \"#utility.yul\":1396:1509   */\n    tag_320:\n        /* \"#utility.yul\":1410:1416   */\n      dup4\n        /* \"#utility.yul\":1407:1408   */\n      dup2\n        /* \"#utility.yul\":1404:1417   */\n      lt\n        /* \"#utility.yul\":1396:1509   */\n      iszero\n      tag_322\n      jumpi\n        /* \"#utility.yul\":1495:1496   */\n      dup1\n        /* \"#utility.yul\":1490:1493   */\n      dup3\n        /* \"#utility.yul\":1486:1497   */\n      add\n        /* \"#utility.yul\":1480:1498   */\n      mload\n        /* \"#utility.yul\":1476:1477   */\n      dup2\n        /* \"#utility.yul\":1471:1474   */\n      dup5\n        /* \"#utility.yul\":1467:1478   */\n      add\n        /* \"#utility.yul\":1460:1499   */\n      mstore\n        /* \"#utility.yul\":1432:1434   */\n      0x20\n        /* \"#utility.yul\":1429:1430   */\n      dup2\n        /* \"#utility.yul\":1425:1435   */\n      add\n        /* \"#utility.yul\":1420:1435   */\n      swap1\n      pop\n        /* \"#utility.yul\":1396:1509   */\n      jump(tag_320)\n    tag_322:\n        /* \"#utility.yul\":1543:1544   */\n      0x00\n        /* \"#utility.yul\":1534:1540   */\n      dup5\n        /* \"#utility.yul\":1529:1532   */\n      dup5\n        /* \"#utility.yul\":1525:1541   */\n      add\n        /* \"#utility.yul\":1518:1545   */\n      mstore\n        /* \"#utility.yul\":1367:1551   */\n      pop\n        /* \"#utility.yul\":1305:1551   */\n      pop\n      pop\n      pop\n      jump\t// out\n        /* \"#utility.yul\":1557:1659   */\n    tag_240:\n        /* \"#utility.yul\":1598:1604   */\n      0x00\n        /* \"#utility.yul\":1649:1651   */\n      0x1f\n        /* \"#utility.yul\":1645:1652   */\n      not\n        /* \"#utility.yul\":1640:1642   */\n      0x1f\n        /* \"#utility.yul\":1633:1638   */\n      dup4\n        /* \"#utility.yul\":1629:1643   */\n      add\n        /* \"#utility.yul\":1625:1653   */\n      and\n        /* \"#utility.yul\":1615:1653   */\n      swap1\n      pop\n        /* \"#utility.yul\":1557:1659   */\n      swap2\n      swap1\n      pop\n      jump\t// out\n        /* \"#utility.yul\":1665:2042   */\n    tag_241:\n        /* \"#utility.yul\":1753:1756   */\n      0x00\n        /* \"#utility.yul\":1781:1820   */\n      tag_325\n        /* \"#utility.yul\":1814:1819   */\n      dup3\n        /* \"#utility.yul\":1781:1820   */\n      tag_237\n      jump\t// in\n    tag_325:\n        /* \"#utility.yul\":1836:1907   */\n      tag_326\n        /* \"#utility.yul\":1900:1906   */\n      dup2\n        /* \"#utility.yul\":1895:1898   */\n      dup6\n        /* \"#utility.yul\":1836:1907   */\n      tag_238\n      jump\t// in\n    tag_326:\n        /* \"#utility.yul\":1829:1907   */\n      swap4\n      pop\n        /* \"#utility.yul\":1916:1981   */\n      tag_327\n        /* \"#utility.yul\":1974:1980   */\n      dup2\n        /* \"#utility.yul\":1969:1972   */\n      dup6\n        /* \"#utility.yul\":1962:1966   */\n      0x20\n        /* \"#utility.yul\":1955:1960   */\n      dup7\n        /* \"#utility.yul\":1951:1967   */\n      add\n        /* \"#utility.yul\":1916:1981   */\n      tag_239\n      jump\t// in\n    tag_327:\n        /* \"#utility.yul\":2006:2035   */\n      tag_328\n        /* \"#utility.yul\":2028:2034   */\n      dup2\n        /* \"#utility.yul\":2006:2035   */\n      tag_240\n      jump\t// in\n    tag_328:\n        /* \"#utility.yul\":2001:2004   */\n      dup5\n        /* \"#utility.yul\":1997:2036   */\n      add\n        /* \"#utility.yul\":1990:2036   */\n      swap2\n      pop\n        /* \"#utility.yul\":1757:2042   */\n      pop\n        /* \"#utility.yul\":1665:2042   */\n      swap3\n      swap2\n      pop\n      pop\n      jump\t// out\n        /* \"#utility.yul\":2048:2174   */\n    tag_242:\n        /* \"#utility.yul\":2085:2092   */\n      0x00\n        /* \"#utility.yul\":2125:2167   */\n      0xffffffffffffffffffffffffffffffffffffffff\n        /* \"#utility.yul\":2118:2123   */\n      dup3\n        /* \"#utility.yul\":2114:2168   */\n      and\n        /* \"#utility.yul\":2103:2168   */\n      swap1\n      pop\n        /* \"#utility.yul\":2048:2174   */\n      swap2\n      swap1\n      pop\n      jump\t// out\n        /* \"#utility.yul\":2180:2276   */\n    tag_243:\n        /* \"#utility.yul\":2217:2224   */\n      0x00\n        /* \"#utility.yul\":2246:2270   */\n      tag_331\n        /* \"#utility.yul\":2264:2269   */\n      dup3\n        /* \"#utility.yul\":2246:2270   */\n      tag_242\n      jump\t// in\n    tag_331:\n        /* \"#utility.yul\":2235:2270   */\n      swap1\n      pop\n        /* \"#utility.yul\":2180:2276   */\n      swap2\n      swap1\n      pop\n      jump\t// out\n        /* \"#utility.yul\":2282:2400   */\n    tag_244:\n        /* \"#utility.yul\":2369:2393   */\n      tag_333\n        /* \"#utility.yul\":2387:2392   */\n      dup2\n        /* \"#utility.yul\":2369:2393   */\n      tag_243\n      jump\t// in\n    tag_333:\n        /* \"#utility.yul\":2364:2367   */\n      dup3\n        /* \"#utility.yul\":2357:2394   */\n      mstore\n        /* \"#utility.yul\":2282:2400   */\n      pop\n      pop\n      jump\t// out\n        /* \"#utility.yul\":2406:2524   */\n    tag_245:\n        /* \"#utility.yul\":2493:2517   */\n      tag_335\n        /* \"#utility.yul\":2511:2516   */\n      dup2\n        /* \"#utility.yul\":2493:2517   */\n      tag_234\n      jump\t// in\n    tag_335:\n        /* \"#utility.yul\":2488:2491   */\n      dup3\n        /* \"#utility.yul\":2481:2518   */\n      mstore\n        /* \"#utility.yul\":2406:2524   */\n      pop\n      pop\n      jump\t// out\n        /* \"#utility.yul\":2530:2620   */\n    tag_246:\n        /* \"#utility.yul\":2564:2571   */\n      0x00\n        /* \"#utility.yul\":2607:2612   */\n      dup2\n        /* \"#utility.yul\":2600:2613   */\n      iszero\n        /* \"#utility.yul\":2593:2614   */\n      iszero\n        /* \"#utility.yul\":2582:2614   */\n      swap1\n      pop\n        /* \"#utility.yul\":2530:2620   */\n      swap2\n      swap1\n      pop\n      jump\t// out\n        /* \"#utility.yul\":2626:2735   */\n    tag_247:\n        /* \"#utility.yul\":2707:2728   */\n      tag_338\n        /* \"#utility.yul\":2722:2727   */\n      dup2\n        /* \"#utility.yul\":2707:2728   */\n      tag_246\n      jump\t// in\n    tag_338:\n        /* \"#utility.yul\":2702:2705   */\n      dup3\n        /* \"#utility.yul\":2695:2729   */\n      mstore\n        /* \"#utility.yul\":2626:2735   */\n      pop\n      pop\n      jump\t// out\n        /* \"#utility.yul\":2741:2921   */\n    tag_107:\n        /* \"#utility.yul\":2789:2866   */\n      0x4e487b7100000000000000000000000000000000000000000000000000000000\n        /* \"#utility.yul\":2786:2787   */\n      0x00\n        /* \"#utility.yul\":2779:2867   */\n      mstore\n        /* \"#utility.yul\":2886:2890   */\n      0x21\n        /* \"#utility.yul\":2883:2884   */\n      0x04\n        /* \"#utility.yul\":2876:2891   */\n      mstore\n        /* \"#utility.yul\":2910:2914   */\n      0x24\n        /* \"#utility.yul\":2907:2908   */\n      0x00\n        /* \"#utility.yul\":2900:2915   */\n      revert\n        /* \"#utility.yul\":2927:3048   */\n    tag_248:\n        /* \"#utility.yul\":3016:3017   */\n      0x02\n        /* \"#utility.yul\":3009:3014   */\n      dup2\n        /* \"#utility.yul\":3006:3018   */\n      lt\n        /* \"#utility.yul\":2996:3042   */\n      tag_341\n      jumpi\n        /* \"#utility.yul\":3022:3040   */\n      tag_342\n      tag_107\n      jump\t// in\n    tag_342:\n        /* \"#utility.yul\":2996:3042   */\n    tag_341:\n        /* \"#utility.yul\":2927:3048   */\n      pop\n      jump\t// out\n        /* \"#utility.yul\":3054:3197   */\n    tag_249:\n        /* \"#utility.yul\":3107:3114   */\n      0x00\n        /* \"#utility.yul\":3136:3141   */\n      dup2\n        /* \"#utility.yul\":3125:3141   */\n      swap1\n      pop\n        /* \"#utility.yul\":3142:3191   */\n      tag_344\n        /* \"#utility.yul\":3185:3190   */\n      dup3\n        /* \"#utility.yul\":3142:3191   */\n      tag_248\n      jump\t// in\n    tag_344:\n        /* \"#utility.yul\":3054:3197   */\n      swap2\n      swap1\n      pop\n      jump\t// out\n        /* \"#utility.yul\":3203:3346   */\n    tag_250:\n        /* \"#utility.yul\":3267:3276   */\n      0x00\n        /* \"#utility.yul\":3300:3340   */\n      tag_346\n        /* \"#utility.yul\":3334:3339   */\n      dup3\n        /* \"#utility.yul\":3300:3340   */\n      tag_249\n      jump\t// in\n    tag_346:\n        /* \"#utility.yul\":3287:3340   */\n      swap1\n      pop\n        /* \"#utility.yul\":3203:3346   */\n      swap2\n      swap1\n      pop\n      jump\t// out\n        /* \"#utility.yul\":3352:3511   */\n    tag_251:\n        /* \"#utility.yul\":3453:3504   */\n      tag_348\n        /* \"#utility.yul\":3498:3503   */\n      dup2\n        /* \"#utility.yul\":3453:3504   */\n      tag_250\n      jump\t// in\n    tag_348:\n        /* \"#utility.yul\":3448:3451   */\n      dup3\n        /* \"#utility.yul\":3441:3505   */\n      mstore\n        /* \"#utility.yul\":3352:3511   */\n      pop\n      pop\n      jump\t// out\n        /* \"#utility.yul\":3517:4288   */\n    tag_25:\n        /* \"#utility.yul\":3750:3754   */\n      0x00\n        /* \"#utility.yul\":3788:3791   */\n      0xa0\n        /* \"#utility.yul\":3777:3786   */\n      dup3\n        /* \"#utility.yul\":3773:3792   */\n      add\n        /* \"#utility.yul\":3765:3792   */\n      swap1\n      pop\n        /* \"#utility.yul\":3838:3847   */\n      dup2\n        /* \"#utility.yul\":3832:3836   */\n      dup2\n        /* \"#utility.yul\":3828:3848   */\n      sub\n        /* \"#utility.yul\":3824:3825   */\n      0x00\n        /* \"#utility.yul\":3813:3822   */\n      dup4\n        /* \"#utility.yul\":3809:3826   */\n      add\n        /* \"#utility.yul\":3802:3849   */\n      mstore\n        /* \"#utility.yul\":3866:3944   */\n      tag_350\n        /* \"#utility.yul\":3939:3943   */\n      dup2\n        /* \"#utility.yul\":3930:3936   */\n      dup9\n        /* \"#utility.yul\":3866:3944   */\n      tag_241\n      jump\t// in\n    tag_350:\n        /* \"#utility.yul\":3858:3944   */\n      swap1\n      pop\n        /* \"#utility.yul\":3954:4026   */\n      tag_351\n        /* \"#utility.yul\":4022:4024   */\n      0x20\n        /* \"#utility.yul\":4011:4020   */\n      dup4\n        /* \"#utility.yul\":4007:4025   */\n      add\n        /* \"#utility.yul\":3998:4004   */\n      dup8\n        /* \"#utility.yul\":3954:4026   */\n      tag_244\n      jump\t// in\n    tag_351:\n        /* \"#utility.yul\":4036:4108   */\n      tag_352\n        /* \"#utility.yul\":4104:4106   */\n      0x40\n        /* \"#utility.yul\":4093:4102   */\n      dup4\n        /* \"#utility.yul\":4089:4107   */\n      add\n        /* \"#utility.yul\":4080:4086   */\n      dup7\n        /* \"#utility.yul\":4036:4108   */\n      tag_245\n      jump\t// in\n    tag_352:\n        /* \"#utility.yul\":4118:4184   */\n      tag_353\n        /* \"#utility.yul\":4180:4182   */\n      0x60\n        /* \"#utility.yul\":4169:4178   */\n      dup4\n        /* \"#utility.yul\":4165:4183   */\n      add\n        /* \"#utility.yul\":4156:4162   */\n      dup6\n        /* \"#utility.yul\":4118:4184   */\n      tag_247\n      jump\t// in\n    tag_353:\n        /* \"#utility.yul\":4194:4281   */\n      tag_354\n        /* \"#utility.yul\":4276:4279   */\n      0x80\n        /* \"#utility.yul\":4265:4274   */\n      dup4\n        /* \"#utility.yul\":4261:4280   */\n      add\n        /* \"#utility.yul\":4252:4258   */\n      dup5\n        /* \"#utility.yul\":4194:4281   */\n      tag_251\n      jump\t// in\n    tag_354:\n        /* \"#utility.yul\":3517:4288   */\n      swap7\n      swap6\n      pop\n      pop\n      pop\n      pop\n      pop\n      pop\n      jump\t// out\n        /* \"#utility.yul\":4294:4516   */\n    tag_30:\n        /* \"#utility.yul\":4387:4391   */\n      0x00\n        /* \"#utility.yul\":4425:4427   */\n      0x20\n        /* \"#utility.yul\":4414:4423   */\n      dup3\n        /* \"#utility.yul\":4410:4428   */\n      add\n        /* \"#utility.yul\":4402:4428   */\n      swap1\n      pop\n        /* \"#utility.yul\":4438:4509   */\n      tag_356\n        /* \"#utility.yul\":4506:4507   */\n      0x00\n        /* \"#utility.yul\":4495:4504   */\n      dup4\n        /* \"#utility.yul\":4491:4508   */\n      add\n        /* \"#utility.yul\":4482:4488   */\n      dup5\n        /* \"#utility.yul\":4438:4509   */\n      tag_245\n      jump\t// in\n    tag_356:\n        /* \"#utility.yul\":4294:4516   */\n      swap3\n      swap2\n      pop\n      pop\n      jump\t// out\n        /* \"#utility.yul\":4522:4644   */\n    tag_252:\n        /* \"#utility.yul\":4595:4619   */\n      tag_358\n        /* \"#utility.yul\":4613:4618   */\n      dup2\n        /* \"#utility.yul\":4595:4619   */\n      tag_243\n      jump\t// in\n    tag_358:\n        /* \"#utility.yul\":4588:4593   */\n      dup2\n        /* \"#utility.yul\":4585:4620   */\n      eq\n        /* \"#utility.yul\":4575:4638   */\n      tag_359\n      jumpi\n        /* \"#utility.yul\":4634:4635   */\n      0x00\n        /* \"#utility.yul\":4631:4632   */\n      dup1\n        /* \"#utility.yul\":4624:4636   */\n      revert\n        /* \"#utility.yul\":4575:4638   */\n    tag_359:\n        /* \"#utility.yul\":4522:4644   */\n      pop\n      jump\t// out\n        /* \"#utility.yul\":4650:4789   */\n    tag_253:\n        /* \"#utility.yul\":4696:4701   */\n      0x00\n        /* \"#utility.yul\":4734:4740   */\n      dup2\n        /* \"#utility.yul\":4721:4741   */\n      calldataload\n        /* \"#utility.yul\":4712:4741   */\n      swap1\n      pop\n        /* \"#utility.yul\":4750:4783   */\n      tag_361\n        /* \"#utility.yul\":4777:4782   */\n      dup2\n        /* \"#utility.yul\":4750:4783   */\n      tag_252\n      jump\t// in\n    tag_361:\n        /* \"#utility.yul\":4650:4789   */\n      swap3\n      swap2\n      pop\n      pop\n      jump\t// out\n        /* \"#utility.yul\":4795:5124   */\n    tag_34:\n        /* \"#utility.yul\":4854:4860   */\n      0x00\n        /* \"#utility.yul\":4903:4905   */\n      0x20\n        /* \"#utility.yul\":4891:4900   */\n      dup3\n        /* \"#utility.yul\":4882:4889   */\n      dup5\n        /* \"#utility.yul\":4878:4901   */\n      sub\n        /* \"#utility.yul\":4874:4906   */\n      slt\n        /* \"#utility.yul\":4871:4990   */\n      iszero\n      tag_363\n      jumpi\n        /* \"#utility.yul\":4909:4988   */\n      tag_364\n      tag_232\n      jump\t// in\n    tag_364:\n        /* \"#utility.yul\":4871:4990   */\n    tag_363:\n        /* \"#utility.yul\":5029:5030   */\n      0x00\n        /* \"#utility.yul\":5054:5107   */\n      tag_365\n        /* \"#utility.yul\":5099:5106   */\n      dup5\n        /* \"#utility.yul\":5090:5096   */\n      dup3\n        /* \"#utility.yul\":5079:5088   */\n      dup6\n        /* \"#utility.yul\":5075:5097   */\n      add\n        /* \"#utility.yul\":5054:5107   */\n      tag_253\n      jump\t// in\n    tag_365:\n        /* \"#utility.yul\":5044:5107   */\n      swap2\n      pop\n        /* \"#utility.yul\":5000:5117   */\n      pop\n        /* \"#utility.yul\":4795:5124   */\n      swap3\n      swap2\n      pop\n      pop\n      jump\t// out\n        /* \"#utility.yul\":5130:5190   */\n    tag_254:\n        /* \"#utility.yul\":5158:5161   */\n      0x00\n        /* \"#utility.yul\":5179:5184   */\n      dup2\n        /* \"#utility.yul\":5172:5184   */\n      swap1\n      pop\n        /* \"#utility.yul\":5130:5190   */\n      swap2\n      swap1\n      pop\n      jump\t// out\n        /* \"#utility.yul\":5196:5338   */\n    tag_255:\n        /* \"#utility.yul\":5246:5255   */\n      0x00\n        /* \"#utility.yul\":5279:5332   */\n      tag_368\n        /* \"#utility.yul\":5297:5331   */\n      tag_369\n        /* \"#utility.yul\":5306:5330   */\n      tag_370\n        /* \"#utility.yul\":5324:5329   */\n      dup5\n        /* \"#utility.yul\":5306:5330   */\n      tag_242\n      jump\t// in\n    tag_370:\n        /* \"#utility.yul\":5297:5331   */\n      tag_254\n      jump\t// in\n    tag_369:\n        /* \"#utility.yul\":5279:5332   */\n      tag_242\n      jump\t// in\n    tag_368:\n        /* \"#utility.yul\":5266:5332   */\n      swap1\n      pop\n        /* \"#utility.yul\":5196:5338   */\n      swap2\n      swap1\n      pop\n      jump\t// out\n        /* \"#utility.yul\":5344:5470   */\n    tag_256:\n        /* \"#utility.yul\":5394:5403   */\n      0x00\n        /* \"#utility.yul\":5427:5464   */\n      tag_372\n        /* \"#utility.yul\":5458:5463   */\n      dup3\n        /* \"#utility.yul\":5427:5464   */\n      tag_255\n      jump\t// in\n    tag_372:\n        /* \"#utility.yul\":5414:5464   */\n      swap1\n      pop\n        /* \"#utility.yul\":5344:5470   */\n      swap2\n      swap1\n      pop\n      jump\t// out\n        /* \"#utility.yul\":5476:5618   */\n    tag_257:\n        /* \"#utility.yul\":5542:5551   */\n      0x00\n        /* \"#utility.yul\":5575:5612   */\n      tag_374\n        /* \"#utility.yul\":5606:5611   */\n      dup3\n        /* \"#utility.yul\":5575:5612   */\n      tag_256\n      jump\t// in\n    tag_374:\n        /* \"#utility.yul\":5562:5612   */\n      swap1\n      pop\n        /* \"#utility.yul\":5476:5618   */\n      swap2\n      swap1\n      pop\n      jump\t// out\n        /* \"#utility.yul\":5624:5787   */\n    tag_258:\n        /* \"#utility.yul\":5727:5780   */\n      tag_376\n        /* \"#utility.yul\":5774:5779   */\n      dup2\n        /* \"#utility.yul\":5727:5780   */\n      tag_257\n      jump\t// in\n    tag_376:\n        /* \"#utility.yul\":5722:5725   */\n      dup3\n        /* \"#utility.yul\":5715:5781   */\n      mstore\n        /* \"#utility.yul\":5624:5787   */\n      pop\n      pop\n      jump\t// out\n        /* \"#utility.yul\":5793:6047   */\n    tag_41:\n        /* \"#utility.yul\":5902:5906   */\n      0x00\n        /* \"#utility.yul\":5940:5942   */\n      0x20\n        /* \"#utility.yul\":5929:5938   */\n      dup3\n        /* \"#utility.yul\":5925:5943   */\n      add\n        /* \"#utility.yul\":5917:5943   */\n      swap1\n      pop\n        /* \"#utility.yul\":5953:6040   */\n      tag_378\n        /* \"#utility.yul\":6037:6038   */\n      0x00\n        /* \"#utility.yul\":6026:6035   */\n      dup4\n        /* \"#utility.yul\":6022:6039   */\n      add\n        /* \"#utility.yul\":6013:6019   */\n      dup5\n        /* \"#utility.yul\":5953:6040   */\n      tag_258\n      jump\t// in\n    tag_378:\n        /* \"#utility.yul\":5793:6047   */\n      swap3\n      swap2\n      pop\n      pop\n      jump\t// out\n        /* \"#utility.yul\":6053:6263   */\n    tag_47:\n        /* \"#utility.yul\":6140:6144   */\n      0x00\n        /* \"#utility.yul\":6178:6180   */\n      0x20\n        /* \"#utility.yul\":6167:6176   */\n      dup3\n        /* \"#utility.yul\":6163:6181   */\n      add\n        /* \"#utility.yul\":6155:6181   */\n      swap1\n      pop\n        /* \"#utility.yul\":6191:6256   */\n      tag_380\n        /* \"#utility.yul\":6253:6254   */\n      0x00\n        /* \"#utility.yul\":6242:6251   */\n      dup4\n        /* \"#utility.yul\":6238:6255   */\n      add\n        /* \"#utility.yul\":6229:6235   */\n      dup5\n        /* \"#utility.yul\":6191:6256   */\n      tag_247\n      jump\t// in\n    tag_380:\n        /* \"#utility.yul\":6053:6263   */\n      swap3\n      swap2\n      pop\n      pop\n      jump\t// out\n        /* \"#utility.yul\":6269:6491   */\n    tag_53:\n        /* \"#utility.yul\":6362:6366   */\n      0x00\n        /* \"#utility.yul\":6400:6402   */\n      0x20\n        /* \"#utility.yul\":6389:6398   */\n      dup3\n        /* \"#utility.yul\":6385:6403   */\n      add\n        /* \"#utility.yul\":6377:6403   */\n      swap1\n      pop\n        /* \"#utility.yul\":6413:6484   */\n      tag_382\n        /* \"#utility.yul\":6481:6482   */\n      0x00\n        /* \"#utility.yul\":6470:6479   */\n      dup4\n        /* \"#utility.yul\":6466:6483   */\n      add\n        /* \"#utility.yul\":6457:6463   */\n      dup5\n        /* \"#utility.yul\":6413:6484   */\n      tag_244\n      jump\t// in\n    tag_382:\n        /* \"#utility.yul\":6269:6491   */\n      swap3\n      swap2\n      pop\n      pop\n      jump\t// out\n        /* \"#utility.yul\":6497:6614   */\n    tag_259:\n        /* \"#utility.yul\":6606:6607   */\n      0x00\n        /* \"#utility.yul\":6603:6604   */\n      dup1\n        /* \"#utility.yul\":6596:6608   */\n      revert\n        /* \"#utility.yul\":6620:6737   */\n    tag_260:\n        /* \"#utility.yul\":6729:6730   */\n      0x00\n        /* \"#utility.yul\":6726:6727   */\n      dup1\n        /* \"#utility.yul\":6719:6731   */\n      revert\n        /* \"#utility.yul\":6743:6923   */\n    tag_180:\n        /* \"#utility.yul\":6791:6868   */\n      0x4e487b7100000000000000000000000000000000000000000000000000000000\n        /* \"#utility.yul\":6788:6789   */\n      0x00\n        /* \"#utility.yul\":6781:6869   */\n      mstore\n        /* \"#utility.yul\":6888:6892   */\n      0x41\n        /* \"#utility.yul\":6885:6886   */\n      0x04\n        /* \"#utility.yul\":6878:6893   */\n      mstore\n        /* \"#utility.yul\":6912:6916   */\n      0x24\n        /* \"#utility.yul\":6909:6910   */\n      0x00\n        /* \"#utility.yul\":6902:6917   */\n      revert\n        /* \"#utility.yul\":6929:7210   */\n    tag_261:\n        /* \"#utility.yul\":7012:7039   */\n      tag_387\n        /* \"#utility.yul\":7034:7038   */\n      dup3\n        /* \"#utility.yul\":7012:7039   */\n      tag_240\n      jump\t// in\n    tag_387:\n        /* \"#utility.yul\":7004:7010   */\n      dup2\n        /* \"#utility.yul\":7000:7040   */\n      add\n        /* \"#utility.yul\":7142:7148   */\n      dup2\n        /* \"#utility.yul\":7130:7140   */\n      dup2\n        /* \"#utility.yul\":7127:7149   */\n      lt\n        /* \"#utility.yul\":7106:7124   */\n      0xffffffffffffffff\n        /* \"#utility.yul\":7094:7104   */\n      dup3\n        /* \"#utility.yul\":7091:7125   */\n      gt\n        /* \"#utility.yul\":7088:7150   */\n      or\n        /* \"#utility.yul\":7085:7173   */\n      iszero\n      tag_388\n      jumpi\n        /* \"#utility.yul\":7153:7171   */\n      tag_389\n      tag_180\n      jump\t// in\n    tag_389:\n        /* \"#utility.yul\":7085:7173   */\n    tag_388:\n        /* \"#utility.yul\":7193:7203   */\n      dup1\n        /* \"#utility.yul\":7189:7191   */\n      0x40\n        /* \"#utility.yul\":7182:7204   */\n      mstore\n        /* \"#utility.yul\":6972:7210   */\n      pop\n        /* \"#utility.yul\":6929:7210   */\n      pop\n      pop\n      jump\t// out\n        /* \"#utility.yul\":7216:7345   */\n    tag_262:\n        /* \"#utility.yul\":7250:7256   */\n      0x00\n        /* \"#utility.yul\":7277:7297   */\n      tag_391\n      tag_231\n      jump\t// in\n    tag_391:\n        /* \"#utility.yul\":7267:7297   */\n      swap1\n      pop\n        /* \"#utility.yul\":7306:7339   */\n      tag_392\n        /* \"#utility.yul\":7334:7338   */\n      dup3\n        /* \"#utility.yul\":7326:7332   */\n      dup3\n        /* \"#utility.yul\":7306:7339   */\n      tag_261\n      jump\t// in\n    tag_392:\n        /* \"#utility.yul\":7216:7345   */\n      swap2\n      swap1\n      pop\n      jump\t// out\n        /* \"#utility.yul\":7351:7659   */\n    tag_263:\n        /* \"#utility.yul\":7413:7417   */\n      0x00\n        /* \"#utility.yul\":7503:7521   */\n      0xffffffffffffffff\n        /* \"#utility.yul\":7495:7501   */\n      dup3\n        /* \"#utility.yul\":7492:7522   */\n      gt\n        /* \"#utility.yul\":7489:7545   */\n      iszero\n      tag_394\n      jumpi\n        /* \"#utility.yul\":7525:7543   */\n      tag_395\n      tag_180\n      jump\t// in\n    tag_395:\n        /* \"#utility.yul\":7489:7545   */\n    tag_394:\n        /* \"#utility.yul\":7563:7592   */\n      tag_396\n        /* \"#utility.yul\":7585:7591   */\n      dup3\n        /* \"#utility.yul\":7563:7592   */\n      tag_240\n      jump\t// in\n    tag_396:\n        /* \"#utility.yul\":7555:7592   */\n      swap1\n      pop\n        /* \"#utility.yul\":7647:7651   */\n      0x20\n        /* \"#utility.yul\":7641:7645   */\n      dup2\n        /* \"#utility.yul\":7637:7652   */\n      add\n        /* \"#utility.yul\":7629:7652   */\n      swap1\n      pop\n        /* \"#utility.yul\":7351:7659   */\n      swap2\n      swap1\n      pop\n      jump\t// out\n        /* \"#utility.yul\":7665:7811   */\n    tag_264:\n        /* \"#utility.yul\":7762:7768   */\n      dup3\n        /* \"#utility.yul\":7757:7760   */\n      dup2\n        /* \"#utility.yul\":7752:7755   */\n      dup4\n        /* \"#utility.yul\":7739:7769   */\n      calldatacopy\n        /* \"#utility.yul\":7803:7804   */\n      0x00\n        /* \"#utility.yul\":7794:7800   */\n      dup4\n        /* \"#utility.yul\":7789:7792   */\n      dup4\n        /* \"#utility.yul\":7785:7801   */\n      add\n        /* \"#utility.yul\":7778:7805   */\n      mstore\n        /* \"#utility.yul\":7665:7811   */\n      pop\n      pop\n      pop\n      jump\t// out\n        /* \"#utility.yul\":7817:8242   */\n    tag_265:\n        /* \"#utility.yul\":7895:7900   */\n      0x00\n        /* \"#utility.yul\":7920:7986   */\n      tag_399\n        /* \"#utility.yul\":7936:7985   */\n      tag_400\n        /* \"#utility.yul\":7978:7984   */\n      dup5\n        /* \"#utility.yul\":7936:7985   */\n      tag_263\n      jump\t// in\n    tag_400:\n        /* \"#utility.yul\":7920:7986   */\n      tag_262\n      jump\t// in\n    tag_399:\n        /* \"#utility.yul\":7911:7986   */\n      swap1\n      pop\n        /* \"#utility.yul\":8009:8015   */\n      dup3\n        /* \"#utility.yul\":8002:8007   */\n      dup2\n        /* \"#utility.yul\":7995:8016   */\n      mstore\n        /* \"#utility.yul\":8047:8051   */\n      0x20\n        /* \"#utility.yul\":8040:8045   */\n      dup2\n        /* \"#utility.yul\":8036:8052   */\n      add\n        /* \"#utility.yul\":8085:8088   */\n      dup5\n        /* \"#utility.yul\":8076:8082   */\n      dup5\n        /* \"#utility.yul\":8071:8074   */\n      dup5\n        /* \"#utility.yul\":8067:8083   */\n      add\n        /* \"#utility.yul\":8064:8089   */\n      gt\n        /* \"#utility.yul\":8061:8173   */\n      iszero\n      tag_401\n      jumpi\n        /* \"#utility.yul\":8092:8171   */\n      tag_402\n      tag_260\n      jump\t// in\n    tag_402:\n        /* \"#utility.yul\":8061:8173   */\n    tag_401:\n        /* \"#utility.yul\":8182:8236   */\n      tag_403\n        /* \"#utility.yul\":8229:8235   */\n      dup5\n        /* \"#utility.yul\":8224:8227   */\n      dup3\n        /* \"#utility.yul\":8219:8222   */\n      dup6\n        /* \"#utility.yul\":8182:8236   */\n      tag_264\n      jump\t// in\n    tag_403:\n        /* \"#utility.yul\":7901:8242   */\n      pop\n        /* \"#utility.yul\":7817:8242   */\n      swap4\n      swap3\n      pop\n      pop\n      pop\n      jump\t// out\n        /* \"#utility.yul\":8262:8602   */\n    tag_266:\n        /* \"#utility.yul\":8318:8323   */\n      0x00\n        /* \"#utility.yul\":8367:8370   */\n      dup3\n        /* \"#utility.yul\":8360:8364   */\n      0x1f\n        /* \"#utility.yul\":8352:8358   */\n      dup4\n        /* \"#utility.yul\":8348:8365   */\n      add\n        /* \"#utility.yul\":8344:8371   */\n      slt\n        /* \"#utility.yul\":8334:8456   */\n      tag_405\n      jumpi\n        /* \"#utility.yul\":8375:8454   */\n      tag_406\n      tag_259\n      jump\t// in\n    tag_406:\n        /* \"#utility.yul\":8334:8456   */\n    tag_405:\n        /* \"#utility.yul\":8492:8498   */\n      dup2\n        /* \"#utility.yul\":8479:8499   */\n      calldataload\n        /* \"#utility.yul\":8517:8596   */\n      tag_407\n        /* \"#utility.yul\":8592:8595   */\n      dup5\n        /* \"#utility.yul\":8584:8590   */\n      dup3\n        /* \"#utility.yul\":8577:8581   */\n      0x20\n        /* \"#utility.yul\":8569:8575   */\n      dup7\n        /* \"#utility.yul\":8565:8582   */\n      add\n        /* \"#utility.yul\":8517:8596   */\n      tag_265\n      jump\t// in\n    tag_407:\n        /* \"#utility.yul\":8508:8596   */\n      swap2\n      pop\n        /* \"#utility.yul\":8324:8602   */\n      pop\n        /* \"#utility.yul\":8262:8602   */\n      swap3\n      swap2\n      pop\n      pop\n      jump\t// out\n        /* \"#utility.yul\":8608:9262   */\n    tag_57:\n        /* \"#utility.yul\":8686:8692   */\n      0x00\n        /* \"#utility.yul\":8694:8700   */\n      dup1\n        /* \"#utility.yul\":8743:8745   */\n      0x40\n        /* \"#utility.yul\":8731:8740   */\n      dup4\n        /* \"#utility.yul\":8722:8729   */\n      dup6\n        /* \"#utility.yul\":8718:8741   */\n      sub\n        /* \"#utility.yul\":8714:8746   */\n      slt\n        /* \"#utility.yul\":8711:8830   */\n      iszero\n      tag_409\n      jumpi\n        /* \"#utility.yul\":8749:8828   */\n      tag_410\n      tag_232\n      jump\t// in\n    tag_410:\n        /* \"#utility.yul\":8711:8830   */\n    tag_409:\n        /* \"#utility.yul\":8897:8898   */\n      0x00\n        /* \"#utility.yul\":8886:8895   */\n      dup4\n        /* \"#utility.yul\":8882:8899   */\n      add\n        /* \"#utility.yul\":8869:8900   */\n      calldataload\n        /* \"#utility.yul\":8927:8945   */\n      0xffffffffffffffff\n        /* \"#utility.yul\":8919:8925   */\n      dup2\n        /* \"#utility.yul\":8916:8946   */\n      gt\n        /* \"#utility.yul\":8913:9030   */\n      iszero\n      tag_411\n      jumpi\n        /* \"#utility.yul\":8949:9028   */\n      tag_412\n      tag_233\n      jump\t// in\n    tag_412:\n        /* \"#utility.yul\":8913:9030   */\n    tag_411:\n        /* \"#utility.yul\":9054:9117   */\n      tag_413\n        /* \"#utility.yul\":9109:9116   */\n      dup6\n        /* \"#utility.yul\":9100:9106   */\n      dup3\n        /* \"#utility.yul\":9089:9098   */\n      dup7\n        /* \"#utility.yul\":9085:9107   */\n      add\n        /* \"#utility.yul\":9054:9117   */\n      tag_266\n      jump\t// in\n    tag_413:\n        /* \"#utility.yul\":9044:9117   */\n      swap3\n      pop\n        /* \"#utility.yul\":8840:9127   */\n      pop\n        /* \"#utility.yul\":9166:9168   */\n      0x20\n        /* \"#utility.yul\":9192:9245   */\n      tag_414\n        /* \"#utility.yul\":9237:9244   */\n      dup6\n        /* \"#utility.yul\":9228:9234   */\n      dup3\n        /* \"#utility.yul\":9217:9226   */\n      dup7\n        /* \"#utility.yul\":9213:9235   */\n      add\n        /* \"#utility.yul\":9192:9245   */\n      tag_236\n      jump\t// in\n    tag_414:\n        /* \"#utility.yul\":9182:9245   */\n      swap2\n      pop\n        /* \"#utility.yul\":9137:9255   */\n      pop\n        /* \"#utility.yul\":8608:9262   */\n      swap3\n      pop\n      swap3\n      swap1\n      pop\n      jump\t// out\n        /* \"#utility.yul\":9268:9447   */\n    tag_267:\n        /* \"#utility.yul\":9408:9439   */\n      0x4e6f742061206d656d626572206f66204b61726e612070726f6a656374000000\n        /* \"#utility.yul\":9404:9405   */\n      0x00\n        /* \"#utility.yul\":9396:9402   */\n      dup3\n        /* \"#utility.yul\":9392:9406   */\n      add\n        /* \"#utility.yul\":9385:9440   */\n      mstore\n        /* \"#utility.yul\":9268:9447   */\n      pop\n      jump\t// out\n        /* \"#utility.yul\":9453:9819   */\n    tag_268:\n        /* \"#utility.yul\":9595:9598   */\n      0x00\n        /* \"#utility.yul\":9616:9683   */\n      tag_417\n        /* \"#utility.yul\":9680:9682   */\n      0x1d\n        /* \"#utility.yul\":9675:9678   */\n      dup4\n        /* \"#utility.yul\":9616:9683   */\n      tag_238\n      jump\t// in\n    tag_417:\n        /* \"#utility.yul\":9609:9683   */\n      swap2\n      pop\n        /* \"#utility.yul\":9692:9785   */\n      tag_418\n        /* \"#utility.yul\":9781:9784   */\n      dup3\n        /* \"#utility.yul\":9692:9785   */\n      tag_267\n      jump\t// in\n    tag_418:\n        /* \"#utility.yul\":9810:9812   */\n      0x20\n        /* \"#utility.yul\":9805:9808   */\n      dup3\n        /* \"#utility.yul\":9801:9813   */\n      add\n        /* \"#utility.yul\":9794:9813   */\n      swap1\n      pop\n        /* \"#utility.yul\":9453:9819   */\n      swap2\n      swap1\n      pop\n      jump\t// out\n        /* \"#utility.yul\":9825:10244   */\n    tag_80:\n        /* \"#utility.yul\":9991:9995   */\n      0x00\n        /* \"#utility.yul\":10029:10031   */\n      0x20\n        /* \"#utility.yul\":10018:10027   */\n      dup3\n        /* \"#utility.yul\":10014:10032   */\n      add\n        /* \"#utility.yul\":10006:10032   */\n      swap1\n      pop\n        /* \"#utility.yul\":10078:10087   */\n      dup2\n        /* \"#utility.yul\":10072:10076   */\n      dup2\n        /* \"#utility.yul\":10068:10088   */\n      sub\n        /* \"#utility.yul\":10064:10065   */\n      0x00\n        /* \"#utility.yul\":10053:10062   */\n      dup4\n        /* \"#utility.yul\":10049:10066   */\n      add\n        /* \"#utility.yul\":10042:10089   */\n      mstore\n        /* \"#utility.yul\":10106:10237   */\n      tag_420\n        /* \"#utility.yul\":10232:10236   */\n      dup2\n        /* \"#utility.yul\":10106:10237   */\n      tag_268\n      jump\t// in\n    tag_420:\n        /* \"#utility.yul\":10098:10237   */\n      swap1\n      pop\n        /* \"#utility.yul\":9825:10244   */\n      swap2\n      swap1\n      pop\n      jump\t// out\n        /* \"#utility.yul\":10250:10422   */\n    tag_269:\n        /* \"#utility.yul\":10390:10414   */\n      0x496e76616c69642070726f706f73616c20696e64657800000000000000000000\n        /* \"#utility.yul\":10386:10387   */\n      0x00\n        /* \"#utility.yul\":10378:10384   */\n      dup3\n        /* \"#utility.yul\":10374:10388   */\n      add\n        /* \"#utility.yul\":10367:10415   */\n      mstore\n        /* \"#utility.yul\":10250:10422   */\n      pop\n      jump\t// out\n        /* \"#utility.yul\":10428:10794   */\n    tag_270:\n        /* \"#utility.yul\":10570:10573   */\n      0x00\n        /* \"#utility.yul\":10591:10658   */\n      tag_423\n        /* \"#utility.yul\":10655:10657   */\n      0x16\n        /* \"#utility.yul\":10650:10653   */\n      dup4\n        /* \"#utility.yul\":10591:10658   */\n      tag_238\n      jump\t// in\n    tag_423:\n        /* \"#utility.yul\":10584:10658   */\n      swap2\n      pop\n        /* \"#utility.yul\":10667:10760   */\n      tag_424\n        /* \"#utility.yul\":10756:10759   */\n      dup3\n        /* \"#utility.yul\":10667:10760   */\n      tag_269\n      jump\t// in\n    tag_424:\n        /* \"#utility.yul\":10785:10787   */\n      0x20\n        /* \"#utility.yul\":10780:10783   */\n      dup3\n        /* \"#utility.yul\":10776:10788   */\n      add\n        /* \"#utility.yul\":10769:10788   */\n      swap1\n      pop\n        /* \"#utility.yul\":10428:10794   */\n      swap2\n      swap1\n      pop\n      jump\t// out\n        /* \"#utility.yul\":10800:11219   */\n    tag_84:\n        /* \"#utility.yul\":10966:10970   */\n      0x00\n        /* \"#utility.yul\":11004:11006   */\n      0x20\n        /* \"#utility.yul\":10993:11002   */\n      dup3\n        /* \"#utility.yul\":10989:11007   */\n      add\n        /* \"#utility.yul\":10981:11007   */\n      swap1\n      pop\n        /* \"#utility.yul\":11053:11062   */\n      dup2\n        /* \"#utility.yul\":11047:11051   */\n      dup2\n        /* \"#utility.yul\":11043:11063   */\n      sub\n        /* \"#utility.yul\":11039:11040   */\n      0x00\n        /* \"#utility.yul\":11028:11037   */\n      dup4\n        /* \"#utility.yul\":11024:11041   */\n      add\n        /* \"#utility.yul\":11017:11064   */\n      mstore\n        /* \"#utility.yul\":11081:11212   */\n      tag_426\n        /* \"#utility.yul\":11207:11211   */\n      dup2\n        /* \"#utility.yul\":11081:11212   */\n      tag_270\n      jump\t// in\n    tag_426:\n        /* \"#utility.yul\":11073:11212   */\n      swap1\n      pop\n        /* \"#utility.yul\":10800:11219   */\n      swap2\n      swap1\n      pop\n      jump\t// out\n        /* \"#utility.yul\":11225:11400   */\n    tag_271:\n        /* \"#utility.yul\":11365:11392   */\n      0x50726f706f73616c20616c726561647920657865637574656400000000000000\n        /* \"#utility.yul\":11361:11362   */\n      0x00\n        /* \"#utility.yul\":11353:11359   */\n      dup3\n        /* \"#utility.yul\":11349:11363   */\n      add\n        /* \"#utility.yul\":11342:11393   */\n      mstore\n        /* \"#utility.yul\":11225:11400   */\n      pop\n      jump\t// out\n        /* \"#utility.yul\":11406:11772   */\n    tag_272:\n        /* \"#utility.yul\":11548:11551   */\n      0x00\n        /* \"#utility.yul\":11569:11636   */\n      tag_429\n        /* \"#utility.yul\":11633:11635   */\n      0x19\n        /* \"#utility.yul\":11628:11631   */\n      dup4\n        /* \"#utility.yul\":11569:11636   */\n      tag_238\n      jump\t// in\n    tag_429:\n        /* \"#utility.yul\":11562:11636   */\n      swap2\n      pop\n        /* \"#utility.yul\":11645:11738   */\n      tag_430\n        /* \"#utility.yul\":11734:11737   */\n      dup3\n        /* \"#utility.yul\":11645:11738   */\n      tag_271\n      jump\t// in\n    tag_430:\n        /* \"#utility.yul\":11763:11765   */\n      0x20\n        /* \"#utility.yul\":11758:11761   */\n      dup3\n        /* \"#utility.yul\":11754:11766   */\n      add\n        /* \"#utility.yul\":11747:11766   */\n      swap1\n      pop\n        /* \"#utility.yul\":11406:11772   */\n      swap2\n      swap1\n      pop\n      jump\t// out\n        /* \"#utility.yul\":11778:12197   */\n    tag_87:\n        /* \"#utility.yul\":11944:11948   */\n      0x00\n        /* \"#utility.yul\":11982:11984   */\n      0x20\n        /* \"#utility.yul\":11971:11980   */\n      dup3\n        /* \"#utility.yul\":11967:11985   */\n      add\n        /* \"#utility.yul\":11959:11985   */\n      swap1\n      pop\n        /* \"#utility.yul\":12031:12040   */\n      dup2\n        /* \"#utility.yul\":12025:12029   */\n      dup2\n        /* \"#utility.yul\":12021:12041   */\n      sub\n        /* \"#utility.yul\":12017:12018   */\n      0x00\n        /* \"#utility.yul\":12006:12015   */\n      dup4\n        /* \"#utility.yul\":12002:12019   */\n      add\n        /* \"#utility.yul\":11995:12042   */\n      mstore\n        /* \"#utility.yul\":12059:12190   */\n      tag_432\n        /* \"#utility.yul\":12185:12189   */\n      dup2\n        /* \"#utility.yul\":12059:12190   */\n      tag_272\n      jump\t// in\n    tag_432:\n        /* \"#utility.yul\":12051:12190   */\n      swap1\n      pop\n        /* \"#utility.yul\":11778:12197   */\n      swap2\n      swap1\n      pop\n      jump\t// out\n        /* \"#utility.yul\":12203:12383   */\n    tag_93:\n        /* \"#utility.yul\":12251:12328   */\n      0x4e487b7100000000000000000000000000000000000000000000000000000000\n        /* \"#utility.yul\":12248:12249   */\n      0x00\n        /* \"#utility.yul\":12241:12329   */\n      mstore\n        /* \"#utility.yul\":12348:12352   */\n      0x32\n        /* \"#utility.yul\":12345:12346   */\n      0x04\n        /* \"#utility.yul\":12338:12353   */\n      mstore\n        /* \"#utility.yul\":12372:12376   */\n      0x24\n        /* \"#utility.yul\":12369:12370   */\n      0x00\n        /* \"#utility.yul\":12362:12377   */\n      revert\n        /* \"#utility.yul\":12389:12552   */\n    tag_273:\n        /* \"#utility.yul\":12529:12544   */\n      0x416c726561647920766f74656400000000000000000000000000000000000000\n        /* \"#utility.yul\":12525:12526   */\n      0x00\n        /* \"#utility.yul\":12517:12523   */\n      dup3\n        /* \"#utility.yul\":12513:12527   */\n      add\n        /* \"#utility.yul\":12506:12545   */\n      mstore\n        /* \"#utility.yul\":12389:12552   */\n      pop\n      jump\t// out\n        /* \"#utility.yul\":12558:12924   */\n    tag_274:\n        /* \"#utility.yul\":12700:12703   */\n      0x00\n        /* \"#utility.yul\":12721:12788   */\n      tag_436\n        /* \"#utility.yul\":12785:12787   */\n      0x0d\n        /* \"#utility.yul\":12780:12783   */\n      dup4\n        /* \"#utility.yul\":12721:12788   */\n      tag_238\n      jump\t// in\n    tag_436:\n        /* \"#utility.yul\":12714:12788   */\n      swap2\n      pop\n        /* \"#utility.yul\":12797:12890   */\n      tag_437\n        /* \"#utility.yul\":12886:12889   */\n      dup3\n        /* \"#utility.yul\":12797:12890   */\n      tag_273\n      jump\t// in\n    tag_437:\n        /* \"#utility.yul\":12915:12917   */\n      0x20\n        /* \"#utility.yul\":12910:12913   */\n      dup3\n        /* \"#utility.yul\":12906:12918   */\n      add\n        /* \"#utility.yul\":12899:12918   */\n      swap1\n      pop\n        /* \"#utility.yul\":12558:12924   */\n      swap2\n      swap1\n      pop\n      jump\t// out\n        /* \"#utility.yul\":12930:13349   */\n    tag_97:\n        /* \"#utility.yul\":13096:13100   */\n      0x00\n        /* \"#utility.yul\":13134:13136   */\n      0x20\n        /* \"#utility.yul\":13123:13132   */\n      dup3\n        /* \"#utility.yul\":13119:13137   */\n      add\n        /* \"#utility.yul\":13111:13137   */\n      swap1\n      pop\n        /* \"#utility.yul\":13183:13192   */\n      dup2\n        /* \"#utility.yul\":13177:13181   */\n      dup2\n        /* \"#utility.yul\":13173:13193   */\n      sub\n        /* \"#utility.yul\":13169:13170   */\n      0x00\n        /* \"#utility.yul\":13158:13167   */\n      dup4\n        /* \"#utility.yul\":13154:13171   */\n      add\n        /* \"#utility.yul\":13147:13194   */\n      mstore\n        /* \"#utility.yul\":13211:13342   */\n      tag_439\n        /* \"#utility.yul\":13337:13341   */\n      dup2\n        /* \"#utility.yul\":13211:13342   */\n      tag_274\n      jump\t// in\n    tag_439:\n        /* \"#utility.yul\":13203:13342   */\n      swap1\n      pop\n        /* \"#utility.yul\":12930:13349   */\n      swap2\n      swap1\n      pop\n      jump\t// out\n        /* \"#utility.yul\":13355:13535   */\n    tag_275:\n        /* \"#utility.yul\":13403:13480   */\n      0x4e487b7100000000000000000000000000000000000000000000000000000000\n        /* \"#utility.yul\":13400:13401   */\n      0x00\n        /* \"#utility.yul\":13393:13481   */\n      mstore\n        /* \"#utility.yul\":13500:13504   */\n      0x11\n        /* \"#utility.yul\":13497:13498   */\n      0x04\n        /* \"#utility.yul\":13490:13505   */\n      mstore\n        /* \"#utility.yul\":13524:13528   */\n      0x24\n        /* \"#utility.yul\":13521:13522   */\n      0x00\n        /* \"#utility.yul\":13514:13529   */\n      revert\n        /* \"#utility.yul\":13541:13951   */\n    tag_101:\n        /* \"#utility.yul\":13581:13588   */\n      0x00\n        /* \"#utility.yul\":13604:13624   */\n      tag_442\n        /* \"#utility.yul\":13622:13623   */\n      dup3\n        /* \"#utility.yul\":13604:13624   */\n      tag_234\n      jump\t// in\n    tag_442:\n        /* \"#utility.yul\":13599:13624   */\n      swap2\n      pop\n        /* \"#utility.yul\":13638:13658   */\n      tag_443\n        /* \"#utility.yul\":13656:13657   */\n      dup4\n        /* \"#utility.yul\":13638:13658   */\n      tag_234\n      jump\t// in\n    tag_443:\n        /* \"#utility.yul\":13633:13658   */\n      swap3\n      pop\n        /* \"#utility.yul\":13693:13694   */\n      dup3\n        /* \"#utility.yul\":13690:13691   */\n      dup3\n        /* \"#utility.yul\":13686:13695   */\n      mul\n        /* \"#utility.yul\":13715:13745   */\n      tag_444\n        /* \"#utility.yul\":13733:13744   */\n      dup2\n        /* \"#utility.yul\":13715:13745   */\n      tag_234\n      jump\t// in\n    tag_444:\n        /* \"#utility.yul\":13704:13745   */\n      swap2\n      pop\n        /* \"#utility.yul\":13894:13895   */\n      dup3\n        /* \"#utility.yul\":13885:13892   */\n      dup3\n        /* \"#utility.yul\":13881:13896   */\n      div\n        /* \"#utility.yul\":13878:13879   */\n      dup5\n        /* \"#utility.yul\":13875:13897   */\n      eq\n        /* \"#utility.yul\":13855:13856   */\n      dup4\n        /* \"#utility.yul\":13848:13857   */\n      iszero\n        /* \"#utility.yul\":13828:13911   */\n      or\n        /* \"#utility.yul\":13805:13944   */\n      tag_445\n      jumpi\n        /* \"#utility.yul\":13924:13942   */\n      tag_446\n      tag_275\n      jump\t// in\n    tag_446:\n        /* \"#utility.yul\":13805:13944   */\n    tag_445:\n        /* \"#utility.yul\":13589:13951   */\n      pop\n        /* \"#utility.yul\":13541:13951   */\n      swap3\n      swap2\n      pop\n      pop\n      jump\t// out\n        /* \"#utility.yul\":13957:14137   */\n    tag_276:\n        /* \"#utility.yul\":14005:14082   */\n      0x4e487b7100000000000000000000000000000000000000000000000000000000\n        /* \"#utility.yul\":14002:14003   */\n      0x00\n        /* \"#utility.yul\":13995:14083   */\n      mstore\n        /* \"#utility.yul\":14102:14106   */\n      0x12\n        /* \"#utility.yul\":14099:14100   */\n      0x04\n        /* \"#utility.yul\":14092:14107   */\n      mstore\n        /* \"#utility.yul\":14126:14130   */\n      0x24\n        /* \"#utility.yul\":14123:14124   */\n      0x00\n        /* \"#utility.yul\":14116:14131   */\n      revert\n        /* \"#utility.yul\":14143:14328   */\n    tag_103:\n        /* \"#utility.yul\":14183:14184   */\n      0x00\n        /* \"#utility.yul\":14200:14220   */\n      tag_449\n        /* \"#utility.yul\":14218:14219   */\n      dup3\n        /* \"#utility.yul\":14200:14220   */\n      tag_234\n      jump\t// in\n    tag_449:\n        /* \"#utility.yul\":14195:14220   */\n      swap2\n      pop\n        /* \"#utility.yul\":14234:14254   */\n      tag_450\n        /* \"#utility.yul\":14252:14253   */\n      dup4\n        /* \"#utility.yul\":14234:14254   */\n      tag_234\n      jump\t// in\n    tag_450:\n        /* \"#utility.yul\":14229:14254   */\n      swap3\n      pop\n        /* \"#utility.yul\":14273:14274   */\n      dup3\n        /* \"#utility.yul\":14263:14298   */\n      tag_451\n      jumpi\n        /* \"#utility.yul\":14278:14296   */\n      tag_452\n      tag_276\n      jump\t// in\n    tag_452:\n        /* \"#utility.yul\":14263:14298   */\n    tag_451:\n        /* \"#utility.yul\":14320:14321   */\n      dup3\n        /* \"#utility.yul\":14317:14318   */\n      dup3\n        /* \"#utility.yul\":14313:14322   */\n      div\n        /* \"#utility.yul\":14308:14322   */\n      swap1\n      pop\n        /* \"#utility.yul\":14143:14328   */\n      swap3\n      swap2\n      pop\n      pop\n      jump\t// out\n        /* \"#utility.yul\":14334:14567   */\n    tag_112:\n        /* \"#utility.yul\":14373:14376   */\n      0x00\n        /* \"#utility.yul\":14396:14420   */\n      tag_454\n        /* \"#utility.yul\":14414:14419   */\n      dup3\n        /* \"#utility.yul\":14396:14420   */\n      tag_234\n      jump\t// in\n    tag_454:\n        /* \"#utility.yul\":14387:14420   */\n      swap2\n      pop\n        /* \"#utility.yul\":14442:14508   */\n      0xffffffffffffffffffffffffffffffffffffffffffffffffffffffffffffffff\n        /* \"#utility.yul\":14435:14440   */\n      dup3\n        /* \"#utility.yul\":14432:14509   */\n      sub\n        /* \"#utility.yul\":14429:14532   */\n      tag_455\n      jumpi\n        /* \"#utility.yul\":14512:14530   */\n      tag_456\n      tag_275\n      jump\t// in\n    tag_456:\n        /* \"#utility.yul\":14429:14532   */\n    tag_455:\n        /* \"#utility.yul\":14559:14560   */\n      0x01\n        /* \"#utility.yul\":14552:14557   */\n      dup3\n        /* \"#utility.yul\":14548:14561   */\n      add\n        /* \"#utility.yul\":14541:14561   */\n      swap1\n      pop\n        /* \"#utility.yul\":14334:14567   */\n      swap2\n      swap1\n      pop\n      jump\t// out\n        /* \"#utility.yul\":14573:14753   */\n    tag_277:\n        /* \"#utility.yul\":14621:14698   */\n      0x4e487b7100000000000000000000000000000000000000000000000000000000\n        /* \"#utility.yul\":14618:14619   */\n      0x00\n        /* \"#utility.yul\":14611:14699   */\n      mstore\n        /* \"#utility.yul\":14718:14722   */\n      0x22\n        /* \"#utility.yul\":14715:14716   */\n      0x04\n        /* \"#utility.yul\":14708:14723   */\n      mstore\n        /* \"#utility.yul\":14742:14746   */\n      0x24\n        /* \"#utility.yul\":14739:14740   */\n      0x00\n        /* \"#utility.yul\":14732:14747   */\n      revert\n        /* \"#utility.yul\":14759:15079   */\n    tag_131:\n        /* \"#utility.yul\":14803:14809   */\n      0x00\n        /* \"#utility.yul\":14840:14841   */\n      0x02\n        /* \"#utility.yul\":14834:14838   */\n      dup3\n        /* \"#utility.yul\":14830:14842   */\n      div\n        /* \"#utility.yul\":14820:14842   */\n      swap1\n      pop\n        /* \"#utility.yul\":14887:14888   */\n      0x01\n        /* \"#utility.yul\":14881:14885   */\n      dup3\n        /* \"#utility.yul\":14877:14889   */\n      and\n        /* \"#utility.yul\":14908:14926   */\n      dup1\n        /* \"#utility.yul\":14898:14979   */\n      tag_459\n      jumpi\n        /* \"#utility.yul\":14964:14968   */\n      0x7f\n        /* \"#utility.yul\":14956:14962   */\n      dup3\n        /* \"#utility.yul\":14952:14969   */\n      and\n        /* \"#utility.yul\":14942:14969   */\n      swap2\n      pop\n        /* \"#utility.yul\":14898:14979   */\n    tag_459:\n        /* \"#utility.yul\":15026:15028   */\n      0x20\n        /* \"#utility.yul\":15018:15024   */\n      dup3\n        /* \"#utility.yul\":15015:15029   */\n      lt\n        /* \"#utility.yul\":14995:15013   */\n      dup2\n        /* \"#utility.yul\":14992:15030   */\n      sub\n        /* \"#utility.yul\":14989:15073   */\n      tag_460\n      jumpi\n        /* \"#utility.yul\":15045:15063   */\n      tag_461\n      tag_277\n      jump\t// in\n    tag_461:\n        /* \"#utility.yul\":14989:15073   */\n    tag_460:\n        /* \"#utility.yul\":14810:15079   */\n      pop\n        /* \"#utility.yul\":14759:15079   */\n      swap2\n      swap1\n      pop\n      jump\t// out\n        /* \"#utility.yul\":15085:15226   */\n    tag_278:\n        /* \"#utility.yul\":15134:15138   */\n      0x00\n        /* \"#utility.yul\":15157:15160   */\n      dup2\n        /* \"#utility.yul\":15149:15160   */\n      swap1\n      pop\n        /* \"#utility.yul\":15180:15183   */\n      dup2\n        /* \"#utility.yul\":15177:15178   */\n      0x00\n        /* \"#utility.yul\":15170:15184   */\n      mstore\n        /* \"#utility.yul\":15214:15218   */\n      0x20\n        /* \"#utility.yul\":15211:15212   */\n      0x00\n        /* \"#utility.yul\":15201:15219   */\n      keccak256\n        /* \"#utility.yul\":15193:15219   */\n      swap1\n      pop\n        /* \"#utility.yul\":15085:15226   */\n      swap2\n      swap1\n      pop\n      jump\t// out\n        /* \"#utility.yul\":15256:16087   */\n    tag_279:\n        /* \"#utility.yul\":15341:15344   */\n      0x00\n        /* \"#utility.yul\":15378:15383   */\n      dup2\n        /* \"#utility.yul\":15372:15384   */\n      sload\n        /* \"#utility.yul\":15407:15443   */\n      tag_464\n        /* \"#utility.yul\":15433:15442   */\n      dup2\n        /* \"#utility.yul\":15407:15443   */\n      tag_131\n      jump\t// in\n    tag_464:\n        /* \"#utility.yul\":15459:15530   */\n      tag_465\n        /* \"#utility.yul\":15523:15529   */\n      dup2\n        /* \"#utility.yul\":15518:15521   */\n      dup7\n        /* \"#utility.yul\":15459:15530   */\n      tag_238\n      jump\t// in\n    tag_465:\n        /* \"#utility.yul\":15452:15530   */\n      swap5\n      pop\n        /* \"#utility.yul\":15561:15562   */\n      0x01\n        /* \"#utility.yul\":15550:15559   */\n      dup3\n        /* \"#utility.yul\":15546:15563   */\n      and\n        /* \"#utility.yul\":15577:15578   */\n      0x00\n        /* \"#utility.yul\":15572:15736   */\n      dup2\n      eq\n      tag_467\n      jumpi\n        /* \"#utility.yul\":15750:15751   */\n      0x01\n        /* \"#utility.yul\":15745:16081   */\n      dup2\n      eq\n      tag_468\n      jumpi\n        /* \"#utility.yul\":15539:16081   */\n      jump(tag_466)\n        /* \"#utility.yul\":15572:15736   */\n    tag_467:\n        /* \"#utility.yul\":15656:15660   */\n      0xff\n        /* \"#utility.yul\":15652:15661   */\n      not\n        /* \"#utility.yul\":15641:15650   */\n      dup4\n        /* \"#utility.yul\":15637:15662   */\n      and\n        /* \"#utility.yul\":15632:15635   */\n      dup7\n        /* \"#utility.yul\":15625:15663   */\n      mstore\n        /* \"#utility.yul\":15716:15722   */\n      dup2\n        /* \"#utility.yul\":15709:15723   */\n      iszero\n        /* \"#utility.yul\":15702:15724   */\n      iszero\n        /* \"#utility.yul\":15696:15700   */\n      0x20\n        /* \"#utility.yul\":15692:15725   */\n      mul\n        /* \"#utility.yul\":15687:15690   */\n      dup7\n        /* \"#utility.yul\":15683:15726   */\n      add\n        /* \"#utility.yul\":15676:15726   */\n      swap4\n      pop\n        /* \"#utility.yul\":15572:15736   */\n      jump(tag_466)\n        /* \"#utility.yul\":15745:16081   */\n    tag_468:\n        /* \"#utility.yul\":15812:15850   */\n      tag_469\n        /* \"#utility.yul\":15844:15849   */\n      dup6\n        /* \"#utility.yul\":15812:15850   */\n      tag_278\n      jump\t// in\n    tag_469:\n        /* \"#utility.yul\":15872:15873   */\n      0x00\n        /* \"#utility.yul\":15886:16040   */\n    tag_470:\n        /* \"#utility.yul\":15900:15906   */\n      dup4\n        /* \"#utility.yul\":15897:15898   */\n      dup2\n        /* \"#utility.yul\":15894:15907   */\n      lt\n        /* \"#utility.yul\":15886:16040   */\n      iszero\n      tag_472\n      jumpi\n        /* \"#utility.yul\":15974:15981   */\n      dup2\n        /* \"#utility.yul\":15968:15982   */\n      sload\n        /* \"#utility.yul\":15964:15965   */\n      dup2\n        /* \"#utility.yul\":15959:15962   */\n      dup10\n        /* \"#utility.yul\":15955:15966   */\n      add\n        /* \"#utility.yul\":15948:15983   */\n      mstore\n        /* \"#utility.yul\":16024:16025   */\n      0x01\n        /* \"#utility.yul\":16015:16022   */\n      dup3\n        /* \"#utility.yul\":16011:16026   */\n      add\n        /* \"#utility.yul\":16000:16026   */\n      swap2\n      pop\n        /* \"#utility.yul\":15922:15926   */\n      0x20\n        /* \"#utility.yul\":15919:15920   */\n      dup2\n        /* \"#utility.yul\":15915:15927   */\n      add\n        /* \"#utility.yul\":15910:15927   */\n      swap1\n      pop\n        /* \"#utility.yul\":15886:16040   */\n      jump(tag_470)\n    tag_472:\n        /* \"#utility.yul\":16069:16070   */\n      dup1\n        /* \"#utility.yul\":16064:16067   */\n      dup9\n        /* \"#utility.yul\":16060:16071   */\n      add\n        /* \"#utility.yul\":16053:16071   */\n      swap6\n      pop\n        /* \"#utility.yul\":15752:16081   */\n      pop\n      pop\n        /* \"#utility.yul\":15539:16081   */\n    tag_466:\n      pop\n        /* \"#utility.yul\":15345:16087   */\n      pop\n      pop\n        /* \"#utility.yul\":15256:16087   */\n      swap3\n      swap2\n      pop\n      pop\n      jump\t// out\n        /* \"#utility.yul\":16093:16620   */\n    tag_116:\n        /* \"#utility.yul\":16259:16263   */\n      0x00\n        /* \"#utility.yul\":16297:16299   */\n      0x60\n        /* \"#utility.yul\":16286:16295   */\n      dup3\n        /* \"#utility.yul\":16282:16300   */\n      add\n        /* \"#utility.yul\":16274:16300   */\n      swap1\n      pop\n        /* \"#utility.yul\":16346:16355   */\n      dup2\n        /* \"#utility.yul\":16340:16344   */\n      dup2\n        /* \"#utility.yul\":16336:16356   */\n      sub\n        /* \"#utility.yul\":16332:16333   */\n      0x00\n        /* \"#utility.yul\":16321:16330   */\n      dup4\n        /* \"#utility.yul\":16317:16334   */\n      add\n        /* \"#utility.yul\":16310:16357   */\n      mstore\n        /* \"#utility.yul\":16374:16449   */\n      tag_474\n        /* \"#utility.yul\":16444:16448   */\n      dup2\n        /* \"#utility.yul\":16435:16441   */\n      dup7\n        /* \"#utility.yul\":16374:16449   */\n      tag_279\n      jump\t// in\n    tag_474:\n        /* \"#utility.yul\":16366:16449   */\n      swap1\n      pop\n        /* \"#utility.yul\":16459:16531   */\n      tag_475\n        /* \"#utility.yul\":16527:16529   */\n      0x20\n        /* \"#utility.yul\":16516:16525   */\n      dup4\n        /* \"#utility.yul\":16512:16530   */\n      add\n        /* \"#utility.yul\":16503:16509   */\n      dup6\n        /* \"#utility.yul\":16459:16531   */\n      tag_244\n      jump\t// in\n    tag_475:\n        /* \"#utility.yul\":16541:16613   */\n      tag_476\n        /* \"#utility.yul\":16609:16611   */\n      0x40\n        /* \"#utility.yul\":16598:16607   */\n      dup4\n        /* \"#utility.yul\":16594:16612   */\n      add\n        /* \"#utility.yul\":16585:16591   */\n      dup5\n        /* \"#utility.yul\":16541:16613   */\n      tag_245\n      jump\t// in\n    tag_476:\n        /* \"#utility.yul\":16093:16620   */\n      swap5\n      swap4\n      pop\n      pop\n      pop\n      pop\n      jump\t// out\n        /* \"#utility.yul\":16626:16958   */\n    tag_119:\n        /* \"#utility.yul\":16747:16751   */\n      0x00\n        /* \"#utility.yul\":16785:16787   */\n      0x40\n        /* \"#utility.yul\":16774:16783   */\n      dup3\n        /* \"#utility.yul\":16770:16788   */\n      add\n        /* \"#utility.yul\":16762:16788   */\n      swap1\n      pop\n        /* \"#utility.yul\":16798:16869   */\n      tag_478\n        /* \"#utility.yul\":16866:16867   */\n      0x00\n        /* \"#utility.yul\":16855:16864   */\n      dup4\n        /* \"#utility.yul\":16851:16868   */\n      add\n        /* \"#utility.yul\":16842:16848   */\n      dup6\n        /* \"#utility.yul\":16798:16869   */\n      tag_245\n      jump\t// in\n    tag_478:\n        /* \"#utility.yul\":16879:16951   */\n      tag_479\n        /* \"#utility.yul\":16947:16949   */\n      0x20\n        /* \"#utility.yul\":16936:16945   */\n      dup4\n        /* \"#utility.yul\":16932:16950   */\n      add\n        /* \"#utility.yul\":16923:16929   */\n      dup5\n        /* \"#utility.yul\":16879:16951   */\n      tag_244\n      jump\t// in\n    tag_479:\n        /* \"#utility.yul\":16626:16958   */\n      swap4\n      swap3\n      pop\n      pop\n      pop\n      jump\t// out\n        /* \"#utility.yul\":16964:17194   */\n    tag_280:\n        /* \"#utility.yul\":17104:17138   */\n      0x496e73756666696369656e742066756e647320746f2065786563757465207468\n        /* \"#utility.yul\":17100:17101   */\n      0x00\n        /* \"#utility.yul\":17092:17098   */\n      dup3\n        /* \"#utility.yul\":17088:17102   */\n      add\n        /* \"#utility.yul\":17081:17139   */\n      mstore\n        /* \"#utility.yul\":17173:17186   */\n      0x652070726f706f73616c2e000000000000000000000000000000000000000000\n        /* \"#utility.yul\":17168:17170   */\n      0x20\n        /* \"#utility.yul\":17160:17166   */\n      dup3\n        /* \"#utility.yul\":17156:17171   */\n      add\n        /* \"#utility.yul\":17149:17187   */\n      mstore\n        /* \"#utility.yul\":16964:17194   */\n      pop\n      jump\t// out\n        /* \"#utility.yul\":17200:17566   */\n    tag_281:\n        /* \"#utility.yul\":17342:17345   */\n      0x00\n        /* \"#utility.yul\":17363:17430   */\n      tag_482\n        /* \"#utility.yul\":17427:17429   */\n      0x2b\n        /* \"#utility.yul\":17422:17425   */\n      dup4\n        /* \"#utility.yul\":17363:17430   */\n      tag_238\n      jump\t// in\n    tag_482:\n        /* \"#utility.yul\":17356:17430   */\n      swap2\n      pop\n        /* \"#utility.yul\":17439:17532   */\n      tag_483\n        /* \"#utility.yul\":17528:17531   */\n      dup3\n        /* \"#utility.yul\":17439:17532   */\n      tag_280\n      jump\t// in\n    tag_483:\n        /* \"#utility.yul\":17557:17559   */\n      0x40\n        /* \"#utility.yul\":17552:17555   */\n      dup3\n        /* \"#utility.yul\":17548:17560   */\n      add\n        /* \"#utility.yul\":17541:17560   */\n      swap1\n      pop\n        /* \"#utility.yul\":17200:17566   */\n      swap2\n      swap1\n      pop\n      jump\t// out\n        /* \"#utility.yul\":17572:17991   */\n    tag_124:\n        /* \"#utility.yul\":17738:17742   */\n      0x00\n        /* \"#utility.yul\":17776:17778   */\n      0x20\n        /* \"#utility.yul\":17765:17774   */\n      dup3\n        /* \"#utility.yul\":17761:17779   */\n      add\n        /* \"#utility.yul\":17753:17779   */\n      swap1\n      pop\n        /* \"#utility.yul\":17825:17834   */\n      dup2\n        /* \"#utility.yul\":17819:17823   */\n      dup2\n        /* \"#utility.yul\":17815:17835   */\n      sub\n        /* \"#utility.yul\":17811:17812   */\n      0x00\n        /* \"#utility.yul\":17800:17809   */\n      dup4\n        /* \"#utility.yul\":17796:17813   */\n      add\n        /* \"#utility.yul\":17789:17836   */\n      mstore\n        /* \"#utility.yul\":17853:17984   */\n      tag_485\n        /* \"#utility.yul\":17979:17983   */\n      dup2\n        /* \"#utility.yul\":17853:17984   */\n      tag_281\n      jump\t// in\n    tag_485:\n        /* \"#utility.yul\":17845:17984   */\n      swap1\n      pop\n        /* \"#utility.yul\":17572:17991   */\n      swap2\n      swap1\n      pop\n      jump\t// out\n        /* \"#utility.yul\":17997:18230   */\n    tag_282:\n        /* \"#utility.yul\":18137:18171   */\n      0x4661696c656420746f207472616e736665722066756e6473206469726563746c\n        /* \"#utility.yul\":18133:18134   */\n      0x00\n        /* \"#utility.yul\":18125:18131   */\n      dup3\n        /* \"#utility.yul\":18121:18135   */\n      add\n        /* \"#utility.yul\":18114:18172   */\n      mstore\n        /* \"#utility.yul\":18206:18222   */\n      0x7920746f2070726f706f7365722e000000000000000000000000000000000000\n        /* \"#utility.yul\":18201:18203   */\n      0x20\n        /* \"#utility.yul\":18193:18199   */\n      dup3\n        /* \"#utility.yul\":18189:18204   */\n      add\n        /* \"#utility.yul\":18182:18223   */\n      mstore\n        /* \"#utility.yul\":17997:18230   */\n      pop\n      jump\t// out\n        /* \"#utility.yul\":18236:18602   */\n    tag_283:\n        /* \"#utility.yul\":18378:18381   */\n      0x00\n        /* \"#utility.yul\":18399:18466   */\n      tag_488\n        /* \"#utility.yul\":18463:18465   */\n      0x2e\n        /* \"#utility.yul\":18458:18461   */\n      dup4\n        /* \"#utility.yul\":18399:18466   */\n      tag_238\n      jump\t// in\n    tag_488:\n        /* \"#utility.yul\":18392:18466   */\n      swap2\n      pop\n        /* \"#utility.yul\":18475:18568   */\n      tag_489\n        /* \"#utility.yul\":18564:18567   */\n      dup3\n        /* \"#utility.yul\":18475:18568   */\n      tag_282\n      jump\t// in\n    tag_489:\n        /* \"#utility.yul\":18593:18595   */\n      0x40\n        /* \"#utility.yul\":18588:18591   */\n      dup3\n        /* \"#utility.yul\":18584:18596   */\n      add\n        /* \"#utility.yul\":18577:18596   */\n      swap1\n      pop\n        /* \"#utility.yul\":18236:18602   */\n      swap2\n      swap1\n      pop\n      jump\t// out\n        /* \"#utility.yul\":18608:19027   */\n    tag_128:\n        /* \"#utility.yul\":18774:18778   */\n      0x00\n        /* \"#utility.yul\":18812:18814   */\n      0x20\n        /* \"#utility.yul\":18801:18810   */\n      dup3\n        /* \"#utility.yul\":18797:18815   */\n      add\n        /* \"#utility.yul\":18789:18815   */\n      swap1\n      pop\n        /* \"#utility.yul\":18861:18870   */\n      dup2\n        /* \"#utility.yul\":18855:18859   */\n      dup2\n        /* \"#utility.yul\":18851:18871   */\n      sub\n        /* \"#utility.yul\":18847:18848   */\n      0x00\n        /* \"#utility.yul\":18836:18845   */\n      dup4\n        /* \"#utility.yul\":18832:18849   */\n      add\n        /* \"#utility.yul\":18825:18872   */\n      mstore\n        /* \"#utility.yul\":18889:19020   */\n      tag_491\n        /* \"#utility.yul\":19015:19019   */\n      dup2\n        /* \"#utility.yul\":18889:19020   */\n      tag_283\n      jump\t// in\n    tag_491:\n        /* \"#utility.yul\":18881:19020   */\n      swap1\n      pop\n        /* \"#utility.yul\":18608:19027   */\n      swap2\n      swap1\n      pop\n      jump\t// out\n        /* \"#utility.yul\":19033:19227   */\n    tag_153:\n        /* \"#utility.yul\":19073:19077   */\n      0x00\n        /* \"#utility.yul\":19093:19113   */\n      tag_493\n        /* \"#utility.yul\":19111:19112   */\n      dup3\n        /* \"#utility.yul\":19093:19113   */\n      tag_234\n      jump\t// in\n    tag_493:\n        /* \"#utility.yul\":19088:19113   */\n      swap2\n      pop\n        /* \"#utility.yul\":19127:19147   */\n      tag_494\n        /* \"#utility.yul\":19145:19146   */\n      dup4\n        /* \"#utility.yul\":19127:19147   */\n      tag_234\n      jump\t// in\n    tag_494:\n        /* \"#utility.yul\":19122:19147   */\n      swap3\n      pop\n        /* \"#utility.yul\":19171:19172   */\n      dup3\n        /* \"#utility.yul\":19168:19169   */\n      dup3\n        /* \"#utility.yul\":19164:19173   */\n      sub\n        /* \"#utility.yul\":19156:19173   */\n      swap1\n      pop\n        /* \"#utility.yul\":19195:19196   */\n      dup2\n        /* \"#utility.yul\":19189:19193   */\n      dup2\n        /* \"#utility.yul\":19186:19197   */\n      gt\n        /* \"#utility.yul\":19183:19220   */\n      iszero\n      tag_495\n      jumpi\n        /* \"#utility.yul\":19200:19218   */\n      tag_496\n      tag_275\n      jump\t// in\n    tag_496:\n        /* \"#utility.yul\":19183:19220   */\n    tag_495:\n        /* \"#utility.yul\":19033:19227   */\n      swap3\n      swap2\n      pop\n      pop\n      jump\t// out\n        /* \"#utility.yul\":19233:19413   */\n    tag_162:\n        /* \"#utility.yul\":19281:19358   */\n      0x4e487b7100000000000000000000000000000000000000000000000000000000\n        /* \"#utility.yul\":19278:19279   */\n      0x00\n        /* \"#utility.yul\":19271:19359   */\n      mstore\n        /* \"#utility.yul\":19378:19382   */\n      0x31\n        /* \"#utility.yul\":19375:19376   */\n      0x04\n        /* \"#utility.yul\":19368:19383   */\n      mstore\n        /* \"#utility.yul\":19402:19406   */\n      0x24\n        /* \"#utility.yul\":19399:19400   */\n      0x00\n        /* \"#utility.yul\":19392:19407   */\n      revert\n        /* \"#utility.yul\":19419:19512   */\n    tag_284:\n        /* \"#utility.yul\":19456:19462   */\n      0x00\n        /* \"#utility.yul\":19503:19505   */\n      0x20\n        /* \"#utility.yul\":19498:19500   */\n      0x1f\n        /* \"#utility.yul\":19491:19496   */\n      dup4\n        /* \"#utility.yul\":19487:19501   */\n      add\n        /* \"#utility.yul\":19483:19506   */\n      div\n        /* \"#utility.yul\":19473:19506   */\n      swap1\n      pop\n        /* \"#utility.yul\":19419:19512   */\n      swap2\n      swap1\n      pop\n      jump\t// out\n        /* \"#utility.yul\":19518:19625   */\n    tag_285:\n        /* \"#utility.yul\":19562:19570   */\n      0x00\n        /* \"#utility.yul\":19612:19617   */\n      dup3\n        /* \"#utility.yul\":19606:19610   */\n      dup3\n        /* \"#utility.yul\":19602:19618   */\n      shl\n        /* \"#utility.yul\":19581:19618   */\n      swap1\n      pop\n        /* \"#utility.yul\":19518:19625   */\n      swap3\n      swap2\n      pop\n      pop\n      jump\t// out\n        /* \"#utility.yul\":19631:20024   */\n    tag_286:\n        /* \"#utility.yul\":19700:19706   */\n      0x00\n        /* \"#utility.yul\":19750:19751   */\n      0x08\n        /* \"#utility.yul\":19738:19748   */\n      dup4\n        /* \"#utility.yul\":19734:19752   */\n      mul\n        /* \"#utility.yul\":19773:19870   */\n      tag_501\n        /* \"#utility.yul\":19803:19869   */\n      0xffffffffffffffffffffffffffffffffffffffffffffffffffffffffffffffff\n        /* \"#utility.yul\":19792:19801   */\n      dup3\n        /* \"#utility.yul\":19773:19870   */\n      tag_285\n      jump\t// in\n    tag_501:\n        /* \"#utility.yul\":19891:19930   */\n      tag_502\n        /* \"#utility.yul\":19921:19929   */\n      dup7\n        /* \"#utility.yul\":19910:19919   */\n      dup4\n        /* \"#utility.yul\":19891:19930   */\n      tag_285\n      jump\t// in\n    tag_502:\n        /* \"#utility.yul\":19879:19930   */\n      swap6\n      pop\n        /* \"#utility.yul\":19963:19967   */\n      dup1\n        /* \"#utility.yul\":19959:19968   */\n      not\n        /* \"#utility.yul\":19952:19957   */\n      dup5\n        /* \"#utility.yul\":19948:19969   */\n      and\n        /* \"#utility.yul\":19939:19969   */\n      swap4\n      pop\n        /* \"#utility.yul\":20012:20016   */\n      dup1\n        /* \"#utility.yul\":20002:20010   */\n      dup7\n        /* \"#utility.yul\":19998:20017   */\n      and\n        /* \"#utility.yul\":19991:19996   */\n      dup5\n        /* \"#utility.yul\":19988:20018   */\n      or\n        /* \"#utility.yul\":19978:20018   */\n      swap3\n      pop\n        /* \"#utility.yul\":19707:20024   */\n      pop\n      pop\n        /* \"#utility.yul\":19631:20024   */\n      swap4\n      swap3\n      pop\n      pop\n      pop\n      jump\t// out\n        /* \"#utility.yul\":20030:20172   */\n    tag_287:\n        /* \"#utility.yul\":20080:20089   */\n      0x00\n        /* \"#utility.yul\":20113:20166   */\n      tag_504\n        /* \"#utility.yul\":20131:20165   */\n      tag_505\n        /* \"#utility.yul\":20140:20164   */\n      tag_506\n        /* \"#utility.yul\":20158:20163   */\n      dup5\n        /* \"#utility.yul\":20140:20164   */\n      tag_234\n      jump\t// in\n    tag_506:\n        /* \"#utility.yul\":20131:20165   */\n      tag_254\n      jump\t// in\n    tag_505:\n        /* \"#utility.yul\":20113:20166   */\n      tag_234\n      jump\t// in\n    tag_504:\n        /* \"#utility.yul\":20100:20166   */\n      swap1\n      pop\n        /* \"#utility.yul\":20030:20172   */\n      swap2\n      swap1\n      pop\n      jump\t// out\n        /* \"#utility.yul\":20178:20253   */\n    tag_288:\n        /* \"#utility.yul\":20221:20224   */\n      0x00\n        /* \"#utility.yul\":20242:20247   */\n      dup2\n        /* \"#utility.yul\":20235:20247   */\n      swap1\n      pop\n        /* \"#utility.yul\":20178:20253   */\n      swap2\n      swap1\n      pop\n      jump\t// out\n        /* \"#utility.yul\":20259:20528   */\n    tag_289:\n        /* \"#utility.yul\":20369:20408   */\n      tag_509\n        /* \"#utility.yul\":20400:20407   */\n      dup4\n        /* \"#utility.yul\":20369:20408   */\n      tag_287\n      jump\t// in\n    tag_509:\n        /* \"#utility.yul\":20430:20521   */\n      tag_510\n        /* \"#utility.yul\":20479:20520   */\n      tag_511\n        /* \"#utility.yul\":20503:20519   */\n      dup3\n        /* \"#utility.yul\":20479:20520   */\n      tag_288\n      jump\t// in\n    tag_511:\n        /* \"#utility.yul\":20471:20477   */\n      dup5\n        /* \"#utility.yul\":20464:20468   */\n      dup5\n        /* \"#utility.yul\":20458:20469   */\n      sload\n        /* \"#utility.yul\":20430:20521   */\n      tag_286\n      jump\t// in\n    tag_510:\n        /* \"#utility.yul\":20424:20428   */\n      dup3\n        /* \"#utility.yul\":20417:20522   */\n      sstore\n        /* \"#utility.yul\":20335:20528   */\n      pop\n        /* \"#utility.yul\":20259:20528   */\n      pop\n      pop\n      pop\n      jump\t// out\n        /* \"#utility.yul\":20534:20607   */\n    tag_290:\n        /* \"#utility.yul\":20579:20582   */\n      0x00\n        /* \"#utility.yul\":20534:20607   */\n      swap1\n      jump\t// out\n        /* \"#utility.yul\":20613:20802   */\n    tag_291:\n        /* \"#utility.yul\":20690:20722   */\n      tag_514\n      tag_290\n      jump\t// in\n    tag_514:\n        /* \"#utility.yul\":20731:20796   */\n      tag_515\n        /* \"#utility.yul\":20789:20795   */\n      dup2\n        /* \"#utility.yul\":20781:20787   */\n      dup5\n        /* \"#utility.yul\":20775:20779   */\n      dup5\n        /* \"#utility.yul\":20731:20796   */\n      tag_289\n      jump\t// in\n    tag_515:\n        /* \"#utility.yul\":20666:20802   */\n      pop\n        /* \"#utility.yul\":20613:20802   */\n      pop\n      pop\n      jump\t// out\n        /* \"#utility.yul\":20808:20994   */\n    tag_292:\n        /* \"#utility.yul\":20868:20988   */\n    tag_517:\n        /* \"#utility.yul\":20885:20888   */\n      dup2\n        /* \"#utility.yul\":20878:20883   */\n      dup2\n        /* \"#utility.yul\":20875:20889   */\n      lt\n        /* \"#utility.yul\":20868:20988   */\n      iszero\n      tag_519\n      jumpi\n        /* \"#utility.yul\":20939:20978   */\n      tag_520\n        /* \"#utility.yul\":20976:20977   */\n      0x00\n        /* \"#utility.yul\":20969:20974   */\n      dup3\n        /* \"#utility.yul\":20939:20978   */\n      tag_291\n      jump\t// in\n    tag_520:\n        /* \"#utility.yul\":20912:20913   */\n      0x01\n        /* \"#utility.yul\":20905:20910   */\n      dup2\n        /* \"#utility.yul\":20901:20914   */\n      add\n        /* \"#utility.yul\":20892:20914   */\n      swap1\n      pop\n        /* \"#utility.yul\":20868:20988   */\n      jump(tag_517)\n    tag_519:\n        /* \"#utility.yul\":20808:20994   */\n      pop\n      pop\n      jump\t// out\n        /* \"#utility.yul\":21000:21543   */\n    tag_293:\n        /* \"#utility.yul\":21101:21103   */\n      0x1f\n        /* \"#utility.yul\":21096:21099   */\n      dup3\n        /* \"#utility.yul\":21093:21104   */\n      gt\n        /* \"#utility.yul\":21090:21536   */\n      iszero\n      tag_522\n      jumpi\n        /* \"#utility.yul\":21135:21173   */\n      tag_523\n        /* \"#utility.yul\":21167:21172   */\n      dup2\n        /* \"#utility.yul\":21135:21173   */\n      tag_278\n      jump\t// in\n    tag_523:\n        /* \"#utility.yul\":21219:21248   */\n      tag_524\n        /* \"#utility.yul\":21237:21247   */\n      dup5\n        /* \"#utility.yul\":21219:21248   */\n      tag_284\n      jump\t// in\n    tag_524:\n        /* \"#utility.yul\":21209:21217   */\n      dup2\n        /* \"#utility.yul\":21205:21249   */\n      add\n        /* \"#utility.yul\":21402:21404   */\n      0x20\n        /* \"#utility.yul\":21390:21400   */\n      dup6\n        /* \"#utility.yul\":21387:21405   */\n      lt\n        /* \"#utility.yul\":21384:21433   */\n      iszero\n      tag_525\n      jumpi\n        /* \"#utility.yul\":21423:21431   */\n      dup2\n        /* \"#utility.yul\":21408:21431   */\n      swap1\n      pop\n        /* \"#utility.yul\":21384:21433   */\n    tag_525:\n        /* \"#utility.yul\":21446:21526   */\n      tag_526\n        /* \"#utility.yul\":21502:21524   */\n      tag_527\n        /* \"#utility.yul\":21520:21523   */\n      dup6\n        /* \"#utility.yul\":21502:21524   */\n      tag_284\n      jump\t// in\n    tag_527:\n        /* \"#utility.yul\":21492:21500   */\n      dup4\n        /* \"#utility.yul\":21488:21525   */\n      add\n        /* \"#utility.yul\":21475:21486   */\n      dup3\n        /* \"#utility.yul\":21446:21526   */\n      tag_292\n      jump\t// in\n    tag_526:\n        /* \"#utility.yul\":21105:21536   */\n      pop\n      pop\n        /* \"#utility.yul\":21090:21536   */\n    tag_522:\n        /* \"#utility.yul\":21000:21543   */\n      pop\n      pop\n      pop\n      jump\t// out\n        /* \"#utility.yul\":21549:21666   */\n    tag_294:\n        /* \"#utility.yul\":21603:21611   */\n      0x00\n        /* \"#utility.yul\":21653:21658   */\n      dup3\n        /* \"#utility.yul\":21647:21651   */\n      dup3\n        /* \"#utility.yul\":21643:21659   */\n      shr\n        /* \"#utility.yul\":21622:21659   */\n      swap1\n      pop\n        /* \"#utility.yul\":21549:21666   */\n      swap3\n      swap2\n      pop\n      pop\n      jump\t// out\n        /* \"#utility.yul\":21672:21841   */\n    tag_295:\n        /* \"#utility.yul\":21716:21722   */\n      0x00\n        /* \"#utility.yul\":21749:21800   */\n      tag_530\n        /* \"#utility.yul\":21797:21798   */\n      0x00\n        /* \"#utility.yul\":21793:21799   */\n      not\n        /* \"#utility.yul\":21785:21790   */\n      dup5\n        /* \"#utility.yul\":21782:21783   */\n      0x08\n        /* \"#utility.yul\":21778:21791   */\n      mul\n        /* \"#utility.yul\":21749:21800   */\n      tag_294\n      jump\t// in\n    tag_530:\n        /* \"#utility.yul\":21745:21801   */\n      not\n        /* \"#utility.yul\":21830:21834   */\n      dup1\n        /* \"#utility.yul\":21824:21828   */\n      dup4\n        /* \"#utility.yul\":21820:21835   */\n      and\n        /* \"#utility.yul\":21810:21835   */\n      swap2\n      pop\n        /* \"#utility.yul\":21723:21841   */\n      pop\n        /* \"#utility.yul\":21672:21841   */\n      swap3\n      swap2\n      pop\n      pop\n      jump\t// out\n        /* \"#utility.yul\":21846:22141   */\n    tag_296:\n        /* \"#utility.yul\":21922:21926   */\n      0x00\n        /* \"#utility.yul\":22068:22097   */\n      tag_532\n        /* \"#utility.yul\":22093:22096   */\n      dup4\n        /* \"#utility.yul\":22087:22091   */\n      dup4\n        /* \"#utility.yul\":22068:22097   */\n      tag_295\n      jump\t// in\n    tag_532:\n        /* \"#utility.yul\":22060:22097   */\n      swap2\n      pop\n        /* \"#utility.yul\":22130:22133   */\n      dup3\n        /* \"#utility.yul\":22127:22128   */\n      0x02\n        /* \"#utility.yul\":22123:22134   */\n      mul\n        /* \"#utility.yul\":22117:22121   */\n      dup3\n        /* \"#utility.yul\":22114:22135   */\n      or\n        /* \"#utility.yul\":22106:22135   */\n      swap1\n      pop\n        /* \"#utility.yul\":21846:22141   */\n      swap3\n      swap2\n      pop\n      pop\n      jump\t// out\n        /* \"#utility.yul\":22146:23541   */\n    tag_185:\n        /* \"#utility.yul\":22263:22300   */\n      tag_534\n        /* \"#utility.yul\":22296:22299   */\n      dup3\n        /* \"#utility.yul\":22263:22300   */\n      tag_237\n      jump\t// in\n    tag_534:\n        /* \"#utility.yul\":22365:22383   */\n      0xffffffffffffffff\n        /* \"#utility.yul\":22357:22363   */\n      dup2\n        /* \"#utility.yul\":22354:22384   */\n      gt\n        /* \"#utility.yul\":22351:22407   */\n      iszero\n      tag_535\n      jumpi\n        /* \"#utility.yul\":22387:22405   */\n      tag_536\n      tag_180\n      jump\t// in\n    tag_536:\n        /* \"#utility.yul\":22351:22407   */\n    tag_535:\n        /* \"#utility.yul\":22431:22469   */\n      tag_537\n        /* \"#utility.yul\":22463:22467   */\n      dup3\n        /* \"#utility.yul\":22457:22468   */\n      sload\n        /* \"#utility.yul\":22431:22469   */\n      tag_131\n      jump\t// in\n    tag_537:\n        /* \"#utility.yul\":22516:22583   */\n      tag_538\n        /* \"#utility.yul\":22576:22582   */\n      dup3\n        /* \"#utility.yul\":22568:22574   */\n      dup3\n        /* \"#utility.yul\":22562:22566   */\n      dup6\n        /* \"#utility.yul\":22516:22583   */\n      tag_293\n      jump\t// in\n    tag_538:\n        /* \"#utility.yul\":22610:22611   */\n      0x00\n        /* \"#utility.yul\":22634:22638   */\n      0x20\n        /* \"#utility.yul\":22621:22638   */\n      swap1\n      pop\n        /* \"#utility.yul\":22666:22668   */\n      0x1f\n        /* \"#utility.yul\":22658:22664   */\n      dup4\n        /* \"#utility.yul\":22655:22669   */\n      gt\n        /* \"#utility.yul\":22683:22684   */\n      0x01\n        /* \"#utility.yul\":22678:23296   */\n      dup2\n      eq\n      tag_540\n      jumpi\n        /* \"#utility.yul\":23340:23341   */\n      0x00\n        /* \"#utility.yul\":23357:23363   */\n      dup5\n        /* \"#utility.yul\":23354:23431   */\n      iszero\n      tag_541\n      jumpi\n        /* \"#utility.yul\":23406:23415   */\n      dup3\n        /* \"#utility.yul\":23401:23404   */\n      dup8\n        /* \"#utility.yul\":23397:23416   */\n      add\n        /* \"#utility.yul\":23391:23417   */\n      mload\n        /* \"#utility.yul\":23382:23417   */\n      swap1\n      pop\n        /* \"#utility.yul\":23354:23431   */\n    tag_541:\n        /* \"#utility.yul\":23457:23524   */\n      tag_542\n        /* \"#utility.yul\":23517:23523   */\n      dup6\n        /* \"#utility.yul\":23510:23515   */\n      dup3\n        /* \"#utility.yul\":23457:23524   */\n      tag_296\n      jump\t// in\n    tag_542:\n        /* \"#utility.yul\":23451:23455   */\n      dup7\n        /* \"#utility.yul\":23444:23525   */\n      sstore\n        /* \"#utility.yul\":23313:23535   */\n      pop\n        /* \"#utility.yul\":22648:23535   */\n      jump(tag_539)\n        /* \"#utility.yul\":22678:23296   */\n    tag_540:\n        /* \"#utility.yul\":22730:22734   */\n      0x1f\n        /* \"#utility.yul\":22726:22735   */\n      not\n        /* \"#utility.yul\":22718:22724   */\n      dup5\n        /* \"#utility.yul\":22714:22736   */\n      and\n        /* \"#utility.yul\":22764:22801   */\n      tag_543\n        /* \"#utility.yul\":22796:22800   */\n      dup7\n        /* \"#utility.yul\":22764:22801   */\n      tag_278\n      jump\t// in\n    tag_543:\n        /* \"#utility.yul\":22823:22824   */\n      0x00\n        /* \"#utility.yul\":22837:23045   */\n    tag_544:\n        /* \"#utility.yul\":22851:22858   */\n      dup3\n        /* \"#utility.yul\":22848:22849   */\n      dup2\n        /* \"#utility.yul\":22845:22859   */\n      lt\n        /* \"#utility.yul\":22837:23045   */\n      iszero\n      tag_546\n      jumpi\n        /* \"#utility.yul\":22930:22939   */\n      dup5\n        /* \"#utility.yul\":22925:22928   */\n      dup10\n        /* \"#utility.yul\":22921:22940   */\n      add\n        /* \"#utility.yul\":22915:22941   */\n      mload\n        /* \"#utility.yul\":22907:22913   */\n      dup3\n        /* \"#utility.yul\":22900:22942   */\n      sstore\n        /* \"#utility.yul\":22981:22982   */\n      0x01\n        /* \"#utility.yul\":22973:22979   */\n      dup3\n        /* \"#utility.yul\":22969:22983   */\n      add\n        /* \"#utility.yul\":22959:22983   */\n      swap2\n      pop\n        /* \"#utility.yul\":23028:23030   */\n      0x20\n        /* \"#utility.yul\":23017:23026   */\n      dup6\n        /* \"#utility.yul\":23013:23031   */\n      add\n        /* \"#utility.yul\":23000:23031   */\n      swap5\n      pop\n        /* \"#utility.yul\":22874:22878   */\n      0x20\n        /* \"#utility.yul\":22871:22872   */\n      dup2\n        /* \"#utility.yul\":22867:22879   */\n      add\n        /* \"#utility.yul\":22862:22879   */\n      swap1\n      pop\n        /* \"#utility.yul\":22837:23045   */\n      jump(tag_544)\n    tag_546:\n        /* \"#utility.yul\":23073:23079   */\n      dup7\n        /* \"#utility.yul\":23064:23071   */\n      dup4\n        /* \"#utility.yul\":23061:23080   */\n      lt\n        /* \"#utility.yul\":23058:23237   */\n      iszero\n      tag_547\n      jumpi\n        /* \"#utility.yul\":23131:23140   */\n      dup5\n        /* \"#utility.yul\":23126:23129   */\n      dup10\n        /* \"#utility.yul\":23122:23141   */\n      add\n        /* \"#utility.yul\":23116:23142   */\n      mload\n        /* \"#utility.yul\":23174:23222   */\n      tag_548\n        /* \"#utility.yul\":23216:23220   */\n      0x1f\n        /* \"#utility.yul\":23208:23214   */\n      dup10\n        /* \"#utility.yul\":23204:23221   */\n      and\n        /* \"#utility.yul\":23193:23202   */\n      dup3\n        /* \"#utility.yul\":23174:23222   */\n      tag_295\n      jump\t// in\n    tag_548:\n        /* \"#utility.yul\":23166:23172   */\n      dup4\n        /* \"#utility.yul\":23159:23223   */\n      sstore\n        /* \"#utility.yul\":23081:23237   */\n      pop\n        /* \"#utility.yul\":23058:23237   */\n    tag_547:\n        /* \"#utility.yul\":23283:23284   */\n      0x01\n        /* \"#utility.yul\":23279:23280   */\n      0x02\n        /* \"#utility.yul\":23271:23277   */\n      dup9\n        /* \"#utility.yul\":23267:23281   */\n      mul\n        /* \"#utility.yul\":23263:23285   */\n      add\n        /* \"#utility.yul\":23257:23261   */\n      dup9\n        /* \"#utility.yul\":23250:23286   */\n      sstore\n        /* \"#utility.yul\":22685:23296   */\n      pop\n      pop\n      pop\n        /* \"#utility.yul\":22648:23535   */\n    tag_539:\n      pop\n        /* \"#utility.yul\":22238:23541   */\n      pop\n      pop\n      pop\n        /* \"#utility.yul\":22146:23541   */\n      pop\n      pop\n      jump\t// out\n        /* \"#utility.yul\":23547:23767   */\n    tag_297:\n        /* \"#utility.yul\":23687:23721   */\n      0x53656e742076616c7565206d7573742062652067726561746572207468616e20\n        /* \"#utility.yul\":23683:23684   */\n      0x00\n        /* \"#utility.yul\":23675:23681   */\n      dup3\n        /* \"#utility.yul\":23671:23685   */\n      add\n        /* \"#utility.yul\":23664:23722   */\n      mstore\n        /* \"#utility.yul\":23756:23759   */\n      0x3000000000000000000000000000000000000000000000000000000000000000\n        /* \"#utility.yul\":23751:23753   */\n      0x20\n        /* \"#utility.yul\":23743:23749   */\n      dup3\n        /* \"#utility.yul\":23739:23754   */\n      add\n        /* \"#utility.yul\":23732:23760   */\n      mstore\n        /* \"#utility.yul\":23547:23767   */\n      pop\n      jump\t// out\n        /* \"#utility.yul\":23773:24139   */\n    tag_298:\n        /* \"#utility.yul\":23915:23918   */\n      0x00\n        /* \"#utility.yul\":23936:24003   */\n      tag_551\n        /* \"#utility.yul\":24000:24002   */\n      0x21\n        /* \"#utility.yul\":23995:23998   */\n      dup4\n        /* \"#utility.yul\":23936:24003   */\n      tag_238\n      jump\t// in\n    tag_551:\n        /* \"#utility.yul\":23929:24003   */\n      swap2\n      pop\n        /* \"#utility.yul\":24012:24105   */\n      tag_552\n        /* \"#utility.yul\":24101:24104   */\n      dup3\n        /* \"#utility.yul\":24012:24105   */\n      tag_297\n      jump\t// in\n    tag_552:\n        /* \"#utility.yul\":24130:24132   */\n      0x40\n        /* \"#utility.yul\":24125:24128   */\n      dup3\n        /* \"#utility.yul\":24121:24133   */\n      add\n        /* \"#utility.yul\":24114:24133   */\n      swap1\n      pop\n        /* \"#utility.yul\":23773:24139   */\n      swap2\n      swap1\n      pop\n      jump\t// out\n        /* \"#utility.yul\":24145:24564   */\n    tag_194:\n        /* \"#utility.yul\":24311:24315   */\n      0x00\n        /* \"#utility.yul\":24349:24351   */\n      0x20\n        /* \"#utility.yul\":24338:24347   */\n      dup3\n        /* \"#utility.yul\":24334:24352   */\n      add\n        /* \"#utility.yul\":24326:24352   */\n      swap1\n      pop\n        /* \"#utility.yul\":24398:24407   */\n      dup2\n        /* \"#utility.yul\":24392:24396   */\n      dup2\n        /* \"#utility.yul\":24388:24408   */\n      sub\n        /* \"#utility.yul\":24384:24385   */\n      0x00\n        /* \"#utility.yul\":24373:24382   */\n      dup4\n        /* \"#utility.yul\":24369:24386   */\n      add\n        /* \"#utility.yul\":24362:24409   */\n      mstore\n        /* \"#utility.yul\":24426:24557   */\n      tag_554\n        /* \"#utility.yul\":24552:24556   */\n      dup2\n        /* \"#utility.yul\":24426:24557   */\n      tag_298\n      jump\t// in\n    tag_554:\n        /* \"#utility.yul\":24418:24557   */\n      swap1\n      pop\n        /* \"#utility.yul\":24145:24564   */\n      swap2\n      swap1\n      pop\n      jump\t// out\n        /* \"#utility.yul\":24570:24794   */\n    tag_299:\n        /* \"#utility.yul\":24710:24744   */\n      0x4b61726e612070726f6a6563742068617320696e73756666696369656e742066\n        /* \"#utility.yul\":24706:24707   */\n      0x00\n        /* \"#utility.yul\":24698:24704   */\n      dup3\n        /* \"#utility.yul\":24694:24708   */\n      add\n        /* \"#utility.yul\":24687:24745   */\n      mstore\n        /* \"#utility.yul\":24779:24786   */\n      0x756e64732e000000000000000000000000000000000000000000000000000000\n        /* \"#utility.yul\":24774:24776   */\n      0x20\n        /* \"#utility.yul\":24766:24772   */\n      dup3\n        /* \"#utility.yul\":24762:24777   */\n      add\n        /* \"#utility.yul\":24755:24787   */\n      mstore\n        /* \"#utility.yul\":24570:24794   */\n      pop\n      jump\t// out\n        /* \"#utility.yul\":24800:25166   */\n    tag_300:\n        /* \"#utility.yul\":24942:24945   */\n      0x00\n        /* \"#utility.yul\":24963:25030   */\n      tag_557\n        /* \"#utility.yul\":25027:25029   */\n      0x25\n        /* \"#utility.yul\":25022:25025   */\n      dup4\n        /* \"#utility.yul\":24963:25030   */\n      tag_238\n      jump\t// in\n    tag_557:\n        /* \"#utility.yul\":24956:25030   */\n      swap2\n      pop\n        /* \"#utility.yul\":25039:25132   */\n      tag_558\n        /* \"#utility.yul\":25128:25131   */\n      dup3\n        /* \"#utility.yul\":25039:25132   */\n      tag_299\n      jump\t// in\n    tag_558:\n        /* \"#utility.yul\":25157:25159   */\n      0x40\n        /* \"#utility.yul\":25152:25155   */\n      dup3\n        /* \"#utility.yul\":25148:25160   */\n      add\n        /* \"#utility.yul\":25141:25160   */\n      swap1\n      pop\n        /* \"#utility.yul\":24800:25166   */\n      swap2\n      swap1\n      pop\n      jump\t// out\n        /* \"#utility.yul\":25172:25591   */\n    tag_200:\n        /* \"#utility.yul\":25338:25342   */\n      0x00\n        /* \"#utility.yul\":25376:25378   */\n      0x20\n        /* \"#utility.yul\":25365:25374   */\n      dup3\n        /* \"#utility.yul\":25361:25379   */\n      add\n        /* \"#utility.yul\":25353:25379   */\n      swap1\n      pop\n        /* \"#utility.yul\":25425:25434   */\n      dup2\n        /* \"#utility.yul\":25419:25423   */\n      dup2\n        /* \"#utility.yul\":25415:25435   */\n      sub\n        /* \"#utility.yul\":25411:25412   */\n      0x00\n        /* \"#utility.yul\":25400:25409   */\n      dup4\n        /* \"#utility.yul\":25396:25413   */\n      add\n        /* \"#utility.yul\":25389:25436   */\n      mstore\n        /* \"#utility.yul\":25453:25584   */\n      tag_560\n        /* \"#utility.yul\":25579:25583   */\n      dup2\n        /* \"#utility.yul\":25453:25584   */\n      tag_300\n      jump\t// in\n    tag_560:\n        /* \"#utility.yul\":25445:25584   */\n      swap1\n      pop\n        /* \"#utility.yul\":25172:25591   */\n      swap2\n      swap1\n      pop\n      jump\t// out\n        /* \"#utility.yul\":25597:25827   */\n    tag_301:\n        /* \"#utility.yul\":25737:25771   */\n      0x546865206d656d62657220697320616c72656164792070617274206f66204b61\n        /* \"#utility.yul\":25733:25734   */\n      0x00\n        /* \"#utility.yul\":25725:25731   */\n      dup3\n        /* \"#utility.yul\":25721:25735   */\n      add\n        /* \"#utility.yul\":25714:25772   */\n      mstore\n        /* \"#utility.yul\":25806:25819   */\n      0x726e612070726f6a656374000000000000000000000000000000000000000000\n        /* \"#utility.yul\":25801:25803   */\n      0x20\n        /* \"#utility.yul\":25793:25799   */\n      dup3\n        /* \"#utility.yul\":25789:25804   */\n      add\n        /* \"#utility.yul\":25782:25820   */\n      mstore\n        /* \"#utility.yul\":25597:25827   */\n      pop\n      jump\t// out\n        /* \"#utility.yul\":25833:26199   */\n    tag_302:\n        /* \"#utility.yul\":25975:25978   */\n      0x00\n        /* \"#utility.yul\":25996:26063   */\n      tag_563\n        /* \"#utility.yul\":26060:26062   */\n      0x2b\n        /* \"#utility.yul\":26055:26058   */\n      dup4\n        /* \"#utility.yul\":25996:26063   */\n      tag_238\n      jump\t// in\n    tag_563:\n        /* \"#utility.yul\":25989:26063   */\n      swap2\n      pop\n        /* \"#utility.yul\":26072:26165   */\n      tag_564\n        /* \"#utility.yul\":26161:26164   */\n      dup3\n        /* \"#utility.yul\":26072:26165   */\n      tag_301\n      jump\t// in\n    tag_564:\n        /* \"#utility.yul\":26190:26192   */\n      0x40\n        /* \"#utility.yul\":26185:26188   */\n      dup3\n        /* \"#utility.yul\":26181:26193   */\n      add\n        /* \"#utility.yul\":26174:26193   */\n      swap1\n      pop\n        /* \"#utility.yul\":25833:26199   */\n      swap2\n      swap1\n      pop\n      jump\t// out\n        /* \"#utility.yul\":26205:26624   */\n    tag_221:\n        /* \"#utility.yul\":26371:26375   */\n      0x00\n        /* \"#utility.yul\":26409:26411   */\n      0x20\n        /* \"#utility.yul\":26398:26407   */\n      dup3\n        /* \"#utility.yul\":26394:26412   */\n      add\n        /* \"#utility.yul\":26386:26412   */\n      swap1\n      pop\n        /* \"#utility.yul\":26458:26467   */\n      dup2\n        /* \"#utility.yul\":26452:26456   */\n      dup2\n        /* \"#utility.yul\":26448:26468   */\n      sub\n        /* \"#utility.yul\":26444:26445   */\n      0x00\n        /* \"#utility.yul\":26433:26442   */\n      dup4\n        /* \"#utility.yul\":26429:26446   */\n      add\n        /* \"#utility.yul\":26422:26469   */\n      mstore\n        /* \"#utility.yul\":26486:26617   */\n      tag_566\n        /* \"#utility.yul\":26612:26616   */\n      dup2\n        /* \"#utility.yul\":26486:26617   */\n      tag_302\n      jump\t// in\n    tag_566:\n        /* \"#utility.yul\":26478:26617   */\n      swap1\n      pop\n        /* \"#utility.yul\":26205:26624   */\n      swap2\n      swap1\n      pop\n      jump\t// out\n    stop\n\n    sub_0: assembly {\n            /* \"src/contract/karna.sol\":61:1489  contract Campaign{... */\n          mstore(0x40, 0x80)\n            /* \"src/contract/karna.sol\":248:249  0 */\n          0x00\n            /* \"src/contract/karna.sol\":219:249  uint256 public donatedAmount=0 */\n          0x03\n          sstore\n            /* \"src/contract/karna.sol\":392:588  constructor(string memory _name, address _proposer, uint256 _amount){... */\n          callvalue\n          dup1\n          iszero\n          tag_1\n          jumpi\n          0x00\n          dup1\n          revert\n        tag_1:\n          pop\n          mload(0x40)\n          sub(codesize, bytecodeSize)\n          dup1\n          bytecodeSize\n          dup4\n          codecopy\n          dup2\n          dup2\n          add\n          0x40\n          mstore\n          dup2\n          add\n          swap1\n          tag_2\n          swap2\n          swap1\n          tag_3\n          jump\t// in\n        tag_2:\n            /* \"src/contract/karna.sol\":478:483  _name */\n          dup3\n            /* \"src/contract/karna.sol\":471:475  name */\n          0x00\n            /* \"src/contract/karna.sol\":471:483  name = _name */\n          swap1\n          dup2\n          tag_6\n          swap2\n          swap1\n          tag_7\n          jump\t// in\n        tag_6:\n          pop\n            /* \"src/contract/karna.sol\":505:514  _proposer */\n          dup2\n            /* \"src/contract/karna.sol\":494:502  proposer */\n          0x01\n          0x00\n            /* \"src/contract/karna.sol\":494:514  proposer = _proposer */\n          0x0100\n          exp\n          dup2\n          sload\n          dup2\n          0xffffffffffffffffffffffffffffffffffffffff\n          mul\n          not\n          and\n          swap1\n          dup4\n          0xffffffffffffffffffffffffffffffffffffffff\n          and\n          mul\n          or\n          swap1\n          sstore\n          pop\n            /* \"src/contract/karna.sol\":534:541  _amount */\n          dup1\n            /* \"src/contract/karna.sol\":525:531  amount */\n          0x02\n            /* \"src/contract/karna.sol\":525:541  amount = _amount */\n          dup2\n          swap1\n          sstore\n          pop\n            /* \"src/contract/karna.sol\":561:580  CampaignStatus.OPEN */\n          0x00\n            /* \"src/contract/karna.sol\":552:558  status */\n          0x04\n          0x00\n            /* \"src/contract/karna.sol\":552:580  status = CampaignStatus.OPEN */\n          0x0100\n          exp\n          dup2\n          sload\n          dup2\n          0xff\n          mul\n          not\n          and\n          swap1\n          dup4\n          0x02\n          dup2\n          gt\n          iszero\n          tag_8\n          jumpi\n          tag_9\n          tag_10\n          jump\t// in\n        tag_9:\n        tag_8:\n          mul\n          or\n          swap1\n          sstore\n          pop\n            /* \"src/contract/karna.sol\":392:588  constructor(string memory _name, address _proposer, uint256 _amount){... */\n          pop\n          pop\n          pop\n            /* \"src/contract/karna.sol\":61:1489  contract Campaign{... */\n          jump(tag_11)\n            /* \"#utility.yul\":7:82   */\n        tag_12:\n            /* \"#utility.yul\":40:46   */\n          0x00\n            /* \"#utility.yul\":73:75   */\n          0x40\n            /* \"#utility.yul\":67:76   */\n          mload\n            /* \"#utility.yul\":57:76   */\n          swap1\n          pop\n            /* \"#utility.yul\":7:82   */\n          swap1\n          jump\t// out\n            /* \"#utility.yul\":88:205   */\n        tag_13:\n            /* \"#utility.yul\":197:198   */\n          0x00\n            /* \"#utility.yul\":194:195   */\n          dup1\n            /* \"#utility.yul\":187:199   */\n          revert\n            /* \"#utility.yul\":211:328   */\n        tag_14:\n            /* \"#utility.yul\":320:321   */\n          0x00\n            /* \"#utility.yul\":317:318   */\n          dup1\n            /* \"#utility.yul\":310:322   */\n          revert\n            /* \"#utility.yul\":334:451   */\n        tag_15:\n            /* \"#utility.yul\":443:444   */\n          0x00\n            /* \"#utility.yul\":440:441   */\n          dup1\n            /* \"#utility.yul\":433:445   */\n          revert\n            /* \"#utility.yul\":457:574   */\n        tag_16:\n            /* \"#utility.yul\":566:567   */\n          0x00\n            /* \"#utility.yul\":563:564   */\n          dup1\n            /* \"#utility.yul\":556:568   */\n          revert\n            /* \"#utility.yul\":580:682   */\n        tag_17:\n            /* \"#utility.yul\":621:627   */\n          0x00\n            /* \"#utility.yul\":672:674   */\n          0x1f\n            /* \"#utility.yul\":668:675   */\n          not\n            /* \"#utility.yul\":663:665   */\n          0x1f\n            /* \"#utility.yul\":656:661   */\n          dup4\n            /* \"#utility.yul\":652:666   */\n          add\n            /* \"#utility.yul\":648:676   */\n          and\n            /* \"#utility.yul\":638:676   */\n          swap1\n          pop\n            /* \"#utility.yul\":580:682   */\n          swap2\n          swap1\n          pop\n          jump\t// out\n            /* \"#utility.yul\":688:868   */\n        tag_18:\n            /* \"#utility.yul\":736:813   */\n          0x4e487b7100000000000000000000000000000000000000000000000000000000\n            /* \"#utility.yul\":733:734   */\n          0x00\n            /* \"#utility.yul\":726:814   */\n          mstore\n            /* \"#utility.yul\":833:837   */\n          0x41\n            /* \"#utility.yul\":830:831   */\n          0x04\n            /* \"#utility.yul\":823:838   */\n          mstore\n            /* \"#utility.yul\":857:861   */\n          0x24\n            /* \"#utility.yul\":854:855   */\n          0x00\n            /* \"#utility.yul\":847:862   */\n          revert\n            /* \"#utility.yul\":874:1155   */\n        tag_19:\n            /* \"#utility.yul\":957:984   */\n          tag_59\n            /* \"#utility.yul\":979:983   */\n          dup3\n            /* \"#utility.yul\":957:984   */\n          tag_17\n          jump\t// in\n        tag_59:\n            /* \"#utility.yul\":949:955   */\n          dup2\n            /* \"#utility.yul\":945:985   */\n          add\n            /* \"#utility.yul\":1087:1093   */\n          dup2\n            /* \"#utility.yul\":1075:1085   */\n          dup2\n            /* \"#utility.yul\":1072:1094   */\n          lt\n            /* \"#utility.yul\":1051:1069   */\n          0xffffffffffffffff\n            /* \"#utility.yul\":1039:1049   */\n          dup3\n            /* \"#utility.yul\":1036:1070   */\n          gt\n            /* \"#utility.yul\":1033:1095   */\n          or\n            /* \"#utility.yul\":1030:1118   */\n          iszero\n          tag_60\n          jumpi\n            /* \"#utility.yul\":1098:1116   */\n          tag_61\n          tag_18\n          jump\t// in\n        tag_61:\n            /* \"#utility.yul\":1030:1118   */\n        tag_60:\n            /* \"#utility.yul\":1138:1148   */\n          dup1\n            /* \"#utility.yul\":1134:1136   */\n          0x40\n            /* \"#utility.yul\":1127:1149   */\n          mstore\n            /* \"#utility.yul\":917:1155   */\n          pop\n            /* \"#utility.yul\":874:1155   */\n          pop\n          pop\n          jump\t// out\n            /* \"#utility.yul\":1161:1290   */\n        tag_20:\n            /* \"#utility.yul\":1195:1201   */\n          0x00\n            /* \"#utility.yul\":1222:1242   */\n          tag_63\n          tag_12\n          jump\t// in\n        tag_63:\n            /* \"#utility.yul\":1212:1242   */\n          swap1\n          pop\n            /* \"#utility.yul\":1251:1284   */\n          tag_64\n            /* \"#utility.yul\":1279:1283   */\n          dup3\n            /* \"#utility.yul\":1271:1277   */\n          dup3\n            /* \"#utility.yul\":1251:1284   */\n          tag_19\n          jump\t// in\n        tag_64:\n            /* \"#utility.yul\":1161:1290   */\n          swap2\n          swap1\n          pop\n          jump\t// out\n            /* \"#utility.yul\":1296:1604   */\n        tag_21:\n            /* \"#utility.yul\":1358:1362   */\n          0x00\n            /* \"#utility.yul\":1448:1466   */\n          0xffffffffffffffff\n            /* \"#utility.yul\":1440:1446   */\n          dup3\n            /* \"#utility.yul\":1437:1467   */\n          gt\n            /* \"#utility.yul\":1434:1490   */\n          iszero\n          tag_66\n          jumpi\n            /* \"#utility.yul\":1470:1488   */\n          tag_67\n          tag_18\n          jump\t// in\n        tag_67:\n            /* \"#utility.yul\":1434:1490   */\n        tag_66:\n            /* \"#utility.yul\":1508:1537   */\n          tag_68\n            /* \"#utility.yul\":1530:1536   */\n          dup3\n            /* \"#utility.yul\":1508:1537   */\n          tag_17\n          jump\t// in\n        tag_68:\n            /* \"#utility.yul\":1500:1537   */\n          swap1\n          pop\n            /* \"#utility.yul\":1592:1596   */\n          0x20\n            /* \"#utility.yul\":1586:1590   */\n          dup2\n            /* \"#utility.yul\":1582:1597   */\n          add\n            /* \"#utility.yul\":1574:1597   */\n          swap1\n          pop\n            /* \"#utility.yul\":1296:1604   */\n          swap2\n          swap1\n          pop\n          jump\t// out\n            /* \"#utility.yul\":1610:1856   */\n        tag_22:\n            /* \"#utility.yul\":1691:1692   */\n          0x00\n            /* \"#utility.yul\":1701:1814   */\n        tag_70:\n            /* \"#utility.yul\":1715:1721   */\n          dup4\n            /* \"#utility.yul\":1712:1713   */\n          dup2\n            /* \"#utility.yul\":1709:1722   */\n          lt\n            /* \"#utility.yul\":1701:1814   */\n          iszero\n          tag_72\n          jumpi\n            /* \"#utility.yul\":1800:1801   */\n          dup1\n            /* \"#utility.yul\":1795:1798   */\n          dup3\n            /* \"#utility.yul\":1791:1802   */\n          add\n            /* \"#utility.yul\":1785:1803   */\n          mload\n            /* \"#utility.yul\":1781:1782   */\n          dup2\n            /* \"#utility.yul\":1776:1779   */\n          dup5\n            /* \"#utility.yul\":1772:1783   */\n          add\n            /* \"#utility.yul\":1765:1804   */\n          mstore\n            /* \"#utility.yul\":1737:1739   */\n          0x20\n            /* \"#utility.yul\":1734:1735   */\n          dup2\n            /* \"#utility.yul\":1730:1740   */\n          add\n            /* \"#utility.yul\":1725:1740   */\n          swap1\n          pop\n            /* \"#utility.yul\":1701:1814   */\n          jump(tag_70)\n        tag_72:\n            /* \"#utility.yul\":1848:1849   */\n          0x00\n            /* \"#utility.yul\":1839:1845   */\n          dup5\n            /* \"#utility.yul\":1834:1837   */\n          dup5\n            /* \"#utility.yul\":1830:1846   */\n          add\n            /* \"#utility.yul\":1823:1850   */\n          mstore\n            /* \"#utility.yul\":1672:1856   */\n          pop\n            /* \"#utility.yul\":1610:1856   */\n          pop\n          pop\n          pop\n          jump\t// out\n            /* \"#utility.yul\":1862:2296   */\n        tag_23:\n            /* \"#utility.yul\":1951:1956   */\n          0x00\n            /* \"#utility.yul\":1976:2042   */\n          tag_74\n            /* \"#utility.yul\":1992:2041   */\n          tag_75\n            /* \"#utility.yul\":2034:2040   */\n          dup5\n            /* \"#utility.yul\":1992:2041   */\n          tag_21\n          jump\t// in\n        tag_75:\n            /* \"#utility.yul\":1976:2042   */\n          tag_20\n          jump\t// in\n        tag_74:\n            /* \"#utility.yul\":1967:2042   */\n          swap1\n          pop\n            /* \"#utility.yul\":2065:2071   */\n          dup3\n            /* \"#utility.yul\":2058:2063   */\n          dup2\n            /* \"#utility.yul\":2051:2072   */\n          mstore\n            /* \"#utility.yul\":2103:2107   */\n          0x20\n            /* \"#utility.yul\":2096:2101   */\n          dup2\n            /* \"#utility.yul\":2092:2108   */\n          add\n            /* \"#utility.yul\":2141:2144   */\n          dup5\n            /* \"#utility.yul\":2132:2138   */\n          dup5\n            /* \"#utility.yul\":2127:2130   */\n          dup5\n            /* \"#utility.yul\":2123:2139   */\n          add\n            /* \"#utility.yul\":2120:2145   */\n          gt\n            /* \"#utility.yul\":2117:2229   */\n          iszero\n          tag_76\n          jumpi\n            /* \"#utility.yul\":2148:2227   */\n          tag_77\n          tag_16\n          jump\t// in\n        tag_77:\n            /* \"#utility.yul\":2117:2229   */\n        tag_76:\n            /* \"#utility.yul\":2238:2290   */\n          tag_78\n            /* \"#utility.yul\":2283:2289   */\n          dup5\n            /* \"#utility.yul\":2278:2281   */\n          dup3\n            /* \"#utility.yul\":2273:2276   */\n          dup6\n            /* \"#utility.yul\":2238:2290   */\n          tag_22\n          jump\t// in\n        tag_78:\n            /* \"#utility.yul\":1957:2296   */\n          pop\n            /* \"#utility.yul\":1862:2296   */\n          swap4\n          swap3\n          pop\n          pop\n          pop\n          jump\t// out\n            /* \"#utility.yul\":2316:2671   */\n        tag_24:\n            /* \"#utility.yul\":2383:2388   */\n          0x00\n            /* \"#utility.yul\":2432:2435   */\n          dup3\n            /* \"#utility.yul\":2425:2429   */\n          0x1f\n            /* \"#utility.yul\":2417:2423   */\n          dup4\n            /* \"#utility.yul\":2413:2430   */\n          add\n            /* \"#utility.yul\":2409:2436   */\n          slt\n            /* \"#utility.yul\":2399:2521   */\n          tag_80\n          jumpi\n            /* \"#utility.yul\":2440:2519   */\n          tag_81\n          tag_15\n          jump\t// in\n        tag_81:\n            /* \"#utility.yul\":2399:2521   */\n        tag_80:\n            /* \"#utility.yul\":2550:2556   */\n          dup2\n            /* \"#utility.yul\":2544:2557   */\n          mload\n            /* \"#utility.yul\":2575:2665   */\n          tag_82\n            /* \"#utility.yul\":2661:2664   */\n          dup5\n            /* \"#utility.yul\":2653:2659   */\n          dup3\n            /* \"#utility.yul\":2646:2650   */\n          0x20\n            /* \"#utility.yul\":2638:2644   */\n          dup7\n            /* \"#utility.yul\":2634:2651   */\n          add\n            /* \"#utility.yul\":2575:2665   */\n          tag_23\n          jump\t// in\n        tag_82:\n            /* \"#utility.yul\":2566:2665   */\n          swap2\n          pop\n            /* \"#utility.yul\":2389:2671   */\n          pop\n            /* \"#utility.yul\":2316:2671   */\n          swap3\n          swap2\n          pop\n          pop\n          jump\t// out\n            /* \"#utility.yul\":2677:2803   */\n        tag_25:\n            /* \"#utility.yul\":2714:2721   */\n          0x00\n            /* \"#utility.yul\":2754:2796   */\n          0xffffffffffffffffffffffffffffffffffffffff\n            /* \"#utility.yul\":2747:2752   */\n          dup3\n            /* \"#utility.yul\":2743:2797   */\n          and\n            /* \"#utility.yul\":2732:2797   */\n          swap1\n          pop\n            /* \"#utility.yul\":2677:2803   */\n          swap2\n          swap1\n          pop\n          jump\t// out\n            /* \"#utility.yul\":2809:2905   */\n        tag_26:\n            /* \"#utility.yul\":2846:2853   */\n          0x00\n            /* \"#utility.yul\":2875:2899   */\n          tag_85\n            /* \"#utility.yul\":2893:2898   */\n          dup3\n            /* \"#utility.yul\":2875:2899   */\n          tag_25\n          jump\t// in\n        tag_85:\n            /* \"#utility.yul\":2864:2899   */\n          swap1\n          pop\n            /* \"#utility.yul\":2809:2905   */\n          swap2\n          swap1\n          pop\n          jump\t// out\n            /* \"#utility.yul\":2911:3033   */\n        tag_27:\n            /* \"#utility.yul\":2984:3008   */\n          tag_87\n            /* \"#utility.yul\":3002:3007   */\n          dup2\n            /* \"#utility.yul\":2984:3008   */\n          tag_26\n          jump\t// in\n        tag_87:\n            /* \"#utility.yul\":2977:2982   */\n          dup2\n            /* \"#utility.yul\":2974:3009   */\n          eq\n            /* \"#utility.yul\":2964:3027   */\n          tag_88\n          jumpi\n            /* \"#utility.yul\":3023:3024   */\n          0x00\n            /* \"#utility.yul\":3020:3021   */\n          dup1\n            /* \"#utility.yul\":3013:3025   */\n          revert\n            /* \"#utility.yul\":2964:3027   */\n        tag_88:\n            /* \"#utility.yul\":2911:3033   */\n          pop\n          jump\t// out\n            /* \"#utility.yul\":3039:3182   */\n        tag_28:\n            /* \"#utility.yul\":3096:3101   */\n          0x00\n            /* \"#utility.yul\":3127:3133   */\n          dup2\n            /* \"#utility.yul\":3121:3134   */\n          mload\n            /* \"#utility.yul\":3112:3134   */\n          swap1\n          pop\n            /* \"#utility.yul\":3143:3176   */\n          tag_90\n            /* \"#utility.yul\":3170:3175   */\n          dup2\n            /* \"#utility.yul\":3143:3176   */\n          tag_27\n          jump\t// in\n        tag_90:\n            /* \"#utility.yul\":3039:3182   */\n          swap3\n          swap2\n          pop\n          pop\n          jump\t// out\n            /* \"#utility.yul\":3188:3265   */\n        tag_29:\n            /* \"#utility.yul\":3225:3232   */\n          0x00\n            /* \"#utility.yul\":3254:3259   */\n          dup2\n            /* \"#utility.yul\":3243:3259   */\n          swap1\n          pop\n            /* \"#utility.yul\":3188:3265   */\n          swap2\n          swap1\n          pop\n          jump\t// out\n            /* \"#utility.yul\":3271:3393   */\n        tag_30:\n            /* \"#utility.yul\":3344:3368   */\n          tag_93\n            /* \"#utility.yul\":3362:3367   */\n          dup2\n            /* \"#utility.yul\":3344:3368   */\n          tag_29\n          jump\t// in\n        tag_93:\n            /* \"#utility.yul\":3337:3342   */\n          dup2\n            /* \"#utility.yul\":3334:3369   */\n          eq\n            /* \"#utility.yul\":3324:3387   */\n          tag_94\n          jumpi\n            /* \"#utility.yul\":3383:3384   */\n          0x00\n            /* \"#utility.yul\":3380:3381   */\n          dup1\n            /* \"#utility.yul\":3373:3385   */\n          revert\n            /* \"#utility.yul\":3324:3387   */\n        tag_94:\n            /* \"#utility.yul\":3271:3393   */\n          pop\n          jump\t// out\n            /* \"#utility.yul\":3399:3542   */\n        tag_31:\n            /* \"#utility.yul\":3456:3461   */\n          0x00\n            /* \"#utility.yul\":3487:3493   */\n          dup2\n            /* \"#utility.yul\":3481:3494   */\n          mload\n            /* \"#utility.yul\":3472:3494   */\n          swap1\n          pop\n            /* \"#utility.yul\":3503:3536   */\n          tag_96\n            /* \"#utility.yul\":3530:3535   */\n          dup2\n            /* \"#utility.yul\":3503:3536   */\n          tag_30\n          jump\t// in\n        tag_96:\n            /* \"#utility.yul\":3399:3542   */\n          swap3\n          swap2\n          pop\n          pop\n          jump\t// out\n            /* \"#utility.yul\":3548:4384   */\n        tag_3:\n            /* \"#utility.yul\":3646:3652   */\n          0x00\n            /* \"#utility.yul\":3654:3660   */\n          dup1\n            /* \"#utility.yul\":3662:3668   */\n          0x00\n            /* \"#utility.yul\":3711:3713   */\n          0x60\n            /* \"#utility.yul\":3699:3708   */\n          dup5\n            /* \"#utility.yul\":3690:3697   */\n          dup7\n            /* \"#utility.yul\":3686:3709   */\n          sub\n            /* \"#utility.yul\":3682:3714   */\n          slt\n            /* \"#utility.yul\":3679:3798   */\n          iszero\n          tag_98\n          jumpi\n            /* \"#utility.yul\":3717:3796   */\n          tag_99\n          tag_13\n          jump\t// in\n        tag_99:\n            /* \"#utility.yul\":3679:3798   */\n        tag_98:\n            /* \"#utility.yul\":3858:3859   */\n          0x00\n            /* \"#utility.yul\":3847:3856   */\n          dup5\n            /* \"#utility.yul\":3843:3860   */\n          add\n            /* \"#utility.yul\":3837:3861   */\n          mload\n            /* \"#utility.yul\":3888:3906   */\n          0xffffffffffffffff\n            /* \"#utility.yul\":3880:3886   */\n          dup2\n            /* \"#utility.yul\":3877:3907   */\n          gt\n            /* \"#utility.yul\":3874:3991   */\n          iszero\n          tag_100\n          jumpi\n            /* \"#utility.yul\":3910:3989   */\n          tag_101\n          tag_14\n          jump\t// in\n        tag_101:\n            /* \"#utility.yul\":3874:3991   */\n        tag_100:\n            /* \"#utility.yul\":4015:4089   */\n          tag_102\n            /* \"#utility.yul\":4081:4088   */\n          dup7\n            /* \"#utility.yul\":4072:4078   */\n          dup3\n            /* \"#utility.yul\":4061:4070   */\n          dup8\n            /* \"#utility.yul\":4057:4079   */\n          add\n            /* \"#utility.yul\":4015:4089   */\n          tag_24\n          jump\t// in\n        tag_102:\n            /* \"#utility.yul\":4005:4089   */\n          swap4\n          pop\n            /* \"#utility.yul\":3808:4099   */\n          pop\n            /* \"#utility.yul\":4138:4140   */\n          0x20\n            /* \"#utility.yul\":4164:4228   */\n          tag_103\n            /* \"#utility.yul\":4220:4227   */\n          dup7\n            /* \"#utility.yul\":4211:4217   */\n          dup3\n            /* \"#utility.yul\":4200:4209   */\n          dup8\n            /* \"#utility.yul\":4196:4218   */\n          add\n            /* \"#utility.yul\":4164:4228   */\n          tag_28\n          jump\t// in\n        tag_103:\n            /* \"#utility.yul\":4154:4228   */\n          swap3\n          pop\n            /* \"#utility.yul\":4109:4238   */\n          pop\n            /* \"#utility.yul\":4277:4279   */\n          0x40\n            /* \"#utility.yul\":4303:4367   */\n          tag_104\n            /* \"#utility.yul\":4359:4366   */\n          dup7\n            /* \"#utility.yul\":4350:4356   */\n          dup3\n            /* \"#utility.yul\":4339:4348   */\n          dup8\n            /* \"#utility.yul\":4335:4357   */\n          add\n            /* \"#utility.yul\":4303:4367   */\n          tag_31\n          jump\t// in\n        tag_104:\n            /* \"#utility.yul\":4293:4367   */\n          swap2\n          pop\n            /* \"#utility.yul\":4248:4377   */\n          pop\n            /* \"#utility.yul\":3548:4384   */\n          swap3\n          pop\n          swap3\n          pop\n          swap3\n          jump\t// out\n            /* \"#utility.yul\":4390:4489   */\n        tag_32:\n            /* \"#utility.yul\":4442:4448   */\n          0x00\n            /* \"#utility.yul\":4476:4481   */\n          dup2\n            /* \"#utility.yul\":4470:4482   */\n          mload\n            /* \"#utility.yul\":4460:4482   */\n          swap1\n          pop\n            /* \"#utility.yul\":4390:4489   */\n          swap2\n          swap1\n          pop\n          jump\t// out\n            /* \"#utility.yul\":4495:4675   */\n        tag_33:\n            /* \"#utility.yul\":4543:4620   */\n          0x4e487b7100000000000000000000000000000000000000000000000000000000\n            /* \"#utility.yul\":4540:4541   */\n          0x00\n            /* \"#utility.yul\":4533:4621   */\n          mstore\n            /* \"#utility.yul\":4640:4644   */\n          0x22\n            /* \"#utility.yul\":4637:4638   */\n          0x04\n            /* \"#utility.yul\":4630:4645   */\n          mstore\n            /* \"#utility.yul\":4664:4668   */\n          0x24\n            /* \"#utility.yul\":4661:4662   */\n          0x00\n            /* \"#utility.yul\":4654:4669   */\n          revert\n            /* \"#utility.yul\":4681:5001   */\n        tag_34:\n            /* \"#utility.yul\":4725:4731   */\n          0x00\n            /* \"#utility.yul\":4762:4763   */\n          0x02\n            /* \"#utility.yul\":4756:4760   */\n          dup3\n            /* \"#utility.yul\":4752:4764   */\n          div\n            /* \"#utility.yul\":4742:4764   */\n          swap1\n          pop\n            /* \"#utility.yul\":4809:4810   */\n          0x01\n            /* \"#utility.yul\":4803:4807   */\n          dup3\n            /* \"#utility.yul\":4799:4811   */\n          and\n            /* \"#utility.yul\":4830:4848   */\n          dup1\n            /* \"#utility.yul\":4820:4901   */\n          tag_108\n          jumpi\n            /* \"#utility.yul\":4886:4890   */\n          0x7f\n            /* \"#utility.yul\":4878:4884   */\n          dup3\n            /* \"#utility.yul\":4874:4891   */\n          and\n            /* \"#utility.yul\":4864:4891   */\n          swap2\n          pop\n            /* \"#utility.yul\":4820:4901   */\n        tag_108:\n            /* \"#utility.yul\":4948:4950   */\n          0x20\n            /* \"#utility.yul\":4940:4946   */\n          dup3\n            /* \"#utility.yul\":4937:4951   */\n          lt\n            /* \"#utility.yul\":4917:4935   */\n          dup2\n            /* \"#utility.yul\":4914:4952   */\n          sub\n            /* \"#utility.yul\":4911:4995   */\n          tag_109\n          jumpi\n            /* \"#utility.yul\":4967:4985   */\n          tag_110\n          tag_33\n          jump\t// in\n        tag_110:\n            /* \"#utility.yul\":4911:4995   */\n        tag_109:\n            /* \"#utility.yul\":4732:5001   */\n          pop\n            /* \"#utility.yul\":4681:5001   */\n          swap2\n          swap1\n          pop\n          jump\t// out\n            /* \"#utility.yul\":5007:5148   */\n        tag_35:\n            /* \"#utility.yul\":5056:5060   */\n          0x00\n            /* \"#utility.yul\":5079:5082   */\n          dup2\n            /* \"#utility.yul\":5071:5082   */\n          swap1\n          pop\n            /* \"#utility.yul\":5102:5105   */\n          dup2\n            /* \"#utility.yul\":5099:5100   */\n          0x00\n            /* \"#utility.yul\":5092:5106   */\n          mstore\n            /* \"#utility.yul\":5136:5140   */\n          0x20\n            /* \"#utility.yul\":5133:5134   */\n          0x00\n            /* \"#utility.yul\":5123:5141   */\n          keccak256\n            /* \"#utility.yul\":5115:5141   */\n          swap1\n          pop\n            /* \"#utility.yul\":5007:5148   */\n          swap2\n          swap1\n          pop\n          jump\t// out\n            /* \"#utility.yul\":5154:5247   */\n        tag_36:\n            /* \"#utility.yul\":5191:5197   */\n          0x00\n            /* \"#utility.yul\":5238:5240   */\n          0x20\n            /* \"#utility.yul\":5233:5235   */\n          0x1f\n            /* \"#utility.yul\":5226:5231   */\n          dup4\n            /* \"#utility.yul\":5222:5236   */\n          add\n            /* \"#utility.yul\":5218:5241   */\n          div\n            /* \"#utility.yul\":5208:5241   */\n          swap1\n          pop\n            /* \"#utility.yul\":5154:5247   */\n          swap2\n          swap1\n          pop\n          jump\t// out\n            /* \"#utility.yul\":5253:5360   */\n        tag_37:\n            /* \"#utility.yul\":5297:5305   */\n          0x00\n            /* \"#utility.yul\":5347:5352   */\n          dup3\n            /* \"#utility.yul\":5341:5345   */\n          dup3\n            /* \"#utility.yul\":5337:5353   */\n          shl\n            /* \"#utility.yul\":5316:5353   */\n          swap1\n          pop\n            /* \"#utility.yul\":5253:5360   */\n          swap3\n          swap2\n          pop\n          pop\n          jump\t// out\n            /* \"#utility.yul\":5366:5759   */\n        tag_38:\n            /* \"#utility.yul\":5435:5441   */\n          0x00\n            /* \"#utility.yul\":5485:5486   */\n          0x08\n            /* \"#utility.yul\":5473:5483   */\n          dup4\n            /* \"#utility.yul\":5469:5487   */\n          mul\n            /* \"#utility.yul\":5508:5605   */\n          tag_115\n            /* \"#utility.yul\":5538:5604   */\n          0xffffffffffffffffffffffffffffffffffffffffffffffffffffffffffffffff\n            /* \"#utility.yul\":5527:5536   */\n          dup3\n            /* \"#utility.yul\":5508:5605   */\n          tag_37\n          jump\t// in\n        tag_115:\n            /* \"#utility.yul\":5626:5665   */\n          tag_116\n            /* \"#utility.yul\":5656:5664   */\n          dup7\n            /* \"#utility.yul\":5645:5654   */\n          dup4\n            /* \"#utility.yul\":5626:5665   */\n          tag_37\n          jump\t// in\n        tag_116:\n            /* \"#utility.yul\":5614:5665   */\n          swap6\n          pop\n            /* \"#utility.yul\":5698:5702   */\n          dup1\n            /* \"#utility.yul\":5694:5703   */\n          not\n            /* \"#utility.yul\":5687:5692   */\n          dup5\n            /* \"#utility.yul\":5683:5704   */\n          and\n            /* \"#utility.yul\":5674:5704   */\n          swap4\n          pop\n            /* \"#utility.yul\":5747:5751   */\n          dup1\n            /* \"#utility.yul\":5737:5745   */\n          dup7\n            /* \"#utility.yul\":5733:5752   */\n          and\n            /* \"#utility.yul\":5726:5731   */\n          dup5\n            /* \"#utility.yul\":5723:5753   */\n          or\n            /* \"#utility.yul\":5713:5753   */\n          swap3\n          pop\n            /* \"#utility.yul\":5442:5759   */\n          pop\n          pop\n            /* \"#utility.yul\":5366:5759   */\n          swap4\n          swap3\n          pop\n          pop\n          pop\n          jump\t// out\n            /* \"#utility.yul\":5765:5825   */\n        tag_39:\n            /* \"#utility.yul\":5793:5796   */\n          0x00\n            /* \"#utility.yul\":5814:5819   */\n          dup2\n            /* \"#utility.yul\":5807:5819   */\n          swap1\n          pop\n            /* \"#utility.yul\":5765:5825   */\n          swap2\n          swap1\n          pop\n          jump\t// out\n            /* \"#utility.yul\":5831:5973   */\n        tag_40:\n            /* \"#utility.yul\":5881:5890   */\n          0x00\n            /* \"#utility.yul\":5914:5967   */\n          tag_119\n            /* \"#utility.yul\":5932:5966   */\n          tag_120\n            /* \"#utility.yul\":5941:5965   */\n          tag_121\n            /* \"#utility.yul\":5959:5964   */\n          dup5\n            /* \"#utility.yul\":5941:5965   */\n          tag_29\n          jump\t// in\n        tag_121:\n            /* \"#utility.yul\":5932:5966   */\n          tag_39\n          jump\t// in\n        tag_120:\n            /* \"#utility.yul\":5914:5967   */\n          tag_29\n          jump\t// in\n        tag_119:\n            /* \"#utility.yul\":5901:5967   */\n          swap1\n          pop\n            /* \"#utility.yul\":5831:5973   */\n          swap2\n          swap1\n          pop\n          jump\t// out\n            /* \"#utility.yul\":5979:6054   */\n        tag_41:\n            /* \"#utility.yul\":6022:6025   */\n          0x00\n            /* \"#utility.yul\":6043:6048   */\n          dup2\n            /* \"#utility.yul\":6036:6048   */\n          swap1\n          pop\n            /* \"#utility.yul\":5979:6054   */\n          swap2\n          swap1\n          pop\n          jump\t// out\n            /* \"#utility.yul\":6060:6329   */\n        tag_42:\n            /* \"#utility.yul\":6170:6209   */\n          tag_124\n            /* \"#utility.yul\":6201:6208   */\n          dup4\n            /* \"#utility.yul\":6170:6209   */\n          tag_40\n          jump\t// in\n        tag_124:\n            /* \"#utility.yul\":6231:6322   */\n          tag_125\n            /* \"#utility.yul\":6280:6321   */\n          tag_126\n            /* \"#utility.yul\":6304:6320   */\n          dup3\n            /* \"#utility.yul\":6280:6321   */\n          tag_41\n          jump\t// in\n        tag_126:\n            /* \"#utility.yul\":6272:6278   */\n          dup5\n            /* \"#utility.yul\":6265:6269   */\n          dup5\n            /* \"#utility.yul\":6259:6270   */\n          sload\n            /* \"#utility.yul\":6231:6322   */\n          tag_38\n          jump\t// in\n        tag_125:\n            /* \"#utility.yul\":6225:6229   */\n          dup3\n            /* \"#utility.yul\":6218:6323   */\n          sstore\n            /* \"#utility.yul\":6136:6329   */\n          pop\n            /* \"#utility.yul\":6060:6329   */\n          pop\n          pop\n          pop\n          jump\t// out\n            /* \"#utility.yul\":6335:6408   */\n        tag_43:\n            /* \"#utility.yul\":6380:6383   */\n          0x00\n            /* \"#utility.yul\":6335:6408   */\n          swap1\n          jump\t// out\n            /* \"#utility.yul\":6414:6603   */\n        tag_44:\n            /* \"#utility.yul\":6491:6523   */\n          tag_129\n          tag_43\n          jump\t// in\n        tag_129:\n            /* \"#utility.yul\":6532:6597   */\n          tag_130\n            /* \"#utility.yul\":6590:6596   */\n          dup2\n            /* \"#utility.yul\":6582:6588   */\n          dup5\n            /* \"#utility.yul\":6576:6580   */\n          dup5\n            /* \"#utility.yul\":6532:6597   */\n          tag_42\n          jump\t// in\n        tag_130:\n            /* \"#utility.yul\":6467:6603   */\n          pop\n            /* \"#utility.yul\":6414:6603   */\n          pop\n          pop\n          jump\t// out\n            /* \"#utility.yul\":6609:6795   */\n        tag_45:\n            /* \"#utility.yul\":6669:6789   */\n        tag_132:\n            /* \"#utility.yul\":6686:6689   */\n          dup2\n            /* \"#utility.yul\":6679:6684   */\n          dup2\n            /* \"#utility.yul\":6676:6690   */\n          lt\n            /* \"#utility.yul\":6669:6789   */\n          iszero\n          tag_134\n          jumpi\n            /* \"#utility.yul\":6740:6779   */\n          tag_135\n            /* \"#utility.yul\":6777:6778   */\n          0x00\n            /* \"#utility.yul\":6770:6775   */\n          dup3\n            /* \"#utility.yul\":6740:6779   */\n          tag_44\n          jump\t// in\n        tag_135:\n            /* \"#utility.yul\":6713:6714   */\n          0x01\n            /* \"#utility.yul\":6706:6711   */\n          dup2\n            /* \"#utility.yul\":6702:6715   */\n          add\n            /* \"#utility.yul\":6693:6715   */\n          swap1\n          pop\n            /* \"#utility.yul\":6669:6789   */\n          jump(tag_132)\n        tag_134:\n            /* \"#utility.yul\":6609:6795   */\n          pop\n          pop\n          jump\t// out\n            /* \"#utility.yul\":6801:7344   */\n        tag_46:\n            /* \"#utility.yul\":6902:6904   */\n          0x1f\n            /* \"#utility.yul\":6897:6900   */\n          dup3\n            /* \"#utility.yul\":6894:6905   */\n          gt\n            /* \"#utility.yul\":6891:7337   */\n          iszero\n          tag_137\n          jumpi\n            /* \"#utility.yul\":6936:6974   */\n          tag_138\n            /* \"#utility.yul\":6968:6973   */\n          dup2\n            /* \"#utility.yul\":6936:6974   */\n          tag_35\n          jump\t// in\n        tag_138:\n            /* \"#utility.yul\":7020:7049   */\n          tag_139\n            /* \"#utility.yul\":7038:7048   */\n          dup5\n            /* \"#utility.yul\":7020:7049   */\n          tag_36\n          jump\t// in\n        tag_139:\n            /* \"#utility.yul\":7010:7018   */\n          dup2\n            /* \"#utility.yul\":7006:7050   */\n          add\n            /* \"#utility.yul\":7203:7205   */\n          0x20\n            /* \"#utility.yul\":7191:7201   */\n          dup6\n            /* \"#utility.yul\":7188:7206   */\n          lt\n            /* \"#utility.yul\":7185:7234   */\n          iszero\n          tag_140\n          jumpi\n            /* \"#utility.yul\":7224:7232   */\n          dup2\n            /* \"#utility.yul\":7209:7232   */\n          swap1\n          pop\n            /* \"#utility.yul\":7185:7234   */\n        tag_140:\n            /* \"#utility.yul\":7247:7327   */\n          tag_141\n            /* \"#utility.yul\":7303:7325   */\n          tag_142\n            /* \"#utility.yul\":7321:7324   */\n          dup6\n            /* \"#utility.yul\":7303:7325   */\n          tag_36\n          jump\t// in\n        tag_142:\n            /* \"#utility.yul\":7293:7301   */\n          dup4\n            /* \"#utility.yul\":7289:7326   */\n          add\n            /* \"#utility.yul\":7276:7287   */\n          dup3\n            /* \"#utility.yul\":7247:7327   */\n          tag_45\n          jump\t// in\n        tag_141:\n            /* \"#utility.yul\":6906:7337   */\n          pop\n          pop\n            /* \"#utility.yul\":6891:7337   */\n        tag_137:\n            /* \"#utility.yul\":6801:7344   */\n          pop\n          pop\n          pop\n          jump\t// out\n            /* \"#utility.yul\":7350:7467   */\n        tag_47:\n            /* \"#utility.yul\":7404:7412   */\n          0x00\n            /* \"#utility.yul\":7454:7459   */\n          dup3\n            /* \"#utility.yul\":7448:7452   */\n          dup3\n            /* \"#utility.yul\":7444:7460   */\n          shr\n            /* \"#utility.yul\":7423:7460   */\n          swap1\n          pop\n            /* \"#utility.yul\":7350:7467   */\n          swap3\n          swap2\n          pop\n          pop\n          jump\t// out\n            /* \"#utility.yul\":7473:7642   */\n        tag_48:\n            /* \"#utility.yul\":7517:7523   */\n          0x00\n            /* \"#utility.yul\":7550:7601   */\n          tag_145\n            /* \"#utility.yul\":7598:7599   */\n          0x00\n            /* \"#utility.yul\":7594:7600   */\n          not\n            /* \"#utility.yul\":7586:7591   */\n          dup5\n            /* \"#utility.yul\":7583:7584   */\n          0x08\n            /* \"#utility.yul\":7579:7592   */\n          mul\n            /* \"#utility.yul\":7550:7601   */\n          tag_47\n          jump\t// in\n        tag_145:\n            /* \"#utility.yul\":7546:7602   */\n          not\n            /* \"#utility.yul\":7631:7635   */\n          dup1\n            /* \"#utility.yul\":7625:7629   */\n          dup4\n            /* \"#utility.yul\":7621:7636   */\n          and\n            /* \"#utility.yul\":7611:7636   */\n          swap2\n          pop\n            /* \"#utility.yul\":7524:7642   */\n          pop\n            /* \"#utility.yul\":7473:7642   */\n          swap3\n          swap2\n          pop\n          pop\n          jump\t// out\n            /* \"#utility.yul\":7647:7942   */\n        tag_49:\n            /* \"#utility.yul\":7723:7727   */\n          0x00\n            /* \"#utility.yul\":7869:7898   */\n          tag_147\n            /* \"#utility.yul\":7894:7897   */\n          dup4\n            /* \"#utility.yul\":7888:7892   */\n          dup4\n            /* \"#utility.yul\":7869:7898   */\n          tag_48\n          jump\t// in\n        tag_147:\n            /* \"#utility.yul\":7861:7898   */\n          swap2\n          pop\n            /* \"#utility.yul\":7931:7934   */\n          dup3\n            /* \"#utility.yul\":7928:7929   */\n          0x02\n            /* \"#utility.yul\":7924:7935   */\n          mul\n            /* \"#utility.yul\":7918:7922   */\n          dup3\n            /* \"#utility.yul\":7915:7936   */\n          or\n            /* \"#utility.yul\":7907:7936   */\n          swap1\n          pop\n            /* \"#utility.yul\":7647:7942   */\n          swap3\n          swap2\n          pop\n          pop\n          jump\t// out\n            /* \"#utility.yul\":7947:9342   */\n        tag_7:\n            /* \"#utility.yul\":8064:8101   */\n          tag_149\n            /* \"#utility.yul\":8097:8100   */\n          dup3\n            /* \"#utility.yul\":8064:8101   */\n          tag_32\n          jump\t// in\n        tag_149:\n            /* \"#utility.yul\":8166:8184   */\n          0xffffffffffffffff\n            /* \"#utility.yul\":8158:8164   */\n          dup2\n            /* \"#utility.yul\":8155:8185   */\n          gt\n            /* \"#utility.yul\":8152:8208   */\n          iszero\n          tag_150\n          jumpi\n            /* \"#utility.yul\":8188:8206   */\n          tag_151\n          tag_18\n          jump\t// in\n        tag_151:\n            /* \"#utility.yul\":8152:8208   */\n        tag_150:\n            /* \"#utility.yul\":8232:8270   */\n          tag_152\n            /* \"#utility.yul\":8264:8268   */\n          dup3\n            /* \"#utility.yul\":8258:8269   */\n          sload\n            /* \"#utility.yul\":8232:8270   */\n          tag_34\n          jump\t// in\n        tag_152:\n            /* \"#utility.yul\":8317:8384   */\n          tag_153\n            /* \"#utility.yul\":8377:8383   */\n          dup3\n            /* \"#utility.yul\":8369:8375   */\n          dup3\n            /* \"#utility.yul\":8363:8367   */\n          dup6\n            /* \"#utility.yul\":8317:8384   */\n          tag_46\n          jump\t// in\n        tag_153:\n            /* \"#utility.yul\":8411:8412   */\n          0x00\n            /* \"#utility.yul\":8435:8439   */\n          0x20\n            /* \"#utility.yul\":8422:8439   */\n          swap1\n          pop\n            /* \"#utility.yul\":8467:8469   */\n          0x1f\n            /* \"#utility.yul\":8459:8465   */\n          dup4\n            /* \"#utility.yul\":8456:8470   */\n          gt\n            /* \"#utility.yul\":8484:8485   */\n          0x01\n            /* \"#utility.yul\":8479:9097   */\n          dup2\n          eq\n          tag_155\n          jumpi\n            /* \"#utility.yul\":9141:9142   */\n          0x00\n            /* \"#utility.yul\":9158:9164   */\n          dup5\n            /* \"#utility.yul\":9155:9232   */\n          iszero\n          tag_156\n          jumpi\n            /* \"#utility.yul\":9207:9216   */\n          dup3\n            /* \"#utility.yul\":9202:9205   */\n          dup8\n            /* \"#utility.yul\":9198:9217   */\n          add\n            /* \"#utility.yul\":9192:9218   */\n          mload\n            /* \"#utility.yul\":9183:9218   */\n          swap1\n          pop\n            /* \"#utility.yul\":9155:9232   */\n        tag_156:\n            /* \"#utility.yul\":9258:9325   */\n          tag_157\n            /* \"#utility.yul\":9318:9324   */\n          dup6\n            /* \"#utility.yul\":9311:9316   */\n          dup3\n            /* \"#utility.yul\":9258:9325   */\n          tag_49\n          jump\t// in\n        tag_157:\n            /* \"#utility.yul\":9252:9256   */\n          dup7\n            /* \"#utility.yul\":9245:9326   */\n          sstore\n            /* \"#utility.yul\":9114:9336   */\n          pop\n            /* \"#utility.yul\":8449:9336   */\n          jump(tag_154)\n            /* \"#utility.yul\":8479:9097   */\n        tag_155:\n            /* \"#utility.yul\":8531:8535   */\n          0x1f\n            /* \"#utility.yul\":8527:8536   */\n          not\n            /* \"#utility.yul\":8519:8525   */\n          dup5\n            /* \"#utility.yul\":8515:8537   */\n          and\n            /* \"#utility.yul\":8565:8602   */\n          tag_158\n            /* \"#utility.yul\":8597:8601   */\n          dup7\n            /* \"#utility.yul\":8565:8602   */\n          tag_35\n          jump\t// in\n        tag_158:\n            /* \"#utility.yul\":8624:8625   */\n          0x00\n            /* \"#utility.yul\":8638:8846   */\n        tag_159:\n            /* \"#utility.yul\":8652:8659   */\n          dup3\n            /* \"#utility.yul\":8649:8650   */\n          dup2\n            /* \"#utility.yul\":8646:8660   */\n          lt\n            /* \"#utility.yul\":8638:8846   */\n          iszero\n          tag_161\n          jumpi\n            /* \"#utility.yul\":8731:8740   */\n          dup5\n            /* \"#utility.yul\":8726:8729   */\n          dup10\n            /* \"#utility.yul\":8722:8741   */\n          add\n            /* \"#utility.yul\":8716:8742   */\n          mload\n            /* \"#utility.yul\":8708:8714   */\n          dup3\n            /* \"#utility.yul\":8701:8743   */\n          sstore\n            /* \"#utility.yul\":8782:8783   */\n          0x01\n            /* \"#utility.yul\":8774:8780   */\n          dup3\n            /* \"#utility.yul\":8770:8784   */\n          add\n            /* \"#utility.yul\":8760:8784   */\n          swap2\n          pop\n            /* \"#utility.yul\":8829:8831   */\n          0x20\n            /* \"#utility.yul\":8818:8827   */\n          dup6\n            /* \"#utility.yul\":8814:8832   */\n          add\n            /* \"#utility.yul\":8801:8832   */\n          swap5\n          pop\n            /* \"#utility.yul\":8675:8679   */\n          0x20\n            /* \"#utility.yul\":8672:8673   */\n          dup2\n            /* \"#utility.yul\":8668:8680   */\n          add\n            /* \"#utility.yul\":8663:8680   */\n          swap1\n          pop\n            /* \"#utility.yul\":8638:8846   */\n          jump(tag_159)\n        tag_161:\n            /* \"#utility.yul\":8874:8880   */\n          dup7\n            /* \"#utility.yul\":8865:8872   */\n          dup4\n            /* \"#utility.yul\":8862:8881   */\n          lt\n            /* \"#utility.yul\":8859:9038   */\n          iszero\n          tag_162\n          jumpi\n            /* \"#utility.yul\":8932:8941   */\n          dup5\n            /* \"#utility.yul\":8927:8930   */\n          dup10\n            /* \"#utility.yul\":8923:8942   */\n          add\n            /* \"#utility.yul\":8917:8943   */\n          mload\n            /* \"#utility.yul\":8975:9023   */\n          tag_163\n            /* \"#utility.yul\":9017:9021   */\n          0x1f\n            /* \"#utility.yul\":9009:9015   */\n          dup10\n            /* \"#utility.yul\":9005:9022   */\n          and\n            /* \"#utility.yul\":8994:9003   */\n          dup3\n            /* \"#utility.yul\":8975:9023   */\n          tag_48\n          jump\t// in\n        tag_163:\n            /* \"#utility.yul\":8967:8973   */\n          dup4\n            /* \"#utility.yul\":8960:9024   */\n          sstore\n            /* \"#utility.yul\":8882:9038   */\n          pop\n            /* \"#utility.yul\":8859:9038   */\n        tag_162:\n            /* \"#utility.yul\":9084:9085   */\n          0x01\n            /* \"#utility.yul\":9080:9081   */\n          0x02\n            /* \"#utility.yul\":9072:9078   */\n          dup9\n            /* \"#utility.yul\":9068:9082   */\n          mul\n            /* \"#utility.yul\":9064:9086   */\n          add\n            /* \"#utility.yul\":9058:9062   */\n          dup9\n            /* \"#utility.yul\":9051:9087   */\n          sstore\n            /* \"#utility.yul\":8486:9097   */\n          pop\n          pop\n          pop\n            /* \"#utility.yul\":8449:9336   */\n        tag_154:\n          pop\n            /* \"#utility.yul\":8039:9342   */\n          pop\n          pop\n          pop\n            /* \"#utility.yul\":7947:9342   */\n          pop\n          pop\n          jump\t// out\n            /* \"#utility.yul\":9348:9528   */\n        tag_10:\n            /* \"#utility.yul\":9396:9473   */\n          0x4e487b7100000000000000000000000000000000000000000000000000000000\n            /* \"#utility.yul\":9393:9394   */\n          0x00\n            /* \"#utility.yul\":9386:9474   */\n          mstore\n            /* \"#utility.yul\":9493:9497   */\n          0x21\n            /* \"#utility.yul\":9490:9491   */\n          0x04\n            /* \"#utility.yul\":9483:9498   */\n          mstore\n            /* \"#utility.yul\":9517:9521   */\n          0x24\n            /* \"#utility.yul\":9514:9515   */\n          0x00\n            /* \"#utility.yul\":9507:9522   */\n          revert\n            /* \"src/contract/karna.sol\":61:1489  contract Campaign{... */\n        tag_11:\n          dataSize(sub_0)\n          dup1\n          dataOffset(sub_0)\n          0x00\n          codecopy\n          0x00\n          return\n        stop\n\n        sub_0: assembly {\n                /* \"src/contract/karna.sol\":61:1489  contract Campaign{... */\n              mstore(0x40, 0x80)\n              jumpi(tag_1, lt(calldatasize, 0x04))\n              shr(0xe0, calldataload(0x00))\n              dup1\n              0x06fdde03\n              eq\n              tag_2\n              jumpi\n              dup1\n              0x200d2ed2\n              eq\n              tag_3\n              jumpi\n              dup1\n              0x5ab7f1a8\n              eq\n              tag_4\n              jumpi\n              dup1\n              0xa8e4fb90\n              eq\n              tag_5\n              jumpi\n              dup1\n              0xaa8c217c\n              eq\n              tag_6\n              jumpi\n              dup1\n              0xed88c68e\n              eq\n              tag_7\n              jumpi\n            tag_1:\n              0x00\n              dup1\n              revert\n                /* \"src/contract/karna.sol\":136:154  string public name */\n            tag_2:\n              callvalue\n              dup1\n              iszero\n              tag_8\n              jumpi\n              0x00\n              dup1\n              revert\n            tag_8:\n              pop\n              tag_9\n              tag_10\n              jump\t// in\n            tag_9:\n              mload(0x40)\n              tag_11\n              swap2\n              swap1\n              tag_12\n              jump\t// in\n            tag_11:\n              mload(0x40)\n              dup1\n              swap2\n              sub\n              swap1\n              return\n                /* \"src/contract/karna.sol\":256:284  CampaignStatus public status */\n            tag_3:\n              callvalue\n              dup1\n              iszero\n              tag_13\n              jumpi\n              0x00\n              dup1\n              revert\n            tag_13:\n              pop\n              tag_14\n              tag_15\n              jump\t// in\n            tag_14:\n              mload(0x40)\n              tag_16\n              swap2\n              swap1\n              tag_17\n              jump\t// in\n            tag_16:\n              mload(0x40)\n              dup1\n              swap2\n              sub\n              swap1\n              return\n                /* \"src/contract/karna.sol\":219:249  uint256 public donatedAmount=0 */\n            tag_4:\n              callvalue\n              dup1\n              iszero\n              tag_18\n              jumpi\n              0x00\n              dup1\n              revert\n            tag_18:\n              pop\n              tag_19\n              tag_20\n              jump\t// in\n            tag_19:\n              mload(0x40)\n              tag_21\n              swap2\n              swap1\n              tag_22\n              jump\t// in\n            tag_21:\n              mload(0x40)\n              dup1\n              swap2\n              sub\n              swap1\n              return\n                /* \"src/contract/karna.sol\":161:184  address public proposer */\n            tag_5:\n              callvalue\n              dup1\n              iszero\n              tag_23\n              jumpi\n              0x00\n              dup1\n              revert\n            tag_23:\n              pop\n              tag_24\n              tag_25\n              jump\t// in\n            tag_24:\n              mload(0x40)\n              tag_26\n              swap2\n              swap1\n              tag_27\n              jump\t// in\n            tag_26:\n              mload(0x40)\n              dup1\n              swap2\n              sub\n              swap1\n              return\n                /* \"src/contract/karna.sol\":191:212  uint256 public amount */\n            tag_6:\n              callvalue\n              dup1\n              iszero\n              tag_28\n              jumpi\n              0x00\n              dup1\n              revert\n            tag_28:\n              pop\n              tag_29\n              tag_30\n              jump\t// in\n            tag_29:\n              mload(0x40)\n              tag_31\n              swap2\n              swap1\n              tag_22\n              jump\t// in\n            tag_31:\n              mload(0x40)\n              dup1\n              swap2\n              sub\n              swap1\n              return\n                /* \"src/contract/karna.sol\":825:1486  function donate() public payable {... */\n            tag_7:\n              tag_32\n              tag_33\n              jump\t// in\n            tag_32:\n              stop\n                /* \"src/contract/karna.sol\":136:154  string public name */\n            tag_10:\n              0x00\n              dup1\n              sload\n              tag_34\n              swap1\n              tag_35\n              jump\t// in\n            tag_34:\n              dup1\n              0x1f\n              add\n              0x20\n              dup1\n              swap2\n              div\n              mul\n              0x20\n              add\n              mload(0x40)\n              swap1\n              dup2\n              add\n              0x40\n              mstore\n              dup1\n              swap3\n              swap2\n              swap1\n              dup2\n              dup2\n              mstore\n              0x20\n              add\n              dup3\n              dup1\n              sload\n              tag_36\n              swap1\n              tag_35\n              jump\t// in\n            tag_36:\n              dup1\n              iszero\n              tag_37\n              jumpi\n              dup1\n              0x1f\n              lt\n              tag_38\n              jumpi\n              0x0100\n              dup1\n              dup4\n              sload\n              div\n              mul\n              dup4\n              mstore\n              swap2\n              0x20\n              add\n              swap2\n              jump(tag_37)\n            tag_38:\n              dup3\n              add\n              swap2\n              swap1\n              0x00\n              mstore\n              keccak256(0x00, 0x20)\n              swap1\n            tag_39:\n              dup2\n              sload\n              dup2\n              mstore\n              swap1\n              0x01\n              add\n              swap1\n              0x20\n              add\n              dup1\n              dup4\n              gt\n              tag_39\n              jumpi\n              dup3\n              swap1\n              sub\n              0x1f\n              and\n              dup3\n              add\n              swap2\n            tag_37:\n              pop\n              pop\n              pop\n              pop\n              pop\n              dup2\n              jump\t// out\n                /* \"src/contract/karna.sol\":256:284  CampaignStatus public status */\n            tag_15:\n              0x04\n              0x00\n              swap1\n              sload\n              swap1\n              0x0100\n              exp\n              swap1\n              div\n              0xff\n              and\n              dup2\n              jump\t// out\n                /* \"src/contract/karna.sol\":219:249  uint256 public donatedAmount=0 */\n            tag_20:\n              sload(0x03)\n              dup2\n              jump\t// out\n                /* \"src/contract/karna.sol\":161:184  address public proposer */\n            tag_25:\n              0x01\n              0x00\n              swap1\n              sload\n              swap1\n              0x0100\n              exp\n              swap1\n              div\n              0xffffffffffffffffffffffffffffffffffffffff\n              and\n              dup2\n              jump\t// out\n                /* \"src/contract/karna.sol\":191:212  uint256 public amount */\n            tag_30:\n              sload(0x02)\n              dup2\n              jump\t// out\n                /* \"src/contract/karna.sol\":825:1486  function donate() public payable {... */\n            tag_33:\n                /* \"src/contract/karna.sol\":887:908  CampaignStatus.CLOSED */\n              0x02\n                /* \"src/contract/karna.sol\":877:908  status != CampaignStatus.CLOSED */\n              dup1\n              dup2\n              gt\n              iszero\n              tag_41\n              jumpi\n              tag_42\n              tag_43\n              jump\t// in\n            tag_42:\n            tag_41:\n                /* \"src/contract/karna.sol\":877:883  status */\n              0x04\n              0x00\n              swap1\n              sload\n              swap1\n              0x0100\n              exp\n              swap1\n              div\n              0xff\n              and\n                /* \"src/contract/karna.sol\":877:908  status != CampaignStatus.CLOSED */\n              0x02\n              dup2\n              gt\n              iszero\n              tag_44\n              jumpi\n              tag_45\n              tag_43\n              jump\t// in\n            tag_45:\n            tag_44:\n              sub\n                /* \"src/contract/karna.sol\":869:931  require(status != CampaignStatus.CLOSED, \"Campaign is closed\") */\n              tag_46\n              jumpi\n              mload(0x40)\n              0x08c379a000000000000000000000000000000000000000000000000000000000\n              dup2\n              mstore\n              0x04\n              add\n              tag_47\n              swap1\n              tag_48\n              jump\t// in\n            tag_47:\n              mload(0x40)\n              dup1\n              swap2\n              sub\n              swap1\n              revert\n            tag_46:\n                /* \"src/contract/karna.sol\":960:981  CampaignStatus.FILLED */\n              0x01\n                /* \"src/contract/karna.sol\":950:981  status != CampaignStatus.FILLED */\n              0x02\n              dup2\n              gt\n              iszero\n              tag_49\n              jumpi\n              tag_50\n              tag_43\n              jump\t// in\n            tag_50:\n            tag_49:\n                /* \"src/contract/karna.sol\":950:956  status */\n              0x04\n              0x00\n              swap1\n              sload\n              swap1\n              0x0100\n              exp\n              swap1\n              div\n              0xff\n              and\n                /* \"src/contract/karna.sol\":950:981  status != CampaignStatus.FILLED */\n              0x02\n              dup2\n              gt\n              iszero\n              tag_51\n              jumpi\n              tag_52\n              tag_43\n              jump\t// in\n            tag_52:\n            tag_51:\n              sub\n                /* \"src/contract/karna.sol\":942:1012  require(status != CampaignStatus.FILLED, \"Campaign is already filled\") */\n              tag_53\n              jumpi\n              mload(0x40)\n              0x08c379a000000000000000000000000000000000000000000000000000000000\n              dup2\n              mstore\n              0x04\n              add\n              tag_54\n              swap1\n              tag_55\n              jump\t// in\n            tag_54:\n              mload(0x40)\n              dup1\n              swap2\n              sub\n              swap1\n              revert\n            tag_53:\n                /* \"src/contract/karna.sol\":1043:1044  0 */\n              0x00\n                /* \"src/contract/karna.sol\":1031:1040  msg.value */\n              callvalue\n                /* \"src/contract/karna.sol\":1031:1044  msg.value > 0 */\n              gt\n                /* \"src/contract/karna.sol\":1023:1082  require(msg.value > 0, \"Sent value must be greater than 0\") */\n              tag_56\n              jumpi\n              mload(0x40)\n              0x08c379a000000000000000000000000000000000000000000000000000000000\n              dup2\n              mstore\n              0x04\n              add\n              tag_57\n              swap1\n              tag_58\n              jump\t// in\n            tag_57:\n              mload(0x40)\n              dup1\n              swap2\n              sub\n              swap1\n              revert\n            tag_56:\n                /* \"src/contract/karna.sol\":1163:1174  bool result */\n              0x00\n                /* \"src/contract/karna.sol\":1183:1191  proposer */\n              0x01\n              0x00\n              swap1\n              sload\n              swap1\n              0x0100\n              exp\n              swap1\n              div\n              0xffffffffffffffffffffffffffffffffffffffff\n              and\n                /* \"src/contract/karna.sol\":1175:1197  payable(proposer).send */\n              0xffffffffffffffffffffffffffffffffffffffff\n              and\n                /* \"src/contract/karna.sol\":1175:1208  payable(proposer).send(msg.value) */\n              0x08fc\n                /* \"src/contract/karna.sol\":1198:1207  msg.value */\n              callvalue\n                /* \"src/contract/karna.sol\":1175:1208  payable(proposer).send(msg.value) */\n              swap1\n              dup2\n              iszero\n              mul\n              swap1\n              mload(0x40)\n              0x00\n              mload(0x40)\n              dup1\n              dup4\n              sub\n              dup2\n              dup6\n              dup9\n              dup9\n              call\n              swap4\n              pop\n              pop\n              pop\n              pop\n                /* \"src/contract/karna.sol\":1163:1208  bool result=payable(proposer).send(msg.value) */\n              swap1\n              pop\n                /* \"src/contract/karna.sol\":1227:1233  result */\n              dup1\n                /* \"src/contract/karna.sol\":1219:1279  require(result, \"The amount is not donated to the campaign\") */\n              tag_60\n              jumpi\n              mload(0x40)\n              0x08c379a000000000000000000000000000000000000000000000000000000000\n              dup2\n              mstore\n              0x04\n              add\n              tag_61\n              swap1\n              tag_62\n              jump\t// in\n            tag_61:\n              mload(0x40)\n              dup1\n              swap2\n              sub\n              swap1\n              revert\n            tag_60:\n                /* \"src/contract/karna.sol\":1328:1332  1e18 */\n              0x0de0b6b3a7640000\n                /* \"src/contract/karna.sol\":1318:1327  msg.value */\n              callvalue\n                /* \"src/contract/karna.sol\":1318:1332  msg.value/1e18 */\n              tag_63\n              swap2\n              swap1\n              tag_64\n              jump\t// in\n            tag_63:\n                /* \"src/contract/karna.sol\":1304:1317  donatedAmount */\n              sload(0x03)\n                /* \"src/contract/karna.sol\":1304:1332  donatedAmount+msg.value/1e18 */\n              tag_65\n              swap2\n              swap1\n              tag_66\n              jump\t// in\n            tag_65:\n                /* \"src/contract/karna.sol\":1290:1303  donatedAmount */\n              0x03\n                /* \"src/contract/karna.sol\":1290:1332  donatedAmount=donatedAmount+msg.value/1e18 */\n              dup2\n              swap1\n              sstore\n              pop\n                /* \"src/contract/karna.sol\":1364:1370  amount */\n              sload(0x02)\n                /* \"src/contract/karna.sol\":1347:1360  donatedAmount */\n              sload(0x03)\n                /* \"src/contract/karna.sol\":1347:1370  donatedAmount >= amount */\n              lt\n                /* \"src/contract/karna.sol\":1343:1429  if (donatedAmount >= amount) {... */\n              tag_67\n              jumpi\n                /* \"src/contract/karna.sol\":1396:1417  CampaignStatus.FILLED */\n              0x01\n                /* \"src/contract/karna.sol\":1387:1393  status */\n              0x04\n              0x00\n                /* \"src/contract/karna.sol\":1387:1417  status = CampaignStatus.FILLED */\n              0x0100\n              exp\n              dup2\n              sload\n              dup2\n              0xff\n              mul\n              not\n              and\n              swap1\n              dup4\n              0x02\n              dup2\n              gt\n              iszero\n              tag_68\n              jumpi\n              tag_69\n              tag_43\n              jump\t// in\n            tag_69:\n            tag_68:\n              mul\n              or\n              swap1\n              sstore\n              pop\n                /* \"src/contract/karna.sol\":1343:1429  if (donatedAmount >= amount) {... */\n            tag_67:\n                /* \"src/contract/karna.sol\":1444:1478  DonateEvent(msg.sender, msg.value) */\n              0x4a738e144fcebc2a2453dde8472c2fe125988d7508d635d71a45886efcf50006\n                /* \"src/contract/karna.sol\":1456:1466  msg.sender */\n              caller\n                /* \"src/contract/karna.sol\":1468:1477  msg.value */\n              callvalue\n                /* \"src/contract/karna.sol\":1444:1478  DonateEvent(msg.sender, msg.value) */\n              mload(0x40)\n              tag_70\n              swap3\n              swap2\n              swap1\n              tag_71\n              jump\t// in\n            tag_70:\n              mload(0x40)\n              dup1\n              swap2\n              sub\n              swap1\n              log1\n                /* \"src/contract/karna.sol\":858:1486  {... */\n              pop\n                /* \"src/contract/karna.sol\":825:1486  function donate() public payable {... */\n              jump\t// out\n                /* \"#utility.yul\":7:106   */\n            tag_72:\n                /* \"#utility.yul\":59:65   */\n              0x00\n                /* \"#utility.yul\":93:98   */\n              dup2\n                /* \"#utility.yul\":87:99   */\n              mload\n                /* \"#utility.yul\":77:99   */\n              swap1\n              pop\n                /* \"#utility.yul\":7:106   */\n              swap2\n              swap1\n              pop\n              jump\t// out\n                /* \"#utility.yul\":112:281   */\n            tag_73:\n                /* \"#utility.yul\":196:207   */\n              0x00\n                /* \"#utility.yul\":230:236   */\n              dup3\n                /* \"#utility.yul\":225:228   */\n              dup3\n                /* \"#utility.yul\":218:237   */\n              mstore\n                /* \"#utility.yul\":270:274   */\n              0x20\n                /* \"#utility.yul\":265:268   */\n              dup3\n                /* \"#utility.yul\":261:275   */\n              add\n                /* \"#utility.yul\":246:275   */\n              swap1\n              pop\n                /* \"#utility.yul\":112:281   */\n              swap3\n              swap2\n              pop\n              pop\n              jump\t// out\n                /* \"#utility.yul\":287:533   */\n            tag_74:\n                /* \"#utility.yul\":368:369   */\n              0x00\n                /* \"#utility.yul\":378:491   */\n            tag_101:\n                /* \"#utility.yul\":392:398   */\n              dup4\n                /* \"#utility.yul\":389:390   */\n              dup2\n                /* \"#utility.yul\":386:399   */\n              lt\n                /* \"#utility.yul\":378:491   */\n              iszero\n              tag_103\n              jumpi\n                /* \"#utility.yul\":477:478   */\n              dup1\n                /* \"#utility.yul\":472:475   */\n              dup3\n                /* \"#utility.yul\":468:479   */\n              add\n                /* \"#utility.yul\":462:480   */\n              mload\n                /* \"#utility.yul\":458:459   */\n              dup2\n                /* \"#utility.yul\":453:456   */\n              dup5\n                /* \"#utility.yul\":449:460   */\n              add\n                /* \"#utility.yul\":442:481   */\n              mstore\n                /* \"#utility.yul\":414:416   */\n              0x20\n                /* \"#utility.yul\":411:412   */\n              dup2\n                /* \"#utility.yul\":407:417   */\n              add\n                /* \"#utility.yul\":402:417   */\n              swap1\n              pop\n                /* \"#utility.yul\":378:491   */\n              jump(tag_101)\n            tag_103:\n                /* \"#utility.yul\":525:526   */\n              0x00\n                /* \"#utility.yul\":516:522   */\n              dup5\n                /* \"#utility.yul\":511:514   */\n              dup5\n                /* \"#utility.yul\":507:523   */\n              add\n                /* \"#utility.yul\":500:527   */\n              mstore\n                /* \"#utility.yul\":349:533   */\n              pop\n                /* \"#utility.yul\":287:533   */\n              pop\n              pop\n              pop\n              jump\t// out\n                /* \"#utility.yul\":539:641   */\n            tag_75:\n                /* \"#utility.yul\":580:586   */\n              0x00\n                /* \"#utility.yul\":631:633   */\n              0x1f\n                /* \"#utility.yul\":627:634   */\n              not\n                /* \"#utility.yul\":622:624   */\n              0x1f\n                /* \"#utility.yul\":615:620   */\n              dup4\n                /* \"#utility.yul\":611:625   */\n              add\n                /* \"#utility.yul\":607:635   */\n              and\n                /* \"#utility.yul\":597:635   */\n              swap1\n              pop\n                /* \"#utility.yul\":539:641   */\n              swap2\n              swap1\n              pop\n              jump\t// out\n                /* \"#utility.yul\":647:1024   */\n            tag_76:\n                /* \"#utility.yul\":735:738   */\n              0x00\n                /* \"#utility.yul\":763:802   */\n              tag_106\n                /* \"#utility.yul\":796:801   */\n              dup3\n                /* \"#utility.yul\":763:802   */\n              tag_72\n              jump\t// in\n            tag_106:\n                /* \"#utility.yul\":818:889   */\n              tag_107\n                /* \"#utility.yul\":882:888   */\n              dup2\n                /* \"#utility.yul\":877:880   */\n              dup6\n                /* \"#utility.yul\":818:889   */\n              tag_73\n              jump\t// in\n            tag_107:\n                /* \"#utility.yul\":811:889   */\n              swap4\n              pop\n                /* \"#utility.yul\":898:963   */\n              tag_108\n                /* \"#utility.yul\":956:962   */\n              dup2\n                /* \"#utility.yul\":951:954   */\n              dup6\n                /* \"#utility.yul\":944:948   */\n              0x20\n                /* \"#utility.yul\":937:942   */\n              dup7\n                /* \"#utility.yul\":933:949   */\n              add\n                /* \"#utility.yul\":898:963   */\n              tag_74\n              jump\t// in\n            tag_108:\n                /* \"#utility.yul\":988:1017   */\n              tag_109\n                /* \"#utility.yul\":1010:1016   */\n              dup2\n                /* \"#utility.yul\":988:1017   */\n              tag_75\n              jump\t// in\n            tag_109:\n                /* \"#utility.yul\":983:986   */\n              dup5\n                /* \"#utility.yul\":979:1018   */\n              add\n                /* \"#utility.yul\":972:1018   */\n              swap2\n              pop\n                /* \"#utility.yul\":739:1024   */\n              pop\n                /* \"#utility.yul\":647:1024   */\n              swap3\n              swap2\n              pop\n              pop\n              jump\t// out\n                /* \"#utility.yul\":1030:1343   */\n            tag_12:\n                /* \"#utility.yul\":1143:1147   */\n              0x00\n                /* \"#utility.yul\":1181:1183   */\n              0x20\n                /* \"#utility.yul\":1170:1179   */\n              dup3\n                /* \"#utility.yul\":1166:1184   */\n              add\n                /* \"#utility.yul\":1158:1184   */\n              swap1\n              pop\n                /* \"#utility.yul\":1230:1239   */\n              dup2\n                /* \"#utility.yul\":1224:1228   */\n              dup2\n                /* \"#utility.yul\":1220:1240   */\n              sub\n                /* \"#utility.yul\":1216:1217   */\n              0x00\n                /* \"#utility.yul\":1205:1214   */\n              dup4\n                /* \"#utility.yul\":1201:1218   */\n              add\n                /* \"#utility.yul\":1194:1241   */\n              mstore\n                /* \"#utility.yul\":1258:1336   */\n              tag_111\n                /* \"#utility.yul\":1331:1335   */\n              dup2\n                /* \"#utility.yul\":1322:1328   */\n              dup5\n                /* \"#utility.yul\":1258:1336   */\n              tag_76\n              jump\t// in\n            tag_111:\n                /* \"#utility.yul\":1250:1336   */\n              swap1\n              pop\n                /* \"#utility.yul\":1030:1343   */\n              swap3\n              swap2\n              pop\n              pop\n              jump\t// out\n                /* \"#utility.yul\":1349:1529   */\n            tag_43:\n                /* \"#utility.yul\":1397:1474   */\n              0x4e487b7100000000000000000000000000000000000000000000000000000000\n                /* \"#utility.yul\":1394:1395   */\n              0x00\n                /* \"#utility.yul\":1387:1475   */\n              mstore\n                /* \"#utility.yul\":1494:1498   */\n              0x21\n                /* \"#utility.yul\":1491:1492   */\n              0x04\n                /* \"#utility.yul\":1484:1499   */\n              mstore\n                /* \"#utility.yul\":1518:1522   */\n              0x24\n                /* \"#utility.yul\":1515:1516   */\n              0x00\n                /* \"#utility.yul\":1508:1523   */\n              revert\n                /* \"#utility.yul\":1535:1656   */\n            tag_77:\n                /* \"#utility.yul\":1624:1625   */\n              0x03\n                /* \"#utility.yul\":1617:1622   */\n              dup2\n                /* \"#utility.yul\":1614:1626   */\n              lt\n                /* \"#utility.yul\":1604:1650   */\n              tag_114\n              jumpi\n                /* \"#utility.yul\":1630:1648   */\n              tag_115\n              tag_43\n              jump\t// in\n            tag_115:\n                /* \"#utility.yul\":1604:1650   */\n            tag_114:\n                /* \"#utility.yul\":1535:1656   */\n              pop\n              jump\t// out\n                /* \"#utility.yul\":1662:1805   */\n            tag_78:\n                /* \"#utility.yul\":1715:1722   */\n              0x00\n                /* \"#utility.yul\":1744:1749   */\n              dup2\n                /* \"#utility.yul\":1733:1749   */\n              swap1\n              pop\n                /* \"#utility.yul\":1750:1799   */\n              tag_117\n                /* \"#utility.yul\":1793:1798   */\n              dup3\n                /* \"#utility.yul\":1750:1799   */\n              tag_77\n              jump\t// in\n            tag_117:\n                /* \"#utility.yul\":1662:1805   */\n              swap2\n              swap1\n              pop\n              jump\t// out\n                /* \"#utility.yul\":1811:1954   */\n            tag_79:\n                /* \"#utility.yul\":1875:1884   */\n              0x00\n                /* \"#utility.yul\":1908:1948   */\n              tag_119\n                /* \"#utility.yul\":1942:1947   */\n              dup3\n                /* \"#utility.yul\":1908:1948   */\n              tag_78\n              jump\t// in\n            tag_119:\n                /* \"#utility.yul\":1895:1948   */\n              swap1\n              pop\n                /* \"#utility.yul\":1811:1954   */\n              swap2\n              swap1\n              pop\n              jump\t// out\n                /* \"#utility.yul\":1960:2119   */\n            tag_80:\n                /* \"#utility.yul\":2061:2112   */\n              tag_121\n                /* \"#utility.yul\":2106:2111   */\n              dup2\n                /* \"#utility.yul\":2061:2112   */\n              tag_79\n              jump\t// in\n            tag_121:\n                /* \"#utility.yul\":2056:2059   */\n              dup3\n                /* \"#utility.yul\":2049:2113   */\n              mstore\n                /* \"#utility.yul\":1960:2119   */\n              pop\n              pop\n              jump\t// out\n                /* \"#utility.yul\":2125:2375   */\n            tag_17:\n                /* \"#utility.yul\":2232:2236   */\n              0x00\n                /* \"#utility.yul\":2270:2272   */\n              0x20\n                /* \"#utility.yul\":2259:2268   */\n              dup3\n                /* \"#utility.yul\":2255:2273   */\n              add\n                /* \"#utility.yul\":2247:2273   */\n              swap1\n              pop\n                /* \"#utility.yul\":2283:2368   */\n              tag_123\n                /* \"#utility.yul\":2365:2366   */\n              0x00\n                /* \"#utility.yul\":2354:2363   */\n              dup4\n                /* \"#utility.yul\":2350:2367   */\n              add\n                /* \"#utility.yul\":2341:2347   */\n              dup5\n                /* \"#utility.yul\":2283:2368   */\n              tag_80\n              jump\t// in\n            tag_123:\n                /* \"#utility.yul\":2125:2375   */\n              swap3\n              swap2\n              pop\n              pop\n              jump\t// out\n                /* \"#utility.yul\":2381:2458   */\n            tag_81:\n                /* \"#utility.yul\":2418:2425   */\n              0x00\n                /* \"#utility.yul\":2447:2452   */\n              dup2\n                /* \"#utility.yul\":2436:2452   */\n              swap1\n              pop\n                /* \"#utility.yul\":2381:2458   */\n              swap2\n              swap1\n              pop\n              jump\t// out\n                /* \"#utility.yul\":2464:2582   */\n            tag_82:\n                /* \"#utility.yul\":2551:2575   */\n              tag_126\n                /* \"#utility.yul\":2569:2574   */\n              dup2\n                /* \"#utility.yul\":2551:2575   */\n              tag_81\n              jump\t// in\n            tag_126:\n                /* \"#utility.yul\":2546:2549   */\n              dup3\n                /* \"#utility.yul\":2539:2576   */\n              mstore\n                /* \"#utility.yul\":2464:2582   */\n              pop\n              pop\n              jump\t// out\n                /* \"#utility.yul\":2588:2810   */\n            tag_22:\n                /* \"#utility.yul\":2681:2685   */\n              0x00\n                /* \"#utility.yul\":2719:2721   */\n              0x20\n                /* \"#utility.yul\":2708:2717   */\n              dup3\n                /* \"#utility.yul\":2704:2722   */\n              add\n                /* \"#utility.yul\":2696:2722   */\n              swap1\n              pop\n                /* \"#utility.yul\":2732:2803   */\n              tag_128\n                /* \"#utility.yul\":2800:2801   */\n              0x00\n                /* \"#utility.yul\":2789:2798   */\n              dup4\n                /* \"#utility.yul\":2785:2802   */\n              add\n                /* \"#utility.yul\":2776:2782   */\n              dup5\n                /* \"#utility.yul\":2732:2803   */\n              tag_82\n              jump\t// in\n            tag_128:\n                /* \"#utility.yul\":2588:2810   */\n              swap3\n              swap2\n              pop\n              pop\n              jump\t// out\n                /* \"#utility.yul\":2816:2942   */\n            tag_83:\n                /* \"#utility.yul\":2853:2860   */\n              0x00\n                /* \"#utility.yul\":2893:2935   */\n              0xffffffffffffffffffffffffffffffffffffffff\n                /* \"#utility.yul\":2886:2891   */\n              dup3\n                /* \"#utility.yul\":2882:2936   */\n              and\n                /* \"#utility.yul\":2871:2936   */\n              swap1\n              pop\n                /* \"#utility.yul\":2816:2942   */\n              swap2\n              swap1\n              pop\n              jump\t// out\n                /* \"#utility.yul\":2948:3044   */\n            tag_84:\n                /* \"#utility.yul\":2985:2992   */\n              0x00\n                /* \"#utility.yul\":3014:3038   */\n              tag_131\n                /* \"#utility.yul\":3032:3037   */\n              dup3\n                /* \"#utility.yul\":3014:3038   */\n              tag_83\n              jump\t// in\n            tag_131:\n                /* \"#utility.yul\":3003:3038   */\n              swap1\n              pop\n                /* \"#utility.yul\":2948:3044   */\n              swap2\n              swap1\n              pop\n              jump\t// out\n                /* \"#utility.yul\":3050:3168   */\n            tag_85:\n                /* \"#utility.yul\":3137:3161   */\n              tag_133\n                /* \"#utility.yul\":3155:3160   */\n              dup2\n                /* \"#utility.yul\":3137:3161   */\n              tag_84\n              jump\t// in\n            tag_133:\n                /* \"#utility.yul\":3132:3135   */\n              dup3\n                /* \"#utility.yul\":3125:3162   */\n              mstore\n                /* \"#utility.yul\":3050:3168   */\n              pop\n              pop\n              jump\t// out\n                /* \"#utility.yul\":3174:3396   */\n            tag_27:\n                /* \"#utility.yul\":3267:3271   */\n              0x00\n                /* \"#utility.yul\":3305:3307   */\n              0x20\n                /* \"#utility.yul\":3294:3303   */\n              dup3\n                /* \"#utility.yul\":3290:3308   */\n              add\n                /* \"#utility.yul\":3282:3308   */\n              swap1\n              pop\n                /* \"#utility.yul\":3318:3389   */\n              tag_135\n                /* \"#utility.yul\":3386:3387   */\n              0x00\n                /* \"#utility.yul\":3375:3384   */\n              dup4\n                /* \"#utility.yul\":3371:3388   */\n              add\n                /* \"#utility.yul\":3362:3368   */\n              dup5\n                /* \"#utility.yul\":3318:3389   */\n              tag_85\n              jump\t// in\n            tag_135:\n                /* \"#utility.yul\":3174:3396   */\n              swap3\n              swap2\n              pop\n              pop\n              jump\t// out\n                /* \"#utility.yul\":3402:3582   */\n            tag_86:\n                /* \"#utility.yul\":3450:3527   */\n              0x4e487b7100000000000000000000000000000000000000000000000000000000\n                /* \"#utility.yul\":3447:3448   */\n              0x00\n                /* \"#utility.yul\":3440:3528   */\n              mstore\n                /* \"#utility.yul\":3547:3551   */\n              0x22\n                /* \"#utility.yul\":3544:3545   */\n              0x04\n                /* \"#utility.yul\":3537:3552   */\n              mstore\n                /* \"#utility.yul\":3571:3575   */\n              0x24\n                /* \"#utility.yul\":3568:3569   */\n              0x00\n                /* \"#utility.yul\":3561:3576   */\n              revert\n                /* \"#utility.yul\":3588:3908   */\n            tag_35:\n                /* \"#utility.yul\":3632:3638   */\n              0x00\n                /* \"#utility.yul\":3669:3670   */\n              0x02\n                /* \"#utility.yul\":3663:3667   */\n              dup3\n                /* \"#utility.yul\":3659:3671   */\n              div\n                /* \"#utility.yul\":3649:3671   */\n              swap1\n              pop\n                /* \"#utility.yul\":3716:3717   */\n              0x01\n                /* \"#utility.yul\":3710:3714   */\n              dup3\n                /* \"#utility.yul\":3706:3718   */\n              and\n                /* \"#utility.yul\":3737:3755   */\n              dup1\n                /* \"#utility.yul\":3727:3808   */\n              tag_138\n              jumpi\n                /* \"#utility.yul\":3793:3797   */\n              0x7f\n                /* \"#utility.yul\":3785:3791   */\n              dup3\n                /* \"#utility.yul\":3781:3798   */\n              and\n                /* \"#utility.yul\":3771:3798   */\n              swap2\n              pop\n                /* \"#utility.yul\":3727:3808   */\n            tag_138:\n                /* \"#utility.yul\":3855:3857   */\n              0x20\n                /* \"#utility.yul\":3847:3853   */\n              dup3\n                /* \"#utility.yul\":3844:3858   */\n              lt\n                /* \"#utility.yul\":3824:3842   */\n              dup2\n                /* \"#utility.yul\":3821:3859   */\n              sub\n                /* \"#utility.yul\":3818:3902   */\n              tag_139\n              jumpi\n                /* \"#utility.yul\":3874:3892   */\n              tag_140\n              tag_86\n              jump\t// in\n            tag_140:\n                /* \"#utility.yul\":3818:3902   */\n            tag_139:\n                /* \"#utility.yul\":3639:3908   */\n              pop\n                /* \"#utility.yul\":3588:3908   */\n              swap2\n              swap1\n              pop\n              jump\t// out\n                /* \"#utility.yul\":3914:4082   */\n            tag_87:\n                /* \"#utility.yul\":4054:4074   */\n              0x43616d706169676e20697320636c6f7365640000000000000000000000000000\n                /* \"#utility.yul\":4050:4051   */\n              0x00\n                /* \"#utility.yul\":4042:4048   */\n              dup3\n                /* \"#utility.yul\":4038:4052   */\n              add\n                /* \"#utility.yul\":4031:4075   */\n              mstore\n                /* \"#utility.yul\":3914:4082   */\n              pop\n              jump\t// out\n                /* \"#utility.yul\":4088:4454   */\n            tag_88:\n                /* \"#utility.yul\":4230:4233   */\n              0x00\n                /* \"#utility.yul\":4251:4318   */\n              tag_143\n                /* \"#utility.yul\":4315:4317   */\n              0x12\n                /* \"#utility.yul\":4310:4313   */\n              dup4\n                /* \"#utility.yul\":4251:4318   */\n              tag_73\n              jump\t// in\n            tag_143:\n                /* \"#utility.yul\":4244:4318   */\n              swap2\n              pop\n                /* \"#utility.yul\":4327:4420   */\n              tag_144\n                /* \"#utility.yul\":4416:4419   */\n              dup3\n                /* \"#utility.yul\":4327:4420   */\n              tag_87\n              jump\t// in\n            tag_144:\n                /* \"#utility.yul\":4445:4447   */\n              0x20\n                /* \"#utility.yul\":4440:4443   */\n              dup3\n                /* \"#utility.yul\":4436:4448   */\n              add\n                /* \"#utility.yul\":4429:4448   */\n              swap1\n              pop\n                /* \"#utility.yul\":4088:4454   */\n              swap2\n              swap1\n              pop\n              jump\t// out\n                /* \"#utility.yul\":4460:4879   */\n            tag_48:\n                /* \"#utility.yul\":4626:4630   */\n              0x00\n                /* \"#utility.yul\":4664:4666   */\n              0x20\n                /* \"#utility.yul\":4653:4662   */\n              dup3\n                /* \"#utility.yul\":4649:4667   */\n              add\n                /* \"#utility.yul\":4641:4667   */\n              swap1\n              pop\n                /* \"#utility.yul\":4713:4722   */\n              dup2\n                /* \"#utility.yul\":4707:4711   */\n              dup2\n                /* \"#utility.yul\":4703:4723   */\n              sub\n                /* \"#utility.yul\":4699:4700   */\n              0x00\n                /* \"#utility.yul\":4688:4697   */\n              dup4\n                /* \"#utility.yul\":4684:4701   */\n              add\n                /* \"#utility.yul\":4677:4724   */\n              mstore\n                /* \"#utility.yul\":4741:4872   */\n              tag_146\n                /* \"#utility.yul\":4867:4871   */\n              dup2\n                /* \"#utility.yul\":4741:4872   */\n              tag_88\n              jump\t// in\n            tag_146:\n                /* \"#utility.yul\":4733:4872   */\n              swap1\n              pop\n                /* \"#utility.yul\":4460:4879   */\n              swap2\n              swap1\n              pop\n              jump\t// out\n                /* \"#utility.yul\":4885:5061   */\n            tag_89:\n                /* \"#utility.yul\":5025:5053   */\n              0x43616d706169676e20697320616c72656164792066696c6c6564000000000000\n                /* \"#utility.yul\":5021:5022   */\n              0x00\n                /* \"#utility.yul\":5013:5019   */\n              dup3\n                /* \"#utility.yul\":5009:5023   */\n              add\n                /* \"#utility.yul\":5002:5054   */\n              mstore\n                /* \"#utility.yul\":4885:5061   */\n              pop\n              jump\t// out\n                /* \"#utility.yul\":5067:5433   */\n            tag_90:\n                /* \"#utility.yul\":5209:5212   */\n              0x00\n                /* \"#utility.yul\":5230:5297   */\n              tag_149\n                /* \"#utility.yul\":5294:5296   */\n              0x1a\n                /* \"#utility.yul\":5289:5292   */\n              dup4\n                /* \"#utility.yul\":5230:5297   */\n              tag_73\n              jump\t// in\n            tag_149:\n                /* \"#utility.yul\":5223:5297   */\n              swap2\n              pop\n                /* \"#utility.yul\":5306:5399   */\n              tag_150\n                /* \"#utility.yul\":5395:5398   */\n              dup3\n                /* \"#utility.yul\":5306:5399   */\n              tag_89\n              jump\t// in\n            tag_150:\n                /* \"#utility.yul\":5424:5426   */\n              0x20\n                /* \"#utility.yul\":5419:5422   */\n              dup3\n                /* \"#utility.yul\":5415:5427   */\n              add\n                /* \"#utility.yul\":5408:5427   */\n              swap1\n              pop\n                /* \"#utility.yul\":5067:5433   */\n              swap2\n              swap1\n              pop\n              jump\t// out\n                /* \"#utility.yul\":5439:5858   */\n            tag_55:\n                /* \"#utility.yul\":5605:5609   */\n              0x00\n                /* \"#utility.yul\":5643:5645   */\n              0x20\n                /* \"#utility.yul\":5632:5641   */\n              dup3\n                /* \"#utility.yul\":5628:5646   */\n              add\n                /* \"#utility.yul\":5620:5646   */\n              swap1\n              pop\n                /* \"#utility.yul\":5692:5701   */\n              dup2\n                /* \"#utility.yul\":5686:5690   */\n              dup2\n                /* \"#utility.yul\":5682:5702   */\n              sub\n                /* \"#utility.yul\":5678:5679   */\n              0x00\n                /* \"#utility.yul\":5667:5676   */\n              dup4\n                /* \"#utility.yul\":5663:5680   */\n              add\n                /* \"#utility.yul\":5656:5703   */\n              mstore\n                /* \"#utility.yul\":5720:5851   */\n              tag_152\n                /* \"#utility.yul\":5846:5850   */\n              dup2\n                /* \"#utility.yul\":5720:5851   */\n              tag_90\n              jump\t// in\n            tag_152:\n                /* \"#utility.yul\":5712:5851   */\n              swap1\n              pop\n                /* \"#utility.yul\":5439:5858   */\n              swap2\n              swap1\n              pop\n              jump\t// out\n                /* \"#utility.yul\":5864:6084   */\n            tag_91:\n                /* \"#utility.yul\":6004:6038   */\n              0x53656e742076616c7565206d7573742062652067726561746572207468616e20\n                /* \"#utility.yul\":6000:6001   */\n              0x00\n                /* \"#utility.yul\":5992:5998   */\n              dup3\n                /* \"#utility.yul\":5988:6002   */\n              add\n                /* \"#utility.yul\":5981:6039   */\n              mstore\n                /* \"#utility.yul\":6073:6076   */\n              0x3000000000000000000000000000000000000000000000000000000000000000\n                /* \"#utility.yul\":6068:6070   */\n              0x20\n                /* \"#utility.yul\":6060:6066   */\n              dup3\n                /* \"#utility.yul\":6056:6071   */\n              add\n                /* \"#utility.yul\":6049:6077   */\n              mstore\n                /* \"#utility.yul\":5864:6084   */\n              pop\n              jump\t// out\n                /* \"#utility.yul\":6090:6456   */\n            tag_92:\n                /* \"#utility.yul\":6232:6235   */\n              0x00\n                /* \"#utility.yul\":6253:6320   */\n              tag_155\n                /* \"#utility.yul\":6317:6319   */\n              0x21\n                /* \"#utility.yul\":6312:6315   */\n              dup4\n                /* \"#utility.yul\":6253:6320   */\n              tag_73\n              jump\t// in\n            tag_155:\n                /* \"#utility.yul\":6246:6320   */\n              swap2\n              pop\n                /* \"#utility.yul\":6329:6422   */\n              tag_156\n                /* \"#utility.yul\":6418:6421   */\n              dup3\n                /* \"#utility.yul\":6329:6422   */\n              tag_91\n              jump\t// in\n            tag_156:\n                /* \"#utility.yul\":6447:6449   */\n              0x40\n                /* \"#utility.yul\":6442:6445   */\n              dup3\n                /* \"#utility.yul\":6438:6450   */\n              add\n                /* \"#utility.yul\":6431:6450   */\n              swap1\n              pop\n                /* \"#utility.yul\":6090:6456   */\n              swap2\n              swap1\n              pop\n              jump\t// out\n                /* \"#utility.yul\":6462:6881   */\n            tag_58:\n                /* \"#utility.yul\":6628:6632   */\n              0x00\n                /* \"#utility.yul\":6666:6668   */\n              0x20\n                /* \"#utility.yul\":6655:6664   */\n              dup3\n                /* \"#utility.yul\":6651:6669   */\n              add\n                /* \"#utility.yul\":6643:6669   */\n              swap1\n              pop\n                /* \"#utility.yul\":6715:6724   */\n              dup2\n                /* \"#utility.yul\":6709:6713   */\n              dup2\n                /* \"#utility.yul\":6705:6725   */\n              sub\n                /* \"#utility.yul\":6701:6702   */\n              0x00\n                /* \"#utility.yul\":6690:6699   */\n              dup4\n                /* \"#utility.yul\":6686:6703   */\n              add\n                /* \"#utility.yul\":6679:6726   */\n              mstore\n                /* \"#utility.yul\":6743:6874   */\n              tag_158\n                /* \"#utility.yul\":6869:6873   */\n              dup2\n                /* \"#utility.yul\":6743:6874   */\n              tag_92\n              jump\t// in\n            tag_158:\n                /* \"#utility.yul\":6735:6874   */\n              swap1\n              pop\n                /* \"#utility.yul\":6462:6881   */\n              swap2\n              swap1\n              pop\n              jump\t// out\n                /* \"#utility.yul\":6887:7115   */\n            tag_93:\n                /* \"#utility.yul\":7027:7061   */\n              0x54686520616d6f756e74206973206e6f7420646f6e6174656420746f20746865\n                /* \"#utility.yul\":7023:7024   */\n              0x00\n                /* \"#utility.yul\":7015:7021   */\n              dup3\n                /* \"#utility.yul\":7011:7025   */\n              add\n                /* \"#utility.yul\":7004:7062   */\n              mstore\n                /* \"#utility.yul\":7096:7107   */\n              0x2063616d706169676e0000000000000000000000000000000000000000000000\n                /* \"#utility.yul\":7091:7093   */\n              0x20\n                /* \"#utility.yul\":7083:7089   */\n              dup3\n                /* \"#utility.yul\":7079:7094   */\n              add\n                /* \"#utility.yul\":7072:7108   */\n              mstore\n                /* \"#utility.yul\":6887:7115   */\n              pop\n              jump\t// out\n                /* \"#utility.yul\":7121:7487   */\n            tag_94:\n                /* \"#utility.yul\":7263:7266   */\n              0x00\n                /* \"#utility.yul\":7284:7351   */\n              tag_161\n                /* \"#utility.yul\":7348:7350   */\n              0x29\n                /* \"#utility.yul\":7343:7346   */\n              dup4\n                /* \"#utility.yul\":7284:7351   */\n              tag_73\n              jump\t// in\n            tag_161:\n                /* \"#utility.yul\":7277:7351   */\n              swap2\n              pop\n                /* \"#utility.yul\":7360:7453   */\n              tag_162\n                /* \"#utility.yul\":7449:7452   */\n              dup3\n                /* \"#utility.yul\":7360:7453   */\n              tag_93\n              jump\t// in\n            tag_162:\n                /* \"#utility.yul\":7478:7480   */\n              0x40\n                /* \"#utility.yul\":7473:7476   */\n              dup3\n                /* \"#utility.yul\":7469:7481   */\n              add\n                /* \"#utility.yul\":7462:7481   */\n              swap1\n              pop\n                /* \"#utility.yul\":7121:7487   */\n              swap2\n              swap1\n              pop\n              jump\t// out\n                /* \"#utility.yul\":7493:7912   */\n            tag_62:\n                /* \"#utility.yul\":7659:7663   */\n              0x00\n                /* \"#utility.yul\":7697:7699   */\n              0x20\n                /* \"#utility.yul\":7686:7695   */\n              dup3\n                /* \"#utility.yul\":7682:7700   */\n              add\n                /* \"#utility.yul\":7674:7700   */\n              swap1\n              pop\n                /* \"#utility.yul\":7746:7755   */\n              dup2\n                /* \"#utility.yul\":7740:7744   */\n              dup2\n                /* \"#utility.yul\":7736:7756   */\n              sub\n                /* \"#utility.yul\":7732:7733   */\n              0x00\n                /* \"#utility.yul\":7721:7730   */\n              dup4\n                /* \"#utility.yul\":7717:7734   */\n              add\n                /* \"#utility.yul\":7710:7757   */\n              mstore\n                /* \"#utility.yul\":7774:7905   */\n              tag_164\n                /* \"#utility.yul\":7900:7904   */\n              dup2\n                /* \"#utility.yul\":7774:7905   */\n              tag_94\n              jump\t// in\n            tag_164:\n                /* \"#utility.yul\":7766:7905   */\n              swap1\n              pop\n                /* \"#utility.yul\":7493:7912   */\n              swap2\n              swap1\n              pop\n              jump\t// out\n                /* \"#utility.yul\":7918:8098   */\n            tag_95:\n                /* \"#utility.yul\":7966:8043   */\n              0x4e487b7100000000000000000000000000000000000000000000000000000000\n                /* \"#utility.yul\":7963:7964   */\n              0x00\n                /* \"#utility.yul\":7956:8044   */\n              mstore\n                /* \"#utility.yul\":8063:8067   */\n              0x12\n                /* \"#utility.yul\":8060:8061   */\n              0x04\n                /* \"#utility.yul\":8053:8068   */\n              mstore\n                /* \"#utility.yul\":8087:8091   */\n              0x24\n                /* \"#utility.yul\":8084:8085   */\n              0x00\n                /* \"#utility.yul\":8077:8092   */\n              revert\n                /* \"#utility.yul\":8104:8284   */\n            tag_96:\n                /* \"#utility.yul\":8152:8229   */\n              0x4e487b7100000000000000000000000000000000000000000000000000000000\n                /* \"#utility.yul\":8149:8150   */\n              0x00\n                /* \"#utility.yul\":8142:8230   */\n              mstore\n                /* \"#utility.yul\":8249:8253   */\n              0x11\n                /* \"#utility.yul\":8246:8247   */\n              0x04\n                /* \"#utility.yul\":8239:8254   */\n              mstore\n                /* \"#utility.yul\":8273:8277   */\n              0x24\n                /* \"#utility.yul\":8270:8271   */\n              0x00\n                /* \"#utility.yul\":8263:8278   */\n              revert\n                /* \"#utility.yul\":8290:8475   */\n            tag_64:\n                /* \"#utility.yul\":8330:8331   */\n              0x00\n                /* \"#utility.yul\":8347:8367   */\n              tag_168\n                /* \"#utility.yul\":8365:8366   */\n              dup3\n                /* \"#utility.yul\":8347:8367   */\n              tag_81\n              jump\t// in\n            tag_168:\n                /* \"#utility.yul\":8342:8367   */\n              swap2\n              pop\n                /* \"#utility.yul\":8381:8401   */\n              tag_169\n                /* \"#utility.yul\":8399:8400   */\n              dup4\n                /* \"#utility.yul\":8381:8401   */\n              tag_81\n              jump\t// in\n            tag_169:\n                /* \"#utility.yul\":8376:8401   */\n              swap3\n              pop\n                /* \"#utility.yul\":8420:8421   */\n              dup3\n                /* \"#utility.yul\":8410:8445   */\n              tag_170\n              jumpi\n                /* \"#utility.yul\":8425:8443   */\n              tag_171\n              tag_95\n              jump\t// in\n            tag_171:\n                /* \"#utility.yul\":8410:8445   */\n            tag_170:\n                /* \"#utility.yul\":8467:8468   */\n              dup3\n                /* \"#utility.yul\":8464:8465   */\n              dup3\n                /* \"#utility.yul\":8460:8469   */\n              div\n                /* \"#utility.yul\":8455:8469   */\n              swap1\n              pop\n                /* \"#utility.yul\":8290:8475   */\n              swap3\n              swap2\n              pop\n              pop\n              jump\t// out\n                /* \"#utility.yul\":8481:8672   */\n            tag_66:\n                /* \"#utility.yul\":8521:8524   */\n              0x00\n                /* \"#utility.yul\":8540:8560   */\n              tag_173\n                /* \"#utility.yul\":8558:8559   */\n              dup3\n                /* \"#utility.yul\":8540:8560   */\n              tag_81\n              jump\t// in\n            tag_173:\n                /* \"#utility.yul\":8535:8560   */\n              swap2\n              pop\n                /* \"#utility.yul\":8574:8594   */\n              tag_174\n                /* \"#utility.yul\":8592:8593   */\n              dup4\n                /* \"#utility.yul\":8574:8594   */\n              tag_81\n              jump\t// in\n            tag_174:\n                /* \"#utility.yul\":8569:8594   */\n              swap3\n              pop\n                /* \"#utility.yul\":8617:8618   */\n              dup3\n                /* \"#utility.yul\":8614:8615   */\n              dup3\n                /* \"#utility.yul\":8610:8619   */\n              add\n                /* \"#utility.yul\":8603:8619   */\n              swap1\n              pop\n                /* \"#utility.yul\":8638:8641   */\n              dup1\n                /* \"#utility.yul\":8635:8636   */\n              dup3\n                /* \"#utility.yul\":8632:8642   */\n              gt\n                /* \"#utility.yul\":8629:8665   */\n              iszero\n              tag_175\n              jumpi\n                /* \"#utility.yul\":8645:8663   */\n              tag_176\n              tag_96\n              jump\t// in\n            tag_176:\n                /* \"#utility.yul\":8629:8665   */\n            tag_175:\n                /* \"#utility.yul\":8481:8672   */\n              swap3\n              swap2\n              pop\n              pop\n              jump\t// out\n                /* \"#utility.yul\":8678:9010   */\n            tag_71:\n                /* \"#utility.yul\":8799:8803   */\n              0x00\n                /* \"#utility.yul\":8837:8839   */\n              0x40\n                /* \"#utility.yul\":8826:8835   */\n              dup3\n                /* \"#utility.yul\":8822:8840   */\n              add\n                /* \"#utility.yul\":8814:8840   */\n              swap1\n              pop\n                /* \"#utility.yul\":8850:8921   */\n              tag_178\n                /* \"#utility.yul\":8918:8919   */\n              0x00\n                /* \"#utility.yul\":8907:8916   */\n              dup4\n                /* \"#utility.yul\":8903:8920   */\n              add\n                /* \"#utility.yul\":8894:8900   */\n              dup6\n                /* \"#utility.yul\":8850:8921   */\n              tag_85\n              jump\t// in\n            tag_178:\n                /* \"#utility.yul\":8931:9003   */\n              tag_179\n                /* \"#utility.yul\":8999:9001   */\n              0x20\n                /* \"#utility.yul\":8988:8997   */\n              dup4\n                /* \"#utility.yul\":8984:9002   */\n              add\n                /* \"#utility.yul\":8975:8981   */\n              dup5\n                /* \"#utility.yul\":8931:9003   */\n              tag_82\n              jump\t// in\n            tag_179:\n                /* \"#utility.yul\":8678:9010   */\n              swap4\n              swap3\n              pop\n              pop\n              pop\n              jump\t// out\n\n            auxdata: 0xa26469706673582212209c675af5b2ae6b3d0163aaf4182d396f54c147bc8e766fdb5449255026365eeb64736f6c63430008160033\n        }\n    }\n\n    auxdata: 0xa264697066735822122069b75ba62a2a7580e5d762a9afe7aa6f56c1568dc23a4b255529111ee97e6c5464736f6c63430008160033\n}\n",
				"bytecode": {
					"linkReferences": {},
					"object": "60806040525f6002555f600455348015610017575f80fd5b505f33908060018154018082558091505060019003905f5260205f20015f9091909190916101000a81548173ffffffffffffffffffffffffffffffffffffffff021916908373ffffffffffffffffffffffffffffffffffffffff1602179055506134be806100845f395ff3fe608060405260043610620000b5575f3560e01c80635daf08ca116200006c5780635daf08ca146200020f578063774b1f5414620002525780638aecbc511462000295578063a78d80fc14620002b7578063ac5c706c14620002e6578063ca6d56dc146200032957620000b5565b80630121b93f14620000b9578063013cf08b14620000e657806302932f56146200012d5780630b1ca49a146200015c578063141961bc14620001895780631c67211d14620001cc575b5f80fd5b348015620000c5575f80fd5b50620000e46004803603810190620000de91906200151e565b62000356565b005b348015620000f2575f80fd5b506200011160048036038101906200010b91906200151e565b620009bf565b60405162000124959493929190620016ce565b60405180910390f35b34801562000139575f80fd5b506200014462000ab7565b60405162000153919062001730565b60405180910390f35b34801562000168575f80fd5b506200018760048036038101906200018191906200177a565b62000ac0565b005b34801562000195575f80fd5b50620001b46004803603810190620001ae91906200151e565b62000d1d565b604051620001c3919062001811565b60405180910390f35b348015620001d8575f80fd5b50620001f76004803603810190620001f191906200177a565b62000d4d565b6040516200020691906200182c565b60405180910390f35b3480156200021b575f80fd5b506200023a60048036038101906200023491906200151e565b62000df4565b60405162000249919062001847565b60405180910390f35b3480156200025e575f80fd5b506200027d6004803603810190620002779190620019aa565b62000e2f565b6040516200028c919062001730565b60405180910390f35b6200029f62001034565b604051620002ae919062001730565b60405180910390f35b348015620002c3575f80fd5b50620002ce62001080565b604051620002dd919062001730565b60405180910390f35b348015620002f2575f80fd5b506200031160048036038101906200030b9190620019aa565b62001089565b60405162000320919062001730565b60405180910390f35b34801562000335575f80fd5b506200035460048036038101906200034e91906200177a565b620012e8565b005b620003613362000d4d565b620003a3576040517f08c379a00000000000000000000000000000000000000000000000000000000081526004016200039a9062001a5c565b60405180910390fd5b6002548110620003ea576040517f08c379a0000000000000000000000000000000000000000000000000000000008152600401620003e19062001aca565b60405180910390fd5b60015f8281526020019081526020015f206004015f9054906101000a900460ff16156200044e576040517f08c379a0000000000000000000000000000000000000000000000000000000008152600401620004459062001b38565b60405180910390fd5b5f5b60015f8381526020019081526020015f20600301805490508110156200053f573373ffffffffffffffffffffffffffffffffffffffff1660015f8481526020019081526020015f206003018281548110620004b057620004af62001b58565b5b905f5260205f20015f9054906101000a900473ffffffffffffffffffffffffffffffffffffffff1673ffffffffffffffffffffffffffffffffffffffff160362000531576040517f08c379a0000000000000000000000000000000000000000000000000000000008152600401620005289062001bd3565b60405180910390fd5b808060010191505062000450565b5060015f8281526020019081526020015f2060030133908060018154018082558091505060019003905f5260205f20015f9091909190916101000a81548173ffffffffffffffffffffffffffffffffffffffff021916908373ffffffffffffffffffffffffffffffffffffffff1602179055507fe94f6f9c0b790f983ef670881a31345b092a40705dcc7fca5b4a1198206c214633604051620005e3919062001847565b60405180910390a15f606460335f8054905062000601919062001c20565b6200060d919062001c97565b90508060015f8481526020019081526020015f206003018054905010620009bb5760018081111562000644576200064362001652565b5b60015f8481526020019081526020015f2060040160019054906101000a900460ff1660018111156200067b576200067a62001652565b5b03620007ef575f60045f815480929190620006969062001cce565b91905055905060015f8481526020019081526020015f205f0160015f8581526020019081526020015f206001015f9054906101000a900473ffffffffffffffffffffffffffffffffffffffff1660015f8681526020019081526020015f206002015460405162000706906200141e565b620007149392919062001e1a565b604051809103905ff0801580156200072e573d5f803e3d5ffd5b5060035f8381526020019081526020015f205f6101000a81548173ffffffffffffffffffffffffffffffffffffffff021916908373ffffffffffffffffffffffffffffffffffffffff1602179055507f633109eec20320eded000fc1e2634211aa7e92ba3f5b15faf6dcdafca05094e48160035f8481526020019081526020015f205f9054906101000a900473ffffffffffffffffffffffffffffffffffffffff16604051620007e092919062001e5c565b60405180910390a1506200098f565b47670de0b6b3a764000060015f8581526020019081526020015f20600201546200081a919062001c20565b11156200085e576040517f08c379a0000000000000000000000000000000000000000000000000000000008152600401620008559062001efb565b60405180910390fd5b5f60015f8481526020019081526020015f206001015f9054906101000a900473ffffffffffffffffffffffffffffffffffffffff1690505f60015f8581526020019081526020015f206002015490505f8273ffffffffffffffffffffffffffffffffffffffff166108fc8390811502906040515f60405180830381858888f1935050505090508062000927576040517f08c379a00000000000000000000000000000000000000000000000000000000081526004016200091e9062001f8f565b60405180910390fd5b7fcf61b5259b88541bdb5b4f258cad2b52a77b7909f948f1a397de7047496973d58560405162000958919062001730565b60405180910390a16001805f8781526020019081526020015f206004015f6101000a81548160ff0219169083151502179055505050505b6001805f8481526020019081526020015f206004015f6101000a81548160ff0219169083151502179055505b5050565b6001602052805f5260405f205f91509050805f018054620009e09062001d47565b80601f016020809104026020016040519081016040528092919081815260200182805462000a0e9062001d47565b801562000a5d5780601f1062000a335761010080835404028352916020019162000a5d565b820191905f5260205f20905b81548152906001019060200180831162000a3f57829003601f168201915b505050505090806001015f9054906101000a900473ffffffffffffffffffffffffffffffffffffffff1690806002015490806004015f9054906101000a900460ff16908060040160019054906101000a900460ff16905085565b5f600454905090565b62000acb3362000d4d565b62000b0d576040517f08c379a000000000000000000000000000000000000000000000000000000000815260040162000b049062001a5c565b60405180910390fd5b62000b188162000d4d565b1562000b5b576040517f08c379a000000000000000000000000000000000000000000000000000000000815260040162000b529062001a5c565b60405180910390fd5b5f5b5f8054905081101562000d19578173ffffffffffffffffffffffffffffffffffffffff165f828154811062000b975762000b9662001b58565b5b905f5260205f20015f9054906101000a900473ffffffffffffffffffffffffffffffffffffffff1673ffffffffffffffffffffffffffffffffffffffff160362000d0b575f60015f8054905062000bef919062001faf565b8154811062000c035762000c0262001b58565b5b905f5260205f20015f9054906101000a900473ffffffffffffffffffffffffffffffffffffffff165f828154811062000c415762000c4062001b58565b5b905f5260205f20015f6101000a81548173ffffffffffffffffffffffffffffffffffffffff021916908373ffffffffffffffffffffffffffffffffffffffff1602179055505f80548062000c9a5762000c9962001fe9565b5b600190038181905f5260205f20015f6101000a81549073ffffffffffffffffffffffffffffffffffffffff021916905590557f6e76fb4c77256006d9c38ec7d82b45a8c8f3c27b1d6766fffc42dfb8de6844928260405162000cfd919062001847565b60405180910390a162000d19565b808060010191505062000b5d565b5050565b6003602052805f5260405f205f915054906101000a900473ffffffffffffffffffffffffffffffffffffffff1681565b5f805f90505b5f8054905081101562000dea578273ffffffffffffffffffffffffffffffffffffffff165f828154811062000d8d5762000d8c62001b58565b5b905f5260205f20015f9054906101000a900473ffffffffffffffffffffffffffffffffffffffff1673ffffffffffffffffffffffffffffffffffffffff160362000ddc57600191505062000def565b808060010191505062000d53565b505f90505b919050565b5f818154811062000e03575f80fd5b905f5260205f20015f915054906101000a900473ffffffffffffffffffffffffffffffffffffffff1681565b5f8060025f81548092919062000e459062001cce565b9190505590506040518060c001604052808581526020013373ffffffffffffffffffffffffffffffffffffffff168152602001670de0b6b3a76400008562000e8e919062001c97565b81526020015f67ffffffffffffffff81111562000eb05762000eaf6200186a565b5b60405190808252806020026020018201604052801562000edf5781602001602082028036833780820191505090505b5081526020015f1515815260200160018081111562000f035762000f0262001652565b5b81525060015f8381526020019081526020015f205f820151815f01908162000f2c9190620021be565b506020820151816001015f6101000a81548173ffffffffffffffffffffffffffffffffffffffff021916908373ffffffffffffffffffffffffffffffffffffffff16021790555060408201518160020155606082015181600301908051906020019062000f9b9291906200142c565b506080820151816004015f6101000a81548160ff02191690831515021790555060a08201518160040160016101000a81548160ff0219169083600181111562000fe95762000fe862001652565b5b02179055509050507fc2c021f5d73c63c481d336fbbafec58f694fc45095f00b02d2deb8cca59afe078160405162001022919062001730565b60405180910390a18091505092915050565b5f8034116200107a576040517f08c379a0000000000000000000000000000000000000000000000000000000008152600401620010719062002316565b60405180910390fd5b47905090565b5f600254905090565b5f47670de0b6b3a764000083620010a1919062001c20565b11620010e4576040517f08c379a0000000000000000000000000000000000000000000000000000000008152600401620010db90620023aa565b60405180910390fd5b5f60025f815480929190620010f99062001cce565b9190505590506040518060c001604052808581526020013373ffffffffffffffffffffffffffffffffffffffff168152602001670de0b6b3a76400008562001142919062001c97565b81526020015f67ffffffffffffffff8111156200116457620011636200186a565b5b604051908082528060200260200182016040528015620011935781602001602082028036833780820191505090505b5081526020015f151581526020015f6001811115620011b757620011b662001652565b5b81525060015f8381526020019081526020015f205f820151815f019081620011e09190620021be565b506020820151816001015f6101000a81548173ffffffffffffffffffffffffffffffffffffffff021916908373ffffffffffffffffffffffffffffffffffffffff1602179055506040820151816002015560608201518160030190805190602001906200124f9291906200142c565b506080820151816004015f6101000a81548160ff02191690831515021790555060a08201518160040160016101000a81548160ff021916908360018111156200129d576200129c62001652565b5b02179055509050507fc2c021f5d73c63c481d336fbbafec58f694fc45095f00b02d2deb8cca59afe0781604051620012d6919062001730565b60405180910390a18091505092915050565b620012f33362000d4d565b62001335576040517f08c379a00000000000000000000000000000000000000000000000000000000081526004016200132c9062001a5c565b60405180910390fd5b620013408162000d4d565b1562001383576040517f08c379a00000000000000000000000000000000000000000000000000000000081526004016200137a906200243e565b60405180910390fd5b5f81908060018154018082558091505060019003905f5260205f20015f9091909190916101000a81548173ffffffffffffffffffffffffffffffffffffffff021916908373ffffffffffffffffffffffffffffffffffffffff1602179055507fb251eb052afc73ffd02ffe85ad79990a8b3fed60d76dbc2fa2fdd7123dffd9148160405162001413919062001847565b60405180910390a150565b61102a806200245f83390190565b828054828255905f5260205f20908101928215620014a5579160200282015b82811115620014a4578251825f6101000a81548173ffffffffffffffffffffffffffffffffffffffff021916908373ffffffffffffffffffffffffffffffffffffffff160217905550916020019190600101906200144b565b5b509050620014b49190620014b8565b5090565b5b80821115620014d1575f815f905550600101620014b9565b5090565b5f604051905090565b5f80fd5b5f80fd5b5f819050919050565b620014fa81620014e6565b811462001505575f80fd5b50565b5f813590506200151881620014ef565b92915050565b5f60208284031215620015365762001535620014de565b5b5f620015458482850162001508565b91505092915050565b5f81519050919050565b5f82825260208201905092915050565b5f5b83811015620015875780820151818401526020810190506200156a565b5f8484015250505050565b5f601f19601f8301169050919050565b5f620015ae826200154e565b620015ba818562001558565b9350620015cc81856020860162001568565b620015d78162001592565b840191505092915050565b5f73ffffffffffffffffffffffffffffffffffffffff82169050919050565b5f6200160d82620015e2565b9050919050565b6200161f8162001601565b82525050565b6200163081620014e6565b82525050565b5f8115159050919050565b6200164c8162001636565b82525050565b7f4e487b71000000000000000000000000000000000000000000000000000000005f52602160045260245ffd5b6002811062001693576200169262001652565b5b50565b5f819050620016a5826200167f565b919050565b5f620016b68262001696565b9050919050565b620016c881620016aa565b82525050565b5f60a0820190508181035f830152620016e88188620015a2565b9050620016f9602083018762001614565b62001708604083018662001625565b62001717606083018562001641565b620017266080830184620016bd565b9695505050505050565b5f602082019050620017455f83018462001625565b92915050565b620017568162001601565b811462001761575f80fd5b50565b5f8135905062001774816200174b565b92915050565b5f60208284031215620017925762001791620014de565b5b5f620017a18482850162001764565b91505092915050565b5f819050919050565b5f620017d3620017cd620017c784620015e2565b620017aa565b620015e2565b9050919050565b5f620017e682620017b3565b9050919050565b5f620017f982620017da565b9050919050565b6200180b81620017ed565b82525050565b5f602082019050620018265f83018462001800565b92915050565b5f602082019050620018415f83018462001641565b92915050565b5f6020820190506200185c5f83018462001614565b92915050565b5f80fd5b5f80fd5b7f4e487b71000000000000000000000000000000000000000000000000000000005f52604160045260245ffd5b620018a28262001592565b810181811067ffffffffffffffff82111715620018c457620018c36200186a565b5b80604052505050565b5f620018d8620014d5565b9050620018e6828262001897565b919050565b5f67ffffffffffffffff8211156200190857620019076200186a565b5b620019138262001592565b9050602081019050919050565b828183375f83830152505050565b5f620019446200193e84620018eb565b620018cd565b90508281526020810184848401111562001963576200196262001866565b5b6200197084828562001920565b509392505050565b5f82601f8301126200198f576200198e62001862565b5b8135620019a18482602086016200192e565b91505092915050565b5f8060408385031215620019c357620019c2620014de565b5b5f83013567ffffffffffffffff811115620019e357620019e2620014e2565b5b620019f18582860162001978565b925050602062001a048582860162001508565b9150509250929050565b7f4e6f742061206d656d626572206f66204b61726e612070726f6a6563740000005f82015250565b5f62001a44601d8362001558565b915062001a518262001a0e565b602082019050919050565b5f6020820190508181035f83015262001a758162001a36565b9050919050565b7f496e76616c69642070726f706f73616c20696e646578000000000000000000005f82015250565b5f62001ab260168362001558565b915062001abf8262001a7c565b602082019050919050565b5f6020820190508181035f83015262001ae38162001aa4565b9050919050565b7f50726f706f73616c20616c7265616479206578656375746564000000000000005f82015250565b5f62001b2060198362001558565b915062001b2d8262001aea565b602082019050919050565b5f6020820190508181035f83015262001b518162001b12565b9050919050565b7f4e487b71000000000000000000000000000000000000000000000000000000005f52603260045260245ffd5b7f416c726561647920766f746564000000000000000000000000000000000000005f82015250565b5f62001bbb600d8362001558565b915062001bc88262001b85565b602082019050919050565b5f6020820190508181035f83015262001bec8162001bad565b9050919050565b7f4e487b71000000000000000000000000000000000000000000000000000000005f52601160045260245ffd5b5f62001c2c82620014e6565b915062001c3983620014e6565b925082820262001c4981620014e6565b9150828204841483151762001c635762001c6262001bf3565b5b5092915050565b7f4e487b71000000000000000000000000000000000000000000000000000000005f52601260045260245ffd5b5f62001ca382620014e6565b915062001cb083620014e6565b92508262001cc35762001cc262001c6a565b5b828204905092915050565b5f62001cda82620014e6565b91507fffffffffffffffffffffffffffffffffffffffffffffffffffffffffffffffff820362001d0f5762001d0e62001bf3565b5b600182019050919050565b7f4e487b71000000000000000000000000000000000000000000000000000000005f52602260045260245ffd5b5f600282049050600182168062001d5f57607f821691505b60208210810362001d755762001d7462001d1a565b5b50919050565b5f819050815f5260205f209050919050565b5f815462001d9b8162001d47565b62001da7818662001558565b9450600182165f811462001dc4576001811462001ddb5762001e11565b60ff19831686528115156020028601935062001e11565b62001de68562001d7b565b5f5b8381101562001e095781548189015260018201915060208101905062001de8565b808801955050505b50505092915050565b5f6060820190508181035f83015262001e34818662001d8d565b905062001e45602083018562001614565b62001e54604083018462001625565b949350505050565b5f60408201905062001e715f83018562001625565b62001e80602083018462001614565b9392505050565b7f496e73756666696369656e742066756e647320746f20657865637574652074685f8201527f652070726f706f73616c2e000000000000000000000000000000000000000000602082015250565b5f62001ee3602b8362001558565b915062001ef08262001e87565b604082019050919050565b5f6020820190508181035f83015262001f148162001ed5565b9050919050565b7f4661696c656420746f207472616e736665722066756e6473206469726563746c5f8201527f7920746f2070726f706f7365722e000000000000000000000000000000000000602082015250565b5f62001f77602e8362001558565b915062001f848262001f1b565b604082019050919050565b5f6020820190508181035f83015262001fa88162001f69565b9050919050565b5f62001fbb82620014e6565b915062001fc883620014e6565b925082820390508181111562001fe35762001fe262001bf3565b5b92915050565b7f4e487b71000000000000000000000000000000000000000000000000000000005f52603160045260245ffd5b5f6020601f8301049050919050565b5f82821b905092915050565b5f60088302620020627fffffffffffffffffffffffffffffffffffffffffffffffffffffffffffffffff8262002025565b6200206e868362002025565b95508019841693508086168417925050509392505050565b5f620020a6620020a06200209a84620014e6565b620017aa565b620014e6565b9050919050565b5f819050919050565b620020c18362002086565b620020d9620020d082620020ad565b84845462002031565b825550505050565b5f90565b620020ef620020e1565b620020fc818484620020b6565b505050565b5b818110156200212357620021175f82620020e5565b60018101905062002102565b5050565b601f82111562002172576200213c8162001d7b565b620021478462002016565b8101602085101562002157578190505b6200216f620021668562002016565b83018262002101565b50505b505050565b5f82821c905092915050565b5f620021945f198460080262002177565b1980831691505092915050565b5f620021ae838362002183565b9150826002028217905092915050565b620021c9826200154e565b67ffffffffffffffff811115620021e557620021e46200186a565b5b620021f1825462001d47565b620021fe82828562002127565b5f60209050601f83116001811462002234575f84156200221f578287015190505b6200222b8582620021a1565b8655506200229a565b601f198416620022448662001d7b565b5f5b828110156200226d5784890151825560018201915060208501945060208101905062002246565b868310156200228d578489015162002289601f89168262002183565b8355505b6001600288020188555050505b505050505050565b7f53656e742076616c7565206d7573742062652067726561746572207468616e205f8201527f3000000000000000000000000000000000000000000000000000000000000000602082015250565b5f620022fe60218362001558565b91506200230b82620022a2565b604082019050919050565b5f6020820190508181035f8301526200232f81620022f0565b9050919050565b7f4b61726e612070726f6a6563742068617320696e73756666696369656e7420665f8201527f756e64732e000000000000000000000000000000000000000000000000000000602082015250565b5f6200239260258362001558565b91506200239f8262002336565b604082019050919050565b5f6020820190508181035f830152620023c38162002384565b9050919050565b7f546865206d656d62657220697320616c72656164792070617274206f66204b615f8201527f726e612070726f6a656374000000000000000000000000000000000000000000602082015250565b5f62002426602b8362001558565b91506200243382620023ca565b604082019050919050565b5f6020820190508181035f830152620024578162002418565b905091905056fe60806040525f60035534801562000014575f80fd5b506040516200102a3803806200102a83398181016040528101906200003a9190620002e5565b825f90816200004a91906200058b565b508160015f6101000a81548173ffffffffffffffffffffffffffffffffffffffff021916908373ffffffffffffffffffffffffffffffffffffffff160217905550806002819055505f60045f6101000a81548160ff02191690836002811115620000b957620000b86200066f565b5b02179055505050506200069c565b5f604051905090565b5f80fd5b5f80fd5b5f80fd5b5f80fd5b5f601f19601f8301169050919050565b7f4e487b71000000000000000000000000000000000000000000000000000000005f52604160045260245ffd5b6200012882620000e0565b810181811067ffffffffffffffff821117156200014a5762000149620000f0565b5b80604052505050565b5f6200015e620000c7565b90506200016c82826200011d565b919050565b5f67ffffffffffffffff8211156200018e576200018d620000f0565b5b6200019982620000e0565b9050602081019050919050565b5f5b83811015620001c5578082015181840152602081019050620001a8565b5f8484015250505050565b5f620001e6620001e08462000171565b62000153565b905082815260208101848484011115620002055762000204620000dc565b5b62000212848285620001a6565b509392505050565b5f82601f830112620002315762000230620000d8565b5b815162000243848260208601620001d0565b91505092915050565b5f73ffffffffffffffffffffffffffffffffffffffff82169050919050565b5f62000277826200024c565b9050919050565b62000289816200026b565b811462000294575f80fd5b50565b5f81519050620002a7816200027e565b92915050565b5f819050919050565b620002c181620002ad565b8114620002cc575f80fd5b50565b5f81519050620002df81620002b6565b92915050565b5f805f60608486031215620002ff57620002fe620000d0565b5b5f84015167ffffffffffffffff8111156200031f576200031e620000d4565b5b6200032d868287016200021a565b9350506020620003408682870162000297565b92505060406200035386828701620002cf565b9150509250925092565b5f81519050919050565b7f4e487b71000000000000000000000000000000000000000000000000000000005f52602260045260245ffd5b5f6002820490506001821680620003ac57607f821691505b602082108103620003c257620003c162000367565b5b50919050565b5f819050815f5260205f209050919050565b5f6020601f8301049050919050565b5f82821b905092915050565b5f60088302620004267fffffffffffffffffffffffffffffffffffffffffffffffffffffffffffffffff82620003e9565b620004328683620003e9565b95508019841693508086168417925050509392505050565b5f819050919050565b5f620004736200046d6200046784620002ad565b6200044a565b620002ad565b9050919050565b5f819050919050565b6200048e8362000453565b620004a66200049d826200047a565b848454620003f5565b825550505050565b5f90565b620004bc620004ae565b620004c981848462000483565b505050565b5b81811015620004f057620004e45f82620004b2565b600181019050620004cf565b5050565b601f8211156200053f576200050981620003c8565b6200051484620003da565b8101602085101562000524578190505b6200053c6200053385620003da565b830182620004ce565b50505b505050565b5f82821c905092915050565b5f620005615f198460080262000544565b1980831691505092915050565b5f6200057b838362000550565b9150826002028217905092915050565b62000596826200035d565b67ffffffffffffffff811115620005b257620005b1620000f0565b5b620005be825462000394565b620005cb828285620004f4565b5f60209050601f83116001811462000601575f8415620005ec578287015190505b620005f885826200056e565b86555062000667565b601f1984166200061186620003c8565b5f5b828110156200063a5784890151825560018201915060208501945060208101905062000613565b868310156200065a578489015162000656601f89168262000550565b8355505b6001600288020188555050505b505050505050565b7f4e487b71000000000000000000000000000000000000000000000000000000005f52602160045260245ffd5b61098080620006aa5f395ff3fe608060405260043610610054575f3560e01c806306fdde0314610058578063200d2ed2146100825780635ab7f1a8146100ac578063a8e4fb90146100d6578063aa8c217c14610100578063ed88c68e1461012a575b5f80fd5b348015610063575f80fd5b5061006c610134565b60405161007991906104e8565b60405180910390f35b34801561008d575f80fd5b506100966101bf565b6040516100a3919061057b565b60405180910390f35b3480156100b7575f80fd5b506100c06101d1565b6040516100cd91906105ac565b60405180910390f35b3480156100e1575f80fd5b506100ea6101d7565b6040516100f79190610604565b60405180910390f35b34801561010b575f80fd5b506101146101fc565b60405161012191906105ac565b60405180910390f35b610132610202565b005b5f80546101409061064a565b80601f016020809104026020016040519081016040528092919081815260200182805461016c9061064a565b80156101b75780601f1061018e576101008083540402835291602001916101b7565b820191905f5260205f20905b81548152906001019060200180831161019a57829003601f168201915b505050505081565b60045f9054906101000a900460ff1681565b60035481565b60015f9054906101000a900473ffffffffffffffffffffffffffffffffffffffff1681565b60025481565b60028081111561021557610214610508565b5b60045f9054906101000a900460ff16600281111561023657610235610508565b5b03610276576040517f08c379a000000000000000000000000000000000000000000000000000000000815260040161026d906106c4565b60405180910390fd5b6001600281111561028a57610289610508565b5b60045f9054906101000a900460ff1660028111156102ab576102aa610508565b5b036102eb576040517f08c379a00000000000000000000000000000000000000000000000000000000081526004016102e29061072c565b60405180910390fd5b5f341161032d576040517f08c379a0000000000000000000000000000000000000000000000000000000008152600401610324906107ba565b60405180910390fd5b5f60015f9054906101000a900473ffffffffffffffffffffffffffffffffffffffff1673ffffffffffffffffffffffffffffffffffffffff166108fc3490811502906040515f60405180830381858888f193505050509050806103c5576040517f08c379a00000000000000000000000000000000000000000000000000000000081526004016103bc90610848565b60405180910390fd5b670de0b6b3a7640000346103d991906108c0565b6003546103e691906108f0565b6003819055506002546003541061042257600160045f6101000a81548160ff0219169083600281111561041c5761041b610508565b5b02179055505b7f4a738e144fcebc2a2453dde8472c2fe125988d7508d635d71a45886efcf500063334604051610453929190610923565b60405180910390a150565b5f81519050919050565b5f82825260208201905092915050565b5f5b8381101561049557808201518184015260208101905061047a565b5f8484015250505050565b5f601f19601f8301169050919050565b5f6104ba8261045e565b6104c48185610468565b93506104d4818560208601610478565b6104dd816104a0565b840191505092915050565b5f6020820190508181035f83015261050081846104b0565b905092915050565b7f4e487b71000000000000000000000000000000000000000000000000000000005f52602160045260245ffd5b6003811061054657610545610508565b5b50565b5f81905061055682610535565b919050565b5f61056582610549565b9050919050565b6105758161055b565b82525050565b5f60208201905061058e5f83018461056c565b92915050565b5f819050919050565b6105a681610594565b82525050565b5f6020820190506105bf5f83018461059d565b92915050565b5f73ffffffffffffffffffffffffffffffffffffffff82169050919050565b5f6105ee826105c5565b9050919050565b6105fe816105e4565b82525050565b5f6020820190506106175f8301846105f5565b92915050565b7f4e487b71000000000000000000000000000000000000000000000000000000005f52602260045260245ffd5b5f600282049050600182168061066157607f821691505b6020821081036106745761067361061d565b5b50919050565b7f43616d706169676e20697320636c6f73656400000000000000000000000000005f82015250565b5f6106ae601283610468565b91506106b98261067a565b602082019050919050565b5f6020820190508181035f8301526106db816106a2565b9050919050565b7f43616d706169676e20697320616c72656164792066696c6c65640000000000005f82015250565b5f610716601a83610468565b9150610721826106e2565b602082019050919050565b5f6020820190508181035f8301526107438161070a565b9050919050565b7f53656e742076616c7565206d7573742062652067726561746572207468616e205f8201527f3000000000000000000000000000000000000000000000000000000000000000602082015250565b5f6107a4602183610468565b91506107af8261074a565b604082019050919050565b5f6020820190508181035f8301526107d181610798565b9050919050565b7f54686520616d6f756e74206973206e6f7420646f6e6174656420746f207468655f8201527f2063616d706169676e0000000000000000000000000000000000000000000000602082015250565b5f610832602983610468565b915061083d826107d8565b604082019050919050565b5f6020820190508181035f83015261085f81610826565b9050919050565b7f4e487b71000000000000000000000000000000000000000000000000000000005f52601260045260245ffd5b7f4e487b71000000000000000000000000000000000000000000000000000000005f52601160045260245ffd5b5f6108ca82610594565b91506108d583610594565b9250826108e5576108e4610866565b5b828204905092915050565b5f6108fa82610594565b915061090583610594565b925082820190508082111561091d5761091c610893565b5b92915050565b5f6040820190506109365f8301856105f5565b610943602083018461059d565b939250505056fea26469706673582212209c675af5b2ae6b3d0163aaf4182d396f54c147bc8e766fdb5449255026365eeb64736f6c63430008160033a264697066735822122069b75ba62a2a7580e5d762a9afe7aa6f56c1568dc23a4b255529111ee97e6c5464736f6c63430008160033",
					"opcodes": "PUSH1 0x80 PUSH1 0x40 MSTORE PUSH0 PUSH1 0x2 SSTORE PUSH0 PUSH1 0x4 SSTORE CALLVALUE DUP1 ISZERO PUSH2 0x17 JUMPI PUSH0 DUP1 REVERT JUMPDEST POP PUSH0 CALLER SWAP1 DUP1 PUSH1 0x1 DUP2 SLOAD ADD DUP1 DUP3 SSTORE DUP1 SWAP2 POP POP PUSH1 0x1 SWAP1 SUB SWAP1 PUSH0 MSTORE PUSH1 0x20 PUSH0 KECCAK256 ADD PUSH0 SWAP1 SWAP2 SWAP1 SWAP2 SWAP1 SWAP2 PUSH2 0x100 EXP DUP2 SLOAD DUP2 PUSH20 0xFFFFFFFFFFFFFFFFFFFFFFFFFFFFFFFFFFFFFFFF MUL NOT AND SWAP1 DUP4 PUSH20 0xFFFFFFFFFFFFFFFFFFFFFFFFFFFFFFFFFFFFFFFF AND MUL OR SWAP1 SSTORE POP PUSH2 0x34BE DUP1 PUSH2 0x84 PUSH0 CODECOPY PUSH0 RETURN INVALID PUSH1 0x80 PUSH1 0x40 MSTORE PUSH1 0x4 CALLDATASIZE LT PUSH3 0xB5 JUMPI PUSH0 CALLDATALOAD PUSH1 0xE0 SHR DUP1 PUSH4 0x5DAF08CA GT PUSH3 0x6C JUMPI DUP1 PUSH4 0x5DAF08CA EQ PUSH3 0x20F JUMPI DUP1 PUSH4 0x774B1F54 EQ PUSH3 0x252 JUMPI DUP1 PUSH4 0x8AECBC51 EQ PUSH3 0x295 JUMPI DUP1 PUSH4 0xA78D80FC EQ PUSH3 0x2B7 JUMPI DUP1 PUSH4 0xAC5C706C EQ PUSH3 0x2E6 JUMPI DUP1 PUSH4 0xCA6D56DC EQ PUSH3 0x329 JUMPI PUSH3 0xB5 JUMP JUMPDEST DUP1 PUSH4 0x121B93F EQ PUSH3 0xB9 JUMPI DUP1 PUSH4 0x13CF08B EQ PUSH3 0xE6 JUMPI DUP1 PUSH4 0x2932F56 EQ PUSH3 0x12D JUMPI DUP1 PUSH4 0xB1CA49A EQ PUSH3 0x15C JUMPI DUP1 PUSH4 0x141961BC EQ PUSH3 0x189 JUMPI DUP1 PUSH4 0x1C67211D EQ PUSH3 0x1CC JUMPI JUMPDEST PUSH0 DUP1 REVERT JUMPDEST CALLVALUE DUP1 ISZERO PUSH3 0xC5 JUMPI PUSH0 DUP1 REVERT JUMPDEST POP PUSH3 0xE4 PUSH1 0x4 DUP1 CALLDATASIZE SUB DUP2 ADD SWAP1 PUSH3 0xDE SWAP2 SWAP1 PUSH3 0x151E JUMP JUMPDEST PUSH3 0x356 JUMP JUMPDEST STOP JUMPDEST CALLVALUE DUP1 ISZERO PUSH3 0xF2 JUMPI PUSH0 DUP1 REVERT JUMPDEST POP PUSH3 0x111 PUSH1 0x4 DUP1 CALLDATASIZE SUB DUP2 ADD SWAP1 PUSH3 0x10B SWAP2 SWAP1 PUSH3 0x151E JUMP JUMPDEST PUSH3 0x9BF JUMP JUMPDEST PUSH1 0x40 MLOAD PUSH3 0x124 SWAP6 SWAP5 SWAP4 SWAP3 SWAP2 SWAP1 PUSH3 0x16CE JUMP JUMPDEST PUSH1 0x40 MLOAD DUP1 SWAP2 SUB SWAP1 RETURN JUMPDEST CALLVALUE DUP1 ISZERO PUSH3 0x139 JUMPI PUSH0 DUP1 REVERT JUMPDEST POP PUSH3 0x144 PUSH3 0xAB7 JUMP JUMPDEST PUSH1 0x40 MLOAD PUSH3 0x153 SWAP2 SWAP1 PUSH3 0x1730 JUMP JUMPDEST PUSH1 0x40 MLOAD DUP1 SWAP2 SUB SWAP1 RETURN JUMPDEST CALLVALUE DUP1 ISZERO PUSH3 0x168 JUMPI PUSH0 DUP1 REVERT JUMPDEST POP PUSH3 0x187 PUSH1 0x4 DUP1 CALLDATASIZE SUB DUP2 ADD SWAP1 PUSH3 0x181 SWAP2 SWAP1 PUSH3 0x177A JUMP JUMPDEST PUSH3 0xAC0 JUMP JUMPDEST STOP JUMPDEST CALLVALUE DUP1 ISZERO PUSH3 0x195 JUMPI PUSH0 DUP1 REVERT JUMPDEST POP PUSH3 0x1B4 PUSH1 0x4 DUP1 CALLDATASIZE SUB DUP2 ADD SWAP1 PUSH3 0x1AE SWAP2 SWAP1 PUSH3 0x151E JUMP JUMPDEST PUSH3 0xD1D JUMP JUMPDEST PUSH1 0x40 MLOAD PUSH3 0x1C3 SWAP2 SWAP1 PUSH3 0x1811 JUMP JUMPDEST PUSH1 0x40 MLOAD DUP1 SWAP2 SUB SWAP1 RETURN JUMPDEST CALLVALUE DUP1 ISZERO PUSH3 0x1D8 JUMPI PUSH0 DUP1 REVERT JUMPDEST POP PUSH3 0x1F7 PUSH1 0x4 DUP1 CALLDATASIZE SUB DUP2 ADD SWAP1 PUSH3 0x1F1 SWAP2 SWAP1 PUSH3 0x177A JUMP JUMPDEST PUSH3 0xD4D JUMP JUMPDEST PUSH1 0x40 MLOAD PUSH3 0x206 SWAP2 SWAP1 PUSH3 0x182C JUMP JUMPDEST PUSH1 0x40 MLOAD DUP1 SWAP2 SUB SWAP1 RETURN JUMPDEST CALLVALUE DUP1 ISZERO PUSH3 0x21B JUMPI PUSH0 DUP1 REVERT JUMPDEST POP PUSH3 0x23A PUSH1 0x4 DUP1 CALLDATASIZE SUB DUP2 ADD SWAP1 PUSH3 0x234 SWAP2 SWAP1 PUSH3 0x151E JUMP JUMPDEST PUSH3 0xDF4 JUMP JUMPDEST PUSH1 0x40 MLOAD PUSH3 0x249 SWAP2 SWAP1 PUSH3 0x1847 JUMP JUMPDEST PUSH1 0x40 MLOAD DUP1 SWAP2 SUB SWAP1 RETURN JUMPDEST CALLVALUE DUP1 ISZERO PUSH3 0x25E JUMPI PUSH0 DUP1 REVERT JUMPDEST POP PUSH3 0x27D PUSH1 0x4 DUP1 CALLDATASIZE SUB DUP2 ADD SWAP1 PUSH3 0x277 SWAP2 SWAP1 PUSH3 0x19AA JUMP JUMPDEST PUSH3 0xE2F JUMP JUMPDEST PUSH1 0x40 MLOAD PUSH3 0x28C SWAP2 SWAP1 PUSH3 0x1730 JUMP JUMPDEST PUSH1 0x40 MLOAD DUP1 SWAP2 SUB SWAP1 RETURN JUMPDEST PUSH3 0x29F PUSH3 0x1034 JUMP JUMPDEST PUSH1 0x40 MLOAD PUSH3 0x2AE SWAP2 SWAP1 PUSH3 0x1730 JUMP JUMPDEST PUSH1 0x40 MLOAD DUP1 SWAP2 SUB SWAP1 RETURN JUMPDEST CALLVALUE DUP1 ISZERO PUSH3 0x2C3 JUMPI PUSH0 DUP1 REVERT JUMPDEST POP PUSH3 0x2CE PUSH3 0x1080 JUMP JUMPDEST PUSH1 0x40 MLOAD PUSH3 0x2DD SWAP2 SWAP1 PUSH3 0x1730 JUMP JUMPDEST PUSH1 0x40 MLOAD DUP1 SWAP2 SUB SWAP1 RETURN JUMPDEST CALLVALUE DUP1 ISZERO PUSH3 0x2F2 JUMPI PUSH0 DUP1 REVERT JUMPDEST POP PUSH3 0x311 PUSH1 0x4 DUP1 CALLDATASIZE SUB DUP2 ADD SWAP1 PUSH3 0x30B SWAP2 SWAP1 PUSH3 0x19AA JUMP JUMPDEST PUSH3 0x1089 JUMP JUMPDEST PUSH1 0x40 MLOAD PUSH3 0x320 SWAP2 SWAP1 PUSH3 0x1730 JUMP JUMPDEST PUSH1 0x40 MLOAD DUP1 SWAP2 SUB SWAP1 RETURN JUMPDEST CALLVALUE DUP1 ISZERO PUSH3 0x335 JUMPI PUSH0 DUP1 REVERT JUMPDEST POP PUSH3 0x354 PUSH1 0x4 DUP1 CALLDATASIZE SUB DUP2 ADD SWAP1 PUSH3 0x34E SWAP2 SWAP1 PUSH3 0x177A JUMP JUMPDEST PUSH3 0x12E8 JUMP JUMPDEST STOP JUMPDEST PUSH3 0x361 CALLER PUSH3 0xD4D JUMP JUMPDEST PUSH3 0x3A3 JUMPI PUSH1 0x40 MLOAD PUSH32 0x8C379A000000000000000000000000000000000000000000000000000000000 DUP2 MSTORE PUSH1 0x4 ADD PUSH3 0x39A SWAP1 PUSH3 0x1A5C JUMP JUMPDEST PUSH1 0x40 MLOAD DUP1 SWAP2 SUB SWAP1 REVERT JUMPDEST PUSH1 0x2 SLOAD DUP2 LT PUSH3 0x3EA JUMPI PUSH1 0x40 MLOAD PUSH32 0x8C379A000000000000000000000000000000000000000000000000000000000 DUP2 MSTORE PUSH1 0x4 ADD PUSH3 0x3E1 SWAP1 PUSH3 0x1ACA JUMP JUMPDEST PUSH1 0x40 MLOAD DUP1 SWAP2 SUB SWAP1 REVERT JUMPDEST PUSH1 0x1 PUSH0 DUP3 DUP2 MSTORE PUSH1 0x20 ADD SWAP1 DUP2 MSTORE PUSH1 0x20 ADD PUSH0 KECCAK256 PUSH1 0x4 ADD PUSH0 SWAP1 SLOAD SWAP1 PUSH2 0x100 EXP SWAP1 DIV PUSH1 0xFF AND ISZERO PUSH3 0x44E JUMPI PUSH1 0x40 MLOAD PUSH32 0x8C379A000000000000000000000000000000000000000000000000000000000 DUP2 MSTORE PUSH1 0x4 ADD PUSH3 0x445 SWAP1 PUSH3 0x1B38 JUMP JUMPDEST PUSH1 0x40 MLOAD DUP1 SWAP2 SUB SWAP1 REVERT JUMPDEST PUSH0 JUMPDEST PUSH1 0x1 PUSH0 DUP4 DUP2 MSTORE PUSH1 0x20 ADD SWAP1 DUP2 MSTORE PUSH1 0x20 ADD PUSH0 KECCAK256 PUSH1 0x3 ADD DUP1 SLOAD SWAP1 POP DUP2 LT ISZERO PUSH3 0x53F JUMPI CALLER PUSH20 0xFFFFFFFFFFFFFFFFFFFFFFFFFFFFFFFFFFFFFFFF AND PUSH1 0x1 PUSH0 DUP5 DUP2 MSTORE PUSH1 0x20 ADD SWAP1 DUP2 MSTORE PUSH1 0x20 ADD PUSH0 KECCAK256 PUSH1 0x3 ADD DUP3 DUP2 SLOAD DUP2 LT PUSH3 0x4B0 JUMPI PUSH3 0x4AF PUSH3 0x1B58 JUMP JUMPDEST JUMPDEST SWAP1 PUSH0 MSTORE PUSH1 0x20 PUSH0 KECCAK256 ADD PUSH0 SWAP1 SLOAD SWAP1 PUSH2 0x100 EXP SWAP1 DIV PUSH20 0xFFFFFFFFFFFFFFFFFFFFFFFFFFFFFFFFFFFFFFFF AND PUSH20 0xFFFFFFFFFFFFFFFFFFFFFFFFFFFFFFFFFFFFFFFF AND SUB PUSH3 0x531 JUMPI PUSH1 0x40 MLOAD PUSH32 0x8C379A000000000000000000000000000000000000000000000000000000000 DUP2 MSTORE PUSH1 0x4 ADD PUSH3 0x528 SWAP1 PUSH3 0x1BD3 JUMP JUMPDEST PUSH1 0x40 MLOAD DUP1 SWAP2 SUB SWAP1 REVERT JUMPDEST DUP1 DUP1 PUSH1 0x1 ADD SWAP2 POP POP PUSH3 0x450 JUMP JUMPDEST POP PUSH1 0x1 PUSH0 DUP3 DUP2 MSTORE PUSH1 0x20 ADD SWAP1 DUP2 MSTORE PUSH1 0x20 ADD PUSH0 KECCAK256 PUSH1 0x3 ADD CALLER SWAP1 DUP1 PUSH1 0x1 DUP2 SLOAD ADD DUP1 DUP3 SSTORE DUP1 SWAP2 POP POP PUSH1 0x1 SWAP1 SUB SWAP1 PUSH0 MSTORE PUSH1 0x20 PUSH0 KECCAK256 ADD PUSH0 SWAP1 SWAP2 SWAP1 SWAP2 SWAP1 SWAP2 PUSH2 0x100 EXP DUP2 SLOAD DUP2 PUSH20 0xFFFFFFFFFFFFFFFFFFFFFFFFFFFFFFFFFFFFFFFF MUL NOT AND SWAP1 DUP4 PUSH20 0xFFFFFFFFFFFFFFFFFFFFFFFFFFFFFFFFFFFFFFFF AND MUL OR SWAP1 SSTORE POP PUSH32 0xE94F6F9C0B790F983EF670881A31345B092A40705DCC7FCA5B4A1198206C2146 CALLER PUSH1 0x40 MLOAD PUSH3 0x5E3 SWAP2 SWAP1 PUSH3 0x1847 JUMP JUMPDEST PUSH1 0x40 MLOAD DUP1 SWAP2 SUB SWAP1 LOG1 PUSH0 PUSH1 0x64 PUSH1 0x33 PUSH0 DUP1 SLOAD SWAP1 POP PUSH3 0x601 SWAP2 SWAP1 PUSH3 0x1C20 JUMP JUMPDEST PUSH3 0x60D SWAP2 SWAP1 PUSH3 0x1C97 JUMP JUMPDEST SWAP1 POP DUP1 PUSH1 0x1 PUSH0 DUP5 DUP2 MSTORE PUSH1 0x20 ADD SWAP1 DUP2 MSTORE PUSH1 0x20 ADD PUSH0 KECCAK256 PUSH1 0x3 ADD DUP1 SLOAD SWAP1 POP LT PUSH3 0x9BB JUMPI PUSH1 0x1 DUP1 DUP2 GT ISZERO PUSH3 0x644 JUMPI PUSH3 0x643 PUSH3 0x1652 JUMP JUMPDEST JUMPDEST PUSH1 0x1 PUSH0 DUP5 DUP2 MSTORE PUSH1 0x20 ADD SWAP1 DUP2 MSTORE PUSH1 0x20 ADD PUSH0 KECCAK256 PUSH1 0x4 ADD PUSH1 0x1 SWAP1 SLOAD SWAP1 PUSH2 0x100 EXP SWAP1 DIV PUSH1 0xFF AND PUSH1 0x1 DUP2 GT ISZERO PUSH3 0x67B JUMPI PUSH3 0x67A PUSH3 0x1652 JUMP JUMPDEST JUMPDEST SUB PUSH3 0x7EF JUMPI PUSH0 PUSH1 0x4 PUSH0 DUP2 SLOAD DUP1 SWAP3 SWAP2 SWAP1 PUSH3 0x696 SWAP1 PUSH3 0x1CCE JUMP JUMPDEST SWAP2 SWAP1 POP SSTORE SWAP1 POP PUSH1 0x1 PUSH0 DUP5 DUP2 MSTORE PUSH1 0x20 ADD SWAP1 DUP2 MSTORE PUSH1 0x20 ADD PUSH0 KECCAK256 PUSH0 ADD PUSH1 0x1 PUSH0 DUP6 DUP2 MSTORE PUSH1 0x20 ADD SWAP1 DUP2 MSTORE PUSH1 0x20 ADD PUSH0 KECCAK256 PUSH1 0x1 ADD PUSH0 SWAP1 SLOAD SWAP1 PUSH2 0x100 EXP SWAP1 DIV PUSH20 0xFFFFFFFFFFFFFFFFFFFFFFFFFFFFFFFFFFFFFFFF AND PUSH1 0x1 PUSH0 DUP7 DUP2 MSTORE PUSH1 0x20 ADD SWAP1 DUP2 MSTORE PUSH1 0x20 ADD PUSH0 KECCAK256 PUSH1 0x2 ADD SLOAD PUSH1 0x40 MLOAD PUSH3 0x706 SWAP1 PUSH3 0x141E JUMP JUMPDEST PUSH3 0x714 SWAP4 SWAP3 SWAP2 SWAP1 PUSH3 0x1E1A JUMP JUMPDEST PUSH1 0x40 MLOAD DUP1 SWAP2 SUB SWAP1 PUSH0 CREATE DUP1 ISZERO DUP1 ISZERO PUSH3 0x72E JUMPI RETURNDATASIZE PUSH0 DUP1 RETURNDATACOPY RETURNDATASIZE PUSH0 REVERT JUMPDEST POP PUSH1 0x3 PUSH0 DUP4 DUP2 MSTORE PUSH1 0x20 ADD SWAP1 DUP2 MSTORE PUSH1 0x20 ADD PUSH0 KECCAK256 PUSH0 PUSH2 0x100 EXP DUP2 SLOAD DUP2 PUSH20 0xFFFFFFFFFFFFFFFFFFFFFFFFFFFFFFFFFFFFFFFF MUL NOT AND SWAP1 DUP4 PUSH20 0xFFFFFFFFFFFFFFFFFFFFFFFFFFFFFFFFFFFFFFFF AND MUL OR SWAP1 SSTORE POP PUSH32 0x633109EEC20320EDED000FC1E2634211AA7E92BA3F5B15FAF6DCDAFCA05094E4 DUP2 PUSH1 0x3 PUSH0 DUP5 DUP2 MSTORE PUSH1 0x20 ADD SWAP1 DUP2 MSTORE PUSH1 0x20 ADD PUSH0 KECCAK256 PUSH0 SWAP1 SLOAD SWAP1 PUSH2 0x100 EXP SWAP1 DIV PUSH20 0xFFFFFFFFFFFFFFFFFFFFFFFFFFFFFFFFFFFFFFFF AND PUSH1 0x40 MLOAD PUSH3 0x7E0 SWAP3 SWAP2 SWAP1 PUSH3 0x1E5C JUMP JUMPDEST PUSH1 0x40 MLOAD DUP1 SWAP2 SUB SWAP1 LOG1 POP PUSH3 0x98F JUMP JUMPDEST SELFBALANCE PUSH8 0xDE0B6B3A7640000 PUSH1 0x1 PUSH0 DUP6 DUP2 MSTORE PUSH1 0x20 ADD SWAP1 DUP2 MSTORE PUSH1 0x20 ADD PUSH0 KECCAK256 PUSH1 0x2 ADD SLOAD PUSH3 0x81A SWAP2 SWAP1 PUSH3 0x1C20 JUMP JUMPDEST GT ISZERO PUSH3 0x85E JUMPI PUSH1 0x40 MLOAD PUSH32 0x8C379A000000000000000000000000000000000000000000000000000000000 DUP2 MSTORE PUSH1 0x4 ADD PUSH3 0x855 SWAP1 PUSH3 0x1EFB JUMP JUMPDEST PUSH1 0x40 MLOAD DUP1 SWAP2 SUB SWAP1 REVERT JUMPDEST PUSH0 PUSH1 0x1 PUSH0 DUP5 DUP2 MSTORE PUSH1 0x20 ADD SWAP1 DUP2 MSTORE PUSH1 0x20 ADD PUSH0 KECCAK256 PUSH1 0x1 ADD PUSH0 SWAP1 SLOAD SWAP1 PUSH2 0x100 EXP SWAP1 DIV PUSH20 0xFFFFFFFFFFFFFFFFFFFFFFFFFFFFFFFFFFFFFFFF AND SWAP1 POP PUSH0 PUSH1 0x1 PUSH0 DUP6 DUP2 MSTORE PUSH1 0x20 ADD SWAP1 DUP2 MSTORE PUSH1 0x20 ADD PUSH0 KECCAK256 PUSH1 0x2 ADD SLOAD SWAP1 POP PUSH0 DUP3 PUSH20 0xFFFFFFFFFFFFFFFFFFFFFFFFFFFFFFFFFFFFFFFF AND PUSH2 0x8FC DUP4 SWAP1 DUP2 ISZERO MUL SWAP1 PUSH1 0x40 MLOAD PUSH0 PUSH1 0x40 MLOAD DUP1 DUP4 SUB DUP2 DUP6 DUP9 DUP9 CALL SWAP4 POP POP POP POP SWAP1 POP DUP1 PUSH3 0x927 JUMPI PUSH1 0x40 MLOAD PUSH32 0x8C379A000000000000000000000000000000000000000000000000000000000 DUP2 MSTORE PUSH1 0x4 ADD PUSH3 0x91E SWAP1 PUSH3 0x1F8F JUMP JUMPDEST PUSH1 0x40 MLOAD DUP1 SWAP2 SUB SWAP1 REVERT JUMPDEST PUSH32 0xCF61B5259B88541BDB5B4F258CAD2B52A77B7909F948F1A397DE7047496973D5 DUP6 PUSH1 0x40 MLOAD PUSH3 0x958 SWAP2 SWAP1 PUSH3 0x1730 JUMP JUMPDEST PUSH1 0x40 MLOAD DUP1 SWAP2 SUB SWAP1 LOG1 PUSH1 0x1 DUP1 PUSH0 DUP8 DUP2 MSTORE PUSH1 0x20 ADD SWAP1 DUP2 MSTORE PUSH1 0x20 ADD PUSH0 KECCAK256 PUSH1 0x4 ADD PUSH0 PUSH2 0x100 EXP DUP2 SLOAD DUP2 PUSH1 0xFF MUL NOT AND SWAP1 DUP4 ISZERO ISZERO MUL OR SWAP1 SSTORE POP POP POP POP JUMPDEST PUSH1 0x1 DUP1 PUSH0 DUP5 DUP2 MSTORE PUSH1 0x20 ADD SWAP1 DUP2 MSTORE PUSH1 0x20 ADD PUSH0 KECCAK256 PUSH1 0x4 ADD PUSH0 PUSH2 0x100 EXP DUP2 SLOAD DUP2 PUSH1 0xFF MUL NOT AND SWAP1 DUP4 ISZERO ISZERO MUL OR SWAP1 SSTORE POP JUMPDEST POP POP JUMP JUMPDEST PUSH1 0x1 PUSH1 0x20 MSTORE DUP1 PUSH0 MSTORE PUSH1 0x40 PUSH0 KECCAK256 PUSH0 SWAP2 POP SWAP1 POP DUP1 PUSH0 ADD DUP1 SLOAD PUSH3 0x9E0 SWAP1 PUSH3 0x1D47 JUMP JUMPDEST DUP1 PUSH1 0x1F ADD PUSH1 0x20 DUP1 SWAP2 DIV MUL PUSH1 0x20 ADD PUSH1 0x40 MLOAD SWAP1 DUP2 ADD PUSH1 0x40 MSTORE DUP1 SWAP3 SWAP2 SWAP1 DUP2 DUP2 MSTORE PUSH1 0x20 ADD DUP3 DUP1 SLOAD PUSH3 0xA0E SWAP1 PUSH3 0x1D47 JUMP JUMPDEST DUP1 ISZERO PUSH3 0xA5D JUMPI DUP1 PUSH1 0x1F LT PUSH3 0xA33 JUMPI PUSH2 0x100 DUP1 DUP4 SLOAD DIV MUL DUP4 MSTORE SWAP2 PUSH1 0x20 ADD SWAP2 PUSH3 0xA5D JUMP JUMPDEST DUP3 ADD SWAP2 SWAP1 PUSH0 MSTORE PUSH1 0x20 PUSH0 KECCAK256 SWAP1 JUMPDEST DUP2 SLOAD DUP2 MSTORE SWAP1 PUSH1 0x1 ADD SWAP1 PUSH1 0x20 ADD DUP1 DUP4 GT PUSH3 0xA3F JUMPI DUP3 SWAP1 SUB PUSH1 0x1F AND DUP3 ADD SWAP2 JUMPDEST POP POP POP POP POP SWAP1 DUP1 PUSH1 0x1 ADD PUSH0 SWAP1 SLOAD SWAP1 PUSH2 0x100 EXP SWAP1 DIV PUSH20 0xFFFFFFFFFFFFFFFFFFFFFFFFFFFFFFFFFFFFFFFF AND SWAP1 DUP1 PUSH1 0x2 ADD SLOAD SWAP1 DUP1 PUSH1 0x4 ADD PUSH0 SWAP1 SLOAD SWAP1 PUSH2 0x100 EXP SWAP1 DIV PUSH1 0xFF AND SWAP1 DUP1 PUSH1 0x4 ADD PUSH1 0x1 SWAP1 SLOAD SWAP1 PUSH2 0x100 EXP SWAP1 DIV PUSH1 0xFF AND SWAP1 POP DUP6 JUMP JUMPDEST PUSH0 PUSH1 0x4 SLOAD SWAP1 POP SWAP1 JUMP JUMPDEST PUSH3 0xACB CALLER PUSH3 0xD4D JUMP JUMPDEST PUSH3 0xB0D JUMPI PUSH1 0x40 MLOAD PUSH32 0x8C379A000000000000000000000000000000000000000000000000000000000 DUP2 MSTORE PUSH1 0x4 ADD PUSH3 0xB04 SWAP1 PUSH3 0x1A5C JUMP JUMPDEST PUSH1 0x40 MLOAD DUP1 SWAP2 SUB SWAP1 REVERT JUMPDEST PUSH3 0xB18 DUP2 PUSH3 0xD4D JUMP JUMPDEST ISZERO PUSH3 0xB5B JUMPI PUSH1 0x40 MLOAD PUSH32 0x8C379A000000000000000000000000000000000000000000000000000000000 DUP2 MSTORE PUSH1 0x4 ADD PUSH3 0xB52 SWAP1 PUSH3 0x1A5C JUMP JUMPDEST PUSH1 0x40 MLOAD DUP1 SWAP2 SUB SWAP1 REVERT JUMPDEST PUSH0 JUMPDEST PUSH0 DUP1 SLOAD SWAP1 POP DUP2 LT ISZERO PUSH3 0xD19 JUMPI DUP2 PUSH20 0xFFFFFFFFFFFFFFFFFFFFFFFFFFFFFFFFFFFFFFFF AND PUSH0 DUP3 DUP2 SLOAD DUP2 LT PUSH3 0xB97 JUMPI PUSH3 0xB96 PUSH3 0x1B58 JUMP JUMPDEST JUMPDEST SWAP1 PUSH0 MSTORE PUSH1 0x20 PUSH0 KECCAK256 ADD PUSH0 SWAP1 SLOAD SWAP1 PUSH2 0x100 EXP SWAP1 DIV PUSH20 0xFFFFFFFFFFFFFFFFFFFFFFFFFFFFFFFFFFFFFFFF AND PUSH20 0xFFFFFFFFFFFFFFFFFFFFFFFFFFFFFFFFFFFFFFFF AND SUB PUSH3 0xD0B JUMPI PUSH0 PUSH1 0x1 PUSH0 DUP1 SLOAD SWAP1 POP PUSH3 0xBEF SWAP2 SWAP1 PUSH3 0x1FAF JUMP JUMPDEST DUP2 SLOAD DUP2 LT PUSH3 0xC03 JUMPI PUSH3 0xC02 PUSH3 0x1B58 JUMP JUMPDEST JUMPDEST SWAP1 PUSH0 MSTORE PUSH1 0x20 PUSH0 KECCAK256 ADD PUSH0 SWAP1 SLOAD SWAP1 PUSH2 0x100 EXP SWAP1 DIV PUSH20 0xFFFFFFFFFFFFFFFFFFFFFFFFFFFFFFFFFFFFFFFF AND PUSH0 DUP3 DUP2 SLOAD DUP2 LT PUSH3 0xC41 JUMPI PUSH3 0xC40 PUSH3 0x1B58 JUMP JUMPDEST JUMPDEST SWAP1 PUSH0 MSTORE PUSH1 0x20 PUSH0 KECCAK256 ADD PUSH0 PUSH2 0x100 EXP DUP2 SLOAD DUP2 PUSH20 0xFFFFFFFFFFFFFFFFFFFFFFFFFFFFFFFFFFFFFFFF MUL NOT AND SWAP1 DUP4 PUSH20 0xFFFFFFFFFFFFFFFFFFFFFFFFFFFFFFFFFFFFFFFF AND MUL OR SWAP1 SSTORE POP PUSH0 DUP1 SLOAD DUP1 PUSH3 0xC9A JUMPI PUSH3 0xC99 PUSH3 0x1FE9 JUMP JUMPDEST JUMPDEST PUSH1 0x1 SWAP1 SUB DUP2 DUP2 SWAP1 PUSH0 MSTORE PUSH1 0x20 PUSH0 KECCAK256 ADD PUSH0 PUSH2 0x100 EXP DUP2 SLOAD SWAP1 PUSH20 0xFFFFFFFFFFFFFFFFFFFFFFFFFFFFFFFFFFFFFFFF MUL NOT AND SWAP1 SSTORE SWAP1 SSTORE PUSH32 0x6E76FB4C77256006D9C38EC7D82B45A8C8F3C27B1D6766FFFC42DFB8DE684492 DUP3 PUSH1 0x40 MLOAD PUSH3 0xCFD SWAP2 SWAP1 PUSH3 0x1847 JUMP JUMPDEST PUSH1 0x40 MLOAD DUP1 SWAP2 SUB SWAP1 LOG1 PUSH3 0xD19 JUMP JUMPDEST DUP1 DUP1 PUSH1 0x1 ADD SWAP2 POP POP PUSH3 0xB5D JUMP JUMPDEST POP POP JUMP JUMPDEST PUSH1 0x3 PUSH1 0x20 MSTORE DUP1 PUSH0 MSTORE PUSH1 0x40 PUSH0 KECCAK256 PUSH0 SWAP2 POP SLOAD SWAP1 PUSH2 0x100 EXP SWAP1 DIV PUSH20 0xFFFFFFFFFFFFFFFFFFFFFFFFFFFFFFFFFFFFFFFF AND DUP2 JUMP JUMPDEST PUSH0 DUP1 PUSH0 SWAP1 POP JUMPDEST PUSH0 DUP1 SLOAD SWAP1 POP DUP2 LT ISZERO PUSH3 0xDEA JUMPI DUP3 PUSH20 0xFFFFFFFFFFFFFFFFFFFFFFFFFFFFFFFFFFFFFFFF AND PUSH0 DUP3 DUP2 SLOAD DUP2 LT PUSH3 0xD8D JUMPI PUSH3 0xD8C PUSH3 0x1B58 JUMP JUMPDEST JUMPDEST SWAP1 PUSH0 MSTORE PUSH1 0x20 PUSH0 KECCAK256 ADD PUSH0 SWAP1 SLOAD SWAP1 PUSH2 0x100 EXP SWAP1 DIV PUSH20 0xFFFFFFFFFFFFFFFFFFFFFFFFFFFFFFFFFFFFFFFF AND PUSH20 0xFFFFFFFFFFFFFFFFFFFFFFFFFFFFFFFFFFFFFFFF AND SUB PUSH3 0xDDC JUMPI PUSH1 0x1 SWAP2 POP POP PUSH3 0xDEF JUMP JUMPDEST DUP1 DUP1 PUSH1 0x1 ADD SWAP2 POP POP PUSH3 0xD53 JUMP JUMPDEST POP PUSH0 SWAP1 POP JUMPDEST SWAP2 SWAP1 POP JUMP JUMPDEST PUSH0 DUP2 DUP2 SLOAD DUP2 LT PUSH3 0xE03 JUMPI PUSH0 DUP1 REVERT JUMPDEST SWAP1 PUSH0 MSTORE PUSH1 0x20 PUSH0 KECCAK256 ADD PUSH0 SWAP2 POP SLOAD SWAP1 PUSH2 0x100 EXP SWAP1 DIV PUSH20 0xFFFFFFFFFFFFFFFFFFFFFFFFFFFFFFFFFFFFFFFF AND DUP2 JUMP JUMPDEST PUSH0 DUP1 PUSH1 0x2 PUSH0 DUP2 SLOAD DUP1 SWAP3 SWAP2 SWAP1 PUSH3 0xE45 SWAP1 PUSH3 0x1CCE JUMP JUMPDEST SWAP2 SWAP1 POP SSTORE SWAP1 POP PUSH1 0x40 MLOAD DUP1 PUSH1 0xC0 ADD PUSH1 0x40 MSTORE DUP1 DUP6 DUP2 MSTORE PUSH1 0x20 ADD CALLER PUSH20 0xFFFFFFFFFFFFFFFFFFFFFFFFFFFFFFFFFFFFFFFF AND DUP2 MSTORE PUSH1 0x20 ADD PUSH8 0xDE0B6B3A7640000 DUP6 PUSH3 0xE8E SWAP2 SWAP1 PUSH3 0x1C97 JUMP JUMPDEST DUP2 MSTORE PUSH1 0x20 ADD PUSH0 PUSH8 0xFFFFFFFFFFFFFFFF DUP2 GT ISZERO PUSH3 0xEB0 JUMPI PUSH3 0xEAF PUSH3 0x186A JUMP JUMPDEST JUMPDEST PUSH1 0x40 MLOAD SWAP1 DUP1 DUP3 MSTORE DUP1 PUSH1 0x20 MUL PUSH1 0x20 ADD DUP3 ADD PUSH1 0x40 MSTORE DUP1 ISZERO PUSH3 0xEDF JUMPI DUP2 PUSH1 0x20 ADD PUSH1 0x20 DUP3 MUL DUP1 CALLDATASIZE DUP4 CALLDATACOPY DUP1 DUP3 ADD SWAP2 POP POP SWAP1 POP JUMPDEST POP DUP2 MSTORE PUSH1 0x20 ADD PUSH0 ISZERO ISZERO DUP2 MSTORE PUSH1 0x20 ADD PUSH1 0x1 DUP1 DUP2 GT ISZERO PUSH3 0xF03 JUMPI PUSH3 0xF02 PUSH3 0x1652 JUMP JUMPDEST JUMPDEST DUP2 MSTORE POP PUSH1 0x1 PUSH0 DUP4 DUP2 MSTORE PUSH1 0x20 ADD SWAP1 DUP2 MSTORE PUSH1 0x20 ADD PUSH0 KECCAK256 PUSH0 DUP3 ADD MLOAD DUP2 PUSH0 ADD SWAP1 DUP2 PUSH3 0xF2C SWAP2 SWAP1 PUSH3 0x21BE JUMP JUMPDEST POP PUSH1 0x20 DUP3 ADD MLOAD DUP2 PUSH1 0x1 ADD PUSH0 PUSH2 0x100 EXP DUP2 SLOAD DUP2 PUSH20 0xFFFFFFFFFFFFFFFFFFFFFFFFFFFFFFFFFFFFFFFF MUL NOT AND SWAP1 DUP4 PUSH20 0xFFFFFFFFFFFFFFFFFFFFFFFFFFFFFFFFFFFFFFFF AND MUL OR SWAP1 SSTORE POP PUSH1 0x40 DUP3 ADD MLOAD DUP2 PUSH1 0x2 ADD SSTORE PUSH1 0x60 DUP3 ADD MLOAD DUP2 PUSH1 0x3 ADD SWAP1 DUP1 MLOAD SWAP1 PUSH1 0x20 ADD SWAP1 PUSH3 0xF9B SWAP3 SWAP2 SWAP1 PUSH3 0x142C JUMP JUMPDEST POP PUSH1 0x80 DUP3 ADD MLOAD DUP2 PUSH1 0x4 ADD PUSH0 PUSH2 0x100 EXP DUP2 SLOAD DUP2 PUSH1 0xFF MUL NOT AND SWAP1 DUP4 ISZERO ISZERO MUL OR SWAP1 SSTORE POP PUSH1 0xA0 DUP3 ADD MLOAD DUP2 PUSH1 0x4 ADD PUSH1 0x1 PUSH2 0x100 EXP DUP2 SLOAD DUP2 PUSH1 0xFF MUL NOT AND SWAP1 DUP4 PUSH1 0x1 DUP2 GT ISZERO PUSH3 0xFE9 JUMPI PUSH3 0xFE8 PUSH3 0x1652 JUMP JUMPDEST JUMPDEST MUL OR SWAP1 SSTORE POP SWAP1 POP POP PUSH32 0xC2C021F5D73C63C481D336FBBAFEC58F694FC45095F00B02D2DEB8CCA59AFE07 DUP2 PUSH1 0x40 MLOAD PUSH3 0x1022 SWAP2 SWAP1 PUSH3 0x1730 JUMP JUMPDEST PUSH1 0x40 MLOAD DUP1 SWAP2 SUB SWAP1 LOG1 DUP1 SWAP2 POP POP SWAP3 SWAP2 POP POP JUMP JUMPDEST PUSH0 DUP1 CALLVALUE GT PUSH3 0x107A JUMPI PUSH1 0x40 MLOAD PUSH32 0x8C379A000000000000000000000000000000000000000000000000000000000 DUP2 MSTORE PUSH1 0x4 ADD PUSH3 0x1071 SWAP1 PUSH3 0x2316 JUMP JUMPDEST PUSH1 0x40 MLOAD DUP1 SWAP2 SUB SWAP1 REVERT JUMPDEST SELFBALANCE SWAP1 POP SWAP1 JUMP JUMPDEST PUSH0 PUSH1 0x2 SLOAD SWAP1 POP SWAP1 JUMP JUMPDEST PUSH0 SELFBALANCE PUSH8 0xDE0B6B3A7640000 DUP4 PUSH3 0x10A1 SWAP2 SWAP1 PUSH3 0x1C20 JUMP JUMPDEST GT PUSH3 0x10E4 JUMPI PUSH1 0x40 MLOAD PUSH32 0x8C379A000000000000000000000000000000000000000000000000000000000 DUP2 MSTORE PUSH1 0x4 ADD PUSH3 0x10DB SWAP1 PUSH3 0x23AA JUMP JUMPDEST PUSH1 0x40 MLOAD DUP1 SWAP2 SUB SWAP1 REVERT JUMPDEST PUSH0 PUSH1 0x2 PUSH0 DUP2 SLOAD DUP1 SWAP3 SWAP2 SWAP1 PUSH3 0x10F9 SWAP1 PUSH3 0x1CCE JUMP JUMPDEST SWAP2 SWAP1 POP SSTORE SWAP1 POP PUSH1 0x40 MLOAD DUP1 PUSH1 0xC0 ADD PUSH1 0x40 MSTORE DUP1 DUP6 DUP2 MSTORE PUSH1 0x20 ADD CALLER PUSH20 0xFFFFFFFFFFFFFFFFFFFFFFFFFFFFFFFFFFFFFFFF AND DUP2 MSTORE PUSH1 0x20 ADD PUSH8 0xDE0B6B3A7640000 DUP6 PUSH3 0x1142 SWAP2 SWAP1 PUSH3 0x1C97 JUMP JUMPDEST DUP2 MSTORE PUSH1 0x20 ADD PUSH0 PUSH8 0xFFFFFFFFFFFFFFFF DUP2 GT ISZERO PUSH3 0x1164 JUMPI PUSH3 0x1163 PUSH3 0x186A JUMP JUMPDEST JUMPDEST PUSH1 0x40 MLOAD SWAP1 DUP1 DUP3 MSTORE DUP1 PUSH1 0x20 MUL PUSH1 0x20 ADD DUP3 ADD PUSH1 0x40 MSTORE DUP1 ISZERO PUSH3 0x1193 JUMPI DUP2 PUSH1 0x20 ADD PUSH1 0x20 DUP3 MUL DUP1 CALLDATASIZE DUP4 CALLDATACOPY DUP1 DUP3 ADD SWAP2 POP POP SWAP1 POP JUMPDEST POP DUP2 MSTORE PUSH1 0x20 ADD PUSH0 ISZERO ISZERO DUP2 MSTORE PUSH1 0x20 ADD PUSH0 PUSH1 0x1 DUP2 GT ISZERO PUSH3 0x11B7 JUMPI PUSH3 0x11B6 PUSH3 0x1652 JUMP JUMPDEST JUMPDEST DUP2 MSTORE POP PUSH1 0x1 PUSH0 DUP4 DUP2 MSTORE PUSH1 0x20 ADD SWAP1 DUP2 MSTORE PUSH1 0x20 ADD PUSH0 KECCAK256 PUSH0 DUP3 ADD MLOAD DUP2 PUSH0 ADD SWAP1 DUP2 PUSH3 0x11E0 SWAP2 SWAP1 PUSH3 0x21BE JUMP JUMPDEST POP PUSH1 0x20 DUP3 ADD MLOAD DUP2 PUSH1 0x1 ADD PUSH0 PUSH2 0x100 EXP DUP2 SLOAD DUP2 PUSH20 0xFFFFFFFFFFFFFFFFFFFFFFFFFFFFFFFFFFFFFFFF MUL NOT AND SWAP1 DUP4 PUSH20 0xFFFFFFFFFFFFFFFFFFFFFFFFFFFFFFFFFFFFFFFF AND MUL OR SWAP1 SSTORE POP PUSH1 0x40 DUP3 ADD MLOAD DUP2 PUSH1 0x2 ADD SSTORE PUSH1 0x60 DUP3 ADD MLOAD DUP2 PUSH1 0x3 ADD SWAP1 DUP1 MLOAD SWAP1 PUSH1 0x20 ADD SWAP1 PUSH3 0x124F SWAP3 SWAP2 SWAP1 PUSH3 0x142C JUMP JUMPDEST POP PUSH1 0x80 DUP3 ADD MLOAD DUP2 PUSH1 0x4 ADD PUSH0 PUSH2 0x100 EXP DUP2 SLOAD DUP2 PUSH1 0xFF MUL NOT AND SWAP1 DUP4 ISZERO ISZERO MUL OR SWAP1 SSTORE POP PUSH1 0xA0 DUP3 ADD MLOAD DUP2 PUSH1 0x4 ADD PUSH1 0x1 PUSH2 0x100 EXP DUP2 SLOAD DUP2 PUSH1 0xFF MUL NOT AND SWAP1 DUP4 PUSH1 0x1 DUP2 GT ISZERO PUSH3 0x129D JUMPI PUSH3 0x129C PUSH3 0x1652 JUMP JUMPDEST JUMPDEST MUL OR SWAP1 SSTORE POP SWAP1 POP POP PUSH32 0xC2C021F5D73C63C481D336FBBAFEC58F694FC45095F00B02D2DEB8CCA59AFE07 DUP2 PUSH1 0x40 MLOAD PUSH3 0x12D6 SWAP2 SWAP1 PUSH3 0x1730 JUMP JUMPDEST PUSH1 0x40 MLOAD DUP1 SWAP2 SUB SWAP1 LOG1 DUP1 SWAP2 POP POP SWAP3 SWAP2 POP POP JUMP JUMPDEST PUSH3 0x12F3 CALLER PUSH3 0xD4D JUMP JUMPDEST PUSH3 0x1335 JUMPI PUSH1 0x40 MLOAD PUSH32 0x8C379A000000000000000000000000000000000000000000000000000000000 DUP2 MSTORE PUSH1 0x4 ADD PUSH3 0x132C SWAP1 PUSH3 0x1A5C JUMP JUMPDEST PUSH1 0x40 MLOAD DUP1 SWAP2 SUB SWAP1 REVERT JUMPDEST PUSH3 0x1340 DUP2 PUSH3 0xD4D JUMP JUMPDEST ISZERO PUSH3 0x1383 JUMPI PUSH1 0x40 MLOAD PUSH32 0x8C379A000000000000000000000000000000000000000000000000000000000 DUP2 MSTORE PUSH1 0x4 ADD PUSH3 0x137A SWAP1 PUSH3 0x243E JUMP JUMPDEST PUSH1 0x40 MLOAD DUP1 SWAP2 SUB SWAP1 REVERT JUMPDEST PUSH0 DUP2 SWAP1 DUP1 PUSH1 0x1 DUP2 SLOAD ADD DUP1 DUP3 SSTORE DUP1 SWAP2 POP POP PUSH1 0x1 SWAP1 SUB SWAP1 PUSH0 MSTORE PUSH1 0x20 PUSH0 KECCAK256 ADD PUSH0 SWAP1 SWAP2 SWAP1 SWAP2 SWAP1 SWAP2 PUSH2 0x100 EXP DUP2 SLOAD DUP2 PUSH20 0xFFFFFFFFFFFFFFFFFFFFFFFFFFFFFFFFFFFFFFFF MUL NOT AND SWAP1 DUP4 PUSH20 0xFFFFFFFFFFFFFFFFFFFFFFFFFFFFFFFFFFFFFFFF AND MUL OR SWAP1 SSTORE POP PUSH32 0xB251EB052AFC73FFD02FFE85AD79990A8B3FED60D76DBC2FA2FDD7123DFFD914 DUP2 PUSH1 0x40 MLOAD PUSH3 0x1413 SWAP2 SWAP1 PUSH3 0x1847 JUMP JUMPDEST PUSH1 0x40 MLOAD DUP1 SWAP2 SUB SWAP1 LOG1 POP JUMP JUMPDEST PUSH2 0x102A DUP1 PUSH3 0x245F DUP4 CODECOPY ADD SWAP1 JUMP JUMPDEST DUP3 DUP1 SLOAD DUP3 DUP3 SSTORE SWAP1 PUSH0 MSTORE PUSH1 0x20 PUSH0 KECCAK256 SWAP1 DUP2 ADD SWAP3 DUP3 ISZERO PUSH3 0x14A5 JUMPI SWAP2 PUSH1 0x20 MUL DUP3 ADD JUMPDEST DUP3 DUP2 GT ISZERO PUSH3 0x14A4 JUMPI DUP3 MLOAD DUP3 PUSH0 PUSH2 0x100 EXP DUP2 SLOAD DUP2 PUSH20 0xFFFFFFFFFFFFFFFFFFFFFFFFFFFFFFFFFFFFFFFF MUL NOT AND SWAP1 DUP4 PUSH20 0xFFFFFFFFFFFFFFFFFFFFFFFFFFFFFFFFFFFFFFFF AND MUL OR SWAP1 SSTORE POP SWAP2 PUSH1 0x20 ADD SWAP2 SWAP1 PUSH1 0x1 ADD SWAP1 PUSH3 0x144B JUMP JUMPDEST JUMPDEST POP SWAP1 POP PUSH3 0x14B4 SWAP2 SWAP1 PUSH3 0x14B8 JUMP JUMPDEST POP SWAP1 JUMP JUMPDEST JUMPDEST DUP1 DUP3 GT ISZERO PUSH3 0x14D1 JUMPI PUSH0 DUP2 PUSH0 SWAP1 SSTORE POP PUSH1 0x1 ADD PUSH3 0x14B9 JUMP JUMPDEST POP SWAP1 JUMP JUMPDEST PUSH0 PUSH1 0x40 MLOAD SWAP1 POP SWAP1 JUMP JUMPDEST PUSH0 DUP1 REVERT JUMPDEST PUSH0 DUP1 REVERT JUMPDEST PUSH0 DUP2 SWAP1 POP SWAP2 SWAP1 POP JUMP JUMPDEST PUSH3 0x14FA DUP2 PUSH3 0x14E6 JUMP JUMPDEST DUP2 EQ PUSH3 0x1505 JUMPI PUSH0 DUP1 REVERT JUMPDEST POP JUMP JUMPDEST PUSH0 DUP2 CALLDATALOAD SWAP1 POP PUSH3 0x1518 DUP2 PUSH3 0x14EF JUMP JUMPDEST SWAP3 SWAP2 POP POP JUMP JUMPDEST PUSH0 PUSH1 0x20 DUP3 DUP5 SUB SLT ISZERO PUSH3 0x1536 JUMPI PUSH3 0x1535 PUSH3 0x14DE JUMP JUMPDEST JUMPDEST PUSH0 PUSH3 0x1545 DUP5 DUP3 DUP6 ADD PUSH3 0x1508 JUMP JUMPDEST SWAP2 POP POP SWAP3 SWAP2 POP POP JUMP JUMPDEST PUSH0 DUP2 MLOAD SWAP1 POP SWAP2 SWAP1 POP JUMP JUMPDEST PUSH0 DUP3 DUP3 MSTORE PUSH1 0x20 DUP3 ADD SWAP1 POP SWAP3 SWAP2 POP POP JUMP JUMPDEST PUSH0 JUMPDEST DUP4 DUP2 LT ISZERO PUSH3 0x1587 JUMPI DUP1 DUP3 ADD MLOAD DUP2 DUP5 ADD MSTORE PUSH1 0x20 DUP2 ADD SWAP1 POP PUSH3 0x156A JUMP JUMPDEST PUSH0 DUP5 DUP5 ADD MSTORE POP POP POP POP JUMP JUMPDEST PUSH0 PUSH1 0x1F NOT PUSH1 0x1F DUP4 ADD AND SWAP1 POP SWAP2 SWAP1 POP JUMP JUMPDEST PUSH0 PUSH3 0x15AE DUP3 PUSH3 0x154E JUMP JUMPDEST PUSH3 0x15BA DUP2 DUP6 PUSH3 0x1558 JUMP JUMPDEST SWAP4 POP PUSH3 0x15CC DUP2 DUP6 PUSH1 0x20 DUP7 ADD PUSH3 0x1568 JUMP JUMPDEST PUSH3 0x15D7 DUP2 PUSH3 0x1592 JUMP JUMPDEST DUP5 ADD SWAP2 POP POP SWAP3 SWAP2 POP POP JUMP JUMPDEST PUSH0 PUSH20 0xFFFFFFFFFFFFFFFFFFFFFFFFFFFFFFFFFFFFFFFF DUP3 AND SWAP1 POP SWAP2 SWAP1 POP JUMP JUMPDEST PUSH0 PUSH3 0x160D DUP3 PUSH3 0x15E2 JUMP JUMPDEST SWAP1 POP SWAP2 SWAP1 POP JUMP JUMPDEST PUSH3 0x161F DUP2 PUSH3 0x1601 JUMP JUMPDEST DUP3 MSTORE POP POP JUMP JUMPDEST PUSH3 0x1630 DUP2 PUSH3 0x14E6 JUMP JUMPDEST DUP3 MSTORE POP POP JUMP JUMPDEST PUSH0 DUP2 ISZERO ISZERO SWAP1 POP SWAP2 SWAP1 POP JUMP JUMPDEST PUSH3 0x164C DUP2 PUSH3 0x1636 JUMP JUMPDEST DUP3 MSTORE POP POP JUMP JUMPDEST PUSH32 0x4E487B7100000000000000000000000000000000000000000000000000000000 PUSH0 MSTORE PUSH1 0x21 PUSH1 0x4 MSTORE PUSH1 0x24 PUSH0 REVERT JUMPDEST PUSH1 0x2 DUP2 LT PUSH3 0x1693 JUMPI PUSH3 0x1692 PUSH3 0x1652 JUMP JUMPDEST JUMPDEST POP JUMP JUMPDEST PUSH0 DUP2 SWAP1 POP PUSH3 0x16A5 DUP3 PUSH3 0x167F JUMP JUMPDEST SWAP2 SWAP1 POP JUMP JUMPDEST PUSH0 PUSH3 0x16B6 DUP3 PUSH3 0x1696 JUMP JUMPDEST SWAP1 POP SWAP2 SWAP1 POP JUMP JUMPDEST PUSH3 0x16C8 DUP2 PUSH3 0x16AA JUMP JUMPDEST DUP3 MSTORE POP POP JUMP JUMPDEST PUSH0 PUSH1 0xA0 DUP3 ADD SWAP1 POP DUP2 DUP2 SUB PUSH0 DUP4 ADD MSTORE PUSH3 0x16E8 DUP2 DUP9 PUSH3 0x15A2 JUMP JUMPDEST SWAP1 POP PUSH3 0x16F9 PUSH1 0x20 DUP4 ADD DUP8 PUSH3 0x1614 JUMP JUMPDEST PUSH3 0x1708 PUSH1 0x40 DUP4 ADD DUP7 PUSH3 0x1625 JUMP JUMPDEST PUSH3 0x1717 PUSH1 0x60 DUP4 ADD DUP6 PUSH3 0x1641 JUMP JUMPDEST PUSH3 0x1726 PUSH1 0x80 DUP4 ADD DUP5 PUSH3 0x16BD JUMP JUMPDEST SWAP7 SWAP6 POP POP POP POP POP POP JUMP JUMPDEST PUSH0 PUSH1 0x20 DUP3 ADD SWAP1 POP PUSH3 0x1745 PUSH0 DUP4 ADD DUP5 PUSH3 0x1625 JUMP JUMPDEST SWAP3 SWAP2 POP POP JUMP JUMPDEST PUSH3 0x1756 DUP2 PUSH3 0x1601 JUMP JUMPDEST DUP2 EQ PUSH3 0x1761 JUMPI PUSH0 DUP1 REVERT JUMPDEST POP JUMP JUMPDEST PUSH0 DUP2 CALLDATALOAD SWAP1 POP PUSH3 0x1774 DUP2 PUSH3 0x174B JUMP JUMPDEST SWAP3 SWAP2 POP POP JUMP JUMPDEST PUSH0 PUSH1 0x20 DUP3 DUP5 SUB SLT ISZERO PUSH3 0x1792 JUMPI PUSH3 0x1791 PUSH3 0x14DE JUMP JUMPDEST JUMPDEST PUSH0 PUSH3 0x17A1 DUP5 DUP3 DUP6 ADD PUSH3 0x1764 JUMP JUMPDEST SWAP2 POP POP SWAP3 SWAP2 POP POP JUMP JUMPDEST PUSH0 DUP2 SWAP1 POP SWAP2 SWAP1 POP JUMP JUMPDEST PUSH0 PUSH3 0x17D3 PUSH3 0x17CD PUSH3 0x17C7 DUP5 PUSH3 0x15E2 JUMP JUMPDEST PUSH3 0x17AA JUMP JUMPDEST PUSH3 0x15E2 JUMP JUMPDEST SWAP1 POP SWAP2 SWAP1 POP JUMP JUMPDEST PUSH0 PUSH3 0x17E6 DUP3 PUSH3 0x17B3 JUMP JUMPDEST SWAP1 POP SWAP2 SWAP1 POP JUMP JUMPDEST PUSH0 PUSH3 0x17F9 DUP3 PUSH3 0x17DA JUMP JUMPDEST SWAP1 POP SWAP2 SWAP1 POP JUMP JUMPDEST PUSH3 0x180B DUP2 PUSH3 0x17ED JUMP JUMPDEST DUP3 MSTORE POP POP JUMP JUMPDEST PUSH0 PUSH1 0x20 DUP3 ADD SWAP1 POP PUSH3 0x1826 PUSH0 DUP4 ADD DUP5 PUSH3 0x1800 JUMP JUMPDEST SWAP3 SWAP2 POP POP JUMP JUMPDEST PUSH0 PUSH1 0x20 DUP3 ADD SWAP1 POP PUSH3 0x1841 PUSH0 DUP4 ADD DUP5 PUSH3 0x1641 JUMP JUMPDEST SWAP3 SWAP2 POP POP JUMP JUMPDEST PUSH0 PUSH1 0x20 DUP3 ADD SWAP1 POP PUSH3 0x185C PUSH0 DUP4 ADD DUP5 PUSH3 0x1614 JUMP JUMPDEST SWAP3 SWAP2 POP POP JUMP JUMPDEST PUSH0 DUP1 REVERT JUMPDEST PUSH0 DUP1 REVERT JUMPDEST PUSH32 0x4E487B7100000000000000000000000000000000000000000000000000000000 PUSH0 MSTORE PUSH1 0x41 PUSH1 0x4 MSTORE PUSH1 0x24 PUSH0 REVERT JUMPDEST PUSH3 0x18A2 DUP3 PUSH3 0x1592 JUMP JUMPDEST DUP2 ADD DUP2 DUP2 LT PUSH8 0xFFFFFFFFFFFFFFFF DUP3 GT OR ISZERO PUSH3 0x18C4 JUMPI PUSH3 0x18C3 PUSH3 0x186A JUMP JUMPDEST JUMPDEST DUP1 PUSH1 0x40 MSTORE POP POP POP JUMP JUMPDEST PUSH0 PUSH3 0x18D8 PUSH3 0x14D5 JUMP JUMPDEST SWAP1 POP PUSH3 0x18E6 DUP3 DUP3 PUSH3 0x1897 JUMP JUMPDEST SWAP2 SWAP1 POP JUMP JUMPDEST PUSH0 PUSH8 0xFFFFFFFFFFFFFFFF DUP3 GT ISZERO PUSH3 0x1908 JUMPI PUSH3 0x1907 PUSH3 0x186A JUMP JUMPDEST JUMPDEST PUSH3 0x1913 DUP3 PUSH3 0x1592 JUMP JUMPDEST SWAP1 POP PUSH1 0x20 DUP2 ADD SWAP1 POP SWAP2 SWAP1 POP JUMP JUMPDEST DUP3 DUP2 DUP4 CALLDATACOPY PUSH0 DUP4 DUP4 ADD MSTORE POP POP POP JUMP JUMPDEST PUSH0 PUSH3 0x1944 PUSH3 0x193E DUP5 PUSH3 0x18EB JUMP JUMPDEST PUSH3 0x18CD JUMP JUMPDEST SWAP1 POP DUP3 DUP2 MSTORE PUSH1 0x20 DUP2 ADD DUP5 DUP5 DUP5 ADD GT ISZERO PUSH3 0x1963 JUMPI PUSH3 0x1962 PUSH3 0x1866 JUMP JUMPDEST JUMPDEST PUSH3 0x1970 DUP5 DUP3 DUP6 PUSH3 0x1920 JUMP JUMPDEST POP SWAP4 SWAP3 POP POP POP JUMP JUMPDEST PUSH0 DUP3 PUSH1 0x1F DUP4 ADD SLT PUSH3 0x198F JUMPI PUSH3 0x198E PUSH3 0x1862 JUMP JUMPDEST JUMPDEST DUP2 CALLDATALOAD PUSH3 0x19A1 DUP5 DUP3 PUSH1 0x20 DUP7 ADD PUSH3 0x192E JUMP JUMPDEST SWAP2 POP POP SWAP3 SWAP2 POP POP JUMP JUMPDEST PUSH0 DUP1 PUSH1 0x40 DUP4 DUP6 SUB SLT ISZERO PUSH3 0x19C3 JUMPI PUSH3 0x19C2 PUSH3 0x14DE JUMP JUMPDEST JUMPDEST PUSH0 DUP4 ADD CALLDATALOAD PUSH8 0xFFFFFFFFFFFFFFFF DUP2 GT ISZERO PUSH3 0x19E3 JUMPI PUSH3 0x19E2 PUSH3 0x14E2 JUMP JUMPDEST JUMPDEST PUSH3 0x19F1 DUP6 DUP3 DUP7 ADD PUSH3 0x1978 JUMP JUMPDEST SWAP3 POP POP PUSH1 0x20 PUSH3 0x1A04 DUP6 DUP3 DUP7 ADD PUSH3 0x1508 JUMP JUMPDEST SWAP2 POP POP SWAP3 POP SWAP3 SWAP1 POP JUMP JUMPDEST PUSH32 0x4E6F742061206D656D626572206F66204B61726E612070726F6A656374000000 PUSH0 DUP3 ADD MSTORE POP JUMP JUMPDEST PUSH0 PUSH3 0x1A44 PUSH1 0x1D DUP4 PUSH3 0x1558 JUMP JUMPDEST SWAP2 POP PUSH3 0x1A51 DUP3 PUSH3 0x1A0E JUMP JUMPDEST PUSH1 0x20 DUP3 ADD SWAP1 POP SWAP2 SWAP1 POP JUMP JUMPDEST PUSH0 PUSH1 0x20 DUP3 ADD SWAP1 POP DUP2 DUP2 SUB PUSH0 DUP4 ADD MSTORE PUSH3 0x1A75 DUP2 PUSH3 0x1A36 JUMP JUMPDEST SWAP1 POP SWAP2 SWAP1 POP JUMP JUMPDEST PUSH32 0x496E76616C69642070726F706F73616C20696E64657800000000000000000000 PUSH0 DUP3 ADD MSTORE POP JUMP JUMPDEST PUSH0 PUSH3 0x1AB2 PUSH1 0x16 DUP4 PUSH3 0x1558 JUMP JUMPDEST SWAP2 POP PUSH3 0x1ABF DUP3 PUSH3 0x1A7C JUMP JUMPDEST PUSH1 0x20 DUP3 ADD SWAP1 POP SWAP2 SWAP1 POP JUMP JUMPDEST PUSH0 PUSH1 0x20 DUP3 ADD SWAP1 POP DUP2 DUP2 SUB PUSH0 DUP4 ADD MSTORE PUSH3 0x1AE3 DUP2 PUSH3 0x1AA4 JUMP JUMPDEST SWAP1 POP SWAP2 SWAP1 POP JUMP JUMPDEST PUSH32 0x50726F706F73616C20616C726561647920657865637574656400000000000000 PUSH0 DUP3 ADD MSTORE POP JUMP JUMPDEST PUSH0 PUSH3 0x1B20 PUSH1 0x19 DUP4 PUSH3 0x1558 JUMP JUMPDEST SWAP2 POP PUSH3 0x1B2D DUP3 PUSH3 0x1AEA JUMP JUMPDEST PUSH1 0x20 DUP3 ADD SWAP1 POP SWAP2 SWAP1 POP JUMP JUMPDEST PUSH0 PUSH1 0x20 DUP3 ADD SWAP1 POP DUP2 DUP2 SUB PUSH0 DUP4 ADD MSTORE PUSH3 0x1B51 DUP2 PUSH3 0x1B12 JUMP JUMPDEST SWAP1 POP SWAP2 SWAP1 POP JUMP JUMPDEST PUSH32 0x4E487B7100000000000000000000000000000000000000000000000000000000 PUSH0 MSTORE PUSH1 0x32 PUSH1 0x4 MSTORE PUSH1 0x24 PUSH0 REVERT JUMPDEST PUSH32 0x416C726561647920766F74656400000000000000000000000000000000000000 PUSH0 DUP3 ADD MSTORE POP JUMP JUMPDEST PUSH0 PUSH3 0x1BBB PUSH1 0xD DUP4 PUSH3 0x1558 JUMP JUMPDEST SWAP2 POP PUSH3 0x1BC8 DUP3 PUSH3 0x1B85 JUMP JUMPDEST PUSH1 0x20 DUP3 ADD SWAP1 POP SWAP2 SWAP1 POP JUMP JUMPDEST PUSH0 PUSH1 0x20 DUP3 ADD SWAP1 POP DUP2 DUP2 SUB PUSH0 DUP4 ADD MSTORE PUSH3 0x1BEC DUP2 PUSH3 0x1BAD JUMP JUMPDEST SWAP1 POP SWAP2 SWAP1 POP JUMP JUMPDEST PUSH32 0x4E487B7100000000000000000000000000000000000000000000000000000000 PUSH0 MSTORE PUSH1 0x11 PUSH1 0x4 MSTORE PUSH1 0x24 PUSH0 REVERT JUMPDEST PUSH0 PUSH3 0x1C2C DUP3 PUSH3 0x14E6 JUMP JUMPDEST SWAP2 POP PUSH3 0x1C39 DUP4 PUSH3 0x14E6 JUMP JUMPDEST SWAP3 POP DUP3 DUP3 MUL PUSH3 0x1C49 DUP2 PUSH3 0x14E6 JUMP JUMPDEST SWAP2 POP DUP3 DUP3 DIV DUP5 EQ DUP4 ISZERO OR PUSH3 0x1C63 JUMPI PUSH3 0x1C62 PUSH3 0x1BF3 JUMP JUMPDEST JUMPDEST POP SWAP3 SWAP2 POP POP JUMP JUMPDEST PUSH32 0x4E487B7100000000000000000000000000000000000000000000000000000000 PUSH0 MSTORE PUSH1 0x12 PUSH1 0x4 MSTORE PUSH1 0x24 PUSH0 REVERT JUMPDEST PUSH0 PUSH3 0x1CA3 DUP3 PUSH3 0x14E6 JUMP JUMPDEST SWAP2 POP PUSH3 0x1CB0 DUP4 PUSH3 0x14E6 JUMP JUMPDEST SWAP3 POP DUP3 PUSH3 0x1CC3 JUMPI PUSH3 0x1CC2 PUSH3 0x1C6A JUMP JUMPDEST JUMPDEST DUP3 DUP3 DIV SWAP1 POP SWAP3 SWAP2 POP POP JUMP JUMPDEST PUSH0 PUSH3 0x1CDA DUP3 PUSH3 0x14E6 JUMP JUMPDEST SWAP2 POP PUSH32 0xFFFFFFFFFFFFFFFFFFFFFFFFFFFFFFFFFFFFFFFFFFFFFFFFFFFFFFFFFFFFFFFF DUP3 SUB PUSH3 0x1D0F JUMPI PUSH3 0x1D0E PUSH3 0x1BF3 JUMP JUMPDEST JUMPDEST PUSH1 0x1 DUP3 ADD SWAP1 POP SWAP2 SWAP1 POP JUMP JUMPDEST PUSH32 0x4E487B7100000000000000000000000000000000000000000000000000000000 PUSH0 MSTORE PUSH1 0x22 PUSH1 0x4 MSTORE PUSH1 0x24 PUSH0 REVERT JUMPDEST PUSH0 PUSH1 0x2 DUP3 DIV SWAP1 POP PUSH1 0x1 DUP3 AND DUP1 PUSH3 0x1D5F JUMPI PUSH1 0x7F DUP3 AND SWAP2 POP JUMPDEST PUSH1 0x20 DUP3 LT DUP2 SUB PUSH3 0x1D75 JUMPI PUSH3 0x1D74 PUSH3 0x1D1A JUMP JUMPDEST JUMPDEST POP SWAP2 SWAP1 POP JUMP JUMPDEST PUSH0 DUP2 SWAP1 POP DUP2 PUSH0 MSTORE PUSH1 0x20 PUSH0 KECCAK256 SWAP1 POP SWAP2 SWAP1 POP JUMP JUMPDEST PUSH0 DUP2 SLOAD PUSH3 0x1D9B DUP2 PUSH3 0x1D47 JUMP JUMPDEST PUSH3 0x1DA7 DUP2 DUP7 PUSH3 0x1558 JUMP JUMPDEST SWAP5 POP PUSH1 0x1 DUP3 AND PUSH0 DUP2 EQ PUSH3 0x1DC4 JUMPI PUSH1 0x1 DUP2 EQ PUSH3 0x1DDB JUMPI PUSH3 0x1E11 JUMP JUMPDEST PUSH1 0xFF NOT DUP4 AND DUP7 MSTORE DUP2 ISZERO ISZERO PUSH1 0x20 MUL DUP7 ADD SWAP4 POP PUSH3 0x1E11 JUMP JUMPDEST PUSH3 0x1DE6 DUP6 PUSH3 0x1D7B JUMP JUMPDEST PUSH0 JUMPDEST DUP4 DUP2 LT ISZERO PUSH3 0x1E09 JUMPI DUP2 SLOAD DUP2 DUP10 ADD MSTORE PUSH1 0x1 DUP3 ADD SWAP2 POP PUSH1 0x20 DUP2 ADD SWAP1 POP PUSH3 0x1DE8 JUMP JUMPDEST DUP1 DUP9 ADD SWAP6 POP POP POP JUMPDEST POP POP POP SWAP3 SWAP2 POP POP JUMP JUMPDEST PUSH0 PUSH1 0x60 DUP3 ADD SWAP1 POP DUP2 DUP2 SUB PUSH0 DUP4 ADD MSTORE PUSH3 0x1E34 DUP2 DUP7 PUSH3 0x1D8D JUMP JUMPDEST SWAP1 POP PUSH3 0x1E45 PUSH1 0x20 DUP4 ADD DUP6 PUSH3 0x1614 JUMP JUMPDEST PUSH3 0x1E54 PUSH1 0x40 DUP4 ADD DUP5 PUSH3 0x1625 JUMP JUMPDEST SWAP5 SWAP4 POP POP POP POP JUMP JUMPDEST PUSH0 PUSH1 0x40 DUP3 ADD SWAP1 POP PUSH3 0x1E71 PUSH0 DUP4 ADD DUP6 PUSH3 0x1625 JUMP JUMPDEST PUSH3 0x1E80 PUSH1 0x20 DUP4 ADD DUP5 PUSH3 0x1614 JUMP JUMPDEST SWAP4 SWAP3 POP POP POP JUMP JUMPDEST PUSH32 0x496E73756666696369656E742066756E647320746F2065786563757465207468 PUSH0 DUP3 ADD MSTORE PUSH32 0x652070726F706F73616C2E000000000000000000000000000000000000000000 PUSH1 0x20 DUP3 ADD MSTORE POP JUMP JUMPDEST PUSH0 PUSH3 0x1EE3 PUSH1 0x2B DUP4 PUSH3 0x1558 JUMP JUMPDEST SWAP2 POP PUSH3 0x1EF0 DUP3 PUSH3 0x1E87 JUMP JUMPDEST PUSH1 0x40 DUP3 ADD SWAP1 POP SWAP2 SWAP1 POP JUMP JUMPDEST PUSH0 PUSH1 0x20 DUP3 ADD SWAP1 POP DUP2 DUP2 SUB PUSH0 DUP4 ADD MSTORE PUSH3 0x1F14 DUP2 PUSH3 0x1ED5 JUMP JUMPDEST SWAP1 POP SWAP2 SWAP1 POP JUMP JUMPDEST PUSH32 0x4661696C656420746F207472616E736665722066756E6473206469726563746C PUSH0 DUP3 ADD MSTORE PUSH32 0x7920746F2070726F706F7365722E000000000000000000000000000000000000 PUSH1 0x20 DUP3 ADD MSTORE POP JUMP JUMPDEST PUSH0 PUSH3 0x1F77 PUSH1 0x2E DUP4 PUSH3 0x1558 JUMP JUMPDEST SWAP2 POP PUSH3 0x1F84 DUP3 PUSH3 0x1F1B JUMP JUMPDEST PUSH1 0x40 DUP3 ADD SWAP1 POP SWAP2 SWAP1 POP JUMP JUMPDEST PUSH0 PUSH1 0x20 DUP3 ADD SWAP1 POP DUP2 DUP2 SUB PUSH0 DUP4 ADD MSTORE PUSH3 0x1FA8 DUP2 PUSH3 0x1F69 JUMP JUMPDEST SWAP1 POP SWAP2 SWAP1 POP JUMP JUMPDEST PUSH0 PUSH3 0x1FBB DUP3 PUSH3 0x14E6 JUMP JUMPDEST SWAP2 POP PUSH3 0x1FC8 DUP4 PUSH3 0x14E6 JUMP JUMPDEST SWAP3 POP DUP3 DUP3 SUB SWAP1 POP DUP2 DUP2 GT ISZERO PUSH3 0x1FE3 JUMPI PUSH3 0x1FE2 PUSH3 0x1BF3 JUMP JUMPDEST JUMPDEST SWAP3 SWAP2 POP POP JUMP JUMPDEST PUSH32 0x4E487B7100000000000000000000000000000000000000000000000000000000 PUSH0 MSTORE PUSH1 0x31 PUSH1 0x4 MSTORE PUSH1 0x24 PUSH0 REVERT JUMPDEST PUSH0 PUSH1 0x20 PUSH1 0x1F DUP4 ADD DIV SWAP1 POP SWAP2 SWAP1 POP JUMP JUMPDEST PUSH0 DUP3 DUP3 SHL SWAP1 POP SWAP3 SWAP2 POP POP JUMP JUMPDEST PUSH0 PUSH1 0x8 DUP4 MUL PUSH3 0x2062 PUSH32 0xFFFFFFFFFFFFFFFFFFFFFFFFFFFFFFFFFFFFFFFFFFFFFFFFFFFFFFFFFFFFFFFF DUP3 PUSH3 0x2025 JUMP JUMPDEST PUSH3 0x206E DUP7 DUP4 PUSH3 0x2025 JUMP JUMPDEST SWAP6 POP DUP1 NOT DUP5 AND SWAP4 POP DUP1 DUP7 AND DUP5 OR SWAP3 POP POP POP SWAP4 SWAP3 POP POP POP JUMP JUMPDEST PUSH0 PUSH3 0x20A6 PUSH3 0x20A0 PUSH3 0x209A DUP5 PUSH3 0x14E6 JUMP JUMPDEST PUSH3 0x17AA JUMP JUMPDEST PUSH3 0x14E6 JUMP JUMPDEST SWAP1 POP SWAP2 SWAP1 POP JUMP JUMPDEST PUSH0 DUP2 SWAP1 POP SWAP2 SWAP1 POP JUMP JUMPDEST PUSH3 0x20C1 DUP4 PUSH3 0x2086 JUMP JUMPDEST PUSH3 0x20D9 PUSH3 0x20D0 DUP3 PUSH3 0x20AD JUMP JUMPDEST DUP5 DUP5 SLOAD PUSH3 0x2031 JUMP JUMPDEST DUP3 SSTORE POP POP POP POP JUMP JUMPDEST PUSH0 SWAP1 JUMP JUMPDEST PUSH3 0x20EF PUSH3 0x20E1 JUMP JUMPDEST PUSH3 0x20FC DUP2 DUP5 DUP5 PUSH3 0x20B6 JUMP JUMPDEST POP POP POP JUMP JUMPDEST JUMPDEST DUP2 DUP2 LT ISZERO PUSH3 0x2123 JUMPI PUSH3 0x2117 PUSH0 DUP3 PUSH3 0x20E5 JUMP JUMPDEST PUSH1 0x1 DUP2 ADD SWAP1 POP PUSH3 0x2102 JUMP JUMPDEST POP POP JUMP JUMPDEST PUSH1 0x1F DUP3 GT ISZERO PUSH3 0x2172 JUMPI PUSH3 0x213C DUP2 PUSH3 0x1D7B JUMP JUMPDEST PUSH3 0x2147 DUP5 PUSH3 0x2016 JUMP JUMPDEST DUP2 ADD PUSH1 0x20 DUP6 LT ISZERO PUSH3 0x2157 JUMPI DUP2 SWAP1 POP JUMPDEST PUSH3 0x216F PUSH3 0x2166 DUP6 PUSH3 0x2016 JUMP JUMPDEST DUP4 ADD DUP3 PUSH3 0x2101 JUMP JUMPDEST POP POP JUMPDEST POP POP POP JUMP JUMPDEST PUSH0 DUP3 DUP3 SHR SWAP1 POP SWAP3 SWAP2 POP POP JUMP JUMPDEST PUSH0 PUSH3 0x2194 PUSH0 NOT DUP5 PUSH1 0x8 MUL PUSH3 0x2177 JUMP JUMPDEST NOT DUP1 DUP4 AND SWAP2 POP POP SWAP3 SWAP2 POP POP JUMP JUMPDEST PUSH0 PUSH3 0x21AE DUP4 DUP4 PUSH3 0x2183 JUMP JUMPDEST SWAP2 POP DUP3 PUSH1 0x2 MUL DUP3 OR SWAP1 POP SWAP3 SWAP2 POP POP JUMP JUMPDEST PUSH3 0x21C9 DUP3 PUSH3 0x154E JUMP JUMPDEST PUSH8 0xFFFFFFFFFFFFFFFF DUP2 GT ISZERO PUSH3 0x21E5 JUMPI PUSH3 0x21E4 PUSH3 0x186A JUMP JUMPDEST JUMPDEST PUSH3 0x21F1 DUP3 SLOAD PUSH3 0x1D47 JUMP JUMPDEST PUSH3 0x21FE DUP3 DUP3 DUP6 PUSH3 0x2127 JUMP JUMPDEST PUSH0 PUSH1 0x20 SWAP1 POP PUSH1 0x1F DUP4 GT PUSH1 0x1 DUP2 EQ PUSH3 0x2234 JUMPI PUSH0 DUP5 ISZERO PUSH3 0x221F JUMPI DUP3 DUP8 ADD MLOAD SWAP1 POP JUMPDEST PUSH3 0x222B DUP6 DUP3 PUSH3 0x21A1 JUMP JUMPDEST DUP7 SSTORE POP PUSH3 0x229A JUMP JUMPDEST PUSH1 0x1F NOT DUP5 AND PUSH3 0x2244 DUP7 PUSH3 0x1D7B JUMP JUMPDEST PUSH0 JUMPDEST DUP3 DUP2 LT ISZERO PUSH3 0x226D JUMPI DUP5 DUP10 ADD MLOAD DUP3 SSTORE PUSH1 0x1 DUP3 ADD SWAP2 POP PUSH1 0x20 DUP6 ADD SWAP5 POP PUSH1 0x20 DUP2 ADD SWAP1 POP PUSH3 0x2246 JUMP JUMPDEST DUP7 DUP4 LT ISZERO PUSH3 0x228D JUMPI DUP5 DUP10 ADD MLOAD PUSH3 0x2289 PUSH1 0x1F DUP10 AND DUP3 PUSH3 0x2183 JUMP JUMPDEST DUP4 SSTORE POP JUMPDEST PUSH1 0x1 PUSH1 0x2 DUP9 MUL ADD DUP9 SSTORE POP POP POP JUMPDEST POP POP POP POP POP POP JUMP JUMPDEST PUSH32 0x53656E742076616C7565206D7573742062652067726561746572207468616E20 PUSH0 DUP3 ADD MSTORE PUSH32 0x3000000000000000000000000000000000000000000000000000000000000000 PUSH1 0x20 DUP3 ADD MSTORE POP JUMP JUMPDEST PUSH0 PUSH3 0x22FE PUSH1 0x21 DUP4 PUSH3 0x1558 JUMP JUMPDEST SWAP2 POP PUSH3 0x230B DUP3 PUSH3 0x22A2 JUMP JUMPDEST PUSH1 0x40 DUP3 ADD SWAP1 POP SWAP2 SWAP1 POP JUMP JUMPDEST PUSH0 PUSH1 0x20 DUP3 ADD SWAP1 POP DUP2 DUP2 SUB PUSH0 DUP4 ADD MSTORE PUSH3 0x232F DUP2 PUSH3 0x22F0 JUMP JUMPDEST SWAP1 POP SWAP2 SWAP1 POP JUMP JUMPDEST PUSH32 0x4B61726E612070726F6A6563742068617320696E73756666696369656E742066 PUSH0 DUP3 ADD MSTORE PUSH32 0x756E64732E000000000000000000000000000000000000000000000000000000 PUSH1 0x20 DUP3 ADD MSTORE POP JUMP JUMPDEST PUSH0 PUSH3 0x2392 PUSH1 0x25 DUP4 PUSH3 0x1558 JUMP JUMPDEST SWAP2 POP PUSH3 0x239F DUP3 PUSH3 0x2336 JUMP JUMPDEST PUSH1 0x40 DUP3 ADD SWAP1 POP SWAP2 SWAP1 POP JUMP JUMPDEST PUSH0 PUSH1 0x20 DUP3 ADD SWAP1 POP DUP2 DUP2 SUB PUSH0 DUP4 ADD MSTORE PUSH3 0x23C3 DUP2 PUSH3 0x2384 JUMP JUMPDEST SWAP1 POP SWAP2 SWAP1 POP JUMP JUMPDEST PUSH32 0x546865206D656D62657220697320616C72656164792070617274206F66204B61 PUSH0 DUP3 ADD MSTORE PUSH32 0x726E612070726F6A656374000000000000000000000000000000000000000000 PUSH1 0x20 DUP3 ADD MSTORE POP JUMP JUMPDEST PUSH0 PUSH3 0x2426 PUSH1 0x2B DUP4 PUSH3 0x1558 JUMP JUMPDEST SWAP2 POP PUSH3 0x2433 DUP3 PUSH3 0x23CA JUMP JUMPDEST PUSH1 0x40 DUP3 ADD SWAP1 POP SWAP2 SWAP1 POP JUMP JUMPDEST PUSH0 PUSH1 0x20 DUP3 ADD SWAP1 POP DUP2 DUP2 SUB PUSH0 DUP4 ADD MSTORE PUSH3 0x2457 DUP2 PUSH3 0x2418 JUMP JUMPDEST SWAP1 POP SWAP2 SWAP1 POP JUMP INVALID PUSH1 0x80 PUSH1 0x40 MSTORE PUSH0 PUSH1 0x3 SSTORE CALLVALUE DUP1 ISZERO PUSH3 0x14 JUMPI PUSH0 DUP1 REVERT JUMPDEST POP PUSH1 0x40 MLOAD PUSH3 0x102A CODESIZE SUB DUP1 PUSH3 0x102A DUP4 CODECOPY DUP2 DUP2 ADD PUSH1 0x40 MSTORE DUP2 ADD SWAP1 PUSH3 0x3A SWAP2 SWAP1 PUSH3 0x2E5 JUMP JUMPDEST DUP3 PUSH0 SWAP1 DUP2 PUSH3 0x4A SWAP2 SWAP1 PUSH3 0x58B JUMP JUMPDEST POP DUP2 PUSH1 0x1 PUSH0 PUSH2 0x100 EXP DUP2 SLOAD DUP2 PUSH20 0xFFFFFFFFFFFFFFFFFFFFFFFFFFFFFFFFFFFFFFFF MUL NOT AND SWAP1 DUP4 PUSH20 0xFFFFFFFFFFFFFFFFFFFFFFFFFFFFFFFFFFFFFFFF AND MUL OR SWAP1 SSTORE POP DUP1 PUSH1 0x2 DUP2 SWAP1 SSTORE POP PUSH0 PUSH1 0x4 PUSH0 PUSH2 0x100 EXP DUP2 SLOAD DUP2 PUSH1 0xFF MUL NOT AND SWAP1 DUP4 PUSH1 0x2 DUP2 GT ISZERO PUSH3 0xB9 JUMPI PUSH3 0xB8 PUSH3 0x66F JUMP JUMPDEST JUMPDEST MUL OR SWAP1 SSTORE POP POP POP POP PUSH3 0x69C JUMP JUMPDEST PUSH0 PUSH1 0x40 MLOAD SWAP1 POP SWAP1 JUMP JUMPDEST PUSH0 DUP1 REVERT JUMPDEST PUSH0 DUP1 REVERT JUMPDEST PUSH0 DUP1 REVERT JUMPDEST PUSH0 DUP1 REVERT JUMPDEST PUSH0 PUSH1 0x1F NOT PUSH1 0x1F DUP4 ADD AND SWAP1 POP SWAP2 SWAP1 POP JUMP JUMPDEST PUSH32 0x4E487B7100000000000000000000000000000000000000000000000000000000 PUSH0 MSTORE PUSH1 0x41 PUSH1 0x4 MSTORE PUSH1 0x24 PUSH0 REVERT JUMPDEST PUSH3 0x128 DUP3 PUSH3 0xE0 JUMP JUMPDEST DUP2 ADD DUP2 DUP2 LT PUSH8 0xFFFFFFFFFFFFFFFF DUP3 GT OR ISZERO PUSH3 0x14A JUMPI PUSH3 0x149 PUSH3 0xF0 JUMP JUMPDEST JUMPDEST DUP1 PUSH1 0x40 MSTORE POP POP POP JUMP JUMPDEST PUSH0 PUSH3 0x15E PUSH3 0xC7 JUMP JUMPDEST SWAP1 POP PUSH3 0x16C DUP3 DUP3 PUSH3 0x11D JUMP JUMPDEST SWAP2 SWAP1 POP JUMP JUMPDEST PUSH0 PUSH8 0xFFFFFFFFFFFFFFFF DUP3 GT ISZERO PUSH3 0x18E JUMPI PUSH3 0x18D PUSH3 0xF0 JUMP JUMPDEST JUMPDEST PUSH3 0x199 DUP3 PUSH3 0xE0 JUMP JUMPDEST SWAP1 POP PUSH1 0x20 DUP2 ADD SWAP1 POP SWAP2 SWAP1 POP JUMP JUMPDEST PUSH0 JUMPDEST DUP4 DUP2 LT ISZERO PUSH3 0x1C5 JUMPI DUP1 DUP3 ADD MLOAD DUP2 DUP5 ADD MSTORE PUSH1 0x20 DUP2 ADD SWAP1 POP PUSH3 0x1A8 JUMP JUMPDEST PUSH0 DUP5 DUP5 ADD MSTORE POP POP POP POP JUMP JUMPDEST PUSH0 PUSH3 0x1E6 PUSH3 0x1E0 DUP5 PUSH3 0x171 JUMP JUMPDEST PUSH3 0x153 JUMP JUMPDEST SWAP1 POP DUP3 DUP2 MSTORE PUSH1 0x20 DUP2 ADD DUP5 DUP5 DUP5 ADD GT ISZERO PUSH3 0x205 JUMPI PUSH3 0x204 PUSH3 0xDC JUMP JUMPDEST JUMPDEST PUSH3 0x212 DUP5 DUP3 DUP6 PUSH3 0x1A6 JUMP JUMPDEST POP SWAP4 SWAP3 POP POP POP JUMP JUMPDEST PUSH0 DUP3 PUSH1 0x1F DUP4 ADD SLT PUSH3 0x231 JUMPI PUSH3 0x230 PUSH3 0xD8 JUMP JUMPDEST JUMPDEST DUP2 MLOAD PUSH3 0x243 DUP5 DUP3 PUSH1 0x20 DUP7 ADD PUSH3 0x1D0 JUMP JUMPDEST SWAP2 POP POP SWAP3 SWAP2 POP POP JUMP JUMPDEST PUSH0 PUSH20 0xFFFFFFFFFFFFFFFFFFFFFFFFFFFFFFFFFFFFFFFF DUP3 AND SWAP1 POP SWAP2 SWAP1 POP JUMP JUMPDEST PUSH0 PUSH3 0x277 DUP3 PUSH3 0x24C JUMP JUMPDEST SWAP1 POP SWAP2 SWAP1 POP JUMP JUMPDEST PUSH3 0x289 DUP2 PUSH3 0x26B JUMP JUMPDEST DUP2 EQ PUSH3 0x294 JUMPI PUSH0 DUP1 REVERT JUMPDEST POP JUMP JUMPDEST PUSH0 DUP2 MLOAD SWAP1 POP PUSH3 0x2A7 DUP2 PUSH3 0x27E JUMP JUMPDEST SWAP3 SWAP2 POP POP JUMP JUMPDEST PUSH0 DUP2 SWAP1 POP SWAP2 SWAP1 POP JUMP JUMPDEST PUSH3 0x2C1 DUP2 PUSH3 0x2AD JUMP JUMPDEST DUP2 EQ PUSH3 0x2CC JUMPI PUSH0 DUP1 REVERT JUMPDEST POP JUMP JUMPDEST PUSH0 DUP2 MLOAD SWAP1 POP PUSH3 0x2DF DUP2 PUSH3 0x2B6 JUMP JUMPDEST SWAP3 SWAP2 POP POP JUMP JUMPDEST PUSH0 DUP1 PUSH0 PUSH1 0x60 DUP5 DUP7 SUB SLT ISZERO PUSH3 0x2FF JUMPI PUSH3 0x2FE PUSH3 0xD0 JUMP JUMPDEST JUMPDEST PUSH0 DUP5 ADD MLOAD PUSH8 0xFFFFFFFFFFFFFFFF DUP2 GT ISZERO PUSH3 0x31F JUMPI PUSH3 0x31E PUSH3 0xD4 JUMP JUMPDEST JUMPDEST PUSH3 0x32D DUP7 DUP3 DUP8 ADD PUSH3 0x21A JUMP JUMPDEST SWAP4 POP POP PUSH1 0x20 PUSH3 0x340 DUP7 DUP3 DUP8 ADD PUSH3 0x297 JUMP JUMPDEST SWAP3 POP POP PUSH1 0x40 PUSH3 0x353 DUP7 DUP3 DUP8 ADD PUSH3 0x2CF JUMP JUMPDEST SWAP2 POP POP SWAP3 POP SWAP3 POP SWAP3 JUMP JUMPDEST PUSH0 DUP2 MLOAD SWAP1 POP SWAP2 SWAP1 POP JUMP JUMPDEST PUSH32 0x4E487B7100000000000000000000000000000000000000000000000000000000 PUSH0 MSTORE PUSH1 0x22 PUSH1 0x4 MSTORE PUSH1 0x24 PUSH0 REVERT JUMPDEST PUSH0 PUSH1 0x2 DUP3 DIV SWAP1 POP PUSH1 0x1 DUP3 AND DUP1 PUSH3 0x3AC JUMPI PUSH1 0x7F DUP3 AND SWAP2 POP JUMPDEST PUSH1 0x20 DUP3 LT DUP2 SUB PUSH3 0x3C2 JUMPI PUSH3 0x3C1 PUSH3 0x367 JUMP JUMPDEST JUMPDEST POP SWAP2 SWAP1 POP JUMP JUMPDEST PUSH0 DUP2 SWAP1 POP DUP2 PUSH0 MSTORE PUSH1 0x20 PUSH0 KECCAK256 SWAP1 POP SWAP2 SWAP1 POP JUMP JUMPDEST PUSH0 PUSH1 0x20 PUSH1 0x1F DUP4 ADD DIV SWAP1 POP SWAP2 SWAP1 POP JUMP JUMPDEST PUSH0 DUP3 DUP3 SHL SWAP1 POP SWAP3 SWAP2 POP POP JUMP JUMPDEST PUSH0 PUSH1 0x8 DUP4 MUL PUSH3 0x426 PUSH32 0xFFFFFFFFFFFFFFFFFFFFFFFFFFFFFFFFFFFFFFFFFFFFFFFFFFFFFFFFFFFFFFFF DUP3 PUSH3 0x3E9 JUMP JUMPDEST PUSH3 0x432 DUP7 DUP4 PUSH3 0x3E9 JUMP JUMPDEST SWAP6 POP DUP1 NOT DUP5 AND SWAP4 POP DUP1 DUP7 AND DUP5 OR SWAP3 POP POP POP SWAP4 SWAP3 POP POP POP JUMP JUMPDEST PUSH0 DUP2 SWAP1 POP SWAP2 SWAP1 POP JUMP JUMPDEST PUSH0 PUSH3 0x473 PUSH3 0x46D PUSH3 0x467 DUP5 PUSH3 0x2AD JUMP JUMPDEST PUSH3 0x44A JUMP JUMPDEST PUSH3 0x2AD JUMP JUMPDEST SWAP1 POP SWAP2 SWAP1 POP JUMP JUMPDEST PUSH0 DUP2 SWAP1 POP SWAP2 SWAP1 POP JUMP JUMPDEST PUSH3 0x48E DUP4 PUSH3 0x453 JUMP JUMPDEST PUSH3 0x4A6 PUSH3 0x49D DUP3 PUSH3 0x47A JUMP JUMPDEST DUP5 DUP5 SLOAD PUSH3 0x3F5 JUMP JUMPDEST DUP3 SSTORE POP POP POP POP JUMP JUMPDEST PUSH0 SWAP1 JUMP JUMPDEST PUSH3 0x4BC PUSH3 0x4AE JUMP JUMPDEST PUSH3 0x4C9 DUP2 DUP5 DUP5 PUSH3 0x483 JUMP JUMPDEST POP POP POP JUMP JUMPDEST JUMPDEST DUP2 DUP2 LT ISZERO PUSH3 0x4F0 JUMPI PUSH3 0x4E4 PUSH0 DUP3 PUSH3 0x4B2 JUMP JUMPDEST PUSH1 0x1 DUP2 ADD SWAP1 POP PUSH3 0x4CF JUMP JUMPDEST POP POP JUMP JUMPDEST PUSH1 0x1F DUP3 GT ISZERO PUSH3 0x53F JUMPI PUSH3 0x509 DUP2 PUSH3 0x3C8 JUMP JUMPDEST PUSH3 0x514 DUP5 PUSH3 0x3DA JUMP JUMPDEST DUP2 ADD PUSH1 0x20 DUP6 LT ISZERO PUSH3 0x524 JUMPI DUP2 SWAP1 POP JUMPDEST PUSH3 0x53C PUSH3 0x533 DUP6 PUSH3 0x3DA JUMP JUMPDEST DUP4 ADD DUP3 PUSH3 0x4CE JUMP JUMPDEST POP POP JUMPDEST POP POP POP JUMP JUMPDEST PUSH0 DUP3 DUP3 SHR SWAP1 POP SWAP3 SWAP2 POP POP JUMP JUMPDEST PUSH0 PUSH3 0x561 PUSH0 NOT DUP5 PUSH1 0x8 MUL PUSH3 0x544 JUMP JUMPDEST NOT DUP1 DUP4 AND SWAP2 POP POP SWAP3 SWAP2 POP POP JUMP JUMPDEST PUSH0 PUSH3 0x57B DUP4 DUP4 PUSH3 0x550 JUMP JUMPDEST SWAP2 POP DUP3 PUSH1 0x2 MUL DUP3 OR SWAP1 POP SWAP3 SWAP2 POP POP JUMP JUMPDEST PUSH3 0x596 DUP3 PUSH3 0x35D JUMP JUMPDEST PUSH8 0xFFFFFFFFFFFFFFFF DUP2 GT ISZERO PUSH3 0x5B2 JUMPI PUSH3 0x5B1 PUSH3 0xF0 JUMP JUMPDEST JUMPDEST PUSH3 0x5BE DUP3 SLOAD PUSH3 0x394 JUMP JUMPDEST PUSH3 0x5CB DUP3 DUP3 DUP6 PUSH3 0x4F4 JUMP JUMPDEST PUSH0 PUSH1 0x20 SWAP1 POP PUSH1 0x1F DUP4 GT PUSH1 0x1 DUP2 EQ PUSH3 0x601 JUMPI PUSH0 DUP5 ISZERO PUSH3 0x5EC JUMPI DUP3 DUP8 ADD MLOAD SWAP1 POP JUMPDEST PUSH3 0x5F8 DUP6 DUP3 PUSH3 0x56E JUMP JUMPDEST DUP7 SSTORE POP PUSH3 0x667 JUMP JUMPDEST PUSH1 0x1F NOT DUP5 AND PUSH3 0x611 DUP7 PUSH3 0x3C8 JUMP JUMPDEST PUSH0 JUMPDEST DUP3 DUP2 LT ISZERO PUSH3 0x63A JUMPI DUP5 DUP10 ADD MLOAD DUP3 SSTORE PUSH1 0x1 DUP3 ADD SWAP2 POP PUSH1 0x20 DUP6 ADD SWAP5 POP PUSH1 0x20 DUP2 ADD SWAP1 POP PUSH3 0x613 JUMP JUMPDEST DUP7 DUP4 LT ISZERO PUSH3 0x65A JUMPI DUP5 DUP10 ADD MLOAD PUSH3 0x656 PUSH1 0x1F DUP10 AND DUP3 PUSH3 0x550 JUMP JUMPDEST DUP4 SSTORE POP JUMPDEST PUSH1 0x1 PUSH1 0x2 DUP9 MUL ADD DUP9 SSTORE POP POP POP JUMPDEST POP POP POP POP POP POP JUMP JUMPDEST PUSH32 0x4E487B7100000000000000000000000000000000000000000000000000000000 PUSH0 MSTORE PUSH1 0x21 PUSH1 0x4 MSTORE PUSH1 0x24 PUSH0 REVERT JUMPDEST PUSH2 0x980 DUP1 PUSH3 0x6AA PUSH0 CODECOPY PUSH0 RETURN INVALID PUSH1 0x80 PUSH1 0x40 MSTORE PUSH1 0x4 CALLDATASIZE LT PUSH2 0x54 JUMPI PUSH0 CALLDATALOAD PUSH1 0xE0 SHR DUP1 PUSH4 0x6FDDE03 EQ PUSH2 0x58 JUMPI DUP1 PUSH4 0x200D2ED2 EQ PUSH2 0x82 JUMPI DUP1 PUSH4 0x5AB7F1A8 EQ PUSH2 0xAC JUMPI DUP1 PUSH4 0xA8E4FB90 EQ PUSH2 0xD6 JUMPI DUP1 PUSH4 0xAA8C217C EQ PUSH2 0x100 JUMPI DUP1 PUSH4 0xED88C68E EQ PUSH2 0x12A JUMPI JUMPDEST PUSH0 DUP1 REVERT JUMPDEST CALLVALUE DUP1 ISZERO PUSH2 0x63 JUMPI PUSH0 DUP1 REVERT JUMPDEST POP PUSH2 0x6C PUSH2 0x134 JUMP JUMPDEST PUSH1 0x40 MLOAD PUSH2 0x79 SWAP2 SWAP1 PUSH2 0x4E8 JUMP JUMPDEST PUSH1 0x40 MLOAD DUP1 SWAP2 SUB SWAP1 RETURN JUMPDEST CALLVALUE DUP1 ISZERO PUSH2 0x8D JUMPI PUSH0 DUP1 REVERT JUMPDEST POP PUSH2 0x96 PUSH2 0x1BF JUMP JUMPDEST PUSH1 0x40 MLOAD PUSH2 0xA3 SWAP2 SWAP1 PUSH2 0x57B JUMP JUMPDEST PUSH1 0x40 MLOAD DUP1 SWAP2 SUB SWAP1 RETURN JUMPDEST CALLVALUE DUP1 ISZERO PUSH2 0xB7 JUMPI PUSH0 DUP1 REVERT JUMPDEST POP PUSH2 0xC0 PUSH2 0x1D1 JUMP JUMPDEST PUSH1 0x40 MLOAD PUSH2 0xCD SWAP2 SWAP1 PUSH2 0x5AC JUMP JUMPDEST PUSH1 0x40 MLOAD DUP1 SWAP2 SUB SWAP1 RETURN JUMPDEST CALLVALUE DUP1 ISZERO PUSH2 0xE1 JUMPI PUSH0 DUP1 REVERT JUMPDEST POP PUSH2 0xEA PUSH2 0x1D7 JUMP JUMPDEST PUSH1 0x40 MLOAD PUSH2 0xF7 SWAP2 SWAP1 PUSH2 0x604 JUMP JUMPDEST PUSH1 0x40 MLOAD DUP1 SWAP2 SUB SWAP1 RETURN JUMPDEST CALLVALUE DUP1 ISZERO PUSH2 0x10B JUMPI PUSH0 DUP1 REVERT JUMPDEST POP PUSH2 0x114 PUSH2 0x1FC JUMP JUMPDEST PUSH1 0x40 MLOAD PUSH2 0x121 SWAP2 SWAP1 PUSH2 0x5AC JUMP JUMPDEST PUSH1 0x40 MLOAD DUP1 SWAP2 SUB SWAP1 RETURN JUMPDEST PUSH2 0x132 PUSH2 0x202 JUMP JUMPDEST STOP JUMPDEST PUSH0 DUP1 SLOAD PUSH2 0x140 SWAP1 PUSH2 0x64A JUMP JUMPDEST DUP1 PUSH1 0x1F ADD PUSH1 0x20 DUP1 SWAP2 DIV MUL PUSH1 0x20 ADD PUSH1 0x40 MLOAD SWAP1 DUP2 ADD PUSH1 0x40 MSTORE DUP1 SWAP3 SWAP2 SWAP1 DUP2 DUP2 MSTORE PUSH1 0x20 ADD DUP3 DUP1 SLOAD PUSH2 0x16C SWAP1 PUSH2 0x64A JUMP JUMPDEST DUP1 ISZERO PUSH2 0x1B7 JUMPI DUP1 PUSH1 0x1F LT PUSH2 0x18E JUMPI PUSH2 0x100 DUP1 DUP4 SLOAD DIV MUL DUP4 MSTORE SWAP2 PUSH1 0x20 ADD SWAP2 PUSH2 0x1B7 JUMP JUMPDEST DUP3 ADD SWAP2 SWAP1 PUSH0 MSTORE PUSH1 0x20 PUSH0 KECCAK256 SWAP1 JUMPDEST DUP2 SLOAD DUP2 MSTORE SWAP1 PUSH1 0x1 ADD SWAP1 PUSH1 0x20 ADD DUP1 DUP4 GT PUSH2 0x19A JUMPI DUP3 SWAP1 SUB PUSH1 0x1F AND DUP3 ADD SWAP2 JUMPDEST POP POP POP POP POP DUP2 JUMP JUMPDEST PUSH1 0x4 PUSH0 SWAP1 SLOAD SWAP1 PUSH2 0x100 EXP SWAP1 DIV PUSH1 0xFF AND DUP2 JUMP JUMPDEST PUSH1 0x3 SLOAD DUP2 JUMP JUMPDEST PUSH1 0x1 PUSH0 SWAP1 SLOAD SWAP1 PUSH2 0x100 EXP SWAP1 DIV PUSH20 0xFFFFFFFFFFFFFFFFFFFFFFFFFFFFFFFFFFFFFFFF AND DUP2 JUMP JUMPDEST PUSH1 0x2 SLOAD DUP2 JUMP JUMPDEST PUSH1 0x2 DUP1 DUP2 GT ISZERO PUSH2 0x215 JUMPI PUSH2 0x214 PUSH2 0x508 JUMP JUMPDEST JUMPDEST PUSH1 0x4 PUSH0 SWAP1 SLOAD SWAP1 PUSH2 0x100 EXP SWAP1 DIV PUSH1 0xFF AND PUSH1 0x2 DUP2 GT ISZERO PUSH2 0x236 JUMPI PUSH2 0x235 PUSH2 0x508 JUMP JUMPDEST JUMPDEST SUB PUSH2 0x276 JUMPI PUSH1 0x40 MLOAD PUSH32 0x8C379A000000000000000000000000000000000000000000000000000000000 DUP2 MSTORE PUSH1 0x4 ADD PUSH2 0x26D SWAP1 PUSH2 0x6C4 JUMP JUMPDEST PUSH1 0x40 MLOAD DUP1 SWAP2 SUB SWAP1 REVERT JUMPDEST PUSH1 0x1 PUSH1 0x2 DUP2 GT ISZERO PUSH2 0x28A JUMPI PUSH2 0x289 PUSH2 0x508 JUMP JUMPDEST JUMPDEST PUSH1 0x4 PUSH0 SWAP1 SLOAD SWAP1 PUSH2 0x100 EXP SWAP1 DIV PUSH1 0xFF AND PUSH1 0x2 DUP2 GT ISZERO PUSH2 0x2AB JUMPI PUSH2 0x2AA PUSH2 0x508 JUMP JUMPDEST JUMPDEST SUB PUSH2 0x2EB JUMPI PUSH1 0x40 MLOAD PUSH32 0x8C379A000000000000000000000000000000000000000000000000000000000 DUP2 MSTORE PUSH1 0x4 ADD PUSH2 0x2E2 SWAP1 PUSH2 0x72C JUMP JUMPDEST PUSH1 0x40 MLOAD DUP1 SWAP2 SUB SWAP1 REVERT JUMPDEST PUSH0 CALLVALUE GT PUSH2 0x32D JUMPI PUSH1 0x40 MLOAD PUSH32 0x8C379A000000000000000000000000000000000000000000000000000000000 DUP2 MSTORE PUSH1 0x4 ADD PUSH2 0x324 SWAP1 PUSH2 0x7BA JUMP JUMPDEST PUSH1 0x40 MLOAD DUP1 SWAP2 SUB SWAP1 REVERT JUMPDEST PUSH0 PUSH1 0x1 PUSH0 SWAP1 SLOAD SWAP1 PUSH2 0x100 EXP SWAP1 DIV PUSH20 0xFFFFFFFFFFFFFFFFFFFFFFFFFFFFFFFFFFFFFFFF AND PUSH20 0xFFFFFFFFFFFFFFFFFFFFFFFFFFFFFFFFFFFFFFFF AND PUSH2 0x8FC CALLVALUE SWAP1 DUP2 ISZERO MUL SWAP1 PUSH1 0x40 MLOAD PUSH0 PUSH1 0x40 MLOAD DUP1 DUP4 SUB DUP2 DUP6 DUP9 DUP9 CALL SWAP4 POP POP POP POP SWAP1 POP DUP1 PUSH2 0x3C5 JUMPI PUSH1 0x40 MLOAD PUSH32 0x8C379A000000000000000000000000000000000000000000000000000000000 DUP2 MSTORE PUSH1 0x4 ADD PUSH2 0x3BC SWAP1 PUSH2 0x848 JUMP JUMPDEST PUSH1 0x40 MLOAD DUP1 SWAP2 SUB SWAP1 REVERT JUMPDEST PUSH8 0xDE0B6B3A7640000 CALLVALUE PUSH2 0x3D9 SWAP2 SWAP1 PUSH2 0x8C0 JUMP JUMPDEST PUSH1 0x3 SLOAD PUSH2 0x3E6 SWAP2 SWAP1 PUSH2 0x8F0 JUMP JUMPDEST PUSH1 0x3 DUP2 SWAP1 SSTORE POP PUSH1 0x2 SLOAD PUSH1 0x3 SLOAD LT PUSH2 0x422 JUMPI PUSH1 0x1 PUSH1 0x4 PUSH0 PUSH2 0x100 EXP DUP2 SLOAD DUP2 PUSH1 0xFF MUL NOT AND SWAP1 DUP4 PUSH1 0x2 DUP2 GT ISZERO PUSH2 0x41C JUMPI PUSH2 0x41B PUSH2 0x508 JUMP JUMPDEST JUMPDEST MUL OR SWAP1 SSTORE POP JUMPDEST PUSH32 0x4A738E144FCEBC2A2453DDE8472C2FE125988D7508D635D71A45886EFCF50006 CALLER CALLVALUE PUSH1 0x40 MLOAD PUSH2 0x453 SWAP3 SWAP2 SWAP1 PUSH2 0x923 JUMP JUMPDEST PUSH1 0x40 MLOAD DUP1 SWAP2 SUB SWAP1 LOG1 POP JUMP JUMPDEST PUSH0 DUP2 MLOAD SWAP1 POP SWAP2 SWAP1 POP JUMP JUMPDEST PUSH0 DUP3 DUP3 MSTORE PUSH1 0x20 DUP3 ADD SWAP1 POP SWAP3 SWAP2 POP POP JUMP JUMPDEST PUSH0 JUMPDEST DUP4 DUP2 LT ISZERO PUSH2 0x495 JUMPI DUP1 DUP3 ADD MLOAD DUP2 DUP5 ADD MSTORE PUSH1 0x20 DUP2 ADD SWAP1 POP PUSH2 0x47A JUMP JUMPDEST PUSH0 DUP5 DUP5 ADD MSTORE POP POP POP POP JUMP JUMPDEST PUSH0 PUSH1 0x1F NOT PUSH1 0x1F DUP4 ADD AND SWAP1 POP SWAP2 SWAP1 POP JUMP JUMPDEST PUSH0 PUSH2 0x4BA DUP3 PUSH2 0x45E JUMP JUMPDEST PUSH2 0x4C4 DUP2 DUP6 PUSH2 0x468 JUMP JUMPDEST SWAP4 POP PUSH2 0x4D4 DUP2 DUP6 PUSH1 0x20 DUP7 ADD PUSH2 0x478 JUMP JUMPDEST PUSH2 0x4DD DUP2 PUSH2 0x4A0 JUMP JUMPDEST DUP5 ADD SWAP2 POP POP SWAP3 SWAP2 POP POP JUMP JUMPDEST PUSH0 PUSH1 0x20 DUP3 ADD SWAP1 POP DUP2 DUP2 SUB PUSH0 DUP4 ADD MSTORE PUSH2 0x500 DUP2 DUP5 PUSH2 0x4B0 JUMP JUMPDEST SWAP1 POP SWAP3 SWAP2 POP POP JUMP JUMPDEST PUSH32 0x4E487B7100000000000000000000000000000000000000000000000000000000 PUSH0 MSTORE PUSH1 0x21 PUSH1 0x4 MSTORE PUSH1 0x24 PUSH0 REVERT JUMPDEST PUSH1 0x3 DUP2 LT PUSH2 0x546 JUMPI PUSH2 0x545 PUSH2 0x508 JUMP JUMPDEST JUMPDEST POP JUMP JUMPDEST PUSH0 DUP2 SWAP1 POP PUSH2 0x556 DUP3 PUSH2 0x535 JUMP JUMPDEST SWAP2 SWAP1 POP JUMP JUMPDEST PUSH0 PUSH2 0x565 DUP3 PUSH2 0x549 JUMP JUMPDEST SWAP1 POP SWAP2 SWAP1 POP JUMP JUMPDEST PUSH2 0x575 DUP2 PUSH2 0x55B JUMP JUMPDEST DUP3 MSTORE POP POP JUMP JUMPDEST PUSH0 PUSH1 0x20 DUP3 ADD SWAP1 POP PUSH2 0x58E PUSH0 DUP4 ADD DUP5 PUSH2 0x56C JUMP JUMPDEST SWAP3 SWAP2 POP POP JUMP JUMPDEST PUSH0 DUP2 SWAP1 POP SWAP2 SWAP1 POP JUMP JUMPDEST PUSH2 0x5A6 DUP2 PUSH2 0x594 JUMP JUMPDEST DUP3 MSTORE POP POP JUMP JUMPDEST PUSH0 PUSH1 0x20 DUP3 ADD SWAP1 POP PUSH2 0x5BF PUSH0 DUP4 ADD DUP5 PUSH2 0x59D JUMP JUMPDEST SWAP3 SWAP2 POP POP JUMP JUMPDEST PUSH0 PUSH20 0xFFFFFFFFFFFFFFFFFFFFFFFFFFFFFFFFFFFFFFFF DUP3 AND SWAP1 POP SWAP2 SWAP1 POP JUMP JUMPDEST PUSH0 PUSH2 0x5EE DUP3 PUSH2 0x5C5 JUMP JUMPDEST SWAP1 POP SWAP2 SWAP1 POP JUMP JUMPDEST PUSH2 0x5FE DUP2 PUSH2 0x5E4 JUMP JUMPDEST DUP3 MSTORE POP POP JUMP JUMPDEST PUSH0 PUSH1 0x20 DUP3 ADD SWAP1 POP PUSH2 0x617 PUSH0 DUP4 ADD DUP5 PUSH2 0x5F5 JUMP JUMPDEST SWAP3 SWAP2 POP POP JUMP JUMPDEST PUSH32 0x4E487B7100000000000000000000000000000000000000000000000000000000 PUSH0 MSTORE PUSH1 0x22 PUSH1 0x4 MSTORE PUSH1 0x24 PUSH0 REVERT JUMPDEST PUSH0 PUSH1 0x2 DUP3 DIV SWAP1 POP PUSH1 0x1 DUP3 AND DUP1 PUSH2 0x661 JUMPI PUSH1 0x7F DUP3 AND SWAP2 POP JUMPDEST PUSH1 0x20 DUP3 LT DUP2 SUB PUSH2 0x674 JUMPI PUSH2 0x673 PUSH2 0x61D JUMP JUMPDEST JUMPDEST POP SWAP2 SWAP1 POP JUMP JUMPDEST PUSH32 0x43616D706169676E20697320636C6F7365640000000000000000000000000000 PUSH0 DUP3 ADD MSTORE POP JUMP JUMPDEST PUSH0 PUSH2 0x6AE PUSH1 0x12 DUP4 PUSH2 0x468 JUMP JUMPDEST SWAP2 POP PUSH2 0x6B9 DUP3 PUSH2 0x67A JUMP JUMPDEST PUSH1 0x20 DUP3 ADD SWAP1 POP SWAP2 SWAP1 POP JUMP JUMPDEST PUSH0 PUSH1 0x20 DUP3 ADD SWAP1 POP DUP2 DUP2 SUB PUSH0 DUP4 ADD MSTORE PUSH2 0x6DB DUP2 PUSH2 0x6A2 JUMP JUMPDEST SWAP1 POP SWAP2 SWAP1 POP JUMP JUMPDEST PUSH32 0x43616D706169676E20697320616C72656164792066696C6C6564000000000000 PUSH0 DUP3 ADD MSTORE POP JUMP JUMPDEST PUSH0 PUSH2 0x716 PUSH1 0x1A DUP4 PUSH2 0x468 JUMP JUMPDEST SWAP2 POP PUSH2 0x721 DUP3 PUSH2 0x6E2 JUMP JUMPDEST PUSH1 0x20 DUP3 ADD SWAP1 POP SWAP2 SWAP1 POP JUMP JUMPDEST PUSH0 PUSH1 0x20 DUP3 ADD SWAP1 POP DUP2 DUP2 SUB PUSH0 DUP4 ADD MSTORE PUSH2 0x743 DUP2 PUSH2 0x70A JUMP JUMPDEST SWAP1 POP SWAP2 SWAP1 POP JUMP JUMPDEST PUSH32 0x53656E742076616C7565206D7573742062652067726561746572207468616E20 PUSH0 DUP3 ADD MSTORE PUSH32 0x3000000000000000000000000000000000000000000000000000000000000000 PUSH1 0x20 DUP3 ADD MSTORE POP JUMP JUMPDEST PUSH0 PUSH2 0x7A4 PUSH1 0x21 DUP4 PUSH2 0x468 JUMP JUMPDEST SWAP2 POP PUSH2 0x7AF DUP3 PUSH2 0x74A JUMP JUMPDEST PUSH1 0x40 DUP3 ADD SWAP1 POP SWAP2 SWAP1 POP JUMP JUMPDEST PUSH0 PUSH1 0x20 DUP3 ADD SWAP1 POP DUP2 DUP2 SUB PUSH0 DUP4 ADD MSTORE PUSH2 0x7D1 DUP2 PUSH2 0x798 JUMP JUMPDEST SWAP1 POP SWAP2 SWAP1 POP JUMP JUMPDEST PUSH32 0x54686520616D6F756E74206973206E6F7420646F6E6174656420746F20746865 PUSH0 DUP3 ADD MSTORE PUSH32 0x2063616D706169676E0000000000000000000000000000000000000000000000 PUSH1 0x20 DUP3 ADD MSTORE POP JUMP JUMPDEST PUSH0 PUSH2 0x832 PUSH1 0x29 DUP4 PUSH2 0x468 JUMP JUMPDEST SWAP2 POP PUSH2 0x83D DUP3 PUSH2 0x7D8 JUMP JUMPDEST PUSH1 0x40 DUP3 ADD SWAP1 POP SWAP2 SWAP1 POP JUMP JUMPDEST PUSH0 PUSH1 0x20 DUP3 ADD SWAP1 POP DUP2 DUP2 SUB PUSH0 DUP4 ADD MSTORE PUSH2 0x85F DUP2 PUSH2 0x826 JUMP JUMPDEST SWAP1 POP SWAP2 SWAP1 POP JUMP JUMPDEST PUSH32 0x4E487B7100000000000000000000000000000000000000000000000000000000 PUSH0 MSTORE PUSH1 0x12 PUSH1 0x4 MSTORE PUSH1 0x24 PUSH0 REVERT JUMPDEST PUSH32 0x4E487B7100000000000000000000000000000000000000000000000000000000 PUSH0 MSTORE PUSH1 0x11 PUSH1 0x4 MSTORE PUSH1 0x24 PUSH0 REVERT JUMPDEST PUSH0 PUSH2 0x8CA DUP3 PUSH2 0x594 JUMP JUMPDEST SWAP2 POP PUSH2 0x8D5 DUP4 PUSH2 0x594 JUMP JUMPDEST SWAP3 POP DUP3 PUSH2 0x8E5 JUMPI PUSH2 0x8E4 PUSH2 0x866 JUMP JUMPDEST JUMPDEST DUP3 DUP3 DIV SWAP1 POP SWAP3 SWAP2 POP POP JUMP JUMPDEST PUSH0 PUSH2 0x8FA DUP3 PUSH2 0x594 JUMP JUMPDEST SWAP2 POP PUSH2 0x905 DUP4 PUSH2 0x594 JUMP JUMPDEST SWAP3 POP DUP3 DUP3 ADD SWAP1 POP DUP1 DUP3 GT ISZERO PUSH2 0x91D JUMPI PUSH2 0x91C PUSH2 0x893 JUMP JUMPDEST JUMPDEST SWAP3 SWAP2 POP POP JUMP JUMPDEST PUSH0 PUSH1 0x40 DUP3 ADD SWAP1 POP PUSH2 0x936 PUSH0 DUP4 ADD DUP6 PUSH2 0x5F5 JUMP JUMPDEST PUSH2 0x943 PUSH1 0x20 DUP4 ADD DUP5 PUSH2 0x59D JUMP JUMPDEST SWAP4 SWAP3 POP POP POP JUMP INVALID LOG2 PUSH5 0x6970667358 0x22 SLT KECCAK256 SWAP13 PUSH8 0x5AF5B2AE6B3D0163 0xAA DELEGATECALL XOR 0x2D CODECOPY PUSH16 0x54C147BC8E766FDB5449255026365EEB PUSH5 0x736F6C6343 STOP ADDMOD AND STOP CALLER LOG2 PUSH5 0x6970667358 0x22 SLT KECCAK256 PUSH10 0xB75BA62A2A7580E5D762 0xA9 0xAF 0xE7 0xAA PUSH16 0x56C1568DC23A4B255529111EE97E6C54 PUSH5 0x736F6C6343 STOP ADDMOD AND STOP CALLER "
				},
				"gasEstimates": {
					"creation": {
						"codeDepositCost": "2700400",
						"executionCost": "61512",
						"totalCost": "2761912"
					},
					"external": {
						"addMember(address)": "infinite",
						"campaigns(uint256)": "infinite",
						"createCampaignProposal(string,uint256)": "infinite",
						"createRequestProposal(string,uint256)": "infinite",
						"isDaoMember(address)": "infinite",
						"members(uint256)": "4943",
						"proposals(uint256)": "infinite",
						"removeMember(address)": "infinite",
						"sendMoneyToContract()": "489",
						"totalCampaigns()": "2477",
						"totalProposals()": "2498",
						"vote(uint256)": "infinite"
					}
				},
				"methodIdentifiers": {
					"addMember(address)": "ca6d56dc",
					"campaigns(uint256)": "141961bc",
					"createCampaignProposal(string,uint256)": "774b1f54",
					"createRequestProposal(string,uint256)": "ac5c706c",
					"isDaoMember(address)": "1c67211d",
					"members(uint256)": "5daf08ca",
					"proposals(uint256)": "013cf08b",
					"removeMember(address)": "0b1ca49a",
					"sendMoneyToContract()": "8aecbc51",
					"totalCampaigns()": "02932f56",
					"totalProposals()": "a78d80fc",
					"vote(uint256)": "0121b93f"
				}
			},
			"storageLayout": {
				"storage": [
					{
						"astId": 158,
						"contract": "src/contract/karna.sol:Karna",
						"label": "members",
						"offset": 0,
						"slot": "0",
						"type": "t_array(t_address)dyn_storage"
					},
					{
						"astId": 163,
						"contract": "src/contract/karna.sol:Karna",
						"label": "proposals",
						"offset": 0,
						"slot": "1",
						"type": "t_mapping(t_uint256,t_struct(Proposal)155_storage)"
					},
					{
						"astId": 166,
						"contract": "src/contract/karna.sol:Karna",
						"label": "proposalCount",
						"offset": 0,
						"slot": "2",
						"type": "t_uint256"
					},
					{
						"astId": 171,
						"contract": "src/contract/karna.sol:Karna",
						"label": "campaigns",
						"offset": 0,
						"slot": "3",
						"type": "t_mapping(t_uint256,t_contract(Campaign)137)"
					},
					{
						"astId": 174,
						"contract": "src/contract/karna.sol:Karna",
						"label": "campaignCount",
						"offset": 0,
						"slot": "4",
						"type": "t_uint256"
					}
				],
				"types": {
					"t_address": {
						"encoding": "inplace",
						"label": "address",
						"numberOfBytes": "20"
					},
					"t_array(t_address)dyn_storage": {
						"base": "t_address",
						"encoding": "dynamic_array",
						"label": "address[]",
						"numberOfBytes": "32"
					},
					"t_bool": {
						"encoding": "inplace",
						"label": "bool",
						"numberOfBytes": "1"
					},
					"t_contract(Campaign)137": {
						"encoding": "inplace",
						"label": "contract Campaign",
						"numberOfBytes": "20"
					},
					"t_enum(ProposalType)140": {
						"encoding": "inplace",
						"label": "enum Karna.ProposalType",
						"numberOfBytes": "1"
					},
					"t_mapping(t_uint256,t_contract(Campaign)137)": {
						"encoding": "mapping",
						"key": "t_uint256",
						"label": "mapping(uint256 => contract Campaign)",
						"numberOfBytes": "32",
						"value": "t_contract(Campaign)137"
					},
					"t_mapping(t_uint256,t_struct(Proposal)155_storage)": {
						"encoding": "mapping",
						"key": "t_uint256",
						"label": "mapping(uint256 => struct Karna.Proposal)",
						"numberOfBytes": "32",
						"value": "t_struct(Proposal)155_storage"
					},
					"t_string_storage": {
						"encoding": "bytes",
						"label": "string",
						"numberOfBytes": "32"
					},
					"t_struct(Proposal)155_storage": {
						"encoding": "inplace",
						"label": "struct Karna.Proposal",
						"members": [
							{
								"astId": 142,
								"contract": "src/contract/karna.sol:Karna",
								"label": "name",
								"offset": 0,
								"slot": "0",
								"type": "t_string_storage"
							},
							{
								"astId": 144,
								"contract": "src/contract/karna.sol:Karna",
								"label": "proposer",
								"offset": 0,
								"slot": "1",
								"type": "t_address"
							},
							{
								"astId": 146,
								"contract": "src/contract/karna.sol:Karna",
								"label": "amount",
								"offset": 0,
								"slot": "2",
								"type": "t_uint256"
							},
							{
								"astId": 149,
								"contract": "src/contract/karna.sol:Karna",
								"label": "voters",
								"offset": 0,
								"slot": "3",
								"type": "t_array(t_address)dyn_storage"
							},
							{
								"astId": 151,
								"contract": "src/contract/karna.sol:Karna",
								"label": "executed",
								"offset": 0,
								"slot": "4",
								"type": "t_bool"
							},
							{
								"astId": 154,
								"contract": "src/contract/karna.sol:Karna",
								"label": "proposalType",
								"offset": 1,
								"slot": "4",
								"type": "t_enum(ProposalType)140"
							}
						],
						"numberOfBytes": "160"
					},
					"t_uint256": {
						"encoding": "inplace",
						"label": "uint256",
						"numberOfBytes": "32"
					}
				}
			},
			"userdoc": {
				"kind": "user",
				"methods": {},
				"version": 1
			}
		}
	}
}